{"abi":[{"type":"constructor","inputs":[],"stateMutability":"nonpayable"},{"type":"function","name":"createQuery","inputs":[{"name":"surveyId","type":"uint256","internalType":"uint256"},{"name":"params","type":"tuple[][]","internalType":"struct Filter[][]","components":[{"name":"verifier","type":"uint8","internalType":"enum VerifierType"},{"name":"value","type":"bytes","internalType":"bytes"}]}],"outputs":[{"name":"","type":"uint256","internalType":"uint256"}],"stateMutability":"nonpayable"},{"type":"function","name":"createSurvey","inputs":[{"name":"params","type":"tuple","internalType":"struct SurveyParams","components":[{"name":"surveyPrompt","type":"string","internalType":"string"},{"name":"surveyType","type":"uint8","internalType":"enum SurveyType"},{"name":"isWhitelisted","type":"bool","internalType":"bool"},{"name":"whitelistRootHash","type":"bytes32","internalType":"bytes32"},{"name":"surveyEndTime","type":"uint256","internalType":"uint256"},{"name":"minResponseThreshold","type":"uint256","internalType":"uint256"},{"name":"metadataTypes","type":"uint8[]","internalType":"enum MetadataType[]"},{"name":"constraints","type":"tuple[][]","internalType":"struct Filter[][]","components":[{"name":"verifier","type":"uint8","internalType":"enum VerifierType"},{"name":"value","type":"bytes","internalType":"bytes"}]}]}],"outputs":[{"name":"","type":"uint256","internalType":"uint256"}],"stateMutability":"nonpayable"},{"type":"function","name":"executeQuery","inputs":[{"name":"queryId","type":"uint256","internalType":"uint256"},{"name":"limit","type":"uint256","internalType":"uint256"}],"outputs":[],"stateMutability":"nonpayable"},{"type":"function","name":"executeQuery","inputs":[{"name":"queryId","type":"uint256","internalType":"uint256"}],"outputs":[],"stateMutability":"nonpayable"},{"type":"function","name":"gatewayConfirmUserEntry","inputs":[{"name":"requestId","type":"uint256","internalType":"uint256"},{"name":"isValid","type":"bool","internalType":"bool"}],"outputs":[],"stateMutability":"nonpayable"},{"type":"function","name":"gatewayDecryptQueryResult","inputs":[{"name":"requestId","type":"uint256","internalType":"uint256"},{"name":"_finalSelectedCount","type":"uint256","internalType":"uint256"},{"name":"_finalResult","type":"uint256","internalType":"uint256"}],"outputs":[],"stateMutability":"nonpayable"},{"type":"function","name":"gatewayDecryptSurveyResult","inputs":[{"name":"requestId","type":"uint256","internalType":"uint256"},{"name":"result","type":"uint256","internalType":"uint256"}],"outputs":[],"stateMutability":"nonpayable"},{"type":"function","name":"getQueryData","inputs":[{"name":"queryId","type":"uint256","internalType":"uint256"}],"outputs":[{"name":"","type":"tuple","internalType":"struct QueryData","components":[{"name":"surveyId","type":"uint256","internalType":"uint256"},{"name":"filters","type":"tuple[][]","internalType":"struct Filter[][]","components":[{"name":"verifier","type":"uint8","internalType":"enum VerifierType"},{"name":"value","type":"bytes","internalType":"bytes"}]},{"name":"pendingEncryptedResult","type":"uint256","internalType":"euint256"},{"name":"pendingSelectedNumber","type":"uint256","internalType":"euint256"},{"name":"cursor","type":"uint256","internalType":"uint256"},{"name":"isCompleted","type":"bool","internalType":"bool"},{"name":"isValid","type":"bool","internalType":"bool"},{"name":"finalSelectedCount","type":"uint256","internalType":"uint256"},{"name":"finalResult","type":"uint256","internalType":"uint256"}]}],"stateMutability":"view"},{"type":"function","name":"hasVoted","inputs":[{"name":"","type":"uint256","internalType":"uint256"},{"name":"","type":"address","internalType":"address"}],"outputs":[{"name":"","type":"bool","internalType":"bool"}],"stateMutability":"view"},{"type":"function","name":"queryData","inputs":[{"name":"","type":"uint256","internalType":"uint256"}],"outputs":[{"name":"surveyId","type":"uint256","internalType":"uint256"},{"name":"pendingEncryptedResult","type":"uint256","internalType":"euint256"},{"name":"pendingSelectedNumber","type":"uint256","internalType":"euint256"},{"name":"cursor","type":"uint256","internalType":"uint256"},{"name":"isCompleted","type":"bool","internalType":"bool"},{"name":"isValid","type":"bool","internalType":"bool"},{"name":"finalSelectedCount","type":"uint256","internalType":"uint256"},{"name":"finalResult","type":"uint256","internalType":"uint256"}],"stateMutability":"view"},{"type":"function","name":"revealResults","inputs":[{"name":"surveyId","type":"uint256","internalType":"uint256"}],"outputs":[],"stateMutability":"nonpayable"},{"type":"function","name":"submitEntry","inputs":[{"name":"surveyId","type":"uint256","internalType":"uint256"},{"name":"eInputVote","type":"bytes32","internalType":"einput"},{"name":"metadata","type":"bytes32[]","internalType":"einput[]"},{"name":"inputProof","type":"bytes","internalType":"bytes"}],"outputs":[],"stateMutability":"nonpayable"},{"type":"function","name":"submitWhitelistedEntry","inputs":[{"name":"surveyId","type":"uint256","internalType":"uint256"},{"name":"eInputVote","type":"bytes32","internalType":"einput"},{"name":"metadata","type":"bytes32[]","internalType":"einput[]"},{"name":"inputProof","type":"bytes","internalType":"bytes"},{"name":"whitelistProof","type":"bytes32[]","internalType":"bytes32[]"}],"outputs":[],"stateMutability":"nonpayable"},{"type":"function","name":"surveyData","inputs":[{"name":"surveyId","type":"uint256","internalType":"uint256"}],"outputs":[{"name":"","type":"tuple","internalType":"struct SurveyData","components":[{"name":"currentParticipants","type":"uint256","internalType":"uint256"},{"name":"encryptedResponses","type":"uint256","internalType":"euint256"},{"name":"finalResult","type":"uint256","internalType":"uint256"},{"name":"isCompleted","type":"bool","internalType":"bool"},{"name":"isValid","type":"bool","internalType":"bool"}]}],"stateMutability":"view"},{"type":"function","name":"surveyParams","inputs":[{"name":"surveyId","type":"uint256","internalType":"uint256"}],"outputs":[{"name":"","type":"tuple","internalType":"struct SurveyParams","components":[{"name":"surveyPrompt","type":"string","internalType":"string"},{"name":"surveyType","type":"uint8","internalType":"enum SurveyType"},{"name":"isWhitelisted","type":"bool","internalType":"bool"},{"name":"whitelistRootHash","type":"bytes32","internalType":"bytes32"},{"name":"surveyEndTime","type":"uint256","internalType":"uint256"},{"name":"minResponseThreshold","type":"uint256","internalType":"uint256"},{"name":"metadataTypes","type":"uint8[]","internalType":"enum MetadataType[]"},{"name":"constraints","type":"tuple[][]","internalType":"struct Filter[][]","components":[{"name":"verifier","type":"uint8","internalType":"enum VerifierType"},{"name":"value","type":"bytes","internalType":"bytes"}]}]}],"stateMutability":"view"},{"type":"event","name":"ConfirmUserEntry","inputs":[{"name":"surveyId","type":"uint256","indexed":true,"internalType":"uint256"},{"name":"user","type":"address","indexed":true,"internalType":"address"},{"name":"isValid","type":"bool","indexed":false,"internalType":"bool"}],"anonymous":false},{"type":"event","name":"EntrySubmitted","inputs":[{"name":"surveyId","type":"uint256","indexed":true,"internalType":"uint256"},{"name":"user","type":"address","indexed":false,"internalType":"address"}],"anonymous":false},{"type":"event","name":"QueryCompleted","inputs":[{"name":"queryId","type":"uint256","indexed":true,"internalType":"uint256"},{"name":"surveyId","type":"uint256","indexed":true,"internalType":"uint256"},{"name":"isValid","type":"bool","indexed":false,"internalType":"bool"},{"name":"finalSelectedCount","type":"uint256","indexed":false,"internalType":"uint256"},{"name":"finalResult","type":"uint256","indexed":false,"internalType":"uint256"}],"anonymous":false},{"type":"event","name":"QueryCreated","inputs":[{"name":"queryId","type":"uint256","indexed":true,"internalType":"uint256"},{"name":"surveyId","type":"uint256","indexed":true,"internalType":"uint256"},{"name":"analyser","type":"address","indexed":false,"internalType":"address"}],"anonymous":false},{"type":"event","name":"SurveyCompleted","inputs":[{"name":"surveyId","type":"uint256","indexed":true,"internalType":"uint256"},{"name":"isValid","type":"bool","indexed":false,"internalType":"bool"},{"name":"surveyType","type":"uint8","indexed":false,"internalType":"enum SurveyType"},{"name":"numberOfVotes","type":"uint256","indexed":false,"internalType":"uint256"},{"name":"response","type":"uint256","indexed":false,"internalType":"uint256"}],"anonymous":false},{"type":"event","name":"SurveyCreated","inputs":[{"name":"surveyId","type":"uint256","indexed":true,"internalType":"uint256"},{"name":"organizer","type":"address","indexed":false,"internalType":"address"},{"name":"surveyType","type":"uint8","indexed":false,"internalType":"enum SurveyType"},{"name":"surveyPrompt","type":"string","indexed":false,"internalType":"string"}],"anonymous":false},{"type":"error","name":"AlreadyCompletedQuery","inputs":[]},{"type":"error","name":"FinishedSurvey","inputs":[]},{"type":"error","name":"InvalidMerkleProof","inputs":[]},{"type":"error","name":"InvalidQueryId","inputs":[]},{"type":"error","name":"InvalidSurvey","inputs":[]},{"type":"error","name":"InvalidSurveyId","inputs":[]},{"type":"error","name":"InvalidSurveyParameter","inputs":[{"name":"field","type":"string","internalType":"string"}]},{"type":"error","name":"InvalidUserMetadata","inputs":[]},{"type":"error","name":"ResultAlreadyReveal","inputs":[]},{"type":"error","name":"UnauthorizePendingQuery","inputs":[]},{"type":"error","name":"UnfinishedSurvey","inputs":[]},{"type":"error","name":"UserAlreadyVoted","inputs":[]}],"bytecode":{"object":"0x60806040523461021f5760006060610015610224565b8281528260208201528260408201520152739d6891a6240d6130c54ae243d8005063d05fe14b6060610045610224565b73fee8407e2f5e3ee68ad77cae98c434e637f516e580825273687408ab54661ba0b4aef3a44156c616c6955e076020830181905273fb03be574d14c256d56f09a198b586bdfc0a9de2604080850182905294909301949094527fed8d60e34876f751cc8b014c560745351147d9de11b9347c854e881b128ea60080546001600160a01b031990811690921790557fed8d60e34876f751cc8b014c560745351147d9de11b9347c854e881b128ea601805482169094179093557fed8d60e34876f751cc8b014c560745351147d9de11b9347c854e881b128ea6028054841690911790557fed8d60e34876f751cc8b014c560745351147d9de11b9347c854e881b128ea60380548316739d6891a6240d6130c54ae243d8005063d05fe14b1790557f93ab6e17f2c461cce6ea5d4ec117e51dda77a64affc2b2c05f8cd440def0e70080549092167333347831500f1e73f0cccbb95c9f86b94d7b112317909155516109e78082016001600160401b03811183821017610209578291614d5d833903906000f080156101fd57601380546001600160a01b0319166001600160a01b0392909216919091179055604051614b1990816102448239f35b6040513d6000823e3d90fd5b634e487b7160e01b600052604160045260246000fd5b600080fd5b60405190608082016001600160401b038111838210176102095760405256fe60a0604052600436101561001257600080fd5b60006080526080513560e01c8062653e90146125c8578062bcd6d5146125035780631bc5e6101461240757806321acc8ea1461233857806333ce9e29146122be5780634279ef3b1461223c57806343859632146121e25780635600d9ab14611e97578063960a4c181461164b578063a5b4e28a146114db578063b8f6255a146114bf578063bc37edb7146113fc578063c2485ebd146112a6578063d7b8f1cb146109085763dfa69f92146100c557600080fd5b346108e95760203660031901126108e9576004356001600160401b0381116108e95761010060031982360301126108e9576040516101028161321c565b81600401356001600160401b0381116108e9578201366023820112156108e9576101369036906024600482013591016132a6565b8152602482013560028110156108e9576020820190815260448301359283151584036108e9576040830193845260608301936064820135855260808401916084810135835260a0850160a4820135815260c48201356001600160401b0381116108e957820191366023840112156108e95760048301356101b58161328f565b936101c3604051958661326e565b818552602060048187019360051b83010101903682116108e957602401915b8183106108ef5750505060c0870192835260e4810135906001600160401b0382116108e957600461021692369201016132ec565b9360e08701948552865151156108ab578351610860575b80514211610828576003825111156107d85761024761487a565b97610251896147fe565b600a5460805152600b6020526040608051209488518051906001600160401b03821161062c5761028b826102858a54613600565b8a6137b8565b6020906001601f84111461076a5791806102c2926102ff9594608051926105b0575b50508160011b916000199060031b1c19161790565b87555b600187019089516102d5816135f6565b6102de816135f6565b8254915161ffff1990921660ff919091161790151560081b61ff0016179055565b51600285015551600384015551600483015551805160058301916001600160401b03821161062c57600160401b821161062c57602090835483855580841061071a575b500191608051526020608051208160051c916080515b8381106106e05750601f19811690038061068d575b505050506006019051805190600160401b821161062c57825482845580831061065c575b506020019160805152602060805120608051925b8284106104db576104a886866104418a604051906103c282613201565b60805182526020820190815261042a6003604084019360805185526060810194608051865260808201946080518652600a5460805152600c602052604060805120925183555160018301555160028201550192511515839060ff801983541691151516179055565b51815461ff00191690151560081b61ff0016179055565b7f52b91a8adb16d2c942f8afd364522fa27a2ab2df5adb982db50443fc31c05290600a549283925190610473826135f6565b51906104a060405192839233845261048a816135f6565b60208401526060604084015260608301906134fa565b0390a26137ff565b80600a5560001981019081116104c357602090604051908152f35b634e487b7160e01b6080515260116004526024608051fd5b805160208151916104ec83866136f4565b0190836080515260206080512091608051905b82821061051c5750505050600160208192019201930192906103a5565b805180516003811015610644576080515060ff801987541691161785556020600186019101518051906001600160401b03821161062c57610567826105618554613600565b856137b8565b6020906001601f8411146105bb57926105a18360209460019794600297608051926105b05750508160011b916000199060031b1c19161790565b90555b019401910190926104ff565b0151905038806102ad565b90601f1983169184608051528160805120926080515b8181106106145750936001969360029693889383602098106105fb575b505050811b0190556105a4565b015160001960f88460031b161c191690553880806105ee565b929360206001819287860151815501950193016105d1565b634e487b7160e01b6080515260416004526024608051fd5b634e487b7160e01b6080515260216004526024608051fd5b83608051528260206080512091820191015b81811061067b5750610391565b80610687600192613651565b0161066e565b6080519390845b8181106106aa575050500155600638808061036d565b90919460206106d6600192848951916106c2836135f6565b9060ff809160031b9316831b921b19161790565b9601929101610694565b608051805b602081106106fa575083820155600101610358565b95906020610711600192898551916106c2836135f6565b920196016106e5565b6107489085608051528360805120601f80870160051c8201928188168061074e575b500160051c019061363a565b38610342565b600019850190815490600019908a0360031b1c1690553861073c565b90601f1983169189608051528160805120926080515b8181106107c057509160019391856102ff979694106107a7575b505050811b0187556102c5565b015160001960f88460031b161c1916905538808061079a565b92936020600181928786015181550195019301610780565b6040516205bde160ec1b815260206004820152602260248201527f496e76616c6964206d696e696d756d20726573706f6e7365207468726573686f6044820152611b1960f21b6064820152608490fd5b6040516205bde160ec1b815260206004820152601060248201526f496e76616c696420656e642074696d6560801b6044820152606490fd5b875161022d576040516205bde160ec1b815260206004820152601b60248201527f57686974656c69737420726f6f742068617368206973206e756c6c00000000006044820152606490fd5b6040516205bde160ec1b81526020600482015260166024820152755375727665792070726f6d707420697320656d70747960501b6044820152606490fd5b60805180fd5b823560028110156108e9578152602092830192016101e2565b346108e95760203660031901126108e957606060e06040516109298161321c565b8281526080516020820152608051604082015260805183820152608051608082015260805160a08201528260c0820152015260043560805152600b6020526040608051206040516109798161321c565b6040516109918161098a818661384d565b038261326e565b81526001820154602082019260ff82166109aa816135f6565b845260ff604084019260081c161515825260028101546060840190815260038201546080850190815260048301549160a08601928352600584019360405180958691602082549182815201916080515260206080512090608051915b81601f840110610fde5792610b269260069592610b3397955491818110610fc1575b818110610fa1575b818110610f81575b818110610f61575b818110610f42575b818110610f22575b818110610f02575b818110610ee2575b818110610ec2575b818110610ea2575b818110610e82575b818110610e62575b818110610e42575b818110610e22575b818110610e02575b818110610de2575b818110610dc2575b818110610da2575b818110610d82575b818110610d62575b818110610d42575b818110610d22575b818110610d02575b818110610ce2575b818110610cc2575b818110610ca2575b818110610c82575b818110610c62575b818110610c42575b818110610c22575b818110610c02575b10610be9575b50038861326e565b60c0890196875201613caf565b9460e08701958652610b5a60405197602089525161010060208a01526101208901906134fa565b9751610b65816135f6565b604088015251151560608701525160808601525160a08501525160c08401525192601f198382030160e0840152602080855192838152019401906080515b818110610bc8578480610bc4888751601f198483030161010085015261353b565b0390f35b9091946020806001928851610bdc816135f6565b8152019601929101610ba3565b9060209160f81c610bf9816135f6565b8152018d610b1e565b92602060019160ff8560f01c16610c18816135f6565b8152019301610b18565b92602060019160ff8560e81c16610c38816135f6565b8152019301610b10565b92602060019160ff8560e01c16610c58816135f6565b8152019301610b08565b92602060019160ff8560d81c16610c78816135f6565b8152019301610b00565b92602060019160ff8560d01c16610c98816135f6565b8152019301610af8565b92602060019160ff8560c81c16610cb8816135f6565b8152019301610af0565b92602060019160ff8560c01c16610cd8816135f6565b8152019301610ae8565b92602060019160ff8560b81c16610cf8816135f6565b8152019301610ae0565b92602060019160ff8560b01c16610d18816135f6565b8152019301610ad8565b92602060019160ff8560a81c16610d38816135f6565b8152019301610ad0565b92602060019160ff8560a01c16610d58816135f6565b8152019301610ac8565b92602060019160ff8560981c16610d78816135f6565b8152019301610ac0565b92602060019160ff8560901c16610d98816135f6565b8152019301610ab8565b92602060019160ff8560881c16610db8816135f6565b8152019301610ab0565b92602060019160ff8560801c16610dd8816135f6565b8152019301610aa8565b92602060019160ff8560781c16610df8816135f6565b8152019301610aa0565b92602060019160ff8560701c16610e18816135f6565b8152019301610a98565b92602060019160ff8560681c16610e38816135f6565b8152019301610a90565b92602060019160ff8560601c16610e58816135f6565b8152019301610a88565b92602060019160ff8560581c16610e78816135f6565b8152019301610a80565b92602060019160ff8560501c16610e98816135f6565b8152019301610a78565b92602060019160ff8560481c16610eb8816135f6565b8152019301610a70565b92602060019160ff8560401c16610ed8816135f6565b8152019301610a68565b92602060019160ff8560381c16610ef8816135f6565b8152019301610a60565b92602060019160ff8560301c16610f18816135f6565b8152019301610a58565b92602060019160ff8560281c16610f38816135f6565b8152019301610a50565b92602060019160ff85831c16610f57816135f6565b8152019301610a48565b92602060019160ff8560181c16610f77816135f6565b8152019301610a40565b92602060019160ff8560101c16610f97816135f6565b8152019301610a38565b92602060019160ff8560081c16610fb7816135f6565b8152019301610a30565b92602060019160ff8516610fd4816135f6565b8152019301610a28565b935090916001610400602092865460ff8116610ff9816135f6565b825260ff8160081c1661100b816135f6565b8583015260ff8160101c1661101f816135f6565b604083015260ff8160181c16611034816135f6565b606083015260ff81861c16611048816135f6565b608083015260ff8160281c1661105d816135f6565b60a083015260ff8160301c16611072816135f6565b60c083015260ff8160381c16611087816135f6565b60e083015260ff8160401c1661109c816135f6565b61010083015260ff8160481c166110b2816135f6565b61012083015260ff8160501c166110c8816135f6565b61014083015260ff8160581c166110de816135f6565b61016083015260ff8160601c166110f4816135f6565b61018083015260ff8160681c1661110a816135f6565b6101a083015260ff8160701c16611120816135f6565b6101c083015260ff8160781c16611136816135f6565b6101e083015260ff8160801c1661114c816135f6565b61020083015260ff8160881c16611162816135f6565b61022083015260ff8160901c16611178816135f6565b61024083015260ff8160981c1661118e816135f6565b61026083015260ff8160a01c166111a4816135f6565b61028083015260ff8160a81c166111ba816135f6565b6102a083015260ff8160b01c166111d0816135f6565b6102c083015260ff8160b81c166111e6816135f6565b6102e083015260ff8160c01c166111fc816135f6565b61030083015260ff8160c81c16611212816135f6565b61032083015260ff8160d01c16611228816135f6565b61034083015260ff8160d81c1661123e816135f6565b61036083015260ff8160e01c16611254816135f6565b61038083015260ff8160e81c1661126a816135f6565b6103a083015260ff8160f01c16611280816135f6565b6103c083015260f81c611292816135f6565b6103e0820152019401920190889392610a06565b346108e95760203660031901126108e9576040516112c3816131cf565b60805181526060602082015260805160408201526080516060820152608051608082015260805160a082015260805160c082015260805160e0820152610100608051910152600435608051526010602052604060805120604051611326816131cf565b8154815261133660018301613caf565b9160208201928352600281015490604083019182526003810154906060840191825260048101546080850190815260058201549060a086019060ff83161515825260ff60c088019360081c1615158352600760068501549460e0890195865201549461010088019586526113c7604051998a9960208b525160208b01525161012060408b01526101408a019061353b565b965160608901525160808801525160a087015251151560c086015251151560e085015251610100840152516101208301520390f35b346108e95760403660031901126108e95760243580151581036108e957600080516020614aa4833981519152546001600160a01b031633036108e9576004356080515260126020526040608051209060018254920154906000146114695761146391614713565b60805180f35b611482908260805152600d60205260406080512061381b565b5060018060a01b03905416907f1ea66d04930e46a4f83ad34eb0ecf7438043bbfd37a662a38b044d28eed38a3f60206040516080518152a3611463565b346108e95760203660031901126108e957611463600435613a11565b346108e95760603660031901126108e957600080516020614aa483398151915254602435906001600160a01b031633036108e957600435608051526011602052604060805120549080156000146115dd575080608051526010602052600560406080512001600160ff198254161790555b806080515260106020526040608051205490806080515260106020527f80dd3c9152e63d7857ca01b1dd1e2ff42cc2b61dd6ad502108de1215fcde0ba2606060ff6005604060805120015460081c168360805152601060205260066040608051200154846080515260106020526007604060805120015490604051921515835260208301526040820152a360805180f35b8160805152601060205260066040608051200155806080515260106020526044356007604060805120015580608051526010602052600560406080512001600160ff198254161790558060805152601060205260056040608051200161010061ff001982541617905561154c565b346108e95760203660031901126108e957600435600f54811015611e84578060805152601060205260ff6005604060805120015416611e71578060805152601060205260406080512054816080515260106020526004604060805120015460805150600a81018091116104c35760808051839052600d602052516040902054811015611e5a575b6116da6148d3565b916116e361487a565b915b84608051526010602052806004604060805120015410156119fb578160805152600d60205261172d60406080512086608051526010602052600460406080512001549061381b565b506040519061173b82613253565b60018060a01b0381541682526001810154916020810192835260028201916040519283602082549182815201916080515260206080512090608051905b8082106119e35750505091606060ff6003869461179c6117e798602098038761326e565b60408501958652015416151591015260018060a01b036013541689608051526010835260016040608051200191519160405180958194829363a8eac0b160e01b845260048401613904565b0391608051905af190811561196c57608051916119af575b50606491602060018060a01b03600080516020614ac483398151915254166040519485809263cb3b940760e01b82528660048301528b60248301528a6044830152608051905af192831561196c5760805193611979575b5060209051606460018060a01b03600080516020614ac4833981519152541693604051948593849263cb3b940760e01b845260048401526024830152896044830152608051905af190811561196c5760805191611934575b506118cf6118fc928860805152601060205260036040608051200154614562565b87608051526010602052600360406080512001558660805152601060205260026040608051200154614562565b85608051526010602052600260406080512001558460805152601060205260046040608051200161192d81546137ff565b90556116e5565b905060203d8111611965575b61194a818361326e565b602082600092810103126119625750516118cf6118ae565b80fd5b503d611940565b6040513d608051823e3d90fd5b90925060203d81116119a8575b611990818361326e565b60208260009281010312611962575051916020611856565b503d611986565b905060203d81116119dc575b6119c5818361326e565b6020826000928101031261196257505160646117ff565b503d6119bb565b90919260016020819286548152019401920190611778565b50915082608051526010602052600460406080512001548260805152600d602052604060805120541115611a2f5760805180f35b8160805152600b602052611a82611a7d611a516004604060805120015461492c565b938060805152600c602052604060805120549060805152600b602052600460406080512001549061380e565b61492c565b836080515260106020526003604060805120015492808415611e4a575b15611e38575b600080516020614ac483398151915254604051631f31e28560e11b8152600481019590955260248501919091526080805160448601525160209185916064918391906001600160a01b03165af192831561196c5760805193611e04575b50836080515260106020526003604060805120015490808215611df4575b15611de2575b600080516020614ac483398151915254604051639675211f60e01b8152600481019390935260248301919091526080805160448401525160209183916064918391906001600160a01b03165af1801561196c5760805190611daf575b600080516020614ac483398151915254604051630ccd46b160e31b8152600481019590955260248501919091526080805160448601525160209250849160649183916001600160a01b03165af191821561196c5760805192611d7b575b50826080515260106020526003604060805120015491602060018060a01b03600080516020614ac483398151915254169360646040518096819363cb3b940760e01b83528660048401526024830152866044830152608051905af192831561196c5760805193611d46575b506020908460805152601082526064600260406080512001549160018060a01b03600080516020614ac48339815191525416604051958694859363cb3b940760e01b8552600485015260248401526044830152608051905af190811561196c5760805191611d0f575b5060405191611cc360608461326e565b600283526040366020850137611cd8836139e0565b52611ce2826139ed565b52606442018042116104c357611cf791614618565b60805152601160205260406080512055808080611463565b90506020813d602011611d3e575b81611d2a6020938361326e565b81010312611d39575183611cb3565b600080fd5b3d9150611d1d565b9092506020813d602011611d73575b81611d626020938361326e565b81010312611d395751916020611c4a565b3d9150611d55565b9091506020813d602011611da7575b81611d976020938361326e565b81010312611d3957519083611bdf565b3d9150611d8a565b506020813d602011611dda575b81611dc96020938361326e565b81010312611d395760209051611b82565b3d9150611dbc565b506020611ded61487a565b9050611b26565b9150611dfe61487a565b91611b20565b9092506020813d602011611e30575b81611e206020938361326e565b81010312611d3957519184611b02565b3d9150611e13565b506020611e4361487a565b9050611aa5565b9350611e5461487a565b93611a9f565b508060805152600d602052604060805120546116d2565b630df890a560e31b608051526004608051fd5b636806f54760e01b608051526004608051fd5b346108e957611ea536613437565b600f54821015611e84578160805152601060205260ff6005604060805120015416611e715781608051526010602052604060805120549082608051526010602052600460406080512001549081018091116121cc5760808051839052600d6020525160409020548110156121b5575b611f1c6148d3565b91611f2561487a565b915b84608051526010602052806004604060805120015410156119fb578160805152600d602052611f6f60406080512086608051526010602052600460406080512001549061381b565b5060405190611f7d82613253565b60018060a01b0381541682526001810154916020810192835260028201916040519283602082549182815201916080515260206080512090608051905b80821061219d5750505091606060ff6003869461179c611fde98602098038761326e565b0391608051905af190811561196c5760805191612169575b50606491602060018060a01b03600080516020614ac483398151915254166040519485809263cb3b940760e01b82528660048301528b60248301528a6044830152608051905af192831561196c5760805193612133575b5060209051606460018060a01b03600080516020614ac4833981519152541693604051948593849263cb3b940760e01b845260048401526024830152896044830152608051905af190811561196c57608051916120fe575b506118cf6120c6928860805152601060205260036040608051200154614562565b8560805152601060205260026040608051200155846080515260106020526004604060805120016120f781546137ff565b9055611f27565b905060203d811161212c575b612114818361326e565b602082600092810103126119625750516118cf6120a5565b503d61210a565b90925060203d8111612162575b61214a818361326e565b6020826000928101031261196257505191602061204d565b503d612140565b905060203d8111612196575b61217f818361326e565b602082600092810103126119625750516064611ff6565b503d612175565b90919260016020819286548152019401920190611fba565b508060805152600d60205260406080512054611f14565b634e487b7160e01b600052601160045260246000fd5b346108e95760403660031901126108e9576024356001600160a01b03811681036108e95760043560805152600e6020526040608051209060018060a01b0316600052602052602060ff604060002054166040519015158152f35b346108e95760203660031901126108e95760043560805152601060205261010060406080512080549060028101549060ff6003820154600483015460058401549160076006860154950154956040519788526020880152604087015260608601528181161515608086015260081c16151560a084015260c083015260e0820152f35b346108e95760803660031901126108e9576044356001600160401b0381116108e9576122ee90369060040161344d565b606435906001600160401b0382116108e9576123116114639236906004016134aa565b6040519290919061232360208561326e565b60805184526000368137602435600435613d85565b346108e95760a03660031901126108e9576044356001600160401b0381116108e95761236890369060040161344d565b6064356001600160401b0381116108e9576123879036906004016134aa565b608435916001600160401b0383116108e957366023840112156108e9578260040135936123b38561328f565b936123c1604051958661326e565b8585526024602086019660051b820101903682116108e957602401955b8187106123f75750506114639450602435600435613d85565b86358152602096870196016123de565b346108e95761241536613437565b600080516020614aa4833981519152549091906001600160a01b031633036108e9576080515260116020527fc3775fddf030d25d6e94614562d503ba2328165591eed3133412a193f0b5cd0660806040815120549283825152600c6020528060026040845120015583825152600c6020526003604083512001600160ff1982541617905583825152600c602052600360408351200161010061ff001982541617905583825152600b60205260ff600160408451200154169084835152600c60205260408351205460405192600184526124ed816135f6565b602084015260408301526060820152a260805180f35b346108e95760203660031901126108e95760405161252081613201565b60805181526080516020820152608051604082015260805160608201526080805191015260043560805152600c60205260a06040608051206040519061256582613201565b8054918281526001820154916020820192835260036002820154916040840192835201549260ff6080606085019482871615158652019460081c161515845260405194855251602085015251604084015251151560608301525115156080820152f35b346108e95760403660031901126108e9576024356001600160401b0381116108e9576125f89036906004016132ec565b600a5460043510156131bc5760043560805152600c60205260ff6003604060805120015416156131a95760043560805152600c60205260ff6003604060805120015460081c16156131965760018060a01b036013541660043560805152600b602052600560406080512001813b156108e95760405180926304d8754f60e11b82526044820160406004840152835480915260648301936080515260206080512090608051915b81601f840110612ecc575491818110612eaf575b818110612e8f575b818110612e6f575b818110612e4f575b818110612e30575b818110612e10575b818110612df0575b818110612dd0575b818110612db0575b818110612d90575b818110612d70575b818110612d50575b818110612d30575b818110612d10575b818110612cf0575b818110612cd0575b818110612cb0575b818110612c90575b818110612c70575b818110612c50575b818110612c30575b818110612c10575b818110612bf0575b818110612bd0575b818110612bb0575b818110612b90575b818110612b70575b818110612b50575b818110612b30575b818110612b10575b818110612af0575b10612ad5575b5060031982840301602483015281806127c4608051958861353b565b03915afa801561196c57612ac3575b506127dc61487a565b6127e461487a565b604051906127f1826131cf565b60043582526020820193845260408201928352606082019081526080820190608051825260805160a084015260805160c084015260805160e08401526101008301936080518552600f546080515260106020526040608051209584518755600187019051805190600160401b821161062c578254828455808310612a92575b506020019160805152602060805120608051925b828410612945578960078a60e08b8b8b8b5160028801555160038701555160048601556128e5600586016128ca60a08401511515829060ff801983541691151516179055565b60c0830151815461ff00191690151560081b61ff0016179055565b015160068401555191015561292a600f54604051338152817ff4bfd720334815b6b1792e0d517529b217fe3eb94a904ec5801b037aee18949e602060043593a36137ff565b80600f5560001981019081116104c357602090604051908152f35b8051602081519161295683866136f4565b01908360805152602060805120608051925b828410612985575050505060016020819201920193019290612884565b80518051906003821015610644576020916080515060ff8019865416911617845501518051906001600160401b03821161062c576129d3826129ca6001870154613600565b600187016137b8565b6020906001601f841114612a1d5792612a0c83600294602094600197608051926105b05750508160011b916000199060031b1c19161790565b848601555b01920193019290612968565b90601f1983169160018601608051528160805120926080515b818110612a7a5750936020936001969387938360029810612a61575b505050811b0184860155612a11565b015160001960f88460031b161c19169055388080612a52565b92936020600181928786015181550195019301612a36565b83608051528260206080512091820191015b818110612ab15750612870565b80612abd600192613651565b01612aa4565b608051612acf9161326e565b816127d3565b926020919360f81c612ae6816135f6565b81520191856127a8565b94602060019160ff8560f01c16612b06816135f6565b81520195016127a2565b94602060019160ff8560e81c16612b26816135f6565b815201950161279a565b94602060019160ff8560e01c16612b46816135f6565b8152019501612792565b94602060019160ff8560d81c16612b66816135f6565b815201950161278a565b94602060019160ff8560d01c16612b86816135f6565b8152019501612782565b94602060019160ff8560c81c16612ba6816135f6565b815201950161277a565b94602060019160ff8560c01c16612bc6816135f6565b8152019501612772565b94602060019160ff8560b81c16612be6816135f6565b815201950161276a565b94602060019160ff8560b01c16612c06816135f6565b8152019501612762565b94602060019160ff8560a81c16612c26816135f6565b815201950161275a565b94602060019160ff8560a01c16612c46816135f6565b8152019501612752565b94602060019160ff8560981c16612c66816135f6565b815201950161274a565b94602060019160ff8560901c16612c86816135f6565b8152019501612742565b94602060019160ff8560881c16612ca6816135f6565b815201950161273a565b94602060019160ff8560801c16612cc6816135f6565b8152019501612732565b94602060019160ff8560781c16612ce6816135f6565b815201950161272a565b94602060019160ff8560701c16612d06816135f6565b8152019501612722565b94602060019160ff8560681c16612d26816135f6565b815201950161271a565b94602060019160ff8560601c16612d46816135f6565b8152019501612712565b94602060019160ff8560581c16612d66816135f6565b815201950161270a565b94602060019160ff8560501c16612d86816135f6565b8152019501612702565b94602060019160ff8560481c16612da6816135f6565b81520195016126fa565b94602060019160ff8560401c16612dc6816135f6565b81520195016126f2565b94602060019160ff8560381c16612de6816135f6565b81520195016126ea565b94602060019160ff8560301c16612e06816135f6565b81520195016126e2565b94602060019160ff8560281c16612e26816135f6565b81520195016126da565b94602060019160ff85831c16612e45816135f6565b81520195016126d2565b94602060019160ff8560181c16612e65816135f6565b81520195016126ca565b94602060019160ff8560101c16612e85816135f6565b81520195016126c2565b94602060019160ff8560081c16612ea5816135f6565b81520195016126ba565b94602060019160ff8516612ec2816135f6565b81520195016126b2565b9460209192939450610400600191875460ff8116612ee9816135f6565b825260ff8160081c16612efb816135f6565b8583015260ff8160101c16612f0f816135f6565b604083015260ff8160181c16612f24816135f6565b606083015260ff81861c16612f38816135f6565b608083015260ff8160281c16612f4d816135f6565b60a083015260ff8160301c16612f62816135f6565b60c083015260ff8160381c16612f77816135f6565b60e083015260ff8160401c16612f8c816135f6565b61010083015260ff8160481c16612fa2816135f6565b61012083015260ff8160501c16612fb8816135f6565b61014083015260ff8160581c16612fce816135f6565b61016083015260ff8160601c16612fe4816135f6565b61018083015260ff8160681c16612ffa816135f6565b6101a083015260ff8160701c16613010816135f6565b6101c083015260ff8160781c16613026816135f6565b6101e083015260ff8160801c1661303c816135f6565b61020083015260ff8160881c16613052816135f6565b61022083015260ff8160901c16613068816135f6565b61024083015260ff8160981c1661307e816135f6565b61026083015260ff8160a01c16613094816135f6565b61028083015260ff8160a81c166130aa816135f6565b6102a083015260ff8160b01c166130c0816135f6565b6102c083015260ff8160b81c166130d6816135f6565b6102e083015260ff8160c01c166130ec816135f6565b61030083015260ff8160c81c16613102816135f6565b61032083015260ff8160d01c16613118816135f6565b61034083015260ff8160d81c1661312e816135f6565b61036083015260ff8160e01c16613144816135f6565b61038083015260ff8160e81c1661315a816135f6565b6103a083015260ff8160f01c16613170816135f6565b6103c083015260f81c613182816135f6565b6103e082015201950192019085939261269e565b63147cbf7360e31b608051526004608051fd5b634164a28160e01b608051526004608051fd5b63242a36cd60e11b608051526004608051fd5b61012081019081106001600160401b038211176131eb57604052565b634e487b7160e01b600052604160045260246000fd5b60a081019081106001600160401b038211176131eb57604052565b61010081019081106001600160401b038211176131eb57604052565b604081019081106001600160401b038211176131eb57604052565b608081019081106001600160401b038211176131eb57604052565b90601f801991011681019081106001600160401b038211176131eb57604052565b6001600160401b0381116131eb5760051b60200190565b9291926001600160401b0382116131eb57604051916132cf601f8201601f19166020018461326e565b829481845281830111611d39578281602093846000960137010152565b81601f82011215611d39578035906133038261328f565b92613311604051948561326e565b82845260208085019360051b83010191818311611d395760208101935b83851061333d57505050505090565b84356001600160401b038111611d3957820183603f82011215611d395760208101356133688161328f565b91613376604051938461326e565b8183526020808085019360051b8301010190868211611d395760408101925b8284106133af57505050908252506020948501940161332e565b83356001600160401b038111611d3957602090830101906040601f19838b030112611d3957604051916133e183613238565b60208101356003811015611d3957835260408101356001600160401b038111611d395760209101019089601f83011215611d39576020926134288b848680963591016132a6565b83820152815201930192613395565b6040906003190112611d39576004359060243590565b9080601f83011215611d395781356134648161328f565b92613472604051948561326e565b81845260208085019260051b820101928311611d3957602001905b82821061349a5750505090565b813581526020918201910161348d565b9181601f84011215611d39578235916001600160401b038311611d395760208381860195010111611d3957565b9060038210156134e45752565b634e487b7160e01b600052602160045260246000fd5b919082519283825260005b848110613526575050826000602080949584010152601f8019910116010190565b80602080928401015182828601015201613505565b9080602083519182815201916020808360051b8301019401926000915b83831061356757505050505090565b9091929394601f19828203018352855190815180825260208201906020808260051b85010194019260005b8281106135b357505050505060208060019297019301930191939290613558565b90919293946020806135e9600193601f198782030189526040838b516135da8482516134d7565b015191818582015201906134fa565b9701950193929101613592565b600211156134e457565b90600182811c92168015613630575b602083101461361a57565b634e487b7160e01b600052602260045260246000fd5b91607f169161360f565b818110613645575050565b6000815560010161363a565b8054906000815581613661575050565b6001600160ff1b03821682036121cc576000908152602081209160011b8201915b82811061368e57505050565b80826002925582600182016136a38154613600565b806136b2575b50505001613682565b601f81116001146136c85750555b8238806136a9565b818352602083206136e491601f0160051c81019060010161363a565b80825281602081209155556136c0565b600160401b82116131eb5780549082815581831061371157505050565b6001600160ff1b03821682036121cc576001600160ff1b03831683036121cc5760005260206000209060011b81019160011b015b818110613750575050565b80600060029255600181016137658154613600565b9081613774575b505001613745565b81601f6000931160011461378c5750555b388061376c565b818352602083206137a891601f0160051c81019060010161363a565b8082528160208120915555613785565b9190601f81116137c757505050565b6137f3926000526020600020906020601f840160051c830193106137f5575b601f0160051c019061363a565b565b90915081906137e6565b60001981146121cc5760010190565b919082039182116121cc57565b80548210156138375760005260206000209060021b0190600090565b634e487b7160e01b600052603260045260246000fd5b6000929181549161385d83613600565b80835292600181169081156138b3575060011461387957505050565b60009081526020812093945091925b838310613899575060209250010190565b600181602092949394548385870101520191019190613888565b915050602093945060ff929192191683830152151560051b010190565b906020808351928381520192019060005b8181106138ee5750505090565b82518452602093840193909201916001016138e1565b929160408401604085528254809152606085019060608160051b870101936000526020600020916000905b82821061394f575050505083602061394c949584039101526138d0565b90565b90919294605f198882030182528554908181526020810160208360051b830101928860005260206000209260005b82811061399d57505050505060206001809297019201920190929161392f565b9091929394602060026139d36040600194601f19888203018a526139c58160ff8d54166134d7565b818582015201848a0161384d565b970195019392910161397d565b8051156138375760200190565b8051600110156138375760400190565b80518210156138375760209160051b010190565b600a54600090821015613ca057818152600b60205260036040822001544210613c9157818152600c60205260ff600360408320015416613c8257818152600c6020526040812054828252600b602052600460408320015411613c01576040908151613a7c838261326e565b60018152601f198301366020830137838252600c60205260018383200154613aa3826139e0565b526064420190814211613bed57600080516020614a84833981519152546001600160a01b0316803b15613be957838551809263155f840160e21b825260206004830152818381613af660248201896138d0565b03925af18015613bdf57613bc6575b50600080516020614aa4833981519152548451634c0d927760e01b815260a060048201529260209284926001600160a01b031691839187918391613b4d9060a48401906138d0565b906301bc5e6160e41b6024840152836044840152606483015282608483015203925af1908115613bbc578291613b8a575b50815260116020522055565b90506020813d602011613bb4575b81613ba56020938361326e565b81010312611d39575138613b7e565b3d9150613b98565b83513d84823e3d90fd5b83613bd760209395613b4d9361326e565b939150613b05565b85513d86823e3d90fd5b8380fd5b634e487b7160e01b83526011600452602483fd5b608081837fc3775fddf030d25d6e94614562d503ba2328165591eed3133412a193f0b5cd069352600c60205260036040822001600160ff19825416179055838152600b60205260ff60016040832001541690848152600c602052604081205460405192828452613c70816135f6565b602084015260408301526060820152a2565b63d96068dd60e01b8152600490fd5b634164a28160e01b8152600490fd5b63242a36cd60e11b8152600490fd5b90815491613cbc8361328f565b92613cca604051948561326e565b80845260208401916000526020600020916000905b828210613cec5750505050565b8354613cf78161328f565b90613d05604051928361326e565b80825260208201908660005260206000206000925b828410613d3b57505050506020826001939284935201940191019092613cdf565b604051613d4781613238565b60ff83541660038110156134e4576001928260209260029452604051613d738161098a81898b0161384d565b83820152815201920193019290613d1a565b9094959395600a548210156145515781600052600b602052600360406000200154421015614540576000828152600e6020908152604080832033845290915290205460ff1661452f5781600052600b60205260056040600020015483510361451e5781600052600b60205260ff60016040600020015460081c16614457575b5080600052600b60205260056040600020015493613e218561328f565b94613e2f604051968761326e565b808652613e3e601f199161328f565b0136602087013760005b82600052600b60205260056040600020015481101561403e5782600052600b602052600560406000200180548210156138375760005260ff60206000208260051c015460f88360031b161c16613e9d816135f6565b80613ff95750613ead81856139fd565b5190613f0b6020613ebf368c8a6132a6565b60009460018060a01b03600080516020614ac4833981519152541690866040518096819582946302e817ff60e41b845260048401523360248401526080604484015260848301906134fa565b82606483015203925af1928315613fed578093613fb7575b5050600080516020614a84833981519152546001600160a01b031691823b15611d39576040516346ce4e4960e11b815260048101829052336024820152926000908490604490829084905af1908115613fab57600193613f9492613f9a575b5080613f8e848b6139fd565b526147fe565b01613e48565b6000613fa59161326e565b38613f82565b6040513d6000823e3d90fd5b909192506020823d8211613fe5575b81613fd36020938361326e565b81010312611962575051903880613f23565b3d9150613fc6565b604051903d90823e3d90fd5b9060018092614007816135f6565b03613f945761403961402e61401c83886139fd565b51614028368d8b6132a6565b90614985565b80613f8e848b6139fd565b613f94565b509561402891959250926140539336916132a6565b61405c816147fe565b6040519061406982613253565b338252602082019081526040820183815260608301916000835285600052600d60205260406000208054600160401b8110156131eb576140ae9160018201815561381b565b949094614441575184546001600160a01b0319166001600160a01b03919091161784555160018401555180519060028401906001600160401b0383116131eb57600160401b83116131eb576020908254848455808510614424575b500190600052602060002060005b838110614410575050505090600361413f9251151591019060ff801983541691151516179055565b81600052600e602052604060002060018060a01b0333166000526020526040600020600160ff19825416179055817f03b562e13524df9ad0948873c24d44336296e8aaef105cb0e60f18d40378ef576020604051338152a26000828152600b6020526040902060060154156143eb5760206141ed9160018060a01b036013541684600052600b83526006604060002001600060405180968195829463a8eac0b160e01b845260048401613904565b03925af1908115613fab576000916143b9575b5061420a816147fe565b6040805191614219828461326e565b60018352601f198201366020850137614231836139e0565b52606442018042116121cc57600080516020614a8483398151915254600093906001600160a01b0316803b156143b557848451809263155f840160e21b82526020600483015281838161428760248201896138d0565b03925af180156143ab57916142de918660209461439b575b505060018060a01b03600080516020614aa4833981519152541690868651809681958294634c0d927760e01b845260a0600485015260a48401906138d0565b9063bc37edb760e01b6024840152836044840152606483015282608483015203925af1928315614390578093614359575b505082600052600d60205280600020549060001982019182116121cc5760019281519461433b86613238565b85526020850192835260005260126020526000209251835551910155565b909192506020823d602011614388575b816143766020938361326e565b8101031261196257505190388061430f565b3d9150614369565b8251903d90823e3d90fd5b6143a49161326e565b388661429f565b84513d87823e3d90fd5b8480fd5b906020823d6020116143e3575b816143d36020938361326e565b8101031261196257505138614200565b3d91506143c6565b5080600052600d60205260406000205460001981019081116121cc576137f391614713565b600190602084519401938184015501614117565b61443b90846000528584600020918201910161363a565b38614109565b634e487b7160e01b600052600060045260246000fd5b959260409592959491945160208101903382526020815261447960408261326e565b519020604051602081019182526020815261449560408261326e565b5190209585600052600b60205260026040600020015496956000965b89518810156144f8576144c4888b6139fd565b51906000828210156144e75750600052602052600160406000205b9701966144b1565b6040916001938252602052206144df565b919497929598509295500361450d5738613e04565b63582f497d60e11b60005260046000fd5b6352ebbd8f60e11b60005260046000fd5b6338ec521360e01b60005260046000fd5b63291b3d4d60e21b60005260046000fd5b63242a36cd60e11b60005260046000fd5b908115614608575b80156145f6575b602090606460018060a01b03600080516020614ac48339815191525416936000604051958694859363f953e42760e01b8552600485015260248401528160448401525af1908115613fab576000916145c7575090565b90506020813d6020116145ee575b816145e26020938361326e565b81010312611d39575190565b3d91506145d5565b50602061460161487a565b9050614571565b905061461261487a565b9061456a565b600080516020614a848339815191525460009291906001600160a01b0316803b15613be95783604051809263155f840160e21b82526020600483015281838161466460248201896138d0565b03925af18015614708576146ef575b50600080516020614aa483398151915254604051634c0d927760e01b815260a060048201529260209284926001600160a01b0316918391879183916146bc9060a48401906138d0565b906352da714560e11b6024840152836044840152606483015282608483015203925af1918215613fed57916145c7575090565b83614700602093956146bc9361326e565b939150614673565b6040513d86823e3d90fd5b906147c59082600052600c60205261474f60016040600020015484600052600d602052600161474684604060002061381b565b50015490614562565b6000848152600c6020526040902060018101919091558054614770906137ff565b905582600052600c60205261478c6001604060002001546147fe565b82600052600d60205260036147a582604060002061381b565b5001600160ff1982541617905582600052600d602052604060002061381b565b5060018060a01b03905416907f1ea66d04930e46a4f83ad34eb0ecf7438043bbfd37a662a38b044d28eed38a3f602060405160018152a3565b600080516020614a84833981519152546000916001600160a01b0390911690813b1561487657604051631974142760e21b815260048101919091523060248201529082908290818381604481015b03925af1801561486b5761485e575050565b816148689161326e565b50565b6040513d84823e3d90fd5b8280fd5b600080516020614ac483398151915254604051631ce2e8d760e31b8152600060048201819052600160fb1b60248301529091602091839160449183916001600160a01b03165af1908115613fab576000916145c7575090565b600080516020614ac483398151915254604051631ce2e8d760e31b815260016004820152600160fb1b602482015290602090829060449082906000906001600160a01b03165af1908115613fab576000916145c7575090565b600080516020614ac483398151915254604051631ce2e8d760e31b81526004810192909252600160fb1b6024830152602090829060449082906000906001600160a01b03165af1908115613fab576000916145c7575090565b60206149cf9392600080516020614ac483398151915254600093846040518098819582946302e817ff60e41b845260048401523360248401526080604484015260848301906134fa565b600160fb1b606483015203926001600160a01b03165af1928315614a76578193614a42575b50600080516020614a84833981519152546001600160a01b031683813b15614876576040516346ce4e4960e11b8152600481019190915233602482015290829082908183816044810161484c565b9092506020813d602011614a6e575b81614a5e6020938361326e565b81010312614876575191386149f4565b3d9150614a51565b50604051903d90823e3d90fdfeed8d60e34876f751cc8b014c560745351147d9de11b9347c854e881b128ea60093ab6e17f2c461cce6ea5d4ec117e51dda77a64affc2b2c05f8cd440def0e700ed8d60e34876f751cc8b014c560745351147d9de11b9347c854e881b128ea601a264697066735822122001eec35ecc71a736316c96c69c4f7e6db7f436d36c3949622bb17c986e42a7a364736f6c634300081c003360806040523460ed577f871b3b0713ea5d7fd1f75a811c349209996193f3a2535cdfd79d35416bf801238054600160ff1991821681179092557fe3be84349242383ed4b31bbb7ede08a8080ac9d5e828342f449d34bf731539e980548216831790557fb37150ceb7e138645bfe4dfcef9a75073e1d7aa14c524dfdd20d3f751fad1084805482168317905560026000527fad3228b676f7d3cd4284a5443f17f1962b36e491b30a40b2405849e597ba5fb56020527f09f922a082099d8bb3cef76f214b97d4ea18be3ab11deb731e4676110a885b48805490911690911790556040516108f490816100f38239f35b600080fdfe6080604052600436101561001257600080fd5b60003560e01c806309b0ea9e146105e55780638e1fb2e11461059a5763a8eac0b11461003d57600080fd5b3461043d57604036600319011261043d576004356001600160401b03811161043d573660238201121561043d578060040135610078816107a7565b916100866040519384610786565b8183526024602084019260051b8201019036821161043d5760248101925b82841061044257602435856001600160401b03821161043d573660238301121561043d578160040135916100d7836107a7565b926100e56040519485610786565b8084526024602085019160051b8301019136831161043d57602401905b82821061042d57505050600080602060018060a01b0360008051602061089f8339815191525416604460405180948193631ce2e8d760e31b8352600160048401528160248401525af19182156103b55780926103f8575b50509160005b82518110156103ed576000935b6101768285610802565b51518510156103e3576101938561018d8487610802565b51610802565b5161019e8385610802565b51906000815160038110156103cd576000906103c15750506020809101518181518183019384916000940101031261031657505160008051602061089f83398151915254604051631ce2e8d760e31b81526004810192909252600160fb1b6024830152600091906020908290604490829086906001600160a01b03165af19182156103b5578092610381575b5050808215610371575b1561035f575b602090606460018060a01b0360008051602061089f83398151915254169360006040519586948593631f31e28560e11b8552600485015260248401528160448401525af180156103215760009061032d575b602091505b606460018060a01b0360008051602061089f83398151915254169360006040519586948593630ccd46b160e31b8552600485015260248401528160448401525af18015610321576000906102ec575b6001915094019361016c565b6020823d8211610319575b8161030460209383610786565b810103126103165750600190516102e0565b80fd5b3d91506102f7565b6040513d6000823e3d90fd5b6020823d8211610357575b8161034560209383610786565b8101031261031657506020905161028c565b3d9150610338565b50602061036a610816565b905061023a565b915061037b610816565b91610234565b9091506020823d82116103ad575b8161039c60209383610786565b81010312610316575051878061022a565b3d915061038f565b604051903d90823e3d90fd5b50602092509050610291565b634e487b7160e01b600052602160045260246000fd5b935060010161015f565b602084604051908152f35b9091506020823d602011610425575b8161041460209383610786565b810103126103165750518380610159565b3d9150610407565b8135815260209182019101610102565b600080fd5b83356001600160401b03811161043d5782013660438201121561043d57602481013561046d816107a7565b9161047b6040519384610786565b818352602060248185019360051b830101019036821161043d5760448101925b8284106104b55750505090825250602093840193016100a4565b83356001600160401b03811161043d57602490830101906040601f19833603011261043d5760405191604083018381106001600160401b03821117610584576040526020810135600381101561043d57835260408101356001600160401b03811161043d5760209101019036601f8301121561043d578135926001600160401b03841161058457604051610553601f8601601f191660200182610786565b848152366020868601011161043d57600060208681978280980183860137830101528382015281520193019261049b565b634e487b7160e01b600052604160045260246000fd5b3461043d57604036600319011261043d57600435600281101561043d57602435600381101561043d576105d960ff916105d4602094610755565b61076e565b54166040519015158152f35b3461043d57604036600319011261043d576004356001600160401b03811161043d57610615903690600401610725565b6024356001600160401b03811161043d5761063583913690600401610725565b90916000905b8482101594856107235760005b6106538486886107be565b905081101561071557866106ff578360051b830135600281101561043d5761067a90610755565b6106858587896107be565b8310156106ff578260051b81013590603e198136030182121561043d57013590600382101561043d5760ff916106ba9161076e565b5416156106c957600101610648565b60405162461bcd60e51b815260206004820152600e60248201526d24b73b30b634b2103334b63a32b960911b6044820152606490fd5b634e487b7160e01b600052603260045260246000fd5b50945060019091019061063b565b005b9181601f8401121561043d578235916001600160401b03831161043d576020808501948460051b01011161043d57565b60028110156103cd576000526000602052604060002090565b9060038110156103cd57600052602052604060002090565b90601f801991011681019081106001600160401b0382111761058457604052565b6001600160401b0381116105845760051b60200190565b91908110156106ff5760051b81013590601e198136030182121561043d5701908135916001600160401b03831161043d576020018260051b3603811361043d579190565b80518210156106ff5760209160051b010190565b60008051602061089f83398151915254604051631ce2e8d760e31b8152600060048201819052600160fb1b60248301529091602091839160449183916001600160a01b03165af19081156103215760009161086f575090565b90506020813d602011610896575b8161088a60209383610786565b8101031261043d575190565b3d915061087d56feed8d60e34876f751cc8b014c560745351147d9de11b9347c854e881b128ea601a2646970667358221220b844e64885054249f4d6cdd2511fce576780e3cb99d9cfa460f0718f6fa22d4664736f6c634300081c0033","linkReferences":{}},"methodIdentifiers":{"createQuery(uint256,(uint8,bytes)[][])":"00653e90","createSurvey((string,uint8,bool,bytes32,uint256,uint256,uint8[],(uint8,bytes)[][]))":"dfa69f92","executeQuery(uint256)":"960a4c18","executeQuery(uint256,uint256)":"5600d9ab","gatewayConfirmUserEntry(uint256,bool)":"bc37edb7","gatewayDecryptQueryResult(uint256,uint256,uint256)":"a5b4e28a","gatewayDecryptSurveyResult(uint256,uint256)":"1bc5e610","getQueryData(uint256)":"c2485ebd","hasVoted(uint256,address)":"43859632","queryData(uint256)":"4279ef3b","revealResults(uint256)":"b8f6255a","submitEntry(uint256,bytes32,bytes32[],bytes)":"33ce9e29","submitWhitelistedEntry(uint256,bytes32,bytes32[],bytes,bytes32[])":"21acc8ea","surveyData(uint256)":"00bcd6d5","surveyParams(uint256)":"d7b8f1cb"},"id":0}