{"abi":[{"type":"constructor","inputs":[],"stateMutability":"nonpayable"},{"type":"function","name":"createQuery","inputs":[{"name":"surveyId","type":"uint256","internalType":"uint256"},{"name":"params","type":"tuple[][]","internalType":"struct Filter[][]","components":[{"name":"verifier","type":"uint8","internalType":"enum VerifierType"},{"name":"value","type":"bytes","internalType":"bytes"}]}],"outputs":[{"name":"","type":"uint256","internalType":"uint256"}],"stateMutability":"nonpayable"},{"type":"function","name":"createSurvey","inputs":[{"name":"params","type":"tuple","internalType":"struct SurveyParams","components":[{"name":"surveyPrompt","type":"string","internalType":"string"},{"name":"surveyType","type":"uint8","internalType":"enum SurveyType"},{"name":"isWhitelisted","type":"bool","internalType":"bool"},{"name":"whitelistRootHash","type":"bytes32","internalType":"bytes32"},{"name":"surveyEndTime","type":"uint256","internalType":"uint256"},{"name":"minResponseThreshold","type":"uint256","internalType":"uint256"},{"name":"metadataTypes","type":"uint8[]","internalType":"enum MetadataType[]"},{"name":"constraints","type":"tuple[][]","internalType":"struct Filter[][]","components":[{"name":"verifier","type":"uint8","internalType":"enum VerifierType"},{"name":"value","type":"bytes","internalType":"bytes"}]}]}],"outputs":[{"name":"","type":"uint256","internalType":"uint256"}],"stateMutability":"nonpayable"},{"type":"function","name":"executeQuery","inputs":[{"name":"queryId","type":"uint256","internalType":"uint256"},{"name":"limit","type":"uint256","internalType":"uint256"}],"outputs":[],"stateMutability":"nonpayable"},{"type":"function","name":"executeQuery","inputs":[{"name":"queryId","type":"uint256","internalType":"uint256"}],"outputs":[],"stateMutability":"nonpayable"},{"type":"function","name":"gatewayConfirmUserEntry","inputs":[{"name":"requestId","type":"uint256","internalType":"uint256"},{"name":"isValid","type":"bool","internalType":"bool"}],"outputs":[],"stateMutability":"nonpayable"},{"type":"function","name":"gatewayDecryptQueryResult","inputs":[{"name":"requestId","type":"uint256","internalType":"uint256"},{"name":"_finalSelectedCount","type":"uint256","internalType":"uint256"},{"name":"_finalResult","type":"uint256","internalType":"uint256"}],"outputs":[],"stateMutability":"nonpayable"},{"type":"function","name":"gatewayDecryptSurveyResult","inputs":[{"name":"requestId","type":"uint256","internalType":"uint256"},{"name":"result","type":"uint256","internalType":"uint256"}],"outputs":[],"stateMutability":"nonpayable"},{"type":"function","name":"getQueryData","inputs":[{"name":"queryId","type":"uint256","internalType":"uint256"}],"outputs":[{"name":"","type":"tuple","internalType":"struct QueryData","components":[{"name":"surveyId","type":"uint256","internalType":"uint256"},{"name":"filters","type":"tuple[][]","internalType":"struct Filter[][]","components":[{"name":"verifier","type":"uint8","internalType":"enum VerifierType"},{"name":"value","type":"bytes","internalType":"bytes"}]},{"name":"pendingEncryptedResult","type":"uint256","internalType":"euint256"},{"name":"pendingSelectedNumber","type":"uint256","internalType":"euint256"},{"name":"cursor","type":"uint256","internalType":"uint256"},{"name":"isCompleted","type":"bool","internalType":"bool"},{"name":"isValid","type":"bool","internalType":"bool"},{"name":"finalSelectedCount","type":"uint256","internalType":"uint256"},{"name":"finalResult","type":"uint256","internalType":"uint256"}]}],"stateMutability":"view"},{"type":"function","name":"hasVoted","inputs":[{"name":"surveyId","type":"uint256","internalType":"uint256"},{"name":"userAddress","type":"address","internalType":"address"}],"outputs":[{"name":"","type":"bool","internalType":"bool"}],"stateMutability":"view"},{"type":"function","name":"queryData","inputs":[{"name":"","type":"uint256","internalType":"uint256"}],"outputs":[{"name":"surveyId","type":"uint256","internalType":"uint256"},{"name":"pendingEncryptedResult","type":"uint256","internalType":"euint256"},{"name":"pendingSelectedNumber","type":"uint256","internalType":"euint256"},{"name":"cursor","type":"uint256","internalType":"uint256"},{"name":"isCompleted","type":"bool","internalType":"bool"},{"name":"isValid","type":"bool","internalType":"bool"},{"name":"finalSelectedCount","type":"uint256","internalType":"uint256"},{"name":"finalResult","type":"uint256","internalType":"uint256"}],"stateMutability":"view"},{"type":"function","name":"revealResults","inputs":[{"name":"surveyId","type":"uint256","internalType":"uint256"}],"outputs":[],"stateMutability":"nonpayable"},{"type":"function","name":"submitEntry","inputs":[{"name":"surveyId","type":"uint256","internalType":"uint256"},{"name":"eInputVote","type":"bytes32","internalType":"einput"},{"name":"metadata","type":"bytes32[]","internalType":"einput[]"},{"name":"inputProof","type":"bytes","internalType":"bytes"}],"outputs":[],"stateMutability":"nonpayable"},{"type":"function","name":"submitWhitelistedEntry","inputs":[{"name":"surveyId","type":"uint256","internalType":"uint256"},{"name":"eInputVote","type":"bytes32","internalType":"einput"},{"name":"metadata","type":"bytes32[]","internalType":"einput[]"},{"name":"inputProof","type":"bytes","internalType":"bytes"},{"name":"whitelistProof","type":"bytes32[]","internalType":"bytes32[]"}],"outputs":[],"stateMutability":"nonpayable"},{"type":"function","name":"surveyData","inputs":[{"name":"surveyId","type":"uint256","internalType":"uint256"}],"outputs":[{"name":"","type":"tuple","internalType":"struct SurveyData","components":[{"name":"currentParticipants","type":"uint256","internalType":"uint256"},{"name":"encryptedResponses","type":"uint256","internalType":"euint256"},{"name":"finalResult","type":"uint256","internalType":"uint256"},{"name":"isCompleted","type":"bool","internalType":"bool"},{"name":"isValid","type":"bool","internalType":"bool"}]}],"stateMutability":"view"},{"type":"function","name":"surveyParams","inputs":[{"name":"surveyId","type":"uint256","internalType":"uint256"}],"outputs":[{"name":"","type":"tuple","internalType":"struct SurveyParams","components":[{"name":"surveyPrompt","type":"string","internalType":"string"},{"name":"surveyType","type":"uint8","internalType":"enum SurveyType"},{"name":"isWhitelisted","type":"bool","internalType":"bool"},{"name":"whitelistRootHash","type":"bytes32","internalType":"bytes32"},{"name":"surveyEndTime","type":"uint256","internalType":"uint256"},{"name":"minResponseThreshold","type":"uint256","internalType":"uint256"},{"name":"metadataTypes","type":"uint8[]","internalType":"enum MetadataType[]"},{"name":"constraints","type":"tuple[][]","internalType":"struct Filter[][]","components":[{"name":"verifier","type":"uint8","internalType":"enum VerifierType"},{"name":"value","type":"bytes","internalType":"bytes"}]}]}],"stateMutability":"view"},{"type":"event","name":"ConfirmUserEntry","inputs":[{"name":"surveyId","type":"uint256","indexed":true,"internalType":"uint256"},{"name":"user","type":"address","indexed":true,"internalType":"address"},{"name":"isValid","type":"bool","indexed":false,"internalType":"bool"}],"anonymous":false},{"type":"event","name":"EntrySubmitted","inputs":[{"name":"surveyId","type":"uint256","indexed":true,"internalType":"uint256"},{"name":"user","type":"address","indexed":false,"internalType":"address"}],"anonymous":false},{"type":"event","name":"QueryCompleted","inputs":[{"name":"queryId","type":"uint256","indexed":true,"internalType":"uint256"},{"name":"surveyId","type":"uint256","indexed":true,"internalType":"uint256"},{"name":"isValid","type":"bool","indexed":false,"internalType":"bool"},{"name":"finalSelectedCount","type":"uint256","indexed":false,"internalType":"uint256"},{"name":"finalResult","type":"uint256","indexed":false,"internalType":"uint256"}],"anonymous":false},{"type":"event","name":"QueryCreated","inputs":[{"name":"queryId","type":"uint256","indexed":true,"internalType":"uint256"},{"name":"surveyId","type":"uint256","indexed":true,"internalType":"uint256"},{"name":"analyser","type":"address","indexed":false,"internalType":"address"}],"anonymous":false},{"type":"event","name":"SurveyCompleted","inputs":[{"name":"surveyId","type":"uint256","indexed":true,"internalType":"uint256"},{"name":"isValid","type":"bool","indexed":false,"internalType":"bool"},{"name":"surveyType","type":"uint8","indexed":false,"internalType":"enum SurveyType"},{"name":"numberOfVotes","type":"uint256","indexed":false,"internalType":"uint256"},{"name":"response","type":"uint256","indexed":false,"internalType":"uint256"}],"anonymous":false},{"type":"event","name":"SurveyCreated","inputs":[{"name":"surveyId","type":"uint256","indexed":true,"internalType":"uint256"},{"name":"organizer","type":"address","indexed":false,"internalType":"address"},{"name":"surveyType","type":"uint8","indexed":false,"internalType":"enum SurveyType"},{"name":"surveyPrompt","type":"string","indexed":false,"internalType":"string"}],"anonymous":false},{"type":"error","name":"AlreadyCompletedQuery","inputs":[]},{"type":"error","name":"FinishedSurvey","inputs":[]},{"type":"error","name":"InvalidMerkleProof","inputs":[]},{"type":"error","name":"InvalidQueryId","inputs":[]},{"type":"error","name":"InvalidSurvey","inputs":[]},{"type":"error","name":"InvalidSurveyId","inputs":[]},{"type":"error","name":"InvalidSurveyParameter","inputs":[{"name":"field","type":"string","internalType":"string"}]},{"type":"error","name":"InvalidUserMetadata","inputs":[]},{"type":"error","name":"ResultAlreadyReveal","inputs":[]},{"type":"error","name":"UnauthorizePendingQuery","inputs":[]},{"type":"error","name":"UnfinishedSurvey","inputs":[]},{"type":"error","name":"UserAlreadyVoted","inputs":[]}],"bytecode":{"object":"0x60806040523461021f5760006060610015610224565b8281528260208201528260408201520152739d6891a6240d6130c54ae243d8005063d05fe14b6060610045610224565b73fee8407e2f5e3ee68ad77cae98c434e637f516e580825273687408ab54661ba0b4aef3a44156c616c6955e076020830181905273fb03be574d14c256d56f09a198b586bdfc0a9de2604080850182905294909301949094527fed8d60e34876f751cc8b014c560745351147d9de11b9347c854e881b128ea60080546001600160a01b031990811690921790557fed8d60e34876f751cc8b014c560745351147d9de11b9347c854e881b128ea601805482169094179093557fed8d60e34876f751cc8b014c560745351147d9de11b9347c854e881b128ea6028054841690911790557fed8d60e34876f751cc8b014c560745351147d9de11b9347c854e881b128ea60380548316739d6891a6240d6130c54ae243d8005063d05fe14b1790557f93ab6e17f2c461cce6ea5d4ec117e51dda77a64affc2b2c05f8cd440def0e70080549092167333347831500f1e73f0cccbb95c9f86b94d7b112317909155516109e78082016001600160401b03811183821017610209578291614dd4833903906000f080156101fd57601380546001600160a01b0319166001600160a01b0392909216919091179055604051614b9090816102448239f35b6040513d6000823e3d90fd5b634e487b7160e01b600052604160045260246000fd5b600080fd5b60405190608082016001600160401b038111838210176102095760405256fe60a0604052600436101561001257600080fd5b60006080526080513560e01c8062653e901461263f578062bcd6d51461257a5780631bc5e6101461247e57806321acc8ea146123af57806333ce9e29146123355780634279ef3b146122b357806343859632146122595780635600d9ab14611ead578063960a4c181461164b578063a5b4e28a146114db578063b8f6255a146114bf578063bc37edb7146113fc578063c2485ebd146112a6578063d7b8f1cb146109085763dfa69f92146100c557600080fd5b346108e95760203660031901126108e9576004356001600160401b0381116108e95761010060031982360301126108e95760405161010281613293565b81600401356001600160401b0381116108e9578201366023820112156108e95761013690369060246004820135910161331d565b8152602482013560028110156108e9576020820190815260448301359283151584036108e9576040830193845260608301936064820135855260808401916084810135835260a0850160a4820135815260c48201356001600160401b0381116108e957820191366023840112156108e95760048301356101b581613306565b936101c360405195866132e5565b818552602060048187019360051b83010101903682116108e957602401915b8183106108ef5750505060c0870192835260e4810135906001600160401b0382116108e95760046102169236920101613363565b9360e08701948552865151156108ab578351610860575b80514211610828576003825111156107d8576102476148f1565b9761025189614875565b600a5460805152600b6020526040608051209488518051906001600160401b03821161062c5761028b826102858a54613677565b8a61382f565b6020906001601f84111461076a5791806102c2926102ff9594608051926105b0575b50508160011b916000199060031b1c19161790565b87555b600187019089516102d58161366d565b6102de8161366d565b8254915161ffff1990921660ff919091161790151560081b61ff0016179055565b51600285015551600384015551600483015551805160058301916001600160401b03821161062c57600160401b821161062c57602090835483855580841061071a575b500191608051526020608051208160051c916080515b8381106106e05750601f19811690038061068d575b505050506006019051805190600160401b821161062c57825482845580831061065c575b506020019160805152602060805120608051925b8284106104db576104a886866104418a604051906103c282613278565b60805182526020820190815261042a6003604084019360805185526060810194608051865260808201946080518652600a5460805152600c602052604060805120925183555160018301555160028201550192511515839060ff801983541691151516179055565b51815461ff00191690151560081b61ff0016179055565b7f52b91a8adb16d2c942f8afd364522fa27a2ab2df5adb982db50443fc31c05290600a5492839251906104738261366d565b51906104a060405192839233845261048a8161366d565b6020840152606060408401526060830190613571565b0390a2613876565b80600a5560001981019081116104c357602090604051908152f35b634e487b7160e01b6080515260116004526024608051fd5b805160208151916104ec838661376b565b0190836080515260206080512091608051905b82821061051c5750505050600160208192019201930192906103a5565b805180516003811015610644576080515060ff801987541691161785556020600186019101518051906001600160401b03821161062c57610567826105618554613677565b8561382f565b6020906001601f8411146105bb57926105a18360209460019794600297608051926105b05750508160011b916000199060031b1c19161790565b90555b019401910190926104ff565b0151905038806102ad565b90601f1983169184608051528160805120926080515b8181106106145750936001969360029693889383602098106105fb575b505050811b0190556105a4565b015160001960f88460031b161c191690553880806105ee565b929360206001819287860151815501950193016105d1565b634e487b7160e01b6080515260416004526024608051fd5b634e487b7160e01b6080515260216004526024608051fd5b83608051528260206080512091820191015b81811061067b5750610391565b806106876001926136c8565b0161066e565b6080519390845b8181106106aa575050500155600638808061036d565b90919460206106d6600192848951916106c28361366d565b9060ff809160031b9316831b921b19161790565b9601929101610694565b608051805b602081106106fa575083820155600101610358565b95906020610711600192898551916106c28361366d565b920196016106e5565b6107489085608051528360805120601f80870160051c8201928188168061074e575b500160051c01906136b1565b38610342565b600019850190815490600019908a0360031b1c1690553861073c565b90601f1983169189608051528160805120926080515b8181106107c057509160019391856102ff979694106107a7575b505050811b0187556102c5565b015160001960f88460031b161c1916905538808061079a565b92936020600181928786015181550195019301610780565b6040516205bde160ec1b815260206004820152602260248201527f496e76616c6964206d696e696d756d20726573706f6e7365207468726573686f6044820152611b1960f21b6064820152608490fd5b6040516205bde160ec1b815260206004820152601060248201526f496e76616c696420656e642074696d6560801b6044820152606490fd5b875161022d576040516205bde160ec1b815260206004820152601b60248201527f57686974656c69737420726f6f742068617368206973206e756c6c00000000006044820152606490fd5b6040516205bde160ec1b81526020600482015260166024820152755375727665792070726f6d707420697320656d70747960501b6044820152606490fd5b60805180fd5b823560028110156108e9578152602092830192016101e2565b346108e95760203660031901126108e957606060e060405161092981613293565b8281526080516020820152608051604082015260805183820152608051608082015260805160a08201528260c0820152015260043560805152600b60205260406080512060405161097981613293565b6040516109918161098a81866138c4565b03826132e5565b81526001820154602082019260ff82166109aa8161366d565b845260ff604084019260081c161515825260028101546060840190815260038201546080850190815260048301549160a08601928352600584019360405180958691602082549182815201916080515260206080512090608051915b81601f840110610fde5792610b269260069592610b3397955491818110610fc1575b818110610fa1575b818110610f81575b818110610f61575b818110610f42575b818110610f22575b818110610f02575b818110610ee2575b818110610ec2575b818110610ea2575b818110610e82575b818110610e62575b818110610e42575b818110610e22575b818110610e02575b818110610de2575b818110610dc2575b818110610da2575b818110610d82575b818110610d62575b818110610d42575b818110610d22575b818110610d02575b818110610ce2575b818110610cc2575b818110610ca2575b818110610c82575b818110610c62575b818110610c42575b818110610c22575b818110610c02575b10610be9575b5003886132e5565b60c0890196875201613d26565b9460e08701958652610b5a60405197602089525161010060208a0152610120890190613571565b9751610b658161366d565b604088015251151560608701525160808601525160a08501525160c08401525192601f198382030160e0840152602080855192838152019401906080515b818110610bc8578480610bc4888751601f19848303016101008501526135b2565b0390f35b9091946020806001928851610bdc8161366d565b8152019601929101610ba3565b9060209160f81c610bf98161366d565b8152018d610b1e565b92602060019160ff8560f01c16610c188161366d565b8152019301610b18565b92602060019160ff8560e81c16610c388161366d565b8152019301610b10565b92602060019160ff8560e01c16610c588161366d565b8152019301610b08565b92602060019160ff8560d81c16610c788161366d565b8152019301610b00565b92602060019160ff8560d01c16610c988161366d565b8152019301610af8565b92602060019160ff8560c81c16610cb88161366d565b8152019301610af0565b92602060019160ff8560c01c16610cd88161366d565b8152019301610ae8565b92602060019160ff8560b81c16610cf88161366d565b8152019301610ae0565b92602060019160ff8560b01c16610d188161366d565b8152019301610ad8565b92602060019160ff8560a81c16610d388161366d565b8152019301610ad0565b92602060019160ff8560a01c16610d588161366d565b8152019301610ac8565b92602060019160ff8560981c16610d788161366d565b8152019301610ac0565b92602060019160ff8560901c16610d988161366d565b8152019301610ab8565b92602060019160ff8560881c16610db88161366d565b8152019301610ab0565b92602060019160ff8560801c16610dd88161366d565b8152019301610aa8565b92602060019160ff8560781c16610df88161366d565b8152019301610aa0565b92602060019160ff8560701c16610e188161366d565b8152019301610a98565b92602060019160ff8560681c16610e388161366d565b8152019301610a90565b92602060019160ff8560601c16610e588161366d565b8152019301610a88565b92602060019160ff8560581c16610e788161366d565b8152019301610a80565b92602060019160ff8560501c16610e988161366d565b8152019301610a78565b92602060019160ff8560481c16610eb88161366d565b8152019301610a70565b92602060019160ff8560401c16610ed88161366d565b8152019301610a68565b92602060019160ff8560381c16610ef88161366d565b8152019301610a60565b92602060019160ff8560301c16610f188161366d565b8152019301610a58565b92602060019160ff8560281c16610f388161366d565b8152019301610a50565b92602060019160ff85831c16610f578161366d565b8152019301610a48565b92602060019160ff8560181c16610f778161366d565b8152019301610a40565b92602060019160ff8560101c16610f978161366d565b8152019301610a38565b92602060019160ff8560081c16610fb78161366d565b8152019301610a30565b92602060019160ff8516610fd48161366d565b8152019301610a28565b935090916001610400602092865460ff8116610ff98161366d565b825260ff8160081c1661100b8161366d565b8583015260ff8160101c1661101f8161366d565b604083015260ff8160181c166110348161366d565b606083015260ff81861c166110488161366d565b608083015260ff8160281c1661105d8161366d565b60a083015260ff8160301c166110728161366d565b60c083015260ff8160381c166110878161366d565b60e083015260ff8160401c1661109c8161366d565b61010083015260ff8160481c166110b28161366d565b61012083015260ff8160501c166110c88161366d565b61014083015260ff8160581c166110de8161366d565b61016083015260ff8160601c166110f48161366d565b61018083015260ff8160681c1661110a8161366d565b6101a083015260ff8160701c166111208161366d565b6101c083015260ff8160781c166111368161366d565b6101e083015260ff8160801c1661114c8161366d565b61020083015260ff8160881c166111628161366d565b61022083015260ff8160901c166111788161366d565b61024083015260ff8160981c1661118e8161366d565b61026083015260ff8160a01c166111a48161366d565b61028083015260ff8160a81c166111ba8161366d565b6102a083015260ff8160b01c166111d08161366d565b6102c083015260ff8160b81c166111e68161366d565b6102e083015260ff8160c01c166111fc8161366d565b61030083015260ff8160c81c166112128161366d565b61032083015260ff8160d01c166112288161366d565b61034083015260ff8160d81c1661123e8161366d565b61036083015260ff8160e01c166112548161366d565b61038083015260ff8160e81c1661126a8161366d565b6103a083015260ff8160f01c166112808161366d565b6103c083015260f81c6112928161366d565b6103e0820152019401920190889392610a06565b346108e95760203660031901126108e9576040516112c381613246565b60805181526060602082015260805160408201526080516060820152608051608082015260805160a082015260805160c082015260805160e082015261010060805191015260043560805152601060205260406080512060405161132681613246565b8154815261133660018301613d26565b9160208201928352600281015490604083019182526003810154906060840191825260048101546080850190815260058201549060a086019060ff83161515825260ff60c088019360081c1615158352600760068501549460e0890195865201549461010088019586526113c7604051998a9960208b525160208b01525161012060408b01526101408a01906135b2565b965160608901525160808801525160a087015251151560c086015251151560e085015251610100840152516101208301520390f35b346108e95760403660031901126108e95760243580151581036108e957600080516020614b1b833981519152546001600160a01b031633036108e957600435608051526012602052604060805120906001825492015490600014611469576114639161478a565b60805180f35b611482908260805152600d602052604060805120613892565b5060018060a01b03905416907f1ea66d04930e46a4f83ad34eb0ecf7438043bbfd37a662a38b044d28eed38a3f60206040516080518152a3611463565b346108e95760203660031901126108e957611463600435613a88565b346108e95760603660031901126108e957600080516020614b1b83398151915254602435906001600160a01b031633036108e957600435608051526011602052604060805120549080156000146115dd575080608051526010602052600560406080512001600160ff198254161790555b806080515260106020526040608051205490806080515260106020527f80dd3c9152e63d7857ca01b1dd1e2ff42cc2b61dd6ad502108de1215fcde0ba2606060ff6005604060805120015460081c168360805152601060205260066040608051200154846080515260106020526007604060805120015490604051921515835260208301526040820152a360805180f35b8160805152601060205260066040608051200155806080515260106020526044356007604060805120015580608051526010602052600560406080512001600160ff198254161790558060805152601060205260056040608051200161010061ff001982541617905561154c565b346108e95760203660031901126108e957600435600f54811015611e9a578060805152601060205260ff6005604060805120015416611e87578060805152601060205260406080512054816080515260106020526004604060805120015460805150600a81018091116104c35760808051839052600d602052516040902054811015611e70575b6116da61494a565b916116e36148f1565b915b8460805152601060205280600460406080512001541015611a11578160805152600d60205261172d604060805120866080515260106020526004604060805120015490613892565b506040519061173b826132ca565b60018060a01b03815416825260018101549160208101928352600282019160405180938491602082549182815201916080515260206080512090608051905b8082106119f5575050506060939261179860ff9360039303876132e5565b60408401958652015416151591829101526117d4575b5050846080515260106020526004604060805120016117cd8154613876565b90556116e5565b60206118169160018060a01b036013541689608051526010835260016040608051200191519160405180958194829363a8eac0b160e01b84526004840161397b565b0391608051905af190811561197e57608051916119c1575b50606491602060018060a01b03600080516020614b3b83398151915254166040519485809263cb3b940760e01b82528660048301528b60248301528a6044830152608051905af192831561197e576080519361198b575b5060209051606460018060a01b03600080516020614b3b833981519152541693604051948593849263cb3b940760e01b845260048401526024830152896044830152608051905af190811561197e5760805191611946575b506118fe61192b9288608051526010602052600360406080512001546145d9565b876080515260106020526003604060805120015586608051526010602052600260406080512001546145d9565b856080515260106020526002604060805120015585806117ae565b905060203d8111611977575b61195c81836132e5565b602082600092810103126119745750516118fe6118dd565b80fd5b503d611952565b6040513d608051823e3d90fd5b90925060203d81116119ba575b6119a281836132e5565b60208260009281010312611974575051916020611885565b503d611998565b905060203d81116119ee575b6119d781836132e5565b60208260009281010312611974575051606461182e565b503d6119cd565b919350916001602081928654815201940192018693929161177a565b50915082608051526010602052600460406080512001548260805152600d602052604060805120541115611a455760805180f35b8160805152600b602052611a98611a93611a67600460406080512001546149a3565b938060805152600c602052604060805120549060805152600b6020526004604060805120015490613885565b6149a3565b836080515260106020526003604060805120015492808415611e60575b15611e4e575b600080516020614b3b83398151915254604051631f31e28560e11b8152600481019590955260248501919091526080805160448601525160209185916064918391906001600160a01b03165af192831561197e5760805193611e1a575b50836080515260106020526003604060805120015490808215611e0a575b15611df8575b600080516020614b3b83398151915254604051639675211f60e01b8152600481019390935260248301919091526080805160448401525160209183916064918391906001600160a01b03165af1801561197e5760805190611dc5575b600080516020614b3b83398151915254604051630ccd46b160e31b8152600481019590955260248501919091526080805160448601525160209250849160649183916001600160a01b03165af191821561197e5760805192611d91575b50826080515260106020526003604060805120015491602060018060a01b03600080516020614b3b83398151915254169360646040518096819363cb3b940760e01b83528660048401526024830152866044830152608051905af192831561197e5760805193611d5c575b506020908460805152601082526064600260406080512001549160018060a01b03600080516020614b3b8339815191525416604051958694859363cb3b940760e01b8552600485015260248401526044830152608051905af190811561197e5760805191611d25575b5060405191611cd96060846132e5565b600283526040366020850137611cee83613a57565b52611cf882613a64565b52606442018042116104c357611d0d9161468f565b60805152601160205260406080512055808080611463565b90506020813d602011611d54575b81611d40602093836132e5565b81010312611d4f575183611cc9565b600080fd5b3d9150611d33565b9092506020813d602011611d89575b81611d78602093836132e5565b81010312611d4f5751916020611c60565b3d9150611d6b565b9091506020813d602011611dbd575b81611dad602093836132e5565b81010312611d4f57519083611bf5565b3d9150611da0565b506020813d602011611df0575b81611ddf602093836132e5565b81010312611d4f5760209051611b98565b3d9150611dd2565b506020611e036148f1565b9050611b3c565b9150611e146148f1565b91611b36565b9092506020813d602011611e46575b81611e36602093836132e5565b81010312611d4f57519184611b18565b3d9150611e29565b506020611e596148f1565b9050611abb565b9350611e6a6148f1565b93611ab5565b508060805152600d602052604060805120546116d2565b630df890a560e31b608051526004608051fd5b636806f54760e01b608051526004608051fd5b346108e957611ebb366134ae565b600f54821015611e9a578160805152601060205260ff6005604060805120015416611e875781608051526010602052604060805120549082608051526010602052600460406080512001549081018091116122435760808051839052600d60205251604090205481101561222c575b611f3261494a565b91611f3b6148f1565b915b8460805152601060205280600460406080512001541015611a11578160805152600d602052611f85604060805120866080515260106020526004604060805120015490613892565b5060405190611f93826132ca565b60018060a01b03815416825260018101549160208101928352600282019160405180938491602082549182815201916080515260206080512090608051905b8082106122105750505060609392611ff060ff9360039303876132e5565b604084019586520154161515918291015261202c575b5050846080515260106020526004604060805120016120258154613876565b9055611f3d565b602061206e9160018060a01b036013541689608051526010835260016040608051200191519160405180958194829363a8eac0b160e01b84526004840161397b565b0391608051905af190811561197e57608051916121dc575b50606491602060018060a01b03600080516020614b3b83398151915254166040519485809263cb3b940760e01b82528660048301528b60248301528a6044830152608051905af192831561197e57608051936121a6575b5060209051606460018060a01b03600080516020614b3b833981519152541693604051948593849263cb3b940760e01b845260048401526024830152896044830152608051905af190811561197e5760805191612171575b506118fe6121569288608051526010602052600360406080512001546145d9565b85608051526010602052600260406080512001558580612006565b905060203d811161219f575b61218781836132e5565b602082600092810103126119745750516118fe612135565b503d61217d565b90925060203d81116121d5575b6121bd81836132e5565b602082600092810103126119745750519160206120dd565b503d6121b3565b905060203d8111612209575b6121f281836132e5565b602082600092810103126119745750516064612086565b503d6121e8565b9193509160016020819286548152019401920186939291611fd2565b508060805152600d60205260406080512054611f2a565b634e487b7160e01b600052601160045260246000fd5b346108e95760403660031901126108e9576024356001600160a01b03811681036108e95760043560805152600e6020526040608051209060018060a01b0316600052602052602060ff604060002054166040519015158152f35b346108e95760203660031901126108e95760043560805152601060205261010060406080512080549060028101549060ff6003820154600483015460058401549160076006860154950154956040519788526020880152604087015260608601528181161515608086015260081c16151560a084015260c083015260e0820152f35b346108e95760803660031901126108e9576044356001600160401b0381116108e9576123659036906004016134c4565b606435906001600160401b0382116108e957612388611463923690600401613521565b6040519290919061239a6020856132e5565b60805184526000368137602435600435613dfc565b346108e95760a03660031901126108e9576044356001600160401b0381116108e9576123df9036906004016134c4565b6064356001600160401b0381116108e9576123fe903690600401613521565b608435916001600160401b0383116108e957366023840112156108e95782600401359361242a85613306565b9361243860405195866132e5565b8585526024602086019660051b820101903682116108e957602401955b81871061246e5750506114639450602435600435613dfc565b8635815260209687019601612455565b346108e95761248c366134ae565b600080516020614b1b833981519152549091906001600160a01b031633036108e9576080515260116020527fc3775fddf030d25d6e94614562d503ba2328165591eed3133412a193f0b5cd0660806040815120549283825152600c6020528060026040845120015583825152600c6020526003604083512001600160ff1982541617905583825152600c602052600360408351200161010061ff001982541617905583825152600b60205260ff600160408451200154169084835152600c60205260408351205460405192600184526125648161366d565b602084015260408301526060820152a260805180f35b346108e95760203660031901126108e95760405161259781613278565b60805181526080516020820152608051604082015260805160608201526080805191015260043560805152600c60205260a0604060805120604051906125dc82613278565b8054918281526001820154916020820192835260036002820154916040840192835201549260ff6080606085019482871615158652019460081c161515845260405194855251602085015251604084015251151560608301525115156080820152f35b346108e95760403660031901126108e9576024356001600160401b0381116108e95761266f903690600401613363565b600a5460043510156132335760043560805152600c60205260ff6003604060805120015416156132205760043560805152600c60205260ff6003604060805120015460081c161561320d5760018060a01b036013541660043560805152600b602052600560406080512001813b156108e95760405180926304d8754f60e11b82526044820160406004840152835480915260648301936080515260206080512090608051915b81601f840110612f43575491818110612f26575b818110612f06575b818110612ee6575b818110612ec6575b818110612ea7575b818110612e87575b818110612e67575b818110612e47575b818110612e27575b818110612e07575b818110612de7575b818110612dc7575b818110612da7575b818110612d87575b818110612d67575b818110612d47575b818110612d27575b818110612d07575b818110612ce7575b818110612cc7575b818110612ca7575b818110612c87575b818110612c67575b818110612c47575b818110612c27575b818110612c07575b818110612be7575b818110612bc7575b818110612ba7575b818110612b87575b818110612b67575b10612b4c575b50600319828403016024830152818061283b60805195886135b2565b03915afa801561197e57612b3a575b506128536148f1565b61285b6148f1565b6040519061286882613246565b60043582526020820193845260408201928352606082019081526080820190608051825260805160a084015260805160c084015260805160e08401526101008301936080518552600f546080515260106020526040608051209584518755600187019051805190600160401b821161062c578254828455808310612b09575b506020019160805152602060805120608051925b8284106129bc578960078a60e08b8b8b8b51600288015551600387015551600486015561295c6005860161294160a08401511515829060ff801983541691151516179055565b60c0830151815461ff00191690151560081b61ff0016179055565b01516006840155519101556129a1600f54604051338152817ff4bfd720334815b6b1792e0d517529b217fe3eb94a904ec5801b037aee18949e602060043593a3613876565b80600f5560001981019081116104c357602090604051908152f35b805160208151916129cd838661376b565b01908360805152602060805120608051925b8284106129fc5750505050600160208192019201930192906128fb565b80518051906003821015610644576020916080515060ff8019865416911617845501518051906001600160401b03821161062c57612a4a82612a416001870154613677565b6001870161382f565b6020906001601f841114612a945792612a8383600294602094600197608051926105b05750508160011b916000199060031b1c19161790565b848601555b019201930192906129df565b90601f1983169160018601608051528160805120926080515b818110612af15750936020936001969387938360029810612ad8575b505050811b0184860155612a88565b015160001960f88460031b161c19169055388080612ac9565b92936020600181928786015181550195019301612aad565b83608051528260206080512091820191015b818110612b2857506128e7565b80612b346001926136c8565b01612b1b565b608051612b46916132e5565b8161284a565b926020919360f81c612b5d8161366d565b815201918561281f565b94602060019160ff8560f01c16612b7d8161366d565b8152019501612819565b94602060019160ff8560e81c16612b9d8161366d565b8152019501612811565b94602060019160ff8560e01c16612bbd8161366d565b8152019501612809565b94602060019160ff8560d81c16612bdd8161366d565b8152019501612801565b94602060019160ff8560d01c16612bfd8161366d565b81520195016127f9565b94602060019160ff8560c81c16612c1d8161366d565b81520195016127f1565b94602060019160ff8560c01c16612c3d8161366d565b81520195016127e9565b94602060019160ff8560b81c16612c5d8161366d565b81520195016127e1565b94602060019160ff8560b01c16612c7d8161366d565b81520195016127d9565b94602060019160ff8560a81c16612c9d8161366d565b81520195016127d1565b94602060019160ff8560a01c16612cbd8161366d565b81520195016127c9565b94602060019160ff8560981c16612cdd8161366d565b81520195016127c1565b94602060019160ff8560901c16612cfd8161366d565b81520195016127b9565b94602060019160ff8560881c16612d1d8161366d565b81520195016127b1565b94602060019160ff8560801c16612d3d8161366d565b81520195016127a9565b94602060019160ff8560781c16612d5d8161366d565b81520195016127a1565b94602060019160ff8560701c16612d7d8161366d565b8152019501612799565b94602060019160ff8560681c16612d9d8161366d565b8152019501612791565b94602060019160ff8560601c16612dbd8161366d565b8152019501612789565b94602060019160ff8560581c16612ddd8161366d565b8152019501612781565b94602060019160ff8560501c16612dfd8161366d565b8152019501612779565b94602060019160ff8560481c16612e1d8161366d565b8152019501612771565b94602060019160ff8560401c16612e3d8161366d565b8152019501612769565b94602060019160ff8560381c16612e5d8161366d565b8152019501612761565b94602060019160ff8560301c16612e7d8161366d565b8152019501612759565b94602060019160ff8560281c16612e9d8161366d565b8152019501612751565b94602060019160ff85831c16612ebc8161366d565b8152019501612749565b94602060019160ff8560181c16612edc8161366d565b8152019501612741565b94602060019160ff8560101c16612efc8161366d565b8152019501612739565b94602060019160ff8560081c16612f1c8161366d565b8152019501612731565b94602060019160ff8516612f398161366d565b8152019501612729565b9460209192939450610400600191875460ff8116612f608161366d565b825260ff8160081c16612f728161366d565b8583015260ff8160101c16612f868161366d565b604083015260ff8160181c16612f9b8161366d565b606083015260ff81861c16612faf8161366d565b608083015260ff8160281c16612fc48161366d565b60a083015260ff8160301c16612fd98161366d565b60c083015260ff8160381c16612fee8161366d565b60e083015260ff8160401c166130038161366d565b61010083015260ff8160481c166130198161366d565b61012083015260ff8160501c1661302f8161366d565b61014083015260ff8160581c166130458161366d565b61016083015260ff8160601c1661305b8161366d565b61018083015260ff8160681c166130718161366d565b6101a083015260ff8160701c166130878161366d565b6101c083015260ff8160781c1661309d8161366d565b6101e083015260ff8160801c166130b38161366d565b61020083015260ff8160881c166130c98161366d565b61022083015260ff8160901c166130df8161366d565b61024083015260ff8160981c166130f58161366d565b61026083015260ff8160a01c1661310b8161366d565b61028083015260ff8160a81c166131218161366d565b6102a083015260ff8160b01c166131378161366d565b6102c083015260ff8160b81c1661314d8161366d565b6102e083015260ff8160c01c166131638161366d565b61030083015260ff8160c81c166131798161366d565b61032083015260ff8160d01c1661318f8161366d565b61034083015260ff8160d81c166131a58161366d565b61036083015260ff8160e01c166131bb8161366d565b61038083015260ff8160e81c166131d18161366d565b6103a083015260ff8160f01c166131e78161366d565b6103c083015260f81c6131f98161366d565b6103e0820152019501920190859392612715565b63147cbf7360e31b608051526004608051fd5b634164a28160e01b608051526004608051fd5b63242a36cd60e11b608051526004608051fd5b61012081019081106001600160401b0382111761326257604052565b634e487b7160e01b600052604160045260246000fd5b60a081019081106001600160401b0382111761326257604052565b61010081019081106001600160401b0382111761326257604052565b604081019081106001600160401b0382111761326257604052565b608081019081106001600160401b0382111761326257604052565b90601f801991011681019081106001600160401b0382111761326257604052565b6001600160401b0381116132625760051b60200190565b9291926001600160401b0382116132625760405191613346601f8201601f1916602001846132e5565b829481845281830111611d4f578281602093846000960137010152565b81601f82011215611d4f5780359061337a82613306565b9261338860405194856132e5565b82845260208085019360051b83010191818311611d4f5760208101935b8385106133b457505050505090565b84356001600160401b038111611d4f57820183603f82011215611d4f5760208101356133df81613306565b916133ed60405193846132e5565b8183526020808085019360051b8301010190868211611d4f5760408101925b8284106134265750505090825250602094850194016133a5565b83356001600160401b038111611d4f57602090830101906040601f19838b030112611d4f5760405191613458836132af565b60208101356003811015611d4f57835260408101356001600160401b038111611d4f5760209101019089601f83011215611d4f5760209261349f8b8486809635910161331d565b8382015281520193019261340c565b6040906003190112611d4f576004359060243590565b9080601f83011215611d4f5781356134db81613306565b926134e960405194856132e5565b81845260208085019260051b820101928311611d4f57602001905b8282106135115750505090565b8135815260209182019101613504565b9181601f84011215611d4f578235916001600160401b038311611d4f5760208381860195010111611d4f57565b90600382101561355b5752565b634e487b7160e01b600052602160045260246000fd5b919082519283825260005b84811061359d575050826000602080949584010152601f8019910116010190565b8060208092840101518282860101520161357c565b9080602083519182815201916020808360051b8301019401926000915b8383106135de57505050505090565b9091929394601f19828203018352855190815180825260208201906020808260051b85010194019260005b82811061362a575050505050602080600192970193019301919392906135cf565b9091929394602080613660600193601f198782030189526040838b5161365184825161354e565b01519181858201520190613571565b9701950193929101613609565b6002111561355b57565b90600182811c921680156136a7575b602083101461369157565b634e487b7160e01b600052602260045260246000fd5b91607f1691613686565b8181106136bc575050565b600081556001016136b1565b80549060008155816136d8575050565b6001600160ff1b0382168203612243576000908152602081209160011b8201915b82811061370557505050565b808260029255826001820161371a8154613677565b80613729575b505050016136f9565b601f811160011461373f5750555b823880613720565b8183526020832061375b91601f0160051c8101906001016136b1565b8082528160208120915555613737565b600160401b82116132625780549082815581831061378857505050565b6001600160ff1b0382168203612243576001600160ff1b03831683036122435760005260206000209060011b81019160011b015b8181106137c7575050565b80600060029255600181016137dc8154613677565b90816137eb575b5050016137bc565b81601f600093116001146138035750555b38806137e3565b8183526020832061381f91601f0160051c8101906001016136b1565b80825281602081209155556137fc565b9190601f811161383e57505050565b61386a926000526020600020906020601f840160051c8301931061386c575b601f0160051c01906136b1565b565b909150819061385d565b60001981146122435760010190565b9190820391821161224357565b80548210156138ae5760005260206000209060021b0190600090565b634e487b7160e01b600052603260045260246000fd5b600092918154916138d483613677565b808352926001811690811561392a57506001146138f057505050565b60009081526020812093945091925b838310613910575060209250010190565b6001816020929493945483858701015201910191906138ff565b915050602093945060ff929192191683830152151560051b010190565b906020808351928381520192019060005b8181106139655750505090565b8251845260209384019390920191600101613958565b929160408401604085528254809152606085019060608160051b870101936000526020600020916000905b8282106139c657505050508360206139c394958403910152613947565b90565b90919294605f198882030182528554908181526020810160208360051b830101928860005260206000209260005b828110613a145750505050506020600180929701920192019092916139a6565b909192939460206002613a4a6040600194601f19888203018a52613a3c8160ff8d541661354e565b818582015201848a016138c4565b97019501939291016139f4565b8051156138ae5760200190565b8051600110156138ae5760400190565b80518210156138ae5760209160051b010190565b600a54600090821015613d1757818152600b60205260036040822001544210613d0857818152600c60205260ff600360408320015416613cf957818152600c6020526040812054828252600b602052600460408320015411613c78576040908151613af383826132e5565b60018152601f198301366020830137838252600c60205260018383200154613b1a82613a57565b526064420190814211613c6457600080516020614afb833981519152546001600160a01b0316803b15613c6057838551809263155f840160e21b825260206004830152818381613b6d6024820189613947565b03925af18015613c5657613c3d575b50600080516020614b1b833981519152548451634c0d927760e01b815260a060048201529260209284926001600160a01b031691839187918391613bc49060a4840190613947565b906301bc5e6160e41b6024840152836044840152606483015282608483015203925af1908115613c33578291613c01575b50815260116020522055565b90506020813d602011613c2b575b81613c1c602093836132e5565b81010312611d4f575138613bf5565b3d9150613c0f565b83513d84823e3d90fd5b83613c4e60209395613bc4936132e5565b939150613b7c565b85513d86823e3d90fd5b8380fd5b634e487b7160e01b83526011600452602483fd5b608081837fc3775fddf030d25d6e94614562d503ba2328165591eed3133412a193f0b5cd069352600c60205260036040822001600160ff19825416179055838152600b60205260ff60016040832001541690848152600c602052604081205460405192828452613ce78161366d565b602084015260408301526060820152a2565b63d96068dd60e01b8152600490fd5b634164a28160e01b8152600490fd5b63242a36cd60e11b8152600490fd5b90815491613d3383613306565b92613d4160405194856132e5565b80845260208401916000526020600020916000905b828210613d635750505050565b8354613d6e81613306565b90613d7c60405192836132e5565b80825260208201908660005260206000206000925b828410613db257505050506020826001939284935201940191019092613d56565b604051613dbe816132af565b60ff835416600381101561355b576001928260209260029452604051613dea8161098a81898b016138c4565b83820152815201920193019290613d91565b9094959395600a548210156145c85781600052600b6020526003604060002001544210156145b7576000828152600e6020908152604080832033845290915290205460ff166145a65781600052600b6020526005604060002001548351036145955781600052600b60205260ff60016040600020015460081c166144ce575b5080600052600b60205260056040600020015493613e9885613306565b94613ea660405196876132e5565b808652613eb5601f1991613306565b0136602087013760005b82600052600b6020526005604060002001548110156140b55782600052600b602052600560406000200180548210156138ae5760005260ff60206000208260051c015460f88360031b161c16613f148161366d565b806140705750613f248185613a74565b5190613f826020613f36368c8a61331d565b60009460018060a01b03600080516020614b3b833981519152541690866040518096819582946302e817ff60e41b84526004840152336024840152608060448401526084830190613571565b82606483015203925af192831561406457809361402e575b5050600080516020614afb833981519152546001600160a01b031691823b15611d4f576040516346ce4e4960e11b815260048101829052336024820152926000908490604490829084905af19081156140225760019361400b92614011575b5080614005848b613a74565b52614875565b01613ebf565b600061401c916132e5565b38613ff9565b6040513d6000823e3d90fd5b909192506020823d821161405c575b8161404a602093836132e5565b81010312611974575051903880613f9a565b3d915061403d565b604051903d90823e3d90fd5b906001809261407e8161366d565b0361400b576140b06140a56140938388613a74565b5161409f368d8b61331d565b906149fc565b80614005848b613a74565b61400b565b509561409f91959250926140ca93369161331d565b6140d381614875565b604051906140e0826132ca565b338252602082019081526040820183815260608301916000835285600052600d60205260406000208054600160401b8110156132625761412591600182018155613892565b9490946144b8575184546001600160a01b0319166001600160a01b03919091161784555160018401555180519060028401906001600160401b03831161326257600160401b831161326257602090825484845580851061449b575b500190600052602060002060005b83811061448757505050509060036141b69251151591019060ff801983541691151516179055565b81600052600e602052604060002060018060a01b0333166000526020526040600020600160ff19825416179055817f03b562e13524df9ad0948873c24d44336296e8aaef105cb0e60f18d40378ef576020604051338152a26000828152600b6020526040902060060154156144625760206142649160018060a01b036013541684600052600b83526006604060002001600060405180968195829463a8eac0b160e01b84526004840161397b565b03925af190811561402257600091614430575b5061428181614875565b604080519161429082846132e5565b60018352601f1982013660208501376142a883613a57565b526064420180421161224357600080516020614afb83398151915254600093906001600160a01b0316803b1561442c57848451809263155f840160e21b8252602060048301528183816142fe6024820189613947565b03925af1801561442257916143559186602094614412575b505060018060a01b03600080516020614b1b833981519152541690868651809681958294634c0d927760e01b845260a0600485015260a4840190613947565b9063bc37edb760e01b6024840152836044840152606483015282608483015203925af19283156144075780936143d0575b505082600052600d6020528060002054906000198201918211612243576001928151946143b2866132af565b85526020850192835260005260126020526000209251835551910155565b909192506020823d6020116143ff575b816143ed602093836132e5565b81010312611974575051903880614386565b3d91506143e0565b8251903d90823e3d90fd5b61441b916132e5565b3886614316565b84513d87823e3d90fd5b8480fd5b906020823d60201161445a575b8161444a602093836132e5565b8101031261197457505138614277565b3d915061443d565b5080600052600d60205260406000205460001981019081116122435761386a9161478a565b60019060208451940193818401550161418e565b6144b29084600052858460002091820191016136b1565b38614180565b634e487b7160e01b600052600060045260246000fd5b95926040959295949194516020810190338252602081526144f06040826132e5565b519020604051602081019182526020815261450c6040826132e5565b5190209585600052600b60205260026040600020015496956000965b895188101561456f5761453b888b613a74565b519060008282101561455e5750600052602052600160406000205b970196614528565b604091600193825260205220614556565b91949792959850929550036145845738613e7b565b63582f497d60e11b60005260046000fd5b6352ebbd8f60e11b60005260046000fd5b6338ec521360e01b60005260046000fd5b63291b3d4d60e21b60005260046000fd5b63242a36cd60e11b60005260046000fd5b90811561467f575b801561466d575b602090606460018060a01b03600080516020614b3b8339815191525416936000604051958694859363f953e42760e01b8552600485015260248401528160448401525af19081156140225760009161463e575090565b90506020813d602011614665575b81614659602093836132e5565b81010312611d4f575190565b3d915061464c565b5060206146786148f1565b90506145e8565b90506146896148f1565b906145e1565b600080516020614afb8339815191525460009291906001600160a01b0316803b15613c605783604051809263155f840160e21b8252602060048301528183816146db6024820189613947565b03925af1801561477f57614766575b50600080516020614b1b83398151915254604051634c0d927760e01b815260a060048201529260209284926001600160a01b0316918391879183916147339060a4840190613947565b906352da714560e11b6024840152836044840152606483015282608483015203925af1918215614064579161463e575090565b8361477760209395614733936132e5565b9391506146ea565b6040513d86823e3d90fd5b9061483c9082600052600c6020526147c660016040600020015484600052600d60205260016147bd846040600020613892565b500154906145d9565b6000848152600c60205260409020600181019190915580546147e790613876565b905582600052600c602052614803600160406000200154614875565b82600052600d602052600361481c826040600020613892565b5001600160ff1982541617905582600052600d6020526040600020613892565b5060018060a01b03905416907f1ea66d04930e46a4f83ad34eb0ecf7438043bbfd37a662a38b044d28eed38a3f602060405160018152a3565b600080516020614afb833981519152546000916001600160a01b0390911690813b156148ed57604051631974142760e21b815260048101919091523060248201529082908290818381604481015b03925af180156148e2576148d5575050565b816148df916132e5565b50565b6040513d84823e3d90fd5b8280fd5b600080516020614b3b83398151915254604051631ce2e8d760e31b8152600060048201819052600160fb1b60248301529091602091839160449183916001600160a01b03165af19081156140225760009161463e575090565b600080516020614b3b83398151915254604051631ce2e8d760e31b815260016004820152600160fb1b602482015290602090829060449082906000906001600160a01b03165af19081156140225760009161463e575090565b600080516020614b3b83398151915254604051631ce2e8d760e31b81526004810192909252600160fb1b6024830152602090829060449082906000906001600160a01b03165af19081156140225760009161463e575090565b6020614a469392600080516020614b3b83398151915254600093846040518098819582946302e817ff60e41b84526004840152336024840152608060448401526084830190613571565b600160fb1b606483015203926001600160a01b03165af1928315614aed578193614ab9575b50600080516020614afb833981519152546001600160a01b031683813b156148ed576040516346ce4e4960e11b815260048101919091523360248201529082908290818381604481016148c3565b9092506020813d602011614ae5575b81614ad5602093836132e5565b810103126148ed57519138614a6b565b3d9150614ac8565b50604051903d90823e3d90fdfeed8d60e34876f751cc8b014c560745351147d9de11b9347c854e881b128ea60093ab6e17f2c461cce6ea5d4ec117e51dda77a64affc2b2c05f8cd440def0e700ed8d60e34876f751cc8b014c560745351147d9de11b9347c854e881b128ea601a2646970667358221220fa78e047eeb423875f0601ba2456baf350e111a183f404452bb7c0d6a19b2a5664736f6c634300081c003360806040523460ed577f871b3b0713ea5d7fd1f75a811c349209996193f3a2535cdfd79d35416bf801238054600160ff1991821681179092557fe3be84349242383ed4b31bbb7ede08a8080ac9d5e828342f449d34bf731539e980548216831790557fb37150ceb7e138645bfe4dfcef9a75073e1d7aa14c524dfdd20d3f751fad1084805482168317905560026000527fad3228b676f7d3cd4284a5443f17f1962b36e491b30a40b2405849e597ba5fb56020527f09f922a082099d8bb3cef76f214b97d4ea18be3ab11deb731e4676110a885b48805490911690911790556040516108f490816100f38239f35b600080fdfe6080604052600436101561001257600080fd5b60003560e01c806309b0ea9e146105e55780638e1fb2e11461059a5763a8eac0b11461003d57600080fd5b3461043d57604036600319011261043d576004356001600160401b03811161043d573660238201121561043d578060040135610078816107a7565b916100866040519384610786565b8183526024602084019260051b8201019036821161043d5760248101925b82841061044257602435856001600160401b03821161043d573660238301121561043d578160040135916100d7836107a7565b926100e56040519485610786565b8084526024602085019160051b8301019136831161043d57602401905b82821061042d57505050600080602060018060a01b0360008051602061089f8339815191525416604460405180948193631ce2e8d760e31b8352600160048401528160248401525af19182156103b55780926103f8575b50509160005b82518110156103ed576000935b6101768285610802565b51518510156103e3576101938561018d8487610802565b51610802565b5161019e8385610802565b51906000815160038110156103cd576000906103c15750506020809101518181518183019384916000940101031261031657505160008051602061089f83398151915254604051631ce2e8d760e31b81526004810192909252600160fb1b6024830152600091906020908290604490829086906001600160a01b03165af19182156103b5578092610381575b5050808215610371575b1561035f575b602090606460018060a01b0360008051602061089f83398151915254169360006040519586948593631f31e28560e11b8552600485015260248401528160448401525af180156103215760009061032d575b602091505b606460018060a01b0360008051602061089f83398151915254169360006040519586948593630ccd46b160e31b8552600485015260248401528160448401525af18015610321576000906102ec575b6001915094019361016c565b6020823d8211610319575b8161030460209383610786565b810103126103165750600190516102e0565b80fd5b3d91506102f7565b6040513d6000823e3d90fd5b6020823d8211610357575b8161034560209383610786565b8101031261031657506020905161028c565b3d9150610338565b50602061036a610816565b905061023a565b915061037b610816565b91610234565b9091506020823d82116103ad575b8161039c60209383610786565b81010312610316575051878061022a565b3d915061038f565b604051903d90823e3d90fd5b50602092509050610291565b634e487b7160e01b600052602160045260246000fd5b935060010161015f565b602084604051908152f35b9091506020823d602011610425575b8161041460209383610786565b810103126103165750518380610159565b3d9150610407565b8135815260209182019101610102565b600080fd5b83356001600160401b03811161043d5782013660438201121561043d57602481013561046d816107a7565b9161047b6040519384610786565b818352602060248185019360051b830101019036821161043d5760448101925b8284106104b55750505090825250602093840193016100a4565b83356001600160401b03811161043d57602490830101906040601f19833603011261043d5760405191604083018381106001600160401b03821117610584576040526020810135600381101561043d57835260408101356001600160401b03811161043d5760209101019036601f8301121561043d578135926001600160401b03841161058457604051610553601f8601601f191660200182610786565b848152366020868601011161043d57600060208681978280980183860137830101528382015281520193019261049b565b634e487b7160e01b600052604160045260246000fd5b3461043d57604036600319011261043d57600435600281101561043d57602435600381101561043d576105d960ff916105d4602094610755565b61076e565b54166040519015158152f35b3461043d57604036600319011261043d576004356001600160401b03811161043d57610615903690600401610725565b6024356001600160401b03811161043d5761063583913690600401610725565b90916000905b8482101594856107235760005b6106538486886107be565b905081101561071557866106ff578360051b830135600281101561043d5761067a90610755565b6106858587896107be565b8310156106ff578260051b81013590603e198136030182121561043d57013590600382101561043d5760ff916106ba9161076e565b5416156106c957600101610648565b60405162461bcd60e51b815260206004820152600e60248201526d24b73b30b634b2103334b63a32b960911b6044820152606490fd5b634e487b7160e01b600052603260045260246000fd5b50945060019091019061063b565b005b9181601f8401121561043d578235916001600160401b03831161043d576020808501948460051b01011161043d57565b60028110156103cd576000526000602052604060002090565b9060038110156103cd57600052602052604060002090565b90601f801991011681019081106001600160401b0382111761058457604052565b6001600160401b0381116105845760051b60200190565b91908110156106ff5760051b81013590601e198136030182121561043d5701908135916001600160401b03831161043d576020018260051b3603811361043d579190565b80518210156106ff5760209160051b010190565b60008051602061089f83398151915254604051631ce2e8d760e31b8152600060048201819052600160fb1b60248301529091602091839160449183916001600160a01b03165af19081156103215760009161086f575090565b90506020813d602011610896575b8161088a60209383610786565b8101031261043d575190565b3d915061087d56feed8d60e34876f751cc8b014c560745351147d9de11b9347c854e881b128ea601a2646970667358221220b844e64885054249f4d6cdd2511fce576780e3cb99d9cfa460f0718f6fa22d4664736f6c634300081c0033","linkReferences":{}},"methodIdentifiers":{"createQuery(uint256,(uint8,bytes)[][])":"00653e90","createSurvey((string,uint8,bool,bytes32,uint256,uint256,uint8[],(uint8,bytes)[][]))":"dfa69f92","executeQuery(uint256)":"960a4c18","executeQuery(uint256,uint256)":"5600d9ab","gatewayConfirmUserEntry(uint256,bool)":"bc37edb7","gatewayDecryptQueryResult(uint256,uint256,uint256)":"a5b4e28a","gatewayDecryptSurveyResult(uint256,uint256)":"1bc5e610","getQueryData(uint256)":"c2485ebd","hasVoted(uint256,address)":"43859632","queryData(uint256)":"4279ef3b","revealResults(uint256)":"b8f6255a","submitEntry(uint256,bytes32,bytes32[],bytes)":"33ce9e29","submitWhitelistedEntry(uint256,bytes32,bytes32[],bytes,bytes32[])":"21acc8ea","surveyData(uint256)":"00bcd6d5","surveyParams(uint256)":"d7b8f1cb"},"id":0}