{"abi":[{"type":"function","name":"createQuery","inputs":[{"name":"surveyId","type":"uint256","internalType":"uint256"},{"name":"params","type":"tuple[][]","internalType":"struct Filter[][]","components":[{"name":"verifier","type":"uint8","internalType":"enum VerifierType"},{"name":"value","type":"bytes","internalType":"bytes"}]}],"outputs":[{"name":"","type":"uint256","internalType":"uint256"}],"stateMutability":"nonpayable"},{"type":"function","name":"createSurvey","inputs":[{"name":"params","type":"tuple","internalType":"struct SurveyParams","components":[{"name":"surveyPrompt","type":"string","internalType":"string"},{"name":"surveyType","type":"uint8","internalType":"enum SurveyType"},{"name":"isWhitelisted","type":"bool","internalType":"bool"},{"name":"whitelistRootHash","type":"bytes32","internalType":"bytes32"},{"name":"numberOfParticipants","type":"uint256","internalType":"uint256"},{"name":"surveyEndTime","type":"uint256","internalType":"uint256"},{"name":"minResponseThreshold","type":"uint256","internalType":"uint256"},{"name":"metadataTypes","type":"uint8[]","internalType":"enum MetadataType[]"},{"name":"constraints","type":"tuple[][]","internalType":"struct Filter[][]","components":[{"name":"verifier","type":"uint8","internalType":"enum VerifierType"},{"name":"value","type":"bytes","internalType":"bytes"}]}]}],"outputs":[{"name":"","type":"uint256","internalType":"uint256"}],"stateMutability":"nonpayable"},{"type":"function","name":"executeQuery","inputs":[{"name":"queryId","type":"uint256","internalType":"uint256"},{"name":"limit","type":"uint256","internalType":"uint256"}],"outputs":[],"stateMutability":"nonpayable"},{"type":"function","name":"executeQuery","inputs":[{"name":"queryId","type":"uint256","internalType":"uint256"}],"outputs":[],"stateMutability":"nonpayable"},{"type":"function","name":"gatewayDecryptAnalyse","inputs":[{"name":"requestId","type":"uint256","internalType":"uint256"},{"name":"_finalSelectedCount","type":"uint256","internalType":"uint256"},{"name":"_finalResult","type":"uint256","internalType":"uint256"}],"outputs":[],"stateMutability":"nonpayable"},{"type":"function","name":"gatewayDecryptVoteResult","inputs":[{"name":"requestId","type":"uint256","internalType":"uint256"},{"name":"result","type":"uint256","internalType":"uint256"}],"outputs":[],"stateMutability":"nonpayable"},{"type":"function","name":"getQueryData","inputs":[{"name":"queryId","type":"uint256","internalType":"uint256"}],"outputs":[{"name":"","type":"tuple","internalType":"struct QueryData","components":[{"name":"surveyId","type":"uint256","internalType":"uint256"},{"name":"filters","type":"tuple[][]","internalType":"struct Filter[][]","components":[{"name":"verifier","type":"uint8","internalType":"enum VerifierType"},{"name":"value","type":"bytes","internalType":"bytes"}]},{"name":"pendingEncryptedResult","type":"uint256","internalType":"euint256"},{"name":"pendingSelectedNumber","type":"uint256","internalType":"euint256"},{"name":"cursor","type":"uint256","internalType":"uint256"},{"name":"isCompleted","type":"bool","internalType":"bool"},{"name":"isInvalid","type":"bool","internalType":"bool"},{"name":"finalSelectedCount","type":"uint256","internalType":"uint256"},{"name":"finalResult","type":"uint256","internalType":"uint256"}]}],"stateMutability":"view"},{"type":"function","name":"hasVoted","inputs":[{"name":"","type":"uint256","internalType":"uint256"},{"name":"","type":"address","internalType":"address"}],"outputs":[{"name":"","type":"bool","internalType":"bool"}],"stateMutability":"view"},{"type":"function","name":"queryData","inputs":[{"name":"","type":"uint256","internalType":"uint256"}],"outputs":[{"name":"surveyId","type":"uint256","internalType":"uint256"},{"name":"pendingEncryptedResult","type":"uint256","internalType":"euint256"},{"name":"pendingSelectedNumber","type":"uint256","internalType":"euint256"},{"name":"cursor","type":"uint256","internalType":"uint256"},{"name":"isCompleted","type":"bool","internalType":"bool"},{"name":"isInvalid","type":"bool","internalType":"bool"},{"name":"finalSelectedCount","type":"uint256","internalType":"uint256"},{"name":"finalResult","type":"uint256","internalType":"uint256"}],"stateMutability":"view"},{"type":"function","name":"revealResults","inputs":[{"name":"surveyId","type":"uint256","internalType":"uint256"}],"outputs":[],"stateMutability":"nonpayable"},{"type":"function","name":"submitEntry","inputs":[{"name":"surveyId","type":"uint256","internalType":"uint256"},{"name":"eInputVote","type":"bytes32","internalType":"einput"},{"name":"metadata","type":"bytes32[]","internalType":"einput[]"},{"name":"inputProof","type":"bytes","internalType":"bytes"}],"outputs":[],"stateMutability":"nonpayable"},{"type":"function","name":"submitWhitelistedEntry","inputs":[{"name":"surveyId","type":"uint256","internalType":"uint256"},{"name":"eInputVote","type":"bytes32","internalType":"einput"},{"name":"metadata","type":"bytes32[]","internalType":"einput[]"},{"name":"inputProof","type":"bytes","internalType":"bytes"},{"name":"whitelistProof","type":"bytes32[]","internalType":"bytes32[]"}],"outputs":[],"stateMutability":"nonpayable"},{"type":"function","name":"surveyData","inputs":[{"name":"","type":"uint256","internalType":"uint256"}],"outputs":[{"name":"currentParticipants","type":"uint256","internalType":"uint256"},{"name":"encryptedResponses","type":"uint256","internalType":"euint256"},{"name":"finalResult","type":"uint256","internalType":"uint256"},{"name":"isCompleted","type":"bool","internalType":"bool"},{"name":"isInvalid","type":"bool","internalType":"bool"}],"stateMutability":"view"},{"type":"function","name":"surveyParams","inputs":[{"name":"","type":"uint256","internalType":"uint256"}],"outputs":[{"name":"surveyPrompt","type":"string","internalType":"string"},{"name":"surveyType","type":"uint8","internalType":"enum SurveyType"},{"name":"isWhitelisted","type":"bool","internalType":"bool"},{"name":"whitelistRootHash","type":"bytes32","internalType":"bytes32"},{"name":"numberOfParticipants","type":"uint256","internalType":"uint256"},{"name":"surveyEndTime","type":"uint256","internalType":"uint256"},{"name":"minResponseThreshold","type":"uint256","internalType":"uint256"}],"stateMutability":"view"},{"type":"event","name":"EntrySubmitted","inputs":[{"name":"surveyId","type":"uint256","indexed":true,"internalType":"uint256"},{"name":"user","type":"address","indexed":false,"internalType":"address"}],"anonymous":false},{"type":"event","name":"QueryCreated","inputs":[{"name":"queryId","type":"uint256","indexed":true,"internalType":"uint256"},{"name":"surveyId","type":"uint256","indexed":true,"internalType":"uint256"},{"name":"analyser","type":"address","indexed":false,"internalType":"address"}],"anonymous":false},{"type":"event","name":"SurveyCompleted","inputs":[{"name":"surveyId","type":"uint256","indexed":true,"internalType":"uint256"},{"name":"surveyType","type":"uint8","indexed":false,"internalType":"enum SurveyType"},{"name":"numberOfVotes","type":"uint256","indexed":false,"internalType":"uint256"},{"name":"response","type":"uint256","indexed":false,"internalType":"uint256"}],"anonymous":false},{"type":"event","name":"SurveyCreated","inputs":[{"name":"surveyId","type":"uint256","indexed":true,"internalType":"uint256"},{"name":"organizer","type":"address","indexed":false,"internalType":"address"},{"name":"surveyType","type":"uint8","indexed":false,"internalType":"enum SurveyType"},{"name":"surveyPrompt","type":"string","indexed":false,"internalType":"string"}],"anonymous":false},{"type":"error","name":"AlreadyCompletedQuery","inputs":[]},{"type":"error","name":"FinishedSurvey","inputs":[]},{"type":"error","name":"InvalidEndTime","inputs":[]},{"type":"error","name":"InvalidMetadata","inputs":[]},{"type":"error","name":"InvalidNumberOfParticipants","inputs":[]},{"type":"error","name":"InvalidQueryId","inputs":[]},{"type":"error","name":"InvalidResponseThreshold","inputs":[]},{"type":"error","name":"InvalidRevealAction","inputs":[]},{"type":"error","name":"InvalidSurvey","inputs":[]},{"type":"error","name":"InvalidSurveyId","inputs":[]},{"type":"error","name":"InvalidSurveyPrompt","inputs":[]},{"type":"error","name":"InvalidSurveyWhitelist","inputs":[]},{"type":"error","name":"InvalidUserMetadata","inputs":[]},{"type":"error","name":"ResultAlreadyReveal","inputs":[]},{"type":"error","name":"ThresholdNeeded","inputs":[]},{"type":"error","name":"UnauthorizePendingQuery","inputs":[]},{"type":"error","name":"UnfinishedSurveyPeriod","inputs":[]},{"type":"error","name":"UserAlreadyVoted","inputs":[]}],"bytecode":{"object":"0x6080604052346101b057600060606100156101b5565b8281528260208201528260408201520152739d6891a6240d6130c54ae243d8005063d05fe14b60606100456101b5565b73fee8407e2f5e3ee68ad77cae98c434e637f516e580825273687408ab54661ba0b4aef3a44156c616c6955e076020830181905273fb03be574d14c256d56f09a198b586bdfc0a9de2604080850182905294909301949094527fed8d60e34876f751cc8b014c560745351147d9de11b9347c854e881b128ea60080546001600160a01b031990811690921790557fed8d60e34876f751cc8b014c560745351147d9de11b9347c854e881b128ea601805482169094179093557fed8d60e34876f751cc8b014c560745351147d9de11b9347c854e881b128ea6028054841690911790557fed8d60e34876f751cc8b014c560745351147d9de11b9347c854e881b128ea60380548316739d6891a6240d6130c54ae243d8005063d05fe14b1790557f93ab6e17f2c461cce6ea5d4ec117e51dda77a64affc2b2c05f8cd440def0e70080549092167333347831500f1e73f0cccbb95c9f86b94d7b11231790915551612e8b90816101eb8239f35b600080fd5b60405190608082016001600160401b038111838210176101d457604052565b634e487b7160e01b600052604160045260246000fdfe6080604052600436101561001257600080fd5b60003560e01c8062653e9014611520578062bcd6d5146114c0578063151cf9b91461144b57806321acc8ea1461137c57806333ce9e29146113055780634279ef3b14611285578063438596321461122d5780635600d9ab14610f9a578063960a4c1814610be5578063b8f6255a14610bc7578063c17f52f61461042e578063c2485ebd1461021b578063d7b8f1cb146101765763dd921de2146100b457600080fd5b34610171576100c236611ae5565b600080516020612e16833981519152549091906001600160a01b0316330361017157600090815260116020908152604080832054808452600c8084528285206002810187905560038101805460ff19166001908117909155600b8652958490209095015493529254905192937f950408ef4c2b7a6f879349bbf987adb33a74e6766083ce1e9260e22fc6dac8739360609390929060ff1661016281611bf9565b835260208301526040820152a2005b600080fd5b3461017157602036600319011261017157600435600052600b6020526101e96040600020604051906101b3826101ac8184611b76565b0383611892565b600181015460ff811691600281015460038201549060ff600560048501549401549460405198899860e08a5260e08a0190611afb565b966101f381611bf9565b602089015260081c16151560408701526060860152608085015260a084015260c08301520390f35b3461017157602036600319011261017157600061010060405161023d8161185b565b828152606060208201528260408201528260608201528260808201528260a08201528260c08201528260e08201520152600435600052601060205260406000206040519061028a8261185b565b8054825261029a60018201611e09565b9060208301918252600281015490604084019182526003810154906060850191825260048101546080860190815260058201549060a087019060ff83161515825260ff60c089019360081c1615158352600760068501549460e08a01958652015494610100890195865260405197602089526101408901995160208a0152519661012060408a01528751809a5261016089019960206101608260051b8c010199019060009b5b818d10610381575050508899505160608901525160808801525160a087015251151560c086015251151560e085015251610100840152516101208301520390f35b90919961015f198c82030182528a519081519081815260208101906020808460051b8301019401926000915b8183106103ce5750505050506020806001929c0192019c019b919091610340565b9091929394601f1982820301855285519081519160038310156104185761040b826040602080959460019782965201519181858201520190611afb565b97019501930191906103ad565b634e487b7160e01b600052602160045260246000fd5b34610171576020366003190112610171576004356001600160401b0381116101715761012060031982360301126101715760405161046b8161185b565b81600401356001600160401b038111610171578201366023820112156101715761049f9036906024600482013591016118ca565b81526024820135600281101561017157602082019081526044830135928315158403610171576040830193845260608301936064820135855260808401916084810135835260a0850160a4820135815260c086019060c4830135825260e48301356001600160401b038111610171578301923660238501121561017157600484013561052a816118b3565b946105386040519687611892565b818652602060048188019360051b830101019036821161017157602401915b818310610bae5750505060e08801938452610104810135906001600160401b03821161017157600461058c9236920101611910565b94610100880195865287515115610b9d578451610b6a575b81514211610b5957600383511115610b48576105be612c45565b986105c88a612bc9565b600a54600052600b60205260406000209589518051906001600160401b03821161085a57610600826105fa8b54611b3c565b8b611d81565b602090601f8311600114610add579180610636926106739594600092610ad2575b50508160011b916000199060031b1c19161790565b88555b60018801908a5161064981611bf9565b61065281611bf9565b8254915161ffff1990921660ff919091161790151560081b61ff0016179055565b51600286015551600385015551600484015551600583015551805160068301916001600160401b03821161085a57600160401b821161085a576020908354838555808410610a84575b50019160005260206000208160051c9160005b838110610a4b5750601f1981169003806109f8575b505050506007019051805190600160401b821161085a5782548284558083106109c9575b506020019160005260206000206000925b828410610870575050505060405160a08101908082106001600160401b0383111761085a57610829946107c29260405260008252602082019081526107ab6003604084019360008552606081019460008652608082019460008652600a54600052600c6020526040600020925183555160018301555160028201550192511515839060ff801983541691151516179055565b51815461ff00191690151560081b61ff0016179055565b7f52b91a8adb16d2c942f8afd364522fa27a2ab2df5adb982db50443fc31c05290600a5492839251906107f482611bf9565b519061082160405192839233845261080b81611bf9565b6020840152606060408401526060830190611afb565b0390a2611dc8565b80600a55600019810190811161084457602090604051908152f35b634e487b7160e01b600052601160045260246000fd5b634e487b7160e01b600052604160045260246000fd5b805160208151916108818386611cbd565b0190836000526020600020916000905b8282106108ae575050505060016020819201920193019290610719565b8051805160038110156104185760009060ff80198854169116178655602060018701920151908151916001600160401b0383116109b5576108f9836108f38654611b3c565b86611d81565b602091601f841160011461094b5783602094600197946002979461093194926109405750508160011b916000199060031b1c19161790565b90555b01940191019092610891565b015190503880610621565b9190601f198416858452828420935b81811061099d575093600196936002969388938360209810610984575b505050811b019055610934565b015160001960f88460031b161c19169055388080610977565b9293602060018192878601518155019501930161095a565b634e487b7160e01b82526041600452602482fd5b8360005282602060002091820191015b8181106109e65750610708565b806109f2600192611c1a565b016109d9565b9260009360005b818110610a1557505050015560078680806106e4565b9091946020610a4160019284895191610a2d83611bf9565b9060ff809160031b9316831b921b19161790565b96019291016109ff565b6000805b60208110610a645750838201556001016106cf565b95906020610a7b60019289855191610a2d83611bf9565b92019601610a4f565b610ab0908560005283600020601f80870160051c82019281881680610ab6575b500160051c0190611c03565b896106bc565b600019850190815490600019908a0360031b1c1690558e610aa4565b015190508f80610621565b90601f198316918a600052816000209260005b818110610b30575091600193918561067397969410610b17575b505050811b018855610639565b015160001960f88460031b161c191690558e8080610b0a565b92936020600181928786015181550195019301610af0565b630ba2c8e960e31b60005260046000fd5b6338af65f760e01b60005260046000fd5b885115610b8c576002815110156105a45763e633dc2f60e01b60005260046000fd5b63a7952e8f60e01b60005260046000fd5b630d34db1360e41b60005260046000fd5b8235600281101561017157815260209283019201610557565b3461017157602036600319011261017157610be3600435611f17565b005b3461017157602036600319011261017157600435600f54811015610f895780600052601060205260ff60056040600020015416610f785760008181526010602052604090208054600490910154909190600a81019081106108445782600052600d6020526040600020548110600014610f63575b610c61612c9e565b92610c6a612c45565b915b836000526010602052806004604060002001541015610ebf5781600052600d602052610cae604060002085600052601060205260046040600020015490611dd7565b50600160405191610cbe83611877565b80548352016040519081602082549182815201916000526020600020906000905b808210610ea75750505081610cfc60009493610d22930382611892565b602083019081528784526010602052610d1d60016040862001915191611e09565b6126f4565b90602060018060a01b03600080516020612e36833981519152541660646040518096819363cb3b940760e01b83528760048401528d60248401528b60448401525af1928315610e6757600093610e73575b5060209051606460018060a01b03600080516020612e368339815191525416936000604051958694859363cb3b940760e01b8552600485015260248401528a60448401525af1908115610e6757600091610e31575b50610de7610e06928760005260106020526003604060002001546129e4565b60008781526010602052604090206003810191909155600201546129e4565b600085815260106020526040902060028101919091556004018054610e2a90611dc8565b9055610c6c565b906020823d8211610e5f575b81610e4a60209383611892565b81010312610e5c575051610de7610dc8565b80fd5b3d9150610e3d565b6040513d6000823e3d90fd5b90926020823d8211610e9f575b81610e8d60209383611892565b81010312610e5c575051916020610d73565b3d9150610e80565b90919260016020819286548152019401920190610cdf565b838281600052601060205260046040600020015490600052600d6020526040600020541115610eea57005b604051610ef8606082611892565b600281526040366020830137816000526010602052600360406000200154610f1f82611ee6565b52816000526010602052600260406000200154610f3b82611ef3565b526064420180421161084457610f5091612ace565b6000526011602052604060002055600080f35b5081600052600d602052604060002054610c59565b630df890a560e31b60005260046000fd5b636806f54760e01b60005260046000fd5b3461017157610fa836611ae5565b90600f54811015610f895780600052601060205260ff60056040600020015416610f785760008181526010602052604090208054600490910154909281019081106108445782600052600d6020526040600020548110600014611218575b61100e612c9e565b92611017612c45565b915b836000526010602052806004604060002001541015610ebf5781600052600d60205261105b604060002085600052601060205260046040600020015490611dd7565b5060016040519161106b83611877565b80548352016040519081602082549182815201916000526020600020906000905b8082106112005750505081610cfc600094936110a9930382611892565b90602060018060a01b03600080516020612e36833981519152541660646040518096819363cb3b940760e01b83528760048401528d60248401528b60448401525af1928315610e67576000936111cc575b5060209051606460018060a01b03600080516020612e368339815191525416936000604051958694859363cb3b940760e01b8552600485015260248401528a60448401525af1908115610e6757600091611199575b50610de761116e928760005260106020526003604060002001546129e4565b60008581526010602052604090206002810191909155600401805461119290611dc8565b9055611019565b906020823d82116111c4575b816111b260209383611892565b81010312610e5c575051610de761114f565b3d91506111a5565b90926020823d82116111f8575b816111e660209383611892565b81010312610e5c5750519160206110fa565b3d91506111d9565b9091926001602081928654815201940192019061108c565b5081600052600d602052604060002054611006565b34610171576040366003190112610171576024356001600160a01b038116810361017157600435600052600e60205260406000209060018060a01b0316600052602052602060ff604060002054166040519015158152f35b34610171576020366003190112610171576004356000526010602052610100604060002080549060028101549060ff6003820154600483015460058401549160076006860154950154956040519788526020880152604087015260608601528181161515608086015260081c16151560a084015260c083015260e0820152f35b34610171576080366003190112610171576044356001600160401b03811161017157611335903690600401611a5b565b606435906001600160401b03821161017157611358610be3923690600401611ab8565b9060405192611368602085611892565b600084526000368137602435600435612150565b346101715760a0366003190112610171576044356001600160401b038111610171576113ac903690600401611a5b565b6064356001600160401b038111610171576113cb903690600401611ab8565b608435916001600160401b0383116101715736602384011215610171578260040135936113f7856118b3565b936114056040519586611892565b8585526024602086019660051b8201019036821161017157602401955b81871061143b575050610be39450602435600435612150565b8635815260209687019601611422565b3461017157606036600319011261017157600080516020612e1683398151915254600435906001600160a01b031633036101715760008181526011602090815260408083205483526010909152808220602435600682015560443560079091015591815220600501805460ff19166001179055005b3461017157602036600319011261017157600435600052600c60205260a0604060002060ff8154916001810154906003600282015491015491604051948552602085015260408401528181161515606084015260081c1615156080820152f35b34610171576040366003190112610171576004356024356001600160401b03811161017157611553903690600401611910565b9080600052600c60205260ff600360406000200154161561184a5780600052600c60205260ff60036040600020015460081c1661183957611592612c45565b61159a612c45565b90604051916115a88361185b565b83835260208301948552604083019182526060830190815260808301906000825260a08401916000835260c08501916000835260e08601946000865261010087019860008a52600f546000526010602052604060002097518855600188019051805190600160401b821161085a57825482845580831061180a575b506020019160005260206000206000925b8284106116d657505050509261167d926116bb999592600797955160028a01555160038901555160048801556107ab6005880192511515839060ff801983541691151516179055565b51600684015551910155600f5490817ff4bfd720334815b6b1792e0d517529b217fe3eb94a904ec5801b037aee18949e6020604051338152a3611dc8565b80600f55600019810190811161084457602090604051908152f35b805160208151916116e78386611cbd565b0190836000526020600020916000905b828210611714575050505060016020819201920193019290611634565b8051805160038110156104185760009060ff80198854169116178655602060018701920151908151916001600160401b0383116109b557611759836108f38654611b3c565b602091601f84116001146117a05783602094600197946002979461179194926109405750508160011b916000199060031b1c19161790565b90555b019401910190926116f7565b9190601f198416858452828420935b8181106117f25750936001969360029693889383602098106117d9575b505050811b019055611794565b015160001960f88460031b161c191690553880806117cc565b929360206001819287860151815501950193016117af565b8360005282602060002091820191015b8181106118275750611623565b80611833600192611c1a565b0161181a565b63147cbf7360e31b60005260046000fd5b6352dc50db60e11b60005260046000fd5b61012081019081106001600160401b0382111761085a57604052565b604081019081106001600160401b0382111761085a57604052565b90601f801991011681019081106001600160401b0382111761085a57604052565b6001600160401b03811161085a5760051b60200190565b9291926001600160401b03821161085a57604051916118f3601f8201601f191660200184611892565b829481845281830111610171578281602093846000960137010152565b81601f8201121561017157803590611927826118b3565b926119356040519485611892565b82845260208085019360051b830101918183116101715760208101935b83851061196157505050505090565b84356001600160401b03811161017157820183603f8201121561017157602081013561198c816118b3565b9161199a6040519384611892565b8183526020808085019360051b83010101908682116101715760408101925b8284106119d3575050509082525060209485019401611952565b83356001600160401b03811161017157602090830101906040601f19838b0301126101715760405191611a0583611877565b6020810135600381101561017157835260408101356001600160401b0381116101715760209101019089601f8301121561017157602092611a4c8b848680963591016118ca565b838201528152019301926119b9565b9080601f83011215610171578135611a72816118b3565b92611a806040519485611892565b81845260208085019260051b82010192831161017157602001905b828210611aa85750505090565b8135815260209182019101611a9b565b9181601f84011215610171578235916001600160401b038311610171576020838186019501011161017157565b6040906003190112610171576004359060243590565b919082519283825260005b848110611b27575050826000602080949584010152601f8019910116010190565b80602080928401015182828601015201611b06565b90600182811c92168015611b6c575b6020831014611b5657565b634e487b7160e01b600052602260045260246000fd5b91607f1691611b4b565b60009291815491611b8683611b3c565b8083529260018116908115611bdc5750600114611ba257505050565b60009081526020812093945091925b838310611bc2575060209250010190565b600181602092949394548385870101520191019190611bb1565b915050602093945060ff929192191683830152151560051b010190565b6002111561041857565b818110611c0e575050565b60008155600101611c03565b8054906000815581611c2a575050565b6001600160ff1b0382168203610844576000908152602081209160011b8201915b828110611c5757505050565b8082600292558260018201611c6c8154611b3c565b80611c7b575b50505001611c4b565b601f8111600114611c915750555b823880611c72565b81835260208320611cad91601f0160051c810190600101611c03565b8082528160208120915555611c89565b600160401b821161085a57805490828155818310611cda57505050565b6001600160ff1b0382168203610844576001600160ff1b03831683036108445760005260206000209060011b81019160011b015b818110611d19575050565b8060006002925560018101611d2e8154611b3c565b9081611d3d575b505001611d0e565b81601f60009311600114611d555750555b3880611d35565b81835260208320611d7191601f0160051c810190600101611c03565b8082528160208120915555611d4e565b9190601f8111611d9057505050565b611dbc926000526020600020906020601f840160051c83019310611dbe575b601f0160051c0190611c03565b565b9091508190611daf565b60001981146108445760010190565b8054821015611df35760005260206000209060011b0190600090565b634e487b7160e01b600052603260045260246000fd5b90815491611e16836118b3565b92611e246040519485611892565b80845260208401916000526020600020916000905b828210611e465750505050565b8354611e51816118b3565b90611e5f6040519283611892565b80825260208201908660005260206000206000925b828410611e9557505050506020826001939284935201940191019092611e39565b604051611ea181611877565b60ff8354166003811015610418576001928260209260029452604051611ed481611ecd81898b01611b76565b0382611892565b83820152815201920193019290611e74565b805115611df35760200190565b805160011015611df35760400190565b8051821015611df35760209160051b010190565b6000818152600b6020526004604082200154421061214157818152600c60205260ff60036040832001541661213257818152600c6020526040812054828252600b6020526005604083200154116120fc576040908151611f778382611892565b60018152601f198301366020830137838252600c60205260018383200154611f9e82611ee6565b5260644201908142116120e857600080516020612df6833981519152546001600160a01b0316803b156120e457838551809263155f840160e21b825260206004830152818381611ff16024820189612a9a565b03925af180156120da576120c1575b50600080516020612e16833981519152548451634c0d927760e01b815260a060048201529260209284926001600160a01b0316918391879183916120489060a4840190612a9a565b90636ec90ef160e11b6024840152836044840152606483015282608483015203925af19081156120b7578291612085575b50815260116020522055565b90506020813d6020116120af575b816120a060209383611892565b81010312610171575138612079565b3d9150612093565b83513d84823e3d90fd5b836120d26020939561204893611892565b939150612000565b85513d86823e3d90fd5b8380fd5b634e487b7160e01b83526011600452602483fd5b808260039360409352600c602052838383200161010061ff00198254161790558152600c6020522001600160ff19825416179055565b63d96068dd60e01b8152600490fd5b6352dc50db60e11b8152600490fd5b9094959395600a548210156126e35781600052600b6020526004604060002001544210156126d2576000828152600e6020908152604080832033845290915290205460ff166126c15781600052600b6020526006604060002001548351036126b05781600052600b60205260ff60016040600020015460081c166125c5575b5080600052600b602052600660406000200154936121ec856118b3565b946121fa6040519687611892565b808652612209601f19916118b3565b0136602087013760005b82600052600b6020526006604060002001548110156123fd5782600052600b60205260066040600020018054821015611df35760005260ff60206000208260051c015460f88360031b161c1661226881611bf9565b806123b857506122788185611f03565b51906122d6602061228a368c8a6118ca565b60009460018060a01b03600080516020612e36833981519152541690866040518096819582946302e817ff60e41b84526004840152336024840152608060448401526084830190611afb565b82606483015203925af19283156123ac578093612376575b5050600080516020612df6833981519152546001600160a01b031691823b15610171576040516346ce4e4960e11b815260048101829052336024820152926000908490604490829084905af1908115610e675760019361235f92612365575b5080612359848b611f03565b52612bc9565b01612213565b600061237091611892565b3861234d565b909192506020823d82116123a4575b8161239260209383611892565b81010312610e5c5750519038806122ee565b3d9150612385565b604051903d90823e3d90fd5b90600180926123c681611bf9565b0361235f576123f86123ed6123db8388611f03565b516123e7368d8b6118ca565b90612cf7565b80612359848b611f03565b61235f565b50956123e791959250926124309386600052600b60205261242886610d1d6007604060002001611e09565b5036916118ca565b61243981612bc9565b82600052600c602052612454816001604060002001546129e4565b6000848152600c602052604090206001810191909155805461247590611dc8565b905582600052600c602052612491600160406000200154612bc9565b6040519061249e82611877565b81526020810191825282600052600d60205260406000208054600160401b81101561085a576124d291600182018155611dd7565b6125af57600191518155019051908151916001600160401b03831161085a57600160401b831161085a576020908254848455808510612592575b500190600052602060002060005b83811061257e575050505080600052600e602052604060002060018060a01b0333166000526020526040600020600160ff198254161790557f03b562e13524df9ad0948873c24d44336296e8aaef105cb0e60f18d40378ef576020604051338152a2565b60019060208451940193818401550161251a565b6125a9908460005285846000209182019101611c03565b3861250c565b634e487b7160e01b600052600060045260246000fd5b95926040959295949194516020810190338252602081526125e7604082611892565b5190206040516020810191825260208152612603604082611892565b5190209585600052600b60205260026040600020015496956000965b895188101561266657612632888b611f03565b51906000828210156126555750600052602052600160406000205b97019661261f565b60409160019382526020522061264d565b919497929598509295500361267b57386121cf565b60405162461bcd60e51b815260206004820152600d60248201526c24b73b30b634b210383937b7b360991b6044820152606490fd5b6352ebbd8f60e11b60005260046000fd5b6338ec521360e01b60005260046000fd5b63291b3d4d60e21b60005260046000fd5b63242a36cd60e11b60005260046000fd5b90600080602060018060a01b03600080516020612e368339815191525416604460405180948193631ce2e8d760e31b8352600160048401528160248401525af19182156123ac5780926129af575b50506000905b83518210156129a8576000905b61275f8386611f03565b515182101561299b5761277c826127768588611f03565b51611f03565b516127878486611f03565b51906000815160038110156104185760009061298f57505060208091015181815181830193849160009401010312610e5c575051600080516020612e3683398151915254604051631ce2e8d760e31b81526004810192909252600160fb1b6024830152600091906020908290604490829086906001600160a01b03165af19182156123ac57809261295b575b505080821561294b575b15612939575b602090606460018060a01b03600080516020612e3683398151915254169360006040519586948593631f31e28560e11b8552600485015260248401528160448401525af18015610e6757600090612907575b602091505b606460018060a01b03600080516020612e3683398151915254169360006040519586948593630ccd46b160e31b8552600485015260248401528160448401525af18015610e67576000906128d5575b60019150910190612755565b6020823d82116128ff575b816128ed60209383611892565b81010312610e5c5750600190516128c9565b3d91506128e0565b6020823d8211612931575b8161291f60209383611892565b81010312610e5c575060209051612875565b3d9150612912565b506020612944612c45565b9050612823565b9150612955612c45565b9161281d565b9091506020823d8211612987575b8161297660209383611892565b81010312610e5c5750513880612813565b3d9150612969565b5060209250905061287a565b6001909201919050612748565b9250505090565b9091506020823d6020116129dc575b816129cb60209383611892565b81010312610e5c5750513880612742565b3d91506129be565b908115612a8a575b8015612a78575b602090606460018060a01b03600080516020612e368339815191525416936000604051958694859363f953e42760e01b8552600485015260248401528160448401525af1908115610e6757600091612a49575090565b90506020813d602011612a70575b81612a6460209383611892565b81010312610171575190565b3d9150612a57565b506020612a83612c45565b90506129f3565b9050612a94612c45565b906129ec565b906020808351928381520192019060005b818110612ab85750505090565b8251845260209384019390920191600101612aab565b600080516020612df68339815191525460009291906001600160a01b0316803b156120e45783604051809263155f840160e21b825260206004830152818381612b1a6024820189612a9a565b03925af18015612bbe57612ba5575b50600080516020612e1683398151915254604051634c0d927760e01b815260a060048201529260209284926001600160a01b031691839187918391612b729060a4840190612a9a565b9063151cf9b960e01b6024840152836044840152606483015282608483015203925af19182156123ac5791612a49575090565b83612bb660209395612b7293611892565b939150612b29565b6040513d86823e3d90fd5b600080516020612df6833981519152546000916001600160a01b0390911690813b15612c4157604051631974142760e21b815260048101919091523060248201529082908290818381604481015b03925af18015612c3657612c29575050565b81612c3391611892565b50565b6040513d84823e3d90fd5b8280fd5b600080516020612e3683398151915254604051631ce2e8d760e31b8152600060048201819052600160fb1b60248301529091602091839160449183916001600160a01b03165af1908115610e6757600091612a49575090565b600080516020612e3683398151915254604051631ce2e8d760e31b815260016004820152600160fb1b602482015290602090829060449082906000906001600160a01b03165af1908115610e6757600091612a49575090565b6020612d419392600080516020612e3683398151915254600093846040518098819582946302e817ff60e41b84526004840152336024840152608060448401526084830190611afb565b600160fb1b606483015203926001600160a01b03165af1928315612de8578193612db4575b50600080516020612df6833981519152546001600160a01b031683813b15612c41576040516346ce4e4960e11b81526004810191909152336024820152908290829081838160448101612c17565b9092506020813d602011612de0575b81612dd060209383611892565b81010312612c4157519138612d66565b3d9150612dc3565b50604051903d90823e3d90fdfeed8d60e34876f751cc8b014c560745351147d9de11b9347c854e881b128ea60093ab6e17f2c461cce6ea5d4ec117e51dda77a64affc2b2c05f8cd440def0e700ed8d60e34876f751cc8b014c560745351147d9de11b9347c854e881b128ea601a2646970667358221220ee2dcc3757dda8666c9f5633aa1c564a9db230cccbaa9cdcb12428f6603b7dfb64736f6c634300081c0033","linkReferences":{}},"methodIdentifiers":{"createQuery(uint256,(uint8,bytes)[][])":"00653e90","createSurvey((string,uint8,bool,bytes32,uint256,uint256,uint256,uint8[],(uint8,bytes)[][]))":"c17f52f6","executeQuery(uint256)":"960a4c18","executeQuery(uint256,uint256)":"5600d9ab","gatewayDecryptAnalyse(uint256,uint256,uint256)":"151cf9b9","gatewayDecryptVoteResult(uint256,uint256)":"dd921de2","getQueryData(uint256)":"c2485ebd","hasVoted(uint256,address)":"43859632","queryData(uint256)":"4279ef3b","revealResults(uint256)":"b8f6255a","submitEntry(uint256,bytes32,bytes32[],bytes)":"33ce9e29","submitWhitelistedEntry(uint256,bytes32,bytes32[],bytes,bytes32[])":"21acc8ea","surveyData(uint256)":"00bcd6d5","surveyParams(uint256)":"d7b8f1cb"},"id":0}