{"abi":[{"type":"function","name":"createQuery","inputs":[{"name":"voteId","type":"uint256","internalType":"uint256"},{"name":"params","type":"tuple[][]","internalType":"struct Filter[][]","components":[{"name":"verifier","type":"uint8","internalType":"enum VerifierType"},{"name":"value","type":"bytes","internalType":"bytes"}]}],"outputs":[{"name":"","type":"uint256","internalType":"uint256"}],"stateMutability":"nonpayable"},{"type":"function","name":"createSurvey","inputs":[{"name":"params","type":"tuple","internalType":"struct SurveyParams","components":[{"name":"surveyPrompt","type":"string","internalType":"string"},{"name":"surveyType","type":"uint8","internalType":"enum SurveyType"},{"name":"isWhitelisted","type":"bool","internalType":"bool"},{"name":"whitelistRootHash","type":"bytes32","internalType":"bytes32"},{"name":"surveyEndTime","type":"uint256","internalType":"uint256"},{"name":"responseThreshold","type":"uint256","internalType":"uint256"},{"name":"metadataTypes","type":"uint8[]","internalType":"enum MetadataType[]"}]}],"outputs":[{"name":"","type":"uint256","internalType":"uint256"}],"stateMutability":"nonpayable"},{"type":"function","name":"executeQuery","inputs":[{"name":"queryId","type":"uint256","internalType":"uint256"}],"outputs":[],"stateMutability":"nonpayable"},{"type":"function","name":"gatewayDecryptAnalyse","inputs":[{"name":"requestId","type":"uint256","internalType":"uint256"},{"name":"numberOfSelected","type":"uint256","internalType":"uint256"},{"name":"pendingResult","type":"uint256","internalType":"uint256"}],"outputs":[],"stateMutability":"nonpayable"},{"type":"function","name":"gatewayDecryptVoteResult","inputs":[{"name":"requestId","type":"uint256","internalType":"uint256"},{"name":"result","type":"uint256","internalType":"uint256"}],"outputs":[],"stateMutability":"nonpayable"},{"type":"function","name":"hasVoted","inputs":[{"name":"","type":"uint256","internalType":"uint256"},{"name":"","type":"address","internalType":"address"}],"outputs":[{"name":"","type":"bool","internalType":"bool"}],"stateMutability":"view"},{"type":"function","name":"queryData","inputs":[{"name":"","type":"uint256","internalType":"uint256"}],"outputs":[{"name":"voteId","type":"uint256","internalType":"uint256"},{"name":"pendingResult","type":"uint256","internalType":"euint256"},{"name":"numberOfSelected","type":"uint256","internalType":"euint256"},{"name":"cursor","type":"uint256","internalType":"uint256"},{"name":"isFinished","type":"bool","internalType":"bool"},{"name":"isSucceed","type":"bool","internalType":"bool"},{"name":"selectedCount","type":"uint256","internalType":"uint256"},{"name":"result","type":"uint256","internalType":"uint256"}],"stateMutability":"view"},{"type":"function","name":"revealResults","inputs":[{"name":"surveyId","type":"uint256","internalType":"uint256"}],"outputs":[],"stateMutability":"nonpayable"},{"type":"function","name":"submitEntry","inputs":[{"name":"surveyId","type":"uint256","internalType":"uint256"},{"name":"eInputVote","type":"bytes32","internalType":"einput"},{"name":"metadata","type":"bytes32[]","internalType":"einput[]"},{"name":"inputProof","type":"bytes","internalType":"bytes"}],"outputs":[],"stateMutability":"nonpayable"},{"type":"function","name":"submitWhitelistedEntry","inputs":[{"name":"surveyId","type":"uint256","internalType":"uint256"},{"name":"eInputVote","type":"bytes32","internalType":"einput"},{"name":"metadata","type":"bytes32[]","internalType":"einput[]"},{"name":"inputProof","type":"bytes","internalType":"bytes"},{"name":"whitelistProof","type":"bytes32[]","internalType":"bytes32[]"}],"outputs":[],"stateMutability":"nonpayable"},{"type":"function","name":"surveyData","inputs":[{"name":"","type":"uint256","internalType":"uint256"}],"outputs":[{"name":"participantCount","type":"uint256","internalType":"uint256"},{"name":"encryptedResponses","type":"uint256","internalType":"euint256"},{"name":"decryptedResponses","type":"uint256","internalType":"uint256"}],"stateMutability":"view"},{"type":"function","name":"surveyParams","inputs":[{"name":"","type":"uint256","internalType":"uint256"}],"outputs":[{"name":"surveyPrompt","type":"string","internalType":"string"},{"name":"surveyType","type":"uint8","internalType":"enum SurveyType"},{"name":"isWhitelisted","type":"bool","internalType":"bool"},{"name":"whitelistRootHash","type":"bytes32","internalType":"bytes32"},{"name":"surveyEndTime","type":"uint256","internalType":"uint256"},{"name":"responseThreshold","type":"uint256","internalType":"uint256"}],"stateMutability":"view"}],"bytecode":{"object":"0x6080604052346101b057600060606100156101b5565b8281528260208201528260408201520152739d6891a6240d6130c54ae243d8005063d05fe14b60606100456101b5565b73fee8407e2f5e3ee68ad77cae98c434e637f516e580825273687408ab54661ba0b4aef3a44156c616c6955e076020830181905273fb03be574d14c256d56f09a198b586bdfc0a9de2604080850182905294909301949094527fed8d60e34876f751cc8b014c560745351147d9de11b9347c854e881b128ea60080546001600160a01b031990811690921790557fed8d60e34876f751cc8b014c560745351147d9de11b9347c854e881b128ea601805482169094179093557fed8d60e34876f751cc8b014c560745351147d9de11b9347c854e881b128ea6028054841690911790557fed8d60e34876f751cc8b014c560745351147d9de11b9347c854e881b128ea60380548316739d6891a6240d6130c54ae243d8005063d05fe14b1790557f93ab6e17f2c461cce6ea5d4ec117e51dda77a64affc2b2c05f8cd440def0e70080549092167333347831500f1e73f0cccbb95c9f86b94d7b1123179091555161210690816101eb8239f35b600080fd5b60405190608082016001600160401b038111838210176101d457604052565b634e487b7160e01b600052604160045260246000fdfe6080604052600436101561001257600080fd5b6000803560e01c8062653e9014610fbd578062bcd6d514610f7b578063151cf9b914610f0c57806321acc8ea14610e3a57806333ce9e2914610dc15780634279ef3b14610d425780634385963214610cef57806384d9220314610839578063960a4c181461040d578063b8f6255a14610220578063d7b8f1cb146101085763dd921de21461009f57600080fd5b34610105576040366003190112610105577f93ab6e17f2c461cce6ea5d4ec117e51dda77a64affc2b2c05f8cd440def0e700546001600160a01b03163303610105576004358152600f60205260408120548152600c602052602435600260408320015580f35b80fd5b5034610105576020366003190112610105576004358152600b602052604081206040519082815490610139826116f9565b80855291600181169081156101f857506001146101bf575b5050610162826101929403836115f1565b600181015460ff811691600281015460ff600460038401549301549360405197889760c0895260c0890190611733565b9561019c81611774565b602088015260081c16151560408601526060850152608084015260a08301520390f35b909350818152602081205b8482106101e257508201602001925061016282610151565b60018160209254838588010152019101906101ca565b610192965085925060209150926101629360ff191682840152151560051b8201019450610151565b503461010557602036600319011261010557600435808252600c60205261024d600160408420015461185d565b6040805161025b82826115f1565b6001815260208101601f198301368237838552600c60205260018386200154908251156103f9575260644201908142116103e557600080516020612091833981519152546001600160a01b0316803b156103e157858451809263155f840160e21b8252602060048301528183816102d56024820189611f05565b03925af180156103d7576103be575b507f93ab6e17f2c461cce6ea5d4ec117e51dda77a64affc2b2c05f8cd440def0e700548351634c0d927760e01b815260a060048201529260209284926001600160a01b03169183918991839161033e9060a4840190611f05565b90636ec90ef160e11b6024840152836044840152606483015282608483015203925af19081156103b457849161037d575b508352600f60205282205580f35b90506020813d6020116103ac575b81610398602093836115f1565b810103126103a757513861036f565b600080fd5b3d915061038b565b82513d86823e3d90fd5b856103cf6020939761033e936115f1565b9591506102e4565b84513d88823e3d90fd5b8580fd5b634e487b7160e01b85526011600452602485fd5b634e487b7160e01b86526032600452602486fd5b503461010557602036600319011261010557600435601154811015610801578082526012602052604082205481835260126020526004604084200154600a81018091115b83855260126020526040852060040154816107ed578211806107c9575b156107c557828552600d602052848061049a604082208783526012602052600460408420015490611817565b506001604051916104aa836115c0565b80548352016040519081602082549182815201918552602085209085905b8082106107a957505050816104de9103826115f1565b6020820152602060018060a01b036000805160206120b18339815191525416604460405180968193631ce2e8d760e31b8352600160048401528160248401525af192831561079e578293610767575b506000805160206120b183398151915254604051631ce2e8d760e31b815260016004820152600160fb1b60248201529260209184916044918391906001600160a01b03165af1918215610729578892610734575b50602061058c611f39565b606460018060a01b036000805160206120b18339815191525416948b604051968794859363cb3b940760e01b85528a6004860152602485015260448401525af19182156107295788926106f1575b506020905160646105e9611f39565b6000805160206120b18339815191525460405163cb3b940760e01b8152600481019790975260248701939093526044860152849182908b906001600160a01b03165af19182156106e65787926106ad575b509061065861067d928789526012602052600360408a200154611e4f565b8688526012602052600360408920015585875260126020526002604088200154611e4f565b848652601260205260026040872001558385526012602052600460408620016106a681546117f2565b9055610451565b91506020823d82116106de575b816106c7602093836115f1565b810103126106da5790519061065861063a565b8680fd5b3d91506106ba565b6040513d89823e3d90fd5b9091506020813d8211610721575b8161070c602093836115f1565b8101031261071d57519060206105da565b8780fd5b3d91506106ff565b6040513d8a823e3d90fd5b9091506020813d821161075f575b8161074f602093836115f1565b8101031261071d57519038610581565b3d9150610742565b9092506020813d8211610796575b81610782602093836115f1565b810103126107925751913861052d565b5080fd5b3d9150610775565b6040513d84823e3d90fd5b82548452879650602090930192600192830192909101906104c8565b8480f35b5083855260126020526004604086200154838652600d60205260408620541161046e565b634e487b7160e01b86526011600452602486fd5b60405162461bcd60e51b815260206004820152601060248201526f1253959053125117d45551549657d25160821b6044820152606490fd5b503461010557602036600319011261010557600435906001600160401b0382116101055760e06003198336030112610105576040519160e083018381106001600160401b03821117610cdb5760405280600401356001600160401b038111610cd757810136602382011215610cd7576108bc903690602460048201359101611629565b83526024810135906002821015610cd757602084019182526044810135938415158503610cd35760408101948552606081019160648101358352608082016084820135815260a083019160a4810135835260c4810135906001600160401b03821161071d570193366023860112156106da57600485013561093c81611612565b9561094a60405197886115f1565b818752602060048189019360051b8301010190368211610ccf57602401915b818310610cb25750505060c08401948552610982611f39565b9561098c8761185d565b600a548852600b6020526040882094519889516001600160401b038111610c9e576109c1816109bb89546116f9565b896117ab565b6020601f8211600114610c325781610a379493926109fb928d9e60059c9d9e92610c27575b50508160011b916000199060031b1c19161790565b87555b600187019151610a0d81611774565b610a1681611774565b8254915161ffff1990921660ff919091161790151560081b61ff0016179055565b5160028401555160038301555160048201550190518051906001600160401b038211610c1357600160401b8211610c13576020908354838555808410610bc7575b5001918452602084208160051c91855b838110610b8f5750601f198116900380610b3f575b5050505060405190606082018281106001600160401b03821117610b2b5790600291604052838352602083019081526040830190848252600a548552600c602052604085209351845551600184015551910155610afb600a546117f2565b9081600a556000198201918211610b1757602082604051908152f35b634e487b7160e01b81526011600452602490fd5b634e487b7160e01b84526041600452602484fd5b928593865b818110610b5957505050015538808080610a9d565b9091946020610b8560019284895191610b7183611774565b9060ff809160031b9316831b921b19161790565b9601929101610b44565b86875b60208110610ba7575083820155600101610a88565b95906020610bbe60019289855191610b7183611774565b92019601610b92565b610bf190858852838820601f80870160051c82019281881680610bf7575b500160051c0190611794565b38610a78565b600019850190815490600019908a0360031b1c16905538610be5565b634e487b7160e01b85526041600452602485fd5b0151905038806109e6565b878b52808b2090601f1983168c5b818110610c86575091839160059b9c9d9e610a3797969560019510610c6d575b505050811b0187556109fe565b015160001960f88460031b161c19169055388080610c60565b8e830151845560019093019260209283019201610c40565b634e487b7160e01b8a52604160045260248afd5b82356002811015610ccb57815260209283019201610969565b8a80fd5b8980fd5b8380fd5b8280fd5b634e487b7160e01b83526041600452602483fd5b5034610105576040366003190112610105576024356001600160a01b038116810361079257604060209260ff926004358252600e85528282209060018060a01b0316825284522054166040519015158152f35b503461010557602036600319011261010557604061010091600435815260126020522080549060028101549060ff6003820154600483015460058401549160076006860154950154956040519788526020880152604087015260608601528181161515608086015260081c16151560a084015260c083015260e0820152f35b5034610105576080366003190112610105576044356001600160401b03811161079257610df290369060040161166f565b606435906001600160401b038211610cd757610e15610e379236906004016116cc565b9060405192610e256020856115f1565b858452853681376024356004356118ca565b80f35b50346101055760a0366003190112610105576044356001600160401b03811161079257610e6b90369060040161166f565b906064356001600160401b03811161079257610e8b9036906004016116cc565b608435916001600160401b038311610cd35736602384011215610cd357826004013594610eb786611612565b93610ec560405195866115f1565b8685526024602086019760051b820101903682116106da57602401965b818810610efc575050610e379495506024356004356118ca565b8735815260209788019701610ee2565b5034610105576060366003190112610105577f93ab6e17f2c461cce6ea5d4ec117e51dda77a64affc2b2c05f8cd440def0e70054600435906001600160a01b03163303610792578082526012602052602435600660408420015581526012602052604435600760408320015580f35b50346101055760203660031901126101055760406060916004358152600c60205220805490600260018201549101549060405192835260208301526040820152f35b5034610105576040366003190112610105576024356001600160401b0381116107925736602382011215610792578060040135610ff981611612565b9161100760405193846115f1565b8183526024602084019260051b820101903682116115bc5760248101925b8284106114b3578585611036611f39565b61103e611f39565b6110478261185d565b6110508161185d565b6040519161012083018381106001600160401b0382111761149f57604052600435835260208301938452604083015260608201528260808201528260a08201528260c08201528260e0820152826101008201526011548352601260205260408320918151835551805190600160401b8211610c135760018401548260018601558083106113c6575b50602001906001840185526020852085925b82841061118557868660076101008860408101516002850155606081015160038501556080810151600485015561114f6005850160a0830151151560ff8019835416911617815560c0830151151561ff00825491151560081b169061ff001916179055565b60e0810151600685015501519101556111696011546117f2565b90816011556000198201918211610b1757602082604051908152f35b8051805190600160401b82116113b25783548285558083106112f7575b50602001838952602089209089905b8382106111ce5750505050600160208192019201930192906110ea565b8051805160038110156112e3579060209160ff8019875416911617855501518051906001600160401b0382116112cf576112188261120f60018801546116f9565b600188016117ab565b6020908d601f84116001146112615783600294602094600197946112509492610c275750508160011b916000199060031b1c19161790565b848701555b019301910190916111b1565b9190601f198416600188018452828420935b8181106112b7575093602093600196938793836002981061129e575b505050811b0184870155611255565b015160001960f88460031b161c1916905538808061128f565b92936020600181928786015181550195019301611273565b634e487b7160e01b8d52604160045260248dfd5b634e487b7160e01b8d52602160045260248dfd5b6001600160ff1b038116810361139e576001600160ff1b038316830361139e57848a5260208a208360011b81015b8260011b820181106113385750506111a2565b808c600292558c6001820161134d81546116f9565b8061135c575b50505001611325565b601f81116001146113725750555b8c8e80611353565b8183526020832061138e91601f0160051c810190600101611794565b808252816020812091555561136a565b634e487b7160e01b8a52601160045260248afd5b634e487b7160e01b89526041600452602489fd5b60018501865260208620908382015b81830181106113e55750506110d8565b8054888255806113f9575b506001016113d5565b6001600160ff1b038116810361148b5781895260208920805b8260011b820181106114255750506113f0565b808b600292558b6001820161143a81546116f9565b80611449575b50505001611412565b601f811160011461145f5750555b8b8d80611440565b8183526020832061147b91601f0160051c810190600101611794565b8082528160208120915555611457565b634e487b7160e01b89526011600452602489fd5b634e487b7160e01b86526041600452602486fd5b83356001600160401b0381116106da578201366043820112156106da576024810135906114df82611612565b916114ed60405193846115f1565b808352602060248185019260051b8401010191368311610ccf5760448101915b838310611527575050509082525060209384019301611025565b82356001600160401b0381116115b857602490830101906040601f1983360301126115b85760405191611559836115c0565b602081013560038110156115b457835260408101356001600160401b0381116115b45760209101019036601f830112156115b0576020926115a1849336908581359101611629565b8382015281520192019161150d565b8c80fd5b8d80fd5b8b80fd5b8480fd5b604081019081106001600160401b038211176115db57604052565b634e487b7160e01b600052604160045260246000fd5b90601f801991011681019081106001600160401b038211176115db57604052565b6001600160401b0381116115db5760051b60200190565b9291926001600160401b0382116115db5760405191611652601f8201601f1916602001846115f1565b8294818452818301116103a7578281602093846000960137010152565b9080601f830112156103a757813561168681611612565b9261169460405194856115f1565b81845260208085019260051b8201019283116103a757602001905b8282106116bc5750505090565b81358152602091820191016116af565b9181601f840112156103a7578235916001600160401b0383116103a757602083818601950101116103a757565b90600182811c92168015611729575b602083101461171357565b634e487b7160e01b600052602260045260246000fd5b91607f1691611708565b919082519283825260005b84811061175f575050826000602080949584010152601f8019910116010190565b8060208092840101518282860101520161173e565b6002111561177e57565b634e487b7160e01b600052602160045260246000fd5b81811061179f575050565b60008155600101611794565b9190601f81116117ba57505050565b6117e6926000526020600020906020601f840160051c830193106117e8575b601f0160051c0190611794565b565b90915081906117d9565b60001981146118015760010190565b634e487b7160e01b600052601160045260246000fd5b80548210156118335760005260206000209060011b0190600090565b634e487b7160e01b600052603260045260246000fd5b80518210156118335760209160051b010190565b600080516020612091833981519152546000916001600160a01b0390911690813b15610cd757604051631974142760e21b815260048101919091523060248201529082908290818381604481015b03925af1801561079e576118bd575050565b816118c7916115f1565b50565b9094600a54821015611e20576000828152600e6020908152604080832033845290915290205460ff16611deb5781600052600b602052600560406000200154835103611db55781600052600b60205260ff60016040600020015460081c16611cca575b5080600052600b6020526005604060002001549561194a87611612565b9661195860405198896115f1565b808852611967601f1991611612565b0136602089013760005b82600052600b602052600560406000200154811015611b5b5782600052600b602052600560406000200180548210156118335760005260ff60206000208260051c015460f88360031b161c166119c681611774565b80611b1957506119d68185611849565b5190611a3460206119e8368a8a611629565b60009460018060a01b036000805160206120b1833981519152541690866040518096819582946302e817ff60e41b84526004840152336024840152608060448401526084830190611733565b82606483015203925af1928315611b0d578093611ad7575b5050600080516020612091833981519152546001600160a01b031691823b156103a7576040516346ce4e4960e11b815260048101829052336024820152926000908490604490829084905af1928315611acb57600193611aba575b50611ab2828b611849565b525b01611971565b6000611ac5916115f1565b38611aa7565b6040513d6000823e3d90fd5b909192506020823d8211611b05575b81611af3602093836115f1565b81010312610105575051903880611a4c565b3d9150611ae6565b604051903d90823e3d90fd5b9060018092611b2781611774565b03611ab457611b4b611b398287611849565b51611b45368a8a611629565b90611f92565b611b55828b611849565b52611ab4565b509593611b459195925092611b71933691611629565b82600052600c602052611b8c81600160406000200154611e4f565b6000848152600c6020526040902060018101919091558054611bad906117f2565b905582600052600c602052611bc960016040600020015461185d565b60405190611bd6826115c0565b81526020810191825282600052600d60205260406000208054600160401b8110156115db57611c0a91600182018155611817565b611cb457600191518155019051908151916001600160401b0383116115db57600160401b83116115db576020908254848455808510611c97575b500190600052602060002060005b838110611c8357505050600091825250600e602090815260408083203384529091529020805460ff19166001179055565b600190602084519401938184015501611c52565b611cae908460005285846000209182019101611794565b38611c44565b634e487b7160e01b600052600060045260246000fd5b9592604095929594919451602081019033825260208152611cec6040826115f1565b5190206040516020810191825260208152611d086040826115f1565b5190209585600052600b60205260026040600020015496956000965b8951881015611d6b57611d37888b611849565b5190600082821015611d5a5750600052602052600160406000205b970196611d24565b604091600193825260205220611d52565b9194979295985092955003611d80573861192d565b60405162461bcd60e51b815260206004820152600d60248201526c24b73b30b634b210383937b7b360991b6044820152606490fd5b60405162461bcd60e51b815260206004820152600e60248201526d092dcecc2d8d2c840d8cadccee8d60931b6044820152606490fd5b60405162461bcd60e51b815260206004820152600d60248201526c185b1c9958591e57dd9bdd1959609a1b6044820152606490fd5b60405162461bcd60e51b81526020600482015260076024820152661a5b9d985b1a5960ca1b6044820152606490fd5b908115611ef5575b8015611ee3575b602090606460018060a01b036000805160206120b18339815191525416936000604051958694859363f953e42760e01b8552600485015260248401528160448401525af1908115611acb57600091611eb4575090565b90506020813d602011611edb575b81611ecf602093836115f1565b810103126103a7575190565b3d9150611ec2565b506020611eee611f39565b9050611e5e565b9050611eff611f39565b90611e57565b906020808351928381520192019060005b818110611f235750505090565b8251845260209384019390920191600101611f16565b6000805160206120b183398151915254604051631ce2e8d760e31b8152600060048201819052600160fb1b60248301529091602091839160449183916001600160a01b03165af1908115611acb57600091611eb4575090565b6020611fdc93926000805160206120b183398151915254600093846040518098819582946302e817ff60e41b84526004840152336024840152608060448401526084830190611733565b600160fb1b606483015203926001600160a01b03165af192831561208357819361204f575b50600080516020612091833981519152546001600160a01b031683813b15610cd7576040516346ce4e4960e11b815260048101919091523360248201529082908290818381604481016118ab565b9092506020813d60201161207b575b8161206b602093836115f1565b81010312610cd757519138612001565b3d915061205e565b50604051903d90823e3d90fdfeed8d60e34876f751cc8b014c560745351147d9de11b9347c854e881b128ea600ed8d60e34876f751cc8b014c560745351147d9de11b9347c854e881b128ea601a264697066735822122011a1c0127fef5b4728b36316a5c0ca5ec69b2ef56bdf2ae520369eee6dc7ac9c64736f6c634300081c0033","linkReferences":{}},"methodIdentifiers":{"createQuery(uint256,(uint8,bytes)[][])":"00653e90","createSurvey((string,uint8,bool,bytes32,uint256,uint256,uint8[]))":"84d92203","executeQuery(uint256)":"960a4c18","gatewayDecryptAnalyse(uint256,uint256,uint256)":"151cf9b9","gatewayDecryptVoteResult(uint256,uint256)":"dd921de2","hasVoted(uint256,address)":"43859632","queryData(uint256)":"4279ef3b","revealResults(uint256)":"b8f6255a","submitEntry(uint256,bytes32,bytes32[],bytes)":"33ce9e29","submitWhitelistedEntry(uint256,bytes32,bytes32[],bytes,bytes32[])":"21acc8ea","surveyData(uint256)":"00bcd6d5","surveyParams(uint256)":"d7b8f1cb"},"id":1}