{"abi":[{"type":"function","name":"createQuery","inputs":[{"name":"surveyId","type":"uint256","internalType":"uint256"},{"name":"params","type":"tuple[][]","internalType":"struct Filter[][]","components":[{"name":"verifier","type":"uint8","internalType":"enum VerifierType"},{"name":"value","type":"bytes","internalType":"bytes"}]}],"outputs":[{"name":"","type":"uint256","internalType":"uint256"}],"stateMutability":"nonpayable"},{"type":"function","name":"createSurvey","inputs":[{"name":"params","type":"tuple","internalType":"struct SurveyParams","components":[{"name":"surveyPrompt","type":"string","internalType":"string"},{"name":"surveyType","type":"uint8","internalType":"enum SurveyType"},{"name":"isWhitelisted","type":"bool","internalType":"bool"},{"name":"whitelistRootHash","type":"bytes32","internalType":"bytes32"},{"name":"numberOfParticipants","type":"uint256","internalType":"uint256"},{"name":"surveyEndTime","type":"uint256","internalType":"uint256"},{"name":"minResponseThreshold","type":"uint256","internalType":"uint256"},{"name":"metadataTypes","type":"uint8[]","internalType":"enum MetadataType[]"},{"name":"authorizePendingReveal","type":"bool","internalType":"bool"},{"name":"authorizePendingAnalyze","type":"bool","internalType":"bool"}]}],"outputs":[{"name":"","type":"uint256","internalType":"uint256"}],"stateMutability":"nonpayable"},{"type":"function","name":"executeQuery","inputs":[{"name":"queryId","type":"uint256","internalType":"uint256"}],"outputs":[],"stateMutability":"nonpayable"},{"type":"function","name":"gatewayDecryptAnalyse","inputs":[{"name":"requestId","type":"uint256","internalType":"uint256"},{"name":"numberOfSelected","type":"uint256","internalType":"uint256"},{"name":"pendingResult","type":"uint256","internalType":"uint256"}],"outputs":[],"stateMutability":"nonpayable"},{"type":"function","name":"gatewayDecryptVoteResult","inputs":[{"name":"requestId","type":"uint256","internalType":"uint256"},{"name":"result","type":"uint256","internalType":"uint256"}],"outputs":[],"stateMutability":"nonpayable"},{"type":"function","name":"hasVoted","inputs":[{"name":"","type":"uint256","internalType":"uint256"},{"name":"","type":"address","internalType":"address"}],"outputs":[{"name":"","type":"bool","internalType":"bool"}],"stateMutability":"view"},{"type":"function","name":"queryData","inputs":[{"name":"","type":"uint256","internalType":"uint256"}],"outputs":[{"name":"surveyId","type":"uint256","internalType":"uint256"},{"name":"pendingResult","type":"uint256","internalType":"euint256"},{"name":"numberOfSelected","type":"uint256","internalType":"euint256"},{"name":"cursor","type":"uint256","internalType":"uint256"},{"name":"isFinished","type":"bool","internalType":"bool"},{"name":"selectedCount","type":"uint256","internalType":"uint256"},{"name":"result","type":"uint256","internalType":"uint256"}],"stateMutability":"view"},{"type":"function","name":"revealResults","inputs":[{"name":"surveyId","type":"uint256","internalType":"uint256"}],"outputs":[],"stateMutability":"nonpayable"},{"type":"function","name":"submitEntry","inputs":[{"name":"surveyId","type":"uint256","internalType":"uint256"},{"name":"eInputVote","type":"bytes32","internalType":"einput"},{"name":"metadata","type":"bytes32[]","internalType":"einput[]"},{"name":"inputProof","type":"bytes","internalType":"bytes"}],"outputs":[],"stateMutability":"nonpayable"},{"type":"function","name":"submitWhitelistedEntry","inputs":[{"name":"surveyId","type":"uint256","internalType":"uint256"},{"name":"eInputVote","type":"bytes32","internalType":"einput"},{"name":"metadata","type":"bytes32[]","internalType":"einput[]"},{"name":"inputProof","type":"bytes","internalType":"bytes"},{"name":"whitelistProof","type":"bytes32[]","internalType":"bytes32[]"}],"outputs":[],"stateMutability":"nonpayable"},{"type":"function","name":"surveyData","inputs":[{"name":"","type":"uint256","internalType":"uint256"}],"outputs":[{"name":"participantCount","type":"uint256","internalType":"uint256"},{"name":"encryptedResponses","type":"uint256","internalType":"euint256"},{"name":"lastDecryptedCount","type":"uint256","internalType":"uint256"},{"name":"decryptedResponses","type":"uint256","internalType":"uint256"}],"stateMutability":"view"},{"type":"function","name":"surveyParams","inputs":[{"name":"","type":"uint256","internalType":"uint256"}],"outputs":[{"name":"surveyPrompt","type":"string","internalType":"string"},{"name":"surveyType","type":"uint8","internalType":"enum SurveyType"},{"name":"isWhitelisted","type":"bool","internalType":"bool"},{"name":"whitelistRootHash","type":"bytes32","internalType":"bytes32"},{"name":"numberOfParticipants","type":"uint256","internalType":"uint256"},{"name":"surveyEndTime","type":"uint256","internalType":"uint256"},{"name":"minResponseThreshold","type":"uint256","internalType":"uint256"},{"name":"authorizePendingReveal","type":"bool","internalType":"bool"},{"name":"authorizePendingAnalyze","type":"bool","internalType":"bool"}],"stateMutability":"view"},{"type":"event","name":"EntrySubmitted","inputs":[{"name":"surveyId","type":"uint256","indexed":true,"internalType":"uint256"},{"name":"user","type":"address","indexed":false,"internalType":"address"}],"anonymous":false},{"type":"event","name":"SurveyCreated","inputs":[{"name":"surveyId","type":"uint256","indexed":true,"internalType":"uint256"},{"name":"organizer","type":"address","indexed":false,"internalType":"address"},{"name":"surveyType","type":"uint8","indexed":false,"internalType":"enum SurveyType"},{"name":"surveyPrompt","type":"string","indexed":false,"internalType":"string"}],"anonymous":false},{"type":"error","name":"InvalidEndTime","inputs":[]},{"type":"error","name":"InvalidMetadata","inputs":[]},{"type":"error","name":"InvalidNumberOfParticipants","inputs":[]},{"type":"error","name":"InvalidResponseThreshold","inputs":[]},{"type":"error","name":"InvalidRevealAction","inputs":[]},{"type":"error","name":"InvalidSurveyPrompt","inputs":[]},{"type":"error","name":"InvalidSurveyWhitelist","inputs":[]},{"type":"error","name":"ThresholdNeeded","inputs":[]},{"type":"error","name":"UnauthorizePendingQuery","inputs":[]},{"type":"error","name":"UnfinishedSurveyPeriod","inputs":[]}],"bytecode":{"object":"0x6080604052346101b057600060606100156101b5565b8281528260208201528260408201520152739d6891a6240d6130c54ae243d8005063d05fe14b60606100456101b5565b73fee8407e2f5e3ee68ad77cae98c434e637f516e580825273687408ab54661ba0b4aef3a44156c616c6955e076020830181905273fb03be574d14c256d56f09a198b586bdfc0a9de2604080850182905294909301949094527fed8d60e34876f751cc8b014c560745351147d9de11b9347c854e881b128ea60080546001600160a01b031990811690921790557fed8d60e34876f751cc8b014c560745351147d9de11b9347c854e881b128ea601805482169094179093557fed8d60e34876f751cc8b014c560745351147d9de11b9347c854e881b128ea6028054841690911790557fed8d60e34876f751cc8b014c560745351147d9de11b9347c854e881b128ea60380548316739d6891a6240d6130c54ae243d8005063d05fe14b1790557f93ab6e17f2c461cce6ea5d4ec117e51dda77a64affc2b2c05f8cd440def0e70080549092167333347831500f1e73f0cccbb95c9f86b94d7b11231790915551612c3890816101eb8239f35b600080fd5b60405190608082016001600160401b038111838210176101d457604052565b634e487b7160e01b600052604160045260246000fdfe6101a0604052600436101561001357600080fd5b6000803560e01c8062653e9014610e48578062bcd6d514610dfb578063151cf9b914610d7857806321acc8ea14610c9e57806333ce9e2914610c285780634279ef3b14610bb75780634385963214610b60578063960a4c1814610b40578063b8f6255a14610862578063d7b8f1cb14610722578063dd921de2146106cd5763f93e087c146100a057600080fd5b346106ca5760203660031901126106ca57600435906001600160401b0382116106ca5761014060031983360301126106ca5760405161014081018181106001600160401b038211176106b65760405282600401356001600160401b0381116106b2578301366023820112156106b257610123903690602460048201359101611514565b8152602483013560028110156106b257602082019081526101466044850161167f565b936040830194855260608301946064820135865260808401906084830135825260a0850160a4840135815260c0860160c4850135815260e48501356001600160401b0381116106ae57850191366023840112156106ae5760048301356101ab816114fd565b936101b960405195866114dc565b818552602060048187019360051b83010101903682116106aa57602401915b81831061068d5750505060e0880192835261020b6101246101fc610104890161167f565b976101008b019889520161167f565b9461012089019586528851511561067e578451151580610675575b61066657845115158061065b575b61064c57815142101561063d5760038351111561062e57610253612a4b565b9a61025d8c6129d3565b600a548b52600b60205260408b20958a518051906001600160401b03821161061a578d906102958361028f8c546115e4565b8c6116a3565b602091601f84116001146105b35761030694936102c9939092836105a8575b50508160011b916000199060031b1c19161790565b88555b60018801908b516102dc8161165f565b6102e58161165f565b8254915161ffff1990921660ff919091161790151560081b61ff0016179055565b51600286015551600385015551600484015551600583015551805160068301916001600160401b03821161059457600160401b8211610594576020908354838555808410610548575b5001918852602088208160051c91895b8381106105105750601f1981169003806104bb575b505050509061039a60076103b194930192511515839060ff801983541691151516179055565b51815461ff00191690151560081b61ff0016179055565b604051608081018181106001600160401b038211176104a757610477949560039160405286835260208301908152604083018781526060840191888352600a548952600c6020526040892094518555516001850155516002840155519101557f52b91a8adb16d2c942f8afd364522fa27a2ab2df5adb982db50443fc31c05290600a5492839251906104428261165f565b519061046f6040519283923384526104598161165f565b602084015260606040840152606083019061161e565b0390a26116ea565b9081600a55600019820191821161049357602082604051908152f35b634e487b7160e01b81526011600452602490fd5b634e487b7160e01b85526041600452602485fd5b9289938a5b8181106104da57505050015561039a60076103b138610374565b9091946020610506600192848951916104f28361165f565b9060ff809160031b9316831b921b19161790565b96019291016104c0565b8a8b5b6020811061052857508382015560010161035f565b9590602061053f600192898551916104f28361165f565b92019601610513565b61057290858c52838c20601f80870160051c82019281881680610578575b500160051c019061168c565b3861034f565b600019850190815490600019908a0360031b1c16905538610566565b634e487b7160e01b89526041600452602489fd5b0151905038806102b4565b9190601f1984168b8452828420935b8181106106025750916001939185610306979694106105e9575b505050811b0188556102cc565b015160001960f88460031b161c191690553880806105dc565b929360206001819287860151815501950193016105c2565b634e487b7160e01b8e52604160045260248efd5b630ba2c8e960e31b8a5260048afd5b6338af65f760e01b8a5260048afd5b63e633dc2f60e01b8a5260048afd5b506002815110610234565b63a7952e8f60e01b8a5260048afd5b508a5115610226565b630d34db1360e41b8a5260048afd5b823560028110156106a6578152602092830192016101d8565b8c80fd5b8b80fd5b8880fd5b8280fd5b634e487b7160e01b83526041600452602483fd5b80fd5b50346106ca5760403660031901126106ca57600080516020612bc3833981519152546001600160a01b031633036106ca576004358152600f60205260408120548152600c602052602435600360408320015580f35b50346106ca5760203660031901126106ca576004358152600b602052604081206040519082815490610753826115e4565b808552916001811690811561083a5750600114610801575b505061077c826107b99403836114dc565b60ff600182015481811692600281015460038201546004830154918560076005860154950154956040519a8b9a6101208c526101208c019061161e565b986107c38161165f565b60208b015260081c16151560408901526060880152608087015260a086015260c0850152818116151560e085015260081c1615156101008301520390f35b909350818152602081205b84821061082457508201602001925061077c8261076b565b600181602092548385880101520191019061080c565b6107b99650859250602091509261077c9360ff191682840152151560051b820101945061076b565b50346106ca5760203660031901126106ca57600435808252600b602052604082206007015460ff1615610b1b57808252600c6020526108b86002604084200154828452600b60205260056040852001549061171c565b818352600c602052604083205410610b0c57808252600b60205260ff600160408420015460081c1680610acf575b610a85575b604080516108f982826114dc565b60018152601f198201366020830137828452600c602052600182852001546109208261175b565b526064420190814211610a7157600080516020612ba3833981519152546001600160a01b0316803b15610a6d57858451809263155f840160e21b825260206004830152818381610973602482018961299f565b03925af18015610a6357610a4a575b50600080516020612bc3833981519152548351634c0d927760e01b815260a060048201529260209284926001600160a01b0316918391899183916109ca9060a484019061299f565b90636ec90ef160e11b6024840152836044840152606483015282608483015203925af1908115610a40578491610a09575b508352600f60205282205580f35b90506020813d602011610a38575b81610a24602093836114dc565b81010312610a335751386109fb565b600080fd5b3d9150610a17565b82513d86823e3d90fd5b85610a5b602093976109ca936114dc565b959150610982565b84513d88823e3d90fd5b8580fd5b634e487b7160e01b85526011600452602485fd5b808252600c6020526040822054818352600b602052610abb6003604085200154838552600b60205260056040862001549061170f565b146108eb576388d5892d60e01b8252600482fd5b50808252600c6020526040822054818352600b602052610b066003604085200154838552600b60205260056040862001549061170f565b106108e6565b63ccd3164d60e01b8252600482fd5b808252600b602052600460408320015442116108eb576352dc50db60e11b8252600482fd5b50346106ca5760203660031901126106ca57610b5d60043561177c565b80f35b50346106ca5760403660031901126106ca576024356001600160a01b0381168103610bb357604060209260ff926004358252600e85528282209060018060a01b0316825284522054166040519015158152f35b5080fd5b50346106ca5760203660031901126106ca57604060e09160043581526012602052208054906002810154906003810154600482015460ff6005840154169160076006850154940154946040519687526020870152604086015260608501521515608084015260a083015260c0820152f35b50346106ca5760803660031901126106ca576044356001600160401b038111610bb357610c5990369060040161155a565b606435906001600160401b0382116106b257610c7c610b5d9236906004016115b7565b9060405192610c8c6020856114dc565b8584528536813760243560043561231a565b50346106ca5760a03660031901126106ca576044356001600160401b038111610bb357610ccf90369060040161155a565b906064356001600160401b038111610bb357610cef9036906004016115b7565b608435916001600160401b038311610d745736602384011215610d7457826004013594610d1b866114fd565b93610d2960405195866114dc565b8685526024602086019760051b82010190368211610d7057602401965b818810610d60575050610b5d94955060243560043561231a565b8735815260209788019701610d46565b8680fd5b8380fd5b50346106ca5760603660031901126106ca57600080516020612bc383398151915254600435906001600160a01b03163303610bb357808252600f6020526040822054808352601260205260243560066040852001558252601260205260443560076040842001558152601260205260056040822001600160ff1982541617905580f35b50346106ca5760203660031901126106ca5760406080916004358152600c602052208054906001810154906003600282015491015491604051938452602084015260408301526060820152f35b50346106ca5760403660031901126106ca576024356004356001600160401b0382116106b257366023830112156106b2578160040135610e87816114fd565b92610e9560405194856114dc565b8184526024602085019260051b82010190368211610a6d5760248101925b82841061139e5750505050808352600b60205260ff600760408520015460081c1680611386575b61137757610ee6612a4b565b610eee612a4b565b90828552600b60205260ff600760408720015460081c161560001461137257828552600b602052600460408620015442111561136357828552600c6020525b6040519261010084018481106001600160401b0382111761134f57604052835260208301938452604083015260608201528260808201528260a08201528260c08201528260e082015260115483526012602052604083209181518355600183019051805190600160401b821161133b578254828455808310611266575b506020019185526020852085925b828410611039578686600760e08860408101516002850155606081015160038501556080810151600485015561100360a08201511515600586019060ff801983541691151516179055565b60c08101516006850155015191015561101d6011546116ea565b9081601155600019820191821161049357602082604051908152f35b8051805190600160401b82116105945783548285558083106111ab575b50602001838952602089209089905b838210611082575050505060016020819201920193019290610fb8565b805180516003811015611197579060209160ff8019875416911617855501518051906001600160401b038211611183576110cc826110c360018801546115e4565b600188016116a3565b6020908d601f841160011461111557836002946020946001979461110494926105a85750508160011b916000199060031b1c19161790565b848701555b01930191019091611065565b9190601f198416600188018452828420935b81811061116b5750936020936001969387938360029810611152575b505050811b0184870155611109565b015160001960f88460031b161c19169055388080611143565b92936020600181928786015181550195019301611127565b634e487b7160e01b8d52604160045260248dfd5b634e487b7160e01b8d52602160045260248dfd5b6001600160ff1b0381168103611252576001600160ff1b038316830361125257848a5260208a208360011b81015b8260011b820181106111ec575050611056565b808c600292558c6001820161120181546115e4565b80611210575b505050016111d9565b601f81116001146112265750555b8c3880611207565b8183526020832061124291601f0160051c81019060010161168c565b808252816020812091555561121e565b634e487b7160e01b8a52601160045260248afd5b838752826020882091820191015b8181106112815750610faa565b805488825580611295575b50600101611274565b6001600160ff1b038116810361132757818952602089209060011b8101905b8181106112c1575061128c565b808a600292558a600182016112d681546115e4565b806112e5575b505050016112b4565b601f81116001146112fb5750555b8a38806112dc565b8183526020832061131791601f0160051c81019060010161168c565b80825281602081209155556112f3565b634e487b7160e01b89526011600452602489fd5b634e487b7160e01b86526041600452602486fd5b634e487b7160e01b87526041600452602487fd5b6388d5892d60e01b8552600485fd5b610f2d565b63befe1cb760e01b8352600483fd5b50808352600b60205260046040842001544210610eda565b83356001600160401b0381116114a7578201366043820112156114a7576024810135906113ca826114fd565b916113d860405193846114dc565b808352602060248185019260051b84010101913683116114a35760448101915b838310611412575050509082525060209384019301610eb3565b82356001600160401b0381116106a657602490830101906040601f1983360301126106a65760405191611444836114ab565b6020810135600381101561149f57835260408101356001600160401b03811161149f5760209101019036601f8301121561149b5760209261148c849336908581359101611514565b838201528152019201916113f8565b8d80fd5b8e80fd5b8a80fd5b8780fd5b604081019081106001600160401b038211176114c657604052565b634e487b7160e01b600052604160045260246000fd5b90601f801991011681019081106001600160401b038211176114c657604052565b6001600160401b0381116114c65760051b60200190565b9291926001600160401b0382116114c6576040519161153d601f8201601f1916602001846114dc565b829481845281830111610a33578281602093846000960137010152565b9080601f83011215610a33578135611571816114fd565b9261157f60405194856114dc565b81845260208085019260051b820101928311610a3357602001905b8282106115a75750505090565b813581526020918201910161159a565b9181601f84011215610a33578235916001600160401b038311610a335760208381860195010111610a3357565b90600182811c92168015611614575b60208310146115fe57565b634e487b7160e01b600052602260045260246000fd5b91607f16916115f3565b919082519283825260005b84811061164a575050826000602080949584010152601f8019910116010190565b80602080928401015182828601015201611629565b6002111561166957565b634e487b7160e01b600052602160045260246000fd5b35908115158203610a3357565b818110611697575050565b6000815560010161168c565b9190601f81116116b257505050565b6116de926000526020600020906020601f840160051c830193106116e0575b601f0160051c019061168c565b565b90915081906116d1565b60001981146116f95760010190565b634e487b7160e01b600052601160045260246000fd5b919082039182116116f957565b919082018092116116f957565b80548210156117455760005260206000209060011b0190600090565b634e487b7160e01b600052603260045260246000fd5b8051156117455760200190565b80518210156117455760209160051b010190565b610140526011546000610180526101405110156122e257610140516101805152601260205260406101805120546101005261014051610180515260126020526004604061018051200154610120525b61014051610180515260126020526004604061018051200154600a6101205101610120511161227857600a610120510111806122ac575b15611fee57610100516101805152600d6020526001611840604061018051206101405161018051526012602052600460406101805120015490611729565b5060405160c05261185260c0516114ab565b805460c0515201604051808260208294549384815201906101805152602061018051209261018051905b808210611fd2575050611891925003826114dc565b602060c05101908152610140516101805152601260205260016040610180512001905160805280546118d56118c5826114fd565b60405161016052610160516114dc565b80610160515261016051506020610160510191610180515260206101805120916101805160e0525b8160e05110611e9a575050600080516020612be383398151915254604051631ce2e8d760e31b815260016004820152610180805160248301525190925060209183916044918391906001600160a01b03165af1908115611b50576101805191611e69575b5061018051905b6101605151821015611c155761018051905b6119878361016051611768565b5151821015611c08576119a7826119a18561016051611768565b51611768565b516119b484608051611768565b516101805182519192916003811015611bee57611be357506020908101518051818301929082019190910312611b415751600080516020612be383398151915254604051631ce2e8d760e31b81526004810192909252600160fb1b60248301526101805160209183916044918391906001600160a01b03165af1908115611b50576101805191611bb2575b50808215611ba2575b15611b90575b600080516020612be383398151915254604051631f31e28560e11b815260048101939093526024830191909152610180805160448401525160209183916064918391906001600160a01b03165af18015611b50576101805190611b5e575b602091505b600080516020612be383398151915254604051630ccd46b160e31b8152600481019490945260248401919091526101808051604485015251839160649183916001600160a01b03165af18015611b50576101805190611b17575b6001915091019061197a565b506020813d8211611b48575b81611b30602093836114dc565b81010312611b415760019051611b0b565b6101805180fd5b3d9150611b23565b6040513d61018051823e3d90fd5b506020813d8211611b88575b81611b77602093836114dc565b81010312611b415760209051611aac565b3d9150611b6a565b506020611b9b612a4b565b9050611a4e565b9150611bac612a4b565b91611a48565b90506020813d8211611bdb575b81611bcc602093836114dc565b81010312611b41575138611a3f565b3d9150611bbf565b602092509050611ab1565b634e487b7160e01b61018051526021600452602461018051fd5b6001909201919050611968565b600080516020612be383398151915254604051631ce2e8d760e31b815260016004820152600160fb1b6024820152610180519293509160209183916044918391906001600160a01b03165af1908115611b50576101805191611e38575b50611c7b612a4b565b91602060018060a01b03600080516020612be383398151915254169260646040518095819363cb3b940760e01b8352866004840152602483015287604483015261018051905af1918215611b50576101805192611e04575b50602090606460c051519160018060a01b03600080516020612be38339815191525416604051968794859363cb3b940760e01b855260048501526024840152604483015261018051905af1918215611b50576101805192611dcf575b5090611d56611d8d92610140516101805152601260205260036040610180512001546128e9565b61014051610180515260126020526003604061018051200155610140516101805152601260205260026040610180512001546128e9565b61014051610180515260126020526002604061018051200155610140516101805152601260205260046040610180512001611dc881546116ea565b90556117cb565b91506020823d8211611dfc575b81611de9602093836114dc565b81010312611b4157905190611d56611d2f565b3d9150611ddc565b9091506020813d8211611e30575b81611e1f602093836114dc565b81010312611b415751906020611cd3565b3d9150611e12565b90506020813d8211611e61575b81611e52602093836114dc565b81010312611b41575138611c72565b3d9150611e45565b90506020813d8211611e92575b81611e83602093836114dc565b81010312611b41575138611961565b3d9150611e76565b8254611ea5816114fd565b90611eb360405192836114dc565b80825260208201908561018051526020610180512061018051925b828410611ef35750505050816020916001935201920191600160e0510160e0526118fd565b604051611eff816114ab565b60ff8354166003811015611bee5781526040516101805160018501805460a0819052611f2a906115e4565b90818452600160a0511680600014611fae57600114611f6d575b50509260029282611f5b60209460019703826114dc565b83820152815201920193019290611ece565b9091506101805152602061018051209061018051915b818310611f9857505081016020018282611f44565b6001816020925483868801015201920191611f83565b505060a05160ff191660208085019190915290151560051b83010190508282611f44565b916001919350602082918654815201940192018492939161187c565b61014051610180515260126020526004604061018051200154610100516101805152600d6020526040610180512054111561202557565b6101405161018051526012602052600460406101805120015461010051610180515260136020526120766040610180512054610100516101805152600b60205260056040610180512001549061171c565b10156116de5761014051610180515260126020526004604061018051200154610100516101805152601360205260406101805120556101805150610180515061018051506040516120c86060826114dc565b600281526040366020830137610140516101805152601260205260036040610180512001546120f68261175b565b52610140516101805152601260205260026040610180512001546101805150815160011015612292576040820152606442019081421161227857600080516020612ba3833981519152546001600160a01b031690813b15611b415760405163155f840160e21b8152602060048201526101805190928390818061217c602482018761299f565b039161018051905af1908115611b50576020926121db92612265575b50600080516020612bc383398151915254604051634c0d927760e01b815260a060048201529485936001600160a01b0390921692849283929160a484019061299f565b9063151cf9b960e01b60248401526101805160448401526064830152610180516084830152039161018051905af1908115611b50576101805191612233575b506101805152600f602052610140516040610180512055565b90506020813d60201161225d575b8161224e602093836114dc565b81010312610a3357513861221a565b3d9150612241565b61018051612272916114dc565b38612198565b634e487b7160e01b61018051526011600452602461018051fd5b634e487b7160e01b61018051526032600452602461018051fd5b5061014051610180515260126020526004604061018051200154610100516101805152600d602052604061018051205411611802565b60405162461bcd60e51b815260206004820152601060248201526f1253959053125117d45551549657d25160821b6044820152606490fd5b9094959395600a548210156128ba576000828152600e6020908152604080832033845290915290205460ff166128855781600052600b60205260066040600020015483510361284f5781600052600b60205260ff60016040600020015460081c16612764575b5080600052600b6020526006604060002001549361239d856114fd565b946123ab60405196876114dc565b8086526123ba601f19916114fd565b0136602087013760005b82600052600b6020526006604060002001548110156125ba5782600052600b602052600660406000200180548210156117455760005260ff60206000208260051c015460f88360031b161c166124198161165f565b8061257557506124298185611768565b5190612487602061243b368c8a611514565b60009460018060a01b03600080516020612be3833981519152541690866040518096819582946302e817ff60e41b8452600484015233602484015260806044840152608483019061161e565b82606483015203925af1928315612569578093612533575b5050600080516020612ba3833981519152546001600160a01b031691823b15610a33576040516346ce4e4960e11b815260048101829052336024820152926000908490604490829084905af19081156125275760019361251092612516575b508061250a848b611768565b526129d3565b016123c4565b6000612521916114dc565b386124fe565b6040513d6000823e3d90fd5b909192506020823d8211612561575b8161254f602093836114dc565b810103126106ca57505190388061249f565b3d9150612542565b604051903d90823e3d90fd5b90600180926125838161165f565b03612510576125b56125aa6125988388611768565b516125a4368d8b611514565b90612aa4565b8061250a848b611768565b612510565b50956125a491959250926125cf933691611514565b6125d8816129d3565b82600052600c6020526125f3816001604060002001546128e9565b6000848152600c6020526040902060018101919091558054612614906116ea565b905582600052600c6020526126306001604060002001546129d3565b6040519061263d826114ab565b81526020810191825282600052600d60205260406000208054600160401b8110156114c65761267191600182018155611729565b61274e57600191518155019051908151916001600160401b0383116114c657600160401b83116114c6576020908254848455808510612731575b500190600052602060002060005b83811061271d575050505080600052600e602052604060002060018060a01b0333166000526020526040600020600160ff198254161790557f03b562e13524df9ad0948873c24d44336296e8aaef105cb0e60f18d40378ef576020604051338152a2565b6001906020845194019381840155016126b9565b61274890846000528584600020918201910161168c565b386126ab565b634e487b7160e01b600052600060045260246000fd5b95926040959295949194516020810190338252602081526127866040826114dc565b51902060405160208101918252602081526127a26040826114dc565b5190209585600052600b60205260026040600020015496956000965b8951881015612805576127d1888b611768565b51906000828210156127f45750600052602052600160406000205b9701966127be565b6040916001938252602052206127ec565b919497929598509295500361281a5738612380565b60405162461bcd60e51b815260206004820152600d60248201526c24b73b30b634b210383937b7b360991b6044820152606490fd5b60405162461bcd60e51b815260206004820152600e60248201526d092dcecc2d8d2c840d8cadccee8d60931b6044820152606490fd5b60405162461bcd60e51b815260206004820152600d60248201526c185b1c9958591e57dd9bdd1959609a1b6044820152606490fd5b60405162461bcd60e51b81526020600482015260076024820152661a5b9d985b1a5960ca1b6044820152606490fd5b90811561298f575b801561297d575b602090606460018060a01b03600080516020612be38339815191525416936000604051958694859363f953e42760e01b8552600485015260248401528160448401525af19081156125275760009161294e575090565b90506020813d602011612975575b81612969602093836114dc565b81010312610a33575190565b3d915061295c565b506020612988612a4b565b90506128f8565b9050612999612a4b565b906128f1565b906020808351928381520192019060005b8181106129bd5750505090565b82518452602093840193909201916001016129b0565b600080516020612ba3833981519152546000916001600160a01b0390911690813b156106b257604051631974142760e21b815260048101919091523060248201529082908290818381604481015b03925af18015612a4057612a33575050565b81612a3d916114dc565b50565b6040513d84823e3d90fd5b600080516020612be383398151915254604051631ce2e8d760e31b8152600060048201819052600160fb1b60248301529091602091839160449183916001600160a01b03165af19081156125275760009161294e575090565b6020612aee9392600080516020612be383398151915254600093846040518098819582946302e817ff60e41b8452600484015233602484015260806044840152608483019061161e565b600160fb1b606483015203926001600160a01b03165af1928315612b95578193612b61575b50600080516020612ba3833981519152546001600160a01b031683813b156106b2576040516346ce4e4960e11b81526004810191909152336024820152908290829081838160448101612a21565b9092506020813d602011612b8d575b81612b7d602093836114dc565b810103126106b257519138612b13565b3d9150612b70565b50604051903d90823e3d90fdfeed8d60e34876f751cc8b014c560745351147d9de11b9347c854e881b128ea60093ab6e17f2c461cce6ea5d4ec117e51dda77a64affc2b2c05f8cd440def0e700ed8d60e34876f751cc8b014c560745351147d9de11b9347c854e881b128ea601a264697066735822122070ed05b39e56c77d724251b76533efbde2ba24e0c6b703ff22db0343861c6e7364736f6c634300081c0033","linkReferences":{}},"methodIdentifiers":{"createQuery(uint256,(uint8,bytes)[][])":"00653e90","createSurvey((string,uint8,bool,bytes32,uint256,uint256,uint256,uint8[],bool,bool))":"f93e087c","executeQuery(uint256)":"960a4c18","gatewayDecryptAnalyse(uint256,uint256,uint256)":"151cf9b9","gatewayDecryptVoteResult(uint256,uint256)":"dd921de2","hasVoted(uint256,address)":"43859632","queryData(uint256)":"4279ef3b","revealResults(uint256)":"b8f6255a","submitEntry(uint256,bytes32,bytes32[],bytes)":"33ce9e29","submitWhitelistedEntry(uint256,bytes32,bytes32[],bytes,bytes32[])":"21acc8ea","surveyData(uint256)":"00bcd6d5","surveyParams(uint256)":"d7b8f1cb"},"id":0}