{"abi":[{"type":"function","name":"createPolling","inputs":[{"name":"survey","type":"string","internalType":"string"},{"name":"whitelisted","type":"address[]","internalType":"address[]"}],"outputs":[],"stateMutability":"nonpayable"},{"type":"function","name":"createSurvey","inputs":[{"name":"params","type":"tuple","internalType":"struct SurveyParams","components":[{"name":"surveyPrompt","type":"string","internalType":"string"},{"name":"surveyType","type":"uint8","internalType":"enum SurveyType"},{"name":"isWhitelisted","type":"bool","internalType":"bool"},{"name":"whitelistRootHash","type":"bytes32","internalType":"bytes32"},{"name":"surveyEndTime","type":"uint256","internalType":"uint256"},{"name":"responseThreshold","type":"uint256","internalType":"uint256"},{"name":"metadataTypes","type":"uint8[]","internalType":"enum MetadataType[]"}]}],"outputs":[{"name":"","type":"uint256","internalType":"uint256"}],"stateMutability":"nonpayable"},{"type":"function","name":"gatewayDecryptVoteResult","inputs":[{"name":"requestId","type":"uint256","internalType":"uint256"},{"name":"result","type":"uint256","internalType":"uint256"}],"outputs":[],"stateMutability":"nonpayable"},{"type":"function","name":"hasVoted","inputs":[{"name":"","type":"uint256","internalType":"uint256"},{"name":"","type":"address","internalType":"address"}],"outputs":[{"name":"","type":"bool","internalType":"bool"}],"stateMutability":"view"},{"type":"function","name":"isWhitelisted","inputs":[{"name":"","type":"address","internalType":"address"}],"outputs":[{"name":"","type":"bool","internalType":"bool"}],"stateMutability":"view"},{"type":"function","name":"revealResults","inputs":[{"name":"surveyId","type":"uint256","internalType":"uint256"}],"outputs":[],"stateMutability":"nonpayable"},{"type":"function","name":"submitEntry","inputs":[{"name":"surveyId","type":"uint256","internalType":"uint256"},{"name":"eInputVote","type":"bytes32","internalType":"einput"},{"name":"metadata","type":"uint256[]","internalType":"uint256[]"},{"name":"inputProof","type":"bytes","internalType":"bytes"}],"outputs":[],"stateMutability":"nonpayable"},{"type":"function","name":"submitWhitelistedEntry","inputs":[{"name":"surveyId","type":"uint256","internalType":"uint256"},{"name":"eInputVote","type":"bytes32","internalType":"einput"},{"name":"metadata","type":"uint256[]","internalType":"uint256[]"},{"name":"inputProof","type":"bytes","internalType":"bytes"},{"name":"whitelistProof","type":"bytes32[]","internalType":"bytes32[]"}],"outputs":[],"stateMutability":"nonpayable"},{"type":"function","name":"surveyParams","inputs":[{"name":"","type":"uint256","internalType":"uint256"}],"outputs":[{"name":"surveyPrompt","type":"string","internalType":"string"},{"name":"surveyType","type":"uint8","internalType":"enum SurveyType"},{"name":"isWhitelisted","type":"bool","internalType":"bool"},{"name":"whitelistRootHash","type":"bytes32","internalType":"bytes32"},{"name":"surveyEndTime","type":"uint256","internalType":"uint256"},{"name":"responseThreshold","type":"uint256","internalType":"uint256"}],"stateMutability":"view"}],"bytecode":{"object":"0x608060405234801561001057600080fd5b5061018c6100b0604080516080810182526000808252602082018190529181018290526060810191909152506040805160808101825273fee8407e2f5e3ee68ad77cae98c434e637f516e5815273687408ab54661ba0b4aef3a44156c616c6955e07602082015273fb03be574d14c256d56f09a198b586bdfc0a9de291810191909152739d6891a6240d6130c54ae243d8005063d05fe14b606082015290565b80517fed8d60e34876f751cc8b014c560745351147d9de11b9347c854e881b128ea60080546001600160a01b03199081166001600160a01b039384161790915560208301517fed8d60e34876f751cc8b014c560745351147d9de11b9347c854e881b128ea6018054831691841691909117905560408301517fed8d60e34876f751cc8b014c560745351147d9de11b9347c854e881b128ea6028054831691841691909117905560608301517fed8d60e34876f751cc8b014c560745351147d9de11b9347c854e881b128ea6038054909216921691909117905550565b7f93ab6e17f2c461cce6ea5d4ec117e51dda77a64affc2b2c05f8cd440def0e70080546001600160a01b0319167333347831500f1e73f0cccbb95c9f86b94d7b1123179055611744806101e06000396000f3fe608060405234801561001057600080fd5b50600436106100935760003560e01c806366a970eb1161006657806366a970eb1461012657806384d9220314610139578063b8f6255a1461015a578063d7b8f1cb1461016d578063dd921de21461019257600080fd5b80631d20eacb146100985780633af32abf146100ad57806340e62296146100e557806343859632146100f8575b600080fd5b6100ab6100a6366004610f01565b6101a5565b005b6100d06100bb366004611021565b60116020526000908152604090205460ff1681565b60405190151581526020015b60405180910390f35b6100ab6100f336600461103c565b6101bb565b6100d06101063660046110bd565b600e60209081526000928352604080842090915290825290205460ff1681565b6100ab610134366004611158565b6101fb565b61014c610147366004611287565b610269565b6040519081526020016100dc565b6100ab610168366004611361565b610391565b61018061017b366004611361565b610436565b6040516100dc969594939291906113d6565b6100ab6101a0366004611431565b6104f9565b6101b3868686868686610551565b505050505050565b6101f4858585858560006040519080825280602002602001820160405280156101ee578160200160208202803683370190505b50610551565b5050505050565b60005b818110156102635760016011600085858581811061021e5761021e611453565b90506020020160208101906102339190611021565b6001600160a01b031681526020810191909152604001600020805460ff19169115159190911790556001016101fe565b50505050565b60008061027660006107b9565b9050610281816107cc565b600a546000908152600b60205260409020835184919081906102a390826114ef565b50602082015160018083018054909160ff199091169083818111156102ca576102ca6113c0565b021790555060408201516001820180549115156101000261ff0019909216919091179055606082015160028201556080820151600382015560a0820151600482015560c08201518051610327916005840191602090910190610cb7565b50506040805160608101825260008082526020808301868152838501838152600a80548552600c90935294832093518455516001840155925160029092019190915581549250610376836115c3565b91905055506001600a5461038a91906115dc565b9392505050565b6000818152600c60205260409020600101546103ac906107cc565b60408051600180825281830190925260009160208083019080368337019050506000838152600c6020526040902060010154909150816000815181106103f4576103f4611453565b6020908102919091010152600061042082636ec90ef160e11b836104194260646115ef565b60006107d9565b6000908152600f60205260409020929092555050565b600b6020526000908152604090208054819061045190611469565b80601f016020809104026020016040519081016040528092919081815260200182805461047d90611469565b80156104ca5780601f1061049f576101008083540402835291602001916104ca565b820191906000526020600020905b8154815290600101906020018083116104ad57829003601f168201915b50505050600183015460028401546003850154600490950154939460ff80841695610100909404169350909186565b7f93ab6e17f2c461cce6ea5d4ec117e51dda77a64affc2b2c05f8cd440def0e700546001600160a01b0316331461052f57600080fd5b6000918252600f60209081526040808420548452600c90915290912060020155565b600a5486106105915760405162461bcd60e51b81526020600482015260076024820152661a5b9d985b1a5960ca1b60448201526064015b60405180910390fd5b6000868152600e6020908152604080832033845290915290205460ff16156105eb5760405162461bcd60e51b815260206004820152600d60248201526c185b1c9958591e57dd9bdd1959609a1b6044820152606401610588565b6000868152600b6020526040902060010154610100900460ff16156106ac57604080513360208201526000910160408051601f198184030181528282528051602091820120908301520160405160208183030381529060405280519060200120905061066e82600b60008a815260200190815260200160002060020154836108fb565b6106aa5760405162461bcd60e51b815260206004820152600d60248201526c24b73b30b634b210383937b7b360991b6044820152606401610588565b505b60006106ee8685858080601f01602080910402602001604051908101604052809392919081815260200183838082843760009201919091525061091192505050565b6000888152600c602052604090206001015490915061070d908261091f565b6000888152600c60205260408120600181019290925581549190610730836115c3565b9091555050604080518082018252828152602080820188815260008b8152600d835293842080546001818101835591865294839020845160029096020194855590518051939485949093610788938501920190610d6b565b50505060009788525050600e60209081526040808820338952909152909520805460ff191660011790555050505050565b60006107c6826008610951565b92915050565b6107d681306109f1565b50565b6000805160206116ef833981519152805460405163155f840160e21b8152600092916001600160a01b03169063557e100490610819908a9060040161163e565b600060405180830381600087803b15801561083357600080fd5b505af1158015610847573d6000803e3d6000fd5b5050505060006108747f93ab6e17f2c461cce6ea5d4ec117e51dda77a64affc2b2c05f8cd440def0e70090565b8054604051634c0d927760e01b81529192506001600160a01b031690634c0d9277906108ac908b908b908b908b908b90600401611651565b6020604051808303816000875af11580156108cb573d6000803e3d6000fd5b505050506040513d601f19601f820116820180604052508101906108ef9190611694565b98975050505050505050565b6000826109088584610a6e565b14949350505050565b600061038a83836008610ab1565b6000826109335761093060006107b9565b92505b816109455761094260006107b9565b91505b61038a83836000610bcc565b6000806000805160206116ef8339815191526001810154604051631ce2e8d760e31b8152600481018790526001600160f81b031960f887901b1660248201529192506001600160a01b03169063e71746b8906044016020604051808303816000875af11580156109c5573d6000803e3d6000fd5b505050506040513d601f19601f820116820180604052508101906109e99190611694565b949350505050565b60006000805160206116ef8339815191528054604051631974142760e21b8152600481018690526001600160a01b0385811660248301529293509116906365d0509c90604401600060405180830381600087803b158015610a5157600080fd5b505af1158015610a65573d6000803e3d6000fd5b50505050505050565b600081815b8451811015610aa957610a9f82868381518110610a9257610a92611453565b6020026020010151610c88565b9150600101610a73565b509392505050565b7fed8d60e34876f751cc8b014c560745351147d9de11b9347c854e881b128ea601546040516302e817ff60e41b81526000916000805160206116ef833981519152916001600160a01b0390911690632e817ff090610b1d9088903390899060f88a901b906004016116ad565b6020604051808303816000875af1158015610b3c573d6000803e3d6000fd5b505050506040513d601f19601f82011682018060405250810190610b609190611694565b81546040516346ce4e4960e11b8152600481018390523360248201529193506001600160a01b031690638d9c9c9290604401600060405180830381600087803b158015610bac57600080fd5b505af1158015610bc0573d6000803e3d6000fd5b50505050509392505050565b6000808215610be05750600160f81b610be4565b5060005b60006000805160206116ef833981519152600181015460405163f953e42760e01b815260048101899052602481018890526001600160f81b0319851660448201529192506001600160a01b03169063f953e427906064016020604051808303816000875af1158015610c5a573d6000803e3d6000fd5b505050506040513d601f19601f82011682018060405250810190610c7e9190611694565b9695505050505050565b6000818310610ca457600082815260208490526040902061038a565b600083815260208390526040902061038a565b82805482825590600052602060002090601f01602090048101928215610d5b5791602002820160005b83821115610d2c57835183826101000a81548160ff02191690836001811115610d0b57610d0b6113c0565b02179055509260200192600101602081600001049283019260010302610ce0565b8015610d595782816101000a81549060ff0219169055600101602081600001049283019260010302610d2c565b505b50610d67929150610da6565b5090565b828054828255906000526020600020908101928215610d5b579160200282015b82811115610d5b578251825591602001919060010190610d8b565b5b80821115610d675760008155600101610da7565b634e487b7160e01b600052604160045260246000fd5b60405160e081016001600160401b0381118282101715610df357610df3610dbb565b60405290565b604051601f8201601f191681016001600160401b0381118282101715610e2157610e21610dbb565b604052919050565b60006001600160401b03821115610e4257610e42610dbb565b5060051b60200190565b600082601f830112610e5d57600080fd5b8135610e70610e6b82610e29565b610df9565b8082825260208201915060208360051b860101925085831115610e9257600080fd5b602085015b83811015610eaf578035835260209283019201610e97565b5095945050505050565b60008083601f840112610ecb57600080fd5b5081356001600160401b03811115610ee257600080fd5b602083019150836020828501011115610efa57600080fd5b9250929050565b60008060008060008060a08789031215610f1a57600080fd5b863595506020870135945060408701356001600160401b03811115610f3e57600080fd5b610f4a89828a01610e4c565b94505060608701356001600160401b03811115610f6657600080fd5b610f7289828a01610eb9565b90945092505060808701356001600160401b03811115610f9157600080fd5b8701601f81018913610fa257600080fd5b8035610fb0610e6b82610e29565b8082825260208201915060208360051b85010192508b831115610fd257600080fd5b6020840193505b82841015610ff4578335825260209384019390910190610fd9565b809450505050509295509295509295565b80356001600160a01b038116811461101c57600080fd5b919050565b60006020828403121561103357600080fd5b61038a82611005565b60008060008060006080868803121561105457600080fd5b853594506020860135935060408601356001600160401b0381111561107857600080fd5b61108488828901610e4c565b93505060608601356001600160401b038111156110a057600080fd5b6110ac88828901610eb9565b969995985093965092949392505050565b600080604083850312156110d057600080fd5b823591506110e060208401611005565b90509250929050565b600082601f8301126110fa57600080fd5b81356001600160401b0381111561111357611113610dbb565b611126601f8201601f1916602001610df9565b81815284602083860101111561113b57600080fd5b816020850160208301376000918101602001919091529392505050565b60008060006040848603121561116d57600080fd5b83356001600160401b0381111561118357600080fd5b61118f868287016110e9565b93505060208401356001600160401b038111156111ab57600080fd5b8401601f810186136111bc57600080fd5b80356001600160401b038111156111d257600080fd5b8660208260051b84010111156111e757600080fd5b939660209190910195509293505050565b600281106107d657600080fd5b803561101c816111f8565b8035801515811461101c57600080fd5b600082601f83011261123157600080fd5b813561123f610e6b82610e29565b8082825260208201915060208360051b86010192508583111561126157600080fd5b602085015b83811015610eaf578035611279816111f8565b835260209283019201611266565b60006020828403121561129957600080fd5b81356001600160401b038111156112af57600080fd5b820160e081850312156112c157600080fd5b6112c9610dd1565b81356001600160401b038111156112df57600080fd5b6112eb868285016110e9565b8252506112fa60208301611205565b602082015261130b60408301611210565b6040820152606082810135908201526080808301359082015260a0808301359082015260c08201356001600160401b0381111561134757600080fd5b61135386828501611220565b60c083015250949350505050565b60006020828403121561137357600080fd5b5035919050565b6000815180845260005b818110156113a057602081850181015186830182015201611384565b506000602082860101526020601f19601f83011685010191505092915050565b634e487b7160e01b600052602160045260246000fd5b60c0815260006113e960c083018961137a565b90506002871061140957634e487b7160e01b600052602160045260246000fd5b602082019690965293151560408501526060840192909252608083015260a090910152919050565b6000806040838503121561144457600080fd5b50508035926020909101359150565b634e487b7160e01b600052603260045260246000fd5b600181811c9082168061147d57607f821691505b60208210810361149d57634e487b7160e01b600052602260045260246000fd5b50919050565b601f8211156114ea57806000526020600020601f840160051c810160208510156114ca5750805b601f840160051c820191505b818110156101f457600081556001016114d6565b505050565b81516001600160401b0381111561150857611508610dbb565b61151c816115168454611469565b846114a3565b6020601f82116001811461155057600083156115385750848201515b600019600385901b1c1916600184901b1784556101f4565b600084815260208120601f198516915b828110156115805787850151825560209485019460019092019101611560565b508482101561159e5786840151600019600387901b60f8161c191681555b50505050600190811b01905550565b634e487b7160e01b600052601160045260246000fd5b6000600182016115d5576115d56115ad565b5060010190565b818103818111156107c6576107c66115ad565b808201808211156107c6576107c66115ad565b600081518084526020840193506020830160005b82811015611634578151865260209586019590910190600101611616565b5093949350505050565b60208152600061038a6020830184611602565b60a08152600061166460a0830188611602565b6001600160e01b031996909616602083015250604081019390935260608301919091521515608090910152919050565b6000602082840312156116a657600080fd5b5051919050565b8481526001600160a01b03841660208201526080604082018190526000906116d79083018561137a565b905060ff60f81b831660608301529594505050505056feed8d60e34876f751cc8b014c560745351147d9de11b9347c854e881b128ea600a264697066735822122035c6d5ec367b49133fdddb96295b1d4a92fd37d53709af78ae8cd53a0b7c68e064736f6c634300081c0033","linkReferences":{}},"methodIdentifiers":{"createPolling(string,address[])":"66a970eb","createSurvey((string,uint8,bool,bytes32,uint256,uint256,uint8[]))":"84d92203","gatewayDecryptVoteResult(uint256,uint256)":"dd921de2","hasVoted(uint256,address)":"43859632","isWhitelisted(address)":"3af32abf","revealResults(uint256)":"b8f6255a","submitEntry(uint256,bytes32,uint256[],bytes)":"40e62296","submitWhitelistedEntry(uint256,bytes32,uint256[],bytes,bytes32[])":"1d20eacb","surveyParams(uint256)":"d7b8f1cb"},"id":0}