{"abi":[{"type":"constructor","inputs":[],"stateMutability":"nonpayable"},{"type":"function","name":"createQuery","inputs":[{"name":"surveyId","type":"uint256","internalType":"uint256"},{"name":"params","type":"tuple[][]","internalType":"struct Filter[][]","components":[{"name":"verifier","type":"uint8","internalType":"enum FilterOperator"},{"name":"value","type":"bytes","internalType":"bytes"}]}],"outputs":[{"name":"","type":"uint256","internalType":"uint256"}],"stateMutability":"nonpayable"},{"type":"function","name":"createSurvey","inputs":[{"name":"params","type":"tuple","internalType":"struct SurveyParams","components":[{"name":"surveyPrompt","type":"string","internalType":"string"},{"name":"surveyType","type":"uint8","internalType":"enum SurveyType"},{"name":"isWhitelisted","type":"bool","internalType":"bool"},{"name":"whitelistRootHash","type":"bytes32","internalType":"bytes32"},{"name":"surveyEndTime","type":"uint256","internalType":"uint256"},{"name":"minResponseThreshold","type":"uint256","internalType":"uint256"},{"name":"metadataNames","type":"string[]","internalType":"string[]"},{"name":"metadataTypes","type":"uint8[]","internalType":"enum MetadataType[]"},{"name":"constraints","type":"tuple[][]","internalType":"struct Filter[][]","components":[{"name":"verifier","type":"uint8","internalType":"enum FilterOperator"},{"name":"value","type":"bytes","internalType":"bytes"}]}]}],"outputs":[{"name":"","type":"uint256","internalType":"uint256"}],"stateMutability":"nonpayable"},{"type":"function","name":"executeQuery","inputs":[{"name":"queryId","type":"uint256","internalType":"uint256"},{"name":"limit","type":"uint256","internalType":"uint256"}],"outputs":[],"stateMutability":"nonpayable"},{"type":"function","name":"executeQuery","inputs":[{"name":"queryId","type":"uint256","internalType":"uint256"}],"outputs":[],"stateMutability":"nonpayable"},{"type":"function","name":"gatewayConfirmUserEntry","inputs":[{"name":"requestId","type":"uint256","internalType":"uint256"},{"name":"isValid","type":"bool","internalType":"bool"}],"outputs":[],"stateMutability":"nonpayable"},{"type":"function","name":"gatewayDecryptQueryResult","inputs":[{"name":"requestId","type":"uint256","internalType":"uint256"},{"name":"_finalSelectedCount","type":"uint256","internalType":"uint256"},{"name":"_finalResult","type":"uint256","internalType":"uint256"}],"outputs":[],"stateMutability":"nonpayable"},{"type":"function","name":"gatewayDecryptSurveyResult","inputs":[{"name":"requestId","type":"uint256","internalType":"uint256"},{"name":"result","type":"uint256","internalType":"uint256"}],"outputs":[],"stateMutability":"nonpayable"},{"type":"function","name":"getQueryData","inputs":[{"name":"queryId","type":"uint256","internalType":"uint256"}],"outputs":[{"name":"","type":"tuple","internalType":"struct QueryData","components":[{"name":"surveyId","type":"uint256","internalType":"uint256"},{"name":"filters","type":"tuple[][]","internalType":"struct Filter[][]","components":[{"name":"verifier","type":"uint8","internalType":"enum FilterOperator"},{"name":"value","type":"bytes","internalType":"bytes"}]},{"name":"pendingEncryptedResult","type":"uint256","internalType":"euint256"},{"name":"pendingSelectedNumber","type":"uint256","internalType":"euint256"},{"name":"cursor","type":"uint256","internalType":"uint256"},{"name":"isCompleted","type":"bool","internalType":"bool"},{"name":"isValid","type":"bool","internalType":"bool"},{"name":"finalSelectedCount","type":"uint256","internalType":"uint256"},{"name":"finalResult","type":"uint256","internalType":"uint256"}]}],"stateMutability":"view"},{"type":"function","name":"hasVoted","inputs":[{"name":"surveyId","type":"uint256","internalType":"uint256"},{"name":"userAddress","type":"address","internalType":"address"}],"outputs":[{"name":"","type":"bool","internalType":"bool"}],"stateMutability":"view"},{"type":"function","name":"lastSurveyId","inputs":[],"outputs":[{"name":"","type":"uint256","internalType":"uint256"}],"stateMutability":"view"},{"type":"function","name":"queryData","inputs":[{"name":"","type":"uint256","internalType":"uint256"}],"outputs":[{"name":"surveyId","type":"uint256","internalType":"uint256"},{"name":"pendingEncryptedResult","type":"uint256","internalType":"euint256"},{"name":"pendingSelectedNumber","type":"uint256","internalType":"euint256"},{"name":"cursor","type":"uint256","internalType":"uint256"},{"name":"isCompleted","type":"bool","internalType":"bool"},{"name":"isValid","type":"bool","internalType":"bool"},{"name":"finalSelectedCount","type":"uint256","internalType":"uint256"},{"name":"finalResult","type":"uint256","internalType":"uint256"}],"stateMutability":"view"},{"type":"function","name":"revealResults","inputs":[{"name":"surveyId","type":"uint256","internalType":"uint256"}],"outputs":[],"stateMutability":"nonpayable"},{"type":"function","name":"submitEntry","inputs":[{"name":"surveyId","type":"uint256","internalType":"uint256"},{"name":"eInputVote","type":"bytes32","internalType":"einput"},{"name":"metadata","type":"bytes32[]","internalType":"einput[]"},{"name":"inputProof","type":"bytes","internalType":"bytes"}],"outputs":[],"stateMutability":"nonpayable"},{"type":"function","name":"submitWhitelistedEntry","inputs":[{"name":"surveyId","type":"uint256","internalType":"uint256"},{"name":"eInputVote","type":"bytes32","internalType":"einput"},{"name":"metadata","type":"bytes32[]","internalType":"einput[]"},{"name":"inputProof","type":"bytes","internalType":"bytes"},{"name":"whitelistProof","type":"bytes32[]","internalType":"bytes32[]"}],"outputs":[],"stateMutability":"nonpayable"},{"type":"function","name":"surveyData","inputs":[{"name":"surveyId","type":"uint256","internalType":"uint256"}],"outputs":[{"name":"","type":"tuple","internalType":"struct SurveyData","components":[{"name":"currentParticipants","type":"uint256","internalType":"uint256"},{"name":"encryptedResponses","type":"uint256","internalType":"euint256"},{"name":"finalResult","type":"uint256","internalType":"uint256"},{"name":"isCompleted","type":"bool","internalType":"bool"},{"name":"isValid","type":"bool","internalType":"bool"}]}],"stateMutability":"view"},{"type":"function","name":"surveyDetails","inputs":[{"name":"surveyId","type":"uint256","internalType":"uint256"}],"outputs":[{"name":"","type":"tuple","internalType":"struct SurveyParams","components":[{"name":"surveyPrompt","type":"string","internalType":"string"},{"name":"surveyType","type":"uint8","internalType":"enum SurveyType"},{"name":"isWhitelisted","type":"bool","internalType":"bool"},{"name":"whitelistRootHash","type":"bytes32","internalType":"bytes32"},{"name":"surveyEndTime","type":"uint256","internalType":"uint256"},{"name":"minResponseThreshold","type":"uint256","internalType":"uint256"},{"name":"metadataNames","type":"string[]","internalType":"string[]"},{"name":"metadataTypes","type":"uint8[]","internalType":"enum MetadataType[]"},{"name":"constraints","type":"tuple[][]","internalType":"struct Filter[][]","components":[{"name":"verifier","type":"uint8","internalType":"enum FilterOperator"},{"name":"value","type":"bytes","internalType":"bytes"}]}]},{"name":"","type":"tuple","internalType":"struct SurveyData","components":[{"name":"currentParticipants","type":"uint256","internalType":"uint256"},{"name":"encryptedResponses","type":"uint256","internalType":"euint256"},{"name":"finalResult","type":"uint256","internalType":"uint256"},{"name":"isCompleted","type":"bool","internalType":"bool"},{"name":"isValid","type":"bool","internalType":"bool"}]}],"stateMutability":"view"},{"type":"function","name":"surveyParams","inputs":[{"name":"surveyId","type":"uint256","internalType":"uint256"}],"outputs":[{"name":"","type":"tuple","internalType":"struct SurveyParams","components":[{"name":"surveyPrompt","type":"string","internalType":"string"},{"name":"surveyType","type":"uint8","internalType":"enum SurveyType"},{"name":"isWhitelisted","type":"bool","internalType":"bool"},{"name":"whitelistRootHash","type":"bytes32","internalType":"bytes32"},{"name":"surveyEndTime","type":"uint256","internalType":"uint256"},{"name":"minResponseThreshold","type":"uint256","internalType":"uint256"},{"name":"metadataNames","type":"string[]","internalType":"string[]"},{"name":"metadataTypes","type":"uint8[]","internalType":"enum MetadataType[]"},{"name":"constraints","type":"tuple[][]","internalType":"struct Filter[][]","components":[{"name":"verifier","type":"uint8","internalType":"enum FilterOperator"},{"name":"value","type":"bytes","internalType":"bytes"}]}]}],"stateMutability":"view"},{"type":"function","name":"voteData","inputs":[{"name":"surveyId","type":"uint256","internalType":"uint256"},{"name":"","type":"uint256","internalType":"uint256"}],"outputs":[{"name":"userAddress","type":"address","internalType":"address"},{"name":"data","type":"uint256","internalType":"euint256"},{"name":"isValid","type":"bool","internalType":"bool"}],"stateMutability":"view"},{"type":"event","name":"ConfirmUserEntry","inputs":[{"name":"surveyId","type":"uint256","indexed":true,"internalType":"uint256"},{"name":"user","type":"address","indexed":true,"internalType":"address"},{"name":"isValid","type":"bool","indexed":false,"internalType":"bool"}],"anonymous":false},{"type":"event","name":"EntrySubmitted","inputs":[{"name":"surveyId","type":"uint256","indexed":true,"internalType":"uint256"},{"name":"user","type":"address","indexed":false,"internalType":"address"}],"anonymous":false},{"type":"event","name":"QueryCompleted","inputs":[{"name":"queryId","type":"uint256","indexed":true,"internalType":"uint256"},{"name":"surveyId","type":"uint256","indexed":true,"internalType":"uint256"},{"name":"isValid","type":"bool","indexed":false,"internalType":"bool"},{"name":"finalSelectedCount","type":"uint256","indexed":false,"internalType":"uint256"},{"name":"finalResult","type":"uint256","indexed":false,"internalType":"uint256"}],"anonymous":false},{"type":"event","name":"QueryCreated","inputs":[{"name":"queryId","type":"uint256","indexed":true,"internalType":"uint256"},{"name":"surveyId","type":"uint256","indexed":true,"internalType":"uint256"},{"name":"analyser","type":"address","indexed":false,"internalType":"address"}],"anonymous":false},{"type":"event","name":"SurveyCompleted","inputs":[{"name":"surveyId","type":"uint256","indexed":true,"internalType":"uint256"},{"name":"isValid","type":"bool","indexed":false,"internalType":"bool"},{"name":"surveyType","type":"uint8","indexed":false,"internalType":"enum SurveyType"},{"name":"numberOfVotes","type":"uint256","indexed":false,"internalType":"uint256"},{"name":"response","type":"uint256","indexed":false,"internalType":"uint256"}],"anonymous":false},{"type":"event","name":"SurveyCreated","inputs":[{"name":"surveyId","type":"uint256","indexed":true,"internalType":"uint256"},{"name":"organizer","type":"address","indexed":false,"internalType":"address"},{"name":"surveyType","type":"uint8","indexed":false,"internalType":"enum SurveyType"},{"name":"surveyPrompt","type":"string","indexed":false,"internalType":"string"}],"anonymous":false},{"type":"error","name":"AlreadyCompletedQuery","inputs":[]},{"type":"error","name":"FinishedSurvey","inputs":[]},{"type":"error","name":"InvalidMerkleProof","inputs":[]},{"type":"error","name":"InvalidQueryId","inputs":[]},{"type":"error","name":"InvalidSurvey","inputs":[]},{"type":"error","name":"InvalidSurveyId","inputs":[]},{"type":"error","name":"InvalidSurveyParameter","inputs":[{"name":"field","type":"string","internalType":"string"}]},{"type":"error","name":"InvalidUserMetadata","inputs":[]},{"type":"error","name":"ResultAlreadyReveal","inputs":[]},{"type":"error","name":"UnauthorizePendingQuery","inputs":[]},{"type":"error","name":"UnfinishedSurvey","inputs":[]},{"type":"error","name":"UserAlreadyVoted","inputs":[]}],"bytecode":{"object":"0x60806040523461021f5760006060610015610224565b8281528260208201528260408201520152739d6891a6240d6130c54ae243d8005063d05fe14b6060610045610224565b73fee8407e2f5e3ee68ad77cae98c434e637f516e580825273687408ab54661ba0b4aef3a44156c616c6955e076020830181905273fb03be574d14c256d56f09a198b586bdfc0a9de2604080850182905294909301949094527fed8d60e34876f751cc8b014c560745351147d9de11b9347c854e881b128ea60080546001600160a01b031990811690921790557fed8d60e34876f751cc8b014c560745351147d9de11b9347c854e881b128ea601805482169094179093557fed8d60e34876f751cc8b014c560745351147d9de11b9347c854e881b128ea6028054841690911790557fed8d60e34876f751cc8b014c560745351147d9de11b9347c854e881b128ea60380548316739d6891a6240d6130c54ae243d8005063d05fe14b1790557f93ab6e17f2c461cce6ea5d4ec117e51dda77a64affc2b2c05f8cd440def0e70080549092167333347831500f1e73f0cccbb95c9f86b94d7b112317909155516110688082016001600160401b03811183821017610209578291615375833903906000f080156101fd57601380546001600160a01b0319166001600160a01b039290921691909117905560405161513190816102448239f35b6040513d6000823e3d90fd5b634e487b7160e01b600052604160045260246000fd5b600080fd5b60405190608082016001600160401b038111838210176102095760405256fe60a0604052600436101561001257600080fd5b60006080526080513560e01c8062653e90146120e1578062bcd6d5146120705780631229052c1461200f57806314142c57146115455780631bc5e6101461144957806321acc8ea1461137a57806333ce9e29146113005780634279ef3b1461127e57806343859632146112245780635600d9ab14610e64578063960a4c18146105bd578063a5b4e28a1461044d578063a7fcbbd4146103a4578063b2f57d7c14610385578063b8f6255a14610369578063bc37edb714610291578063c2485ebd1461013b5763d7b8f1cb146100e657600080fd5b34610135576020366003190112610135576100ff6136c2565b5060043560805152600b60205261013161011d6040608051206137e7565b604051918291602083526020830190612976565b0390f35b60805180fd5b346101355760203660031901126101355760405161015881612511565b60805181526060602082015260805160408201526080516060820152608051608082015260805160a082015260805160c082015260805160e08201526101006080519101526004356080515260106020526040608051206040516101bb81612511565b815481526101cb6001830161370a565b9160208201928352600281015490604083019182526003810154906060840191825260048101546080850190815260058201549060a086019060ff83161515825260ff60c088019360081c1615158352600760068501549460e08901958652015494610100880195865261025c604051998a9960208b525160208b01525161012060408b01526101408a01906128bb565b965160608901525160808801525160a087015251151560c086015251151560e085015251610100840152516101208301520390f35b34610135576040366003190112610135576024358015158103610135576000805160206150bc833981519152546001600160a01b03163303610135576004356080515260126020526020604060805120916040516102ee8161255e565b6001845494858352015492839101526000146103135761030d91614d1f565b60805180f35b61032c908260805152600d602052604060805120612773565b5060018060a01b03905416907f1ea66d04930e46a4f83ad34eb0ecf7438043bbfd37a662a38b044d28eed38a3f60206040516080518152a361030d565b346101355760203660031901126101355761030d6004356140bb565b3461013557608051366003190112610135576020600a54604051908152f35b34610135576020366003190112610135576104166004356103c36136c2565b506103cc61347e565b508060805152600b6020526040608051209060805152600c6020526103ff6103f9604060805120926137e7565b916134a9565b61013160405193849360c0855260c0850190612976565b9160208401906080809180518452602081015160208501526040810151604085015260608101511515606085015201511515910152565b34610135576060366003190112610135576000805160206150bc83398151915254602435906001600160a01b03163303610135576004356080515260116020526040608051205490801560001461054f575080608051526010602052600560406080512001600160ff198254161790555b806080515260106020526040608051205490806080515260106020527f80dd3c9152e63d7857ca01b1dd1e2ff42cc2b61dd6ad502108de1215fcde0ba2606060ff6005604060805120015460081c168360805152601060205260066040608051200154846080515260106020526007604060805120015490604051921515835260208301526040820152a360805180f35b8160805152601060205260066040608051200155806080515260106020526044356007604060805120015580608051526010602052600560406080512001600160ff198254161790558060805152601060205260056040608051200161010061ff00198254161790556104be565b3461013557602036600319011261013557600435600f54811015610e51578060805152601060205260ff6005604060805120015416610e3e578060805152601060205260406080512054816080515260106020526004604060805120015460805150600a8101809111610cc45760808051839052600d602052516040902054811015610e27575b61064c614e65565b91610655614e0c565b915b8460805152601060205280600460406080512001541015610997578160805152600d60205261069f604060805120866080515260106020526004604060805120015490612773565b50604051906106ad82612579565b60018060a01b03815416825260018101549160208101928352600282019160405180938491602082549182815201916080515260206080512090608051905b80821061097b575050506060939261070a60ff936003930387612594565b6040840195865201541615159182910152610746575b50508460805152601060205260046040608051200161073f8154613462565b9055610657565b602061079c9160018060a01b0360135416896080515260108352600160406080512001918760805152600b845260066040608051200190519260405195869485938493638a6e8b3960e01b8552600485016135a4565b0391608051905af19081156109045760805191610947575b50606491602060018060a01b036000805160206150dc83398151915254166040519485809263cb3b940760e01b82528660048301528b60248301528a6044830152608051905af19283156109045760805193610911575b5060209051606460018060a01b036000805160206150dc833981519152541693604051948593849263cb3b940760e01b845260048401526024830152896044830152608051905af190811561090457608051916108cc575b506108846108b1928860805152601060205260036040608051200154614b6e565b87608051526010602052600360406080512001558660805152601060205260026040608051200154614b6e565b85608051526010602052600260406080512001558580610720565b905060203d81116108fd575b6108e28183612594565b602082600092810103126108fa575051610884610863565b80fd5b503d6108d8565b6040513d608051823e3d90fd5b90925060203d8111610940575b6109288183612594565b602082600092810103126108fa57505191602061080b565b503d61091e565b905060203d8111610974575b61095d8183612594565b602082600092810103126108fa57505160646107b4565b503d610953565b91935091600160208192865481520194019201869392916106ec565b50915082608051526010602052600460406080512001548260805152600d6020526040608051205411156109cb5760805180f35b8160805152600b602052600460406080512001546000198101908111610cc4576109f7610a2391614ebe565b928060805152600c602052604060805120549060805152600b6020526004604060805120015490613471565b60018101809111610cc457610a3790614ebe565b836080515260106020526003604060805120015492808415610e17575b15610e05575b6000805160206150dc83398151915254604051631f31e28560e11b8152600481019590955260248501919091526080805160448601525160209185916064918391906001600160a01b03165af19283156109045760805193610dd1575b50836080515260106020526003604060805120015490808215610dc1575b15610daf575b6000805160206150dc83398151915254604051639675211f60e01b8152600481019390935260248301919091526080805160448401525160209183916064918391906001600160a01b03165af180156109045760805190610d7c575b6000805160206150dc83398151915254604051630ccd46b160e31b8152600481019590955260248501919091526080805160448601525160209250849160649183916001600160a01b03165af19182156109045760805192610d48575b50826080515260106020526003604060805120015491602060018060a01b036000805160206150dc83398151915254169360646040518096819363cb3b940760e01b83528660048401526024830152866044830152608051905af19283156109045760805193610d13575b506020908460805152601082526064600260406080512001549160018060a01b036000805160206150dc8339815191525416604051958694859363cb3b940760e01b8552600485015260248401526044830152608051905af19081156109045760805191610cdc575b5060405191610c78606084612594565b600283526040366020850137610c8d83613691565b52610c978261369e565b5260644201804211610cc457610cac91614c24565b6080515260116020526040608051205580808061030d565b634e487b7160e01b6080515260116004526024608051fd5b90506020813d602011610d0b575b81610cf760209383612594565b81010312610d06575183610c68565b600080fd5b3d9150610cea565b9092506020813d602011610d40575b81610d2f60209383612594565b81010312610d065751916020610bff565b3d9150610d22565b9091506020813d602011610d74575b81610d6460209383612594565b81010312610d0657519083610b94565b3d9150610d57565b506020813d602011610da7575b81610d9660209383612594565b81010312610d065760209051610b37565b3d9150610d89565b506020610dba614e0c565b9050610adb565b9150610dcb614e0c565b91610ad5565b9092506020813d602011610dfd575b81610ded60209383612594565b81010312610d0657519184610ab7565b3d9150610de0565b506020610e10614e0c565b9050610a5a565b9350610e21614e0c565b93610a54565b508060805152600d60205260406080512054610644565b630df890a560e31b608051526004608051fd5b636806f54760e01b608051526004608051fd5b3461013557610e723661275d565b600f54821015610e51578160805152601060205260ff6005604060805120015416610e3e57816080515260106020526040608051205490826080515260106020526004604060805120015490810180911161120e5760808051839052600d6020525160409020548110156111f7575b610ee9614e65565b91610ef2614e0c565b915b8460805152601060205280600460406080512001541015610997578160805152600d602052610f3c604060805120866080515260106020526004604060805120015490612773565b5060405190610f4a82612579565b60018060a01b03815416825260018101549160208101928352600282019160405180938491602082549182815201916080515260206080512090608051905b8082106111db5750505060609392610fa760ff936003930387612594565b6040840195865201541615159182910152610fe3575b505084608051526010602052600460406080512001610fdc8154613462565b9055610ef4565b60206110399160018060a01b0360135416896080515260108352600160406080512001918760805152600b845260066040608051200190519260405195869485938493638a6e8b3960e01b8552600485016135a4565b0391608051905af190811561090457608051916111a7575b50606491602060018060a01b036000805160206150dc83398151915254166040519485809263cb3b940760e01b82528660048301528b60248301528a6044830152608051905af19283156109045760805193611171575b5060209051606460018060a01b036000805160206150dc833981519152541693604051948593849263cb3b940760e01b845260048401526024830152896044830152608051905af1908115610904576080519161113c575b50610884611121928860805152601060205260036040608051200154614b6e565b85608051526010602052600260406080512001558580610fbd565b905060203d811161116a575b6111528183612594565b602082600092810103126108fa575051610884611100565b503d611148565b90925060203d81116111a0575b6111888183612594565b602082600092810103126108fa5750519160206110a8565b503d61117e565b905060203d81116111d4575b6111bd8183612594565b602082600092810103126108fa5750516064611051565b503d6111b3565b9193509160016020819286548152019401920186939291610f89565b508060805152600d60205260406080512054610ee1565b634e487b7160e01b600052601160045260246000fd5b34610135576040366003190112610135576024356001600160a01b03811681036101355760043560805152600e6020526040608051209060018060a01b0316600052602052602060ff604060002054166040519015158152f35b346101355760203660031901126101355760043560805152601060205261010060406080512080549060028101549060ff6003820154600483015460058401549160076006860154950154956040519788526020880152604087015260608601528181161515608086015260081c16151560a084015260c083015260e0820152f35b34610135576080366003190112610135576044356001600160401b038111610135576113309036906004016127c3565b606435906001600160401b0382116101355761135361030d923690600401612820565b60405192909190611365602085612594565b60805184526000368137602435600435614378565b346101355760a0366003190112610135576044356001600160401b038111610135576113aa9036906004016127c3565b6064356001600160401b038111610135576113c9903690600401612820565b608435916001600160401b0383116101355736602384011215610135578260040135936113f5856125b5565b936114036040519586612594565b8585526024602086019660051b8201019036821161013557602401955b81871061143957505061030d9450602435600435614378565b8635815260209687019601611420565b34610135576114573661275d565b6000805160206150bc833981519152549091906001600160a01b03163303610135576080515260116020527fc3775fddf030d25d6e94614562d503ba2328165591eed3133412a193f0b5cd0660806040815120549283825152600c6020528060026040845120015583825152600c6020526003604083512001600160ff1982541617905583825152600c602052600360408351200161010061ff001982541617905583825152600b60205260ff600160408451200154169084835152600c602052604083512054604051926001845261152f8161288e565b602084015260408301526060820152a260805180f35b34610135576020366003190112610135576004356001600160401b0381116101355761012060031982360301126101355760405161158281612511565b81600401356001600160401b038111610135576115a590600436918501016127a5565b81526024820135600281101561013557602082019081526044830135928315158403610135576040830193845260608301936064820135855260808401916084810135835260a0850160a4820135815260c48201356001600160401b0381116101355782019036602383011215610135576004820135611624816125b5565b926116326040519485612594565b818452602060048186019360051b83010101903682116101355760248101925b828410611fde575050505060c0870191825260e48301356001600160401b0381116101355783019236602385011215610135576004840135611693816125b5565b946116a16040519687612594565b818652602060048188019360051b830101019036821161013557602401915b818310611fc55750505060e08801938452610104810135906001600160401b0382116101355760046116f59236920101612612565b94610100880195865287515115611f87578451611f3c575b80514211611f04576003825110611eb45782515184515103611e5b57611731614e0c565b9861173c308b614f17565b600a5460805152600b6020526040608051209589518051906001600160401b038211611b4057611776826117708b54613263565b8b61341b565b6020906001601f841114611ded5791806117ad926117ea959460805192611de2575b50508160011b916000199060031b1c19161790565b88555b60018801908a516117c08161288e565b6117c98161288e565b8254915161ffff1990921660ff919091161790151560081b61ff0016179055565b5160028601555160038501555160048401555180516005840191600160401b8211611b40578254828455808310611d5d575b50602001916080515260206080512091608051905b828210611c7e57505050506006820190518051906001600160401b038211611b4057600160401b8211611b40576020908354838555808410611c2e575b500191608051526020608051208160051c916080515b838110611bf45750601f198116900380611ba1575b505050506007019051805190600160401b8211611b40578254828455808310611b70575b506020019160805152602060805120608051925b8284106119ef576119d4868661196d8a604051906118ee82612543565b6080518252602082019081526119566003604084019360805185526060810194608051865260808201946080518652600a5460805152600c602052604060805120925183555160018301555160028201550192511515839060ff801983541691151516179055565b51815461ff00191690151560081b61ff0016179055565b7f52b91a8adb16d2c942f8afd364522fa27a2ab2df5adb982db50443fc31c05290600a54928392519061199f8261288e565b51906119cc6040519283923384526119b68161288e565b602084015260606040840152606083019061284d565b0390a2613462565b80600a556000198101908111610cc457602090604051908152f35b80516020815191611a008386613357565b0190836080515260206080512091608051905b828210611a305750505050600160208192019201930192906118d1565b805180516004811015611b58576080515060ff801987541691161785556020600186019101518051906001600160401b038211611b4057611a7b82611a758554613263565b8561341b565b6020906001601f841114611acf5792611ab5836020946001979460029760805192611ac45750508160011b916000199060031b1c19161790565b90555b01940191019092611a13565b015190503880611798565b90601f1983169184608051528160805120926080515b818110611b28575093600196936002969388938360209810611b0f575b505050811b019055611ab8565b015160001960f88460031b161c19169055388080611b02565b92936020600181928786015181550195019301611ae5565b634e487b7160e01b6080515260416004526024608051fd5b634e487b7160e01b6080515260216004526024608051fd5b83608051528260206080512091820191015b818110611b8f57506118bd565b80611b9b6001926132b4565b01611b82565b6080519390845b818110611bbe5750505001556007868080611899565b9091946020611bea60019284895191611bd68361288e565b9060ff809160031b9316831b921b19161790565b9601929101611ba8565b608051805b60208110611c0e575083820155600101611884565b95906020611c2560019289855191611bd68361288e565b92019601611bf9565b611c5c9085608051528360805120601f80870160051c82019281881680611c62575b500160051c019061329d565b8961186e565b600019850190815490600019908a0360031b1c1690558e611c50565b80518051906001600160401b038211611b4057611ca582611c9f8854613263565b8861341b565b6020906001601f841114611ced5792611cde8360019594602094879660805192611ac45750508160011b916000199060031b1c19161790565b87555b01940191019092611831565b90601f1983169187608051528160805120926080515b818110611d455750936020936001969387969383889510611d2c575b505050811b018755611ce1565b015160001960f88460031b161c191690558f8080611d1f565b92936020600181928786015181550195019301611d03565b83608051528260206080512091820191015b818110611d7c575061181c565b80611d8960019254613263565b80611d96575b5001611d6f565b601f81118314611dad575060805181555b8c611d8f565b611dcd90826080515283601f602060805120920160051c8201910161329d565b60808051829052516020812081835555611da7565b015190508f80611798565b90601f198316918a608051528160805120926080515b818110611e4357509160019391856117ea97969410611e2a575b505050811b0188556117b0565b015160001960f88460031b161c191690558e8080611e1d565b92936020600181928786015181550195019301611e03565b6040516205bde160ec1b815260206004820152602b60248201527f4d65746164617461206e616d657320616e642074797065206c656e677468206460448201526a0de40dcdee840dac2e8c6d60ab1b6064820152608490fd5b6040516205bde160ec1b815260206004820152602260248201527f496e76616c6964206d696e696d756d20726573706f6e7365207468726573686f6044820152611b1960f21b6064820152608490fd5b6040516205bde160ec1b815260206004820152601060248201526f496e76616c696420656e642074696d6560801b6044820152606490fd5b885161170d576040516205bde160ec1b815260206004820152601b60248201527f57686974656c69737420726f6f742068617368206973206e756c6c00000000006044820152606490fd5b6040516205bde160ec1b81526020600482015260166024820152755375727665792070726f6d707420697320656d70747960501b6044820152606490fd5b82356002811015610135578152602092830192016116c0565b83356001600160401b0381116101355760209161200483928360043692880101016127a5565b815201930192611652565b346101355761201d3661275d565b9060805152600d60205260406080512080548210156101355760609161204291612773565b5060018060a01b038154169060ff600360018301549201541690604051928352602083015215156040820152f35b346101355760203660031901126101355761208961347e565b5060043560805152600c60205260a06120a66040608051206134a9565b6120df60405180926080809180518452602081015160208501526040810151604085015260608101511515606085015201511515910152565bf35b34610135576040366003190112610135576024356001600160401b03811161013557612111903690600401612612565b600a5460043510156124fe5760043560805152600c60205260ff6003604060805120015416156124eb5760043560805152600c60205260ff6003604060805120015460081c16156124d857601354608080516004359052600b6020525160409020600601906001600160a01b0316803b15610135576121ab916040519283916304d8754f60e11b8352604060048401526044830190612a8f565b9160031982840301602483015281806121c760805195886128bb565b03915afa8015610904576124c6575b506121df614e0c565b6121e7614e0c565b604051906121f482612511565b60043582526020820193845260408201928352606082019081526080820190608051825260805160a084015260805160c084015260805160e08401526101008301936080518552600f546080515260106020526040608051209584518755600187019051805190600160401b8211611b40578254828455808310612495575b506020019160805152602060805120608051925b828410612348578960078a60e08b8b8b8b5160028801555160038701555160048601556122e8600586016122cd60a08401511515829060ff801983541691151516179055565b60c0830151815461ff00191690151560081b61ff0016179055565b015160068401555191015561232d600f54604051338152817ff4bfd720334815b6b1792e0d517529b217fe3eb94a904ec5801b037aee18949e602060043593a3613462565b80600f556000198101908111610cc457602090604051908152f35b805160208151916123598386613357565b01908360805152602060805120608051925b828410612388575050505060016020819201920193019290612287565b80518051906004821015611b58576020916080515060ff8019865416911617845501518051906001600160401b038211611b40576123d6826123cd6001870154613263565b6001870161341b565b6020906001601f841114612420579261240f8360029460209460019760805192611ac45750508160011b916000199060031b1c19161790565b848601555b0192019301929061236b565b90601f1983169160018601608051528160805120926080515b81811061247d5750936020936001969387938360029810612464575b505050811b0184860155612414565b015160001960f88460031b161c19169055388080612455565b92936020600181928786015181550195019301612439565b83608051528260206080512091820191015b8181106124b45750612273565b806124c06001926132b4565b016124a7565b6080516124d291612594565b816121d6565b63147cbf7360e31b608051526004608051fd5b634164a28160e01b608051526004608051fd5b63242a36cd60e11b608051526004608051fd5b61012081019081106001600160401b0382111761252d57604052565b634e487b7160e01b600052604160045260246000fd5b60a081019081106001600160401b0382111761252d57604052565b604081019081106001600160401b0382111761252d57604052565b608081019081106001600160401b0382111761252d57604052565b90601f801991011681019081106001600160401b0382111761252d57604052565b6001600160401b03811161252d5760051b60200190565b9291926001600160401b03821161252d57604051916125f5601f8201601f191660200184612594565b829481845281830111610d06578281602093846000960137010152565b81601f82011215610d0657803590612629826125b5565b926126376040519485612594565b82845260208085019360051b83010191818311610d065760208101935b83851061266357505050505090565b84356001600160401b038111610d0657820183603f82011215610d0657602081013561268e816125b5565b9161269c6040519384612594565b8183526020808085019360051b8301010190868211610d065760408101925b8284106126d5575050509082525060209485019401612654565b83356001600160401b038111610d0657602090830101906040601f19838b030112610d0657604051916127078361255e565b60208101356004811015610d0657835260408101356001600160401b038111610d065760209101019089601f83011215610d065760209261274e8b848680963591016125cc565b838201528152019301926126bb565b6040906003190112610d06576004359060243590565b805482101561278f5760005260206000209060021b0190600090565b634e487b7160e01b600052603260045260246000fd5b9080601f83011215610d06578160206127c0933591016125cc565b90565b9080601f83011215610d065781356127da816125b5565b926127e86040519485612594565b81845260208085019260051b820101928311610d0657602001905b8282106128105750505090565b8135815260209182019101612803565b9181601f84011215610d06578235916001600160401b038311610d065760208381860195010111610d0657565b919082519283825260005b848110612879575050826000602080949584010152601f8019910116010190565b80602080928401015182828601015201612858565b6002111561289857565b634e487b7160e01b600052602160045260246000fd5b9060048210156128985752565b9080602083519182815201916020808360051b8301019401926000915b8383106128e757505050505090565b9091929394601f19828203018352855190815180825260208201906020808260051b85010194019260005b828110612933575050505050602080600192970193019301919392906128d8565b9091929394602080612969600193601f198782030189526040838b5161295a8482516128ae565b0151918185820152019061284d565b9701950193929101612912565b919061298d8351610120835261012083019061284d565b90602084015161299c8161288e565b6020820152604084015115156040820152606084015160608201526080840151608082015260a084015160a082015260c08401519181810360c0830152825180825260208201916020808360051b8301019501926000915b838310612a6257505050505060e08401519181810360e08301526020808451928381520193019060005b818110612a41575050506101006127c093940151906101008184039101526128bb565b9091936020806001928751612a558161288e565b8152019501929101612a1e565b9091929395602080612a80600193601f198682030187528a5161284d565b980193019301919392906129f4565b8054808352600091825260208083209301925b81601f840110612fa1575491818110612f84575b818110612f64575b818110612f44575b818110612f24575b818110612f05575b818110612ee5575b818110612ec5575b818110612ea5575b818110612e85575b818110612e65575b818110612e45575b818110612e25575b818110612e05575b818110612de5575b818110612dc5575b818110612da5575b818110612d85575b818110612d65575b818110612d45575b818110612d25575b818110612d05575b818110612ce5575b818110612cc5575b818110612ca5575b818110612c85575b818110612c65575b818110612c45575b818110612c25575b818110612c05575b818110612be5575b818110612bc5575b10612baf575090565b9060209160f81c612bbf8161288e565b81520190565b92602060019160ff8560f01c16612bdb8161288e565b8152019301612ba6565b92602060019160ff8560e81c16612bfb8161288e565b8152019301612b9e565b92602060019160ff8560e01c16612c1b8161288e565b8152019301612b96565b92602060019160ff8560d81c16612c3b8161288e565b8152019301612b8e565b92602060019160ff8560d01c16612c5b8161288e565b8152019301612b86565b92602060019160ff8560c81c16612c7b8161288e565b8152019301612b7e565b92602060019160ff8560c01c16612c9b8161288e565b8152019301612b76565b92602060019160ff8560b81c16612cbb8161288e565b8152019301612b6e565b92602060019160ff8560b01c16612cdb8161288e565b8152019301612b66565b92602060019160ff8560a81c16612cfb8161288e565b8152019301612b5e565b92602060019160ff8560a01c16612d1b8161288e565b8152019301612b56565b92602060019160ff8560981c16612d3b8161288e565b8152019301612b4e565b92602060019160ff8560901c16612d5b8161288e565b8152019301612b46565b92602060019160ff8560881c16612d7b8161288e565b8152019301612b3e565b92602060019160ff8560801c16612d9b8161288e565b8152019301612b36565b92602060019160ff8560781c16612dbb8161288e565b8152019301612b2e565b92602060019160ff8560701c16612ddb8161288e565b8152019301612b26565b92602060019160ff8560681c16612dfb8161288e565b8152019301612b1e565b92602060019160ff8560601c16612e1b8161288e565b8152019301612b16565b92602060019160ff8560581c16612e3b8161288e565b8152019301612b0e565b92602060019160ff8560501c16612e5b8161288e565b8152019301612b06565b92602060019160ff8560481c16612e7b8161288e565b8152019301612afe565b92602060019160ff8560401c16612e9b8161288e565b8152019301612af6565b92602060019160ff8560381c16612ebb8161288e565b8152019301612aee565b92602060019160ff8560301c16612edb8161288e565b8152019301612ae6565b92602060019160ff8560281c16612efb8161288e565b8152019301612ade565b92602060019160ff85831c16612f1a8161288e565b8152019301612ad6565b92602060019160ff8560181c16612f3a8161288e565b8152019301612ace565b92602060019160ff8560101c16612f5a8161288e565b8152019301612ac6565b92602060019160ff8560081c16612f7a8161288e565b8152019301612abe565b92602060019160ff8516612f978161288e565b8152019301612ab6565b926001610400602092865460ff8116612fb98161288e565b825260ff8160081c16612fcb8161288e565b8583015260ff8160101c16612fdf8161288e565b604083015260ff8160181c16612ff48161288e565b606083015260ff81861c166130088161288e565b608083015260ff8160281c1661301d8161288e565b60a083015260ff8160301c166130328161288e565b60c083015260ff8160381c166130478161288e565b60e083015260ff8160401c1661305c8161288e565b61010083015260ff8160481c166130728161288e565b61012083015260ff8160501c166130888161288e565b61014083015260ff8160581c1661309e8161288e565b61016083015260ff8160601c166130b48161288e565b61018083015260ff8160681c166130ca8161288e565b6101a083015260ff8160701c166130e08161288e565b6101c083015260ff8160781c166130f68161288e565b6101e083015260ff8160801c1661310c8161288e565b61020083015260ff8160881c166131228161288e565b61022083015260ff8160901c166131388161288e565b61024083015260ff8160981c1661314e8161288e565b61026083015260ff8160a01c166131648161288e565b61028083015260ff8160a81c1661317a8161288e565b6102a083015260ff8160b01c166131908161288e565b6102c083015260ff8160b81c166131a68161288e565b6102e083015260ff8160c01c166131bc8161288e565b61030083015260ff8160c81c166131d28161288e565b61032083015260ff8160d01c166131e88161288e565b61034083015260ff8160d81c166131fe8161288e565b61036083015260ff8160e01c166132148161288e565b61038083015260ff8160e81c1661322a8161288e565b6103a083015260ff8160f01c166132408161288e565b6103c083015260f81c6132528161288e565b6103e0820152019401920191612aa2565b90600182811c92168015613293575b602083101461327d57565b634e487b7160e01b600052602260045260246000fd5b91607f1691613272565b8181106132a8575050565b6000815560010161329d565b80549060008155816132c4575050565b6001600160ff1b038216820361120e576000908152602081209160011b8201915b8281106132f157505050565b80826002925582600182016133068154613263565b80613315575b505050016132e5565b601f811160011461332b5750555b82388061330c565b8183526020832061334791601f0160051c81019060010161329d565b8082528160208120915555613323565b600160401b821161252d5780549082815581831061337457505050565b6001600160ff1b038216820361120e576001600160ff1b038316830361120e5760005260206000209060011b81019160011b015b8181106133b3575050565b80600060029255600181016133c88154613263565b90816133d7575b5050016133a8565b81601f600093116001146133ef5750555b38806133cf565b8183526020832061340b91601f0160051c81019060010161329d565b80825281602081209155556133e8565b9190601f811161342a57505050565b613456926000526020600020906020601f840160051c83019310613458575b601f0160051c019061329d565b565b9091508190613449565b600019811461120e5760010190565b9190820391821161120e57565b6040519061348b82612543565b60006080838281528260208201528260408201528260608201520152565b906040516134b681612543565b608060ff6003839580548552600181015460208601526002810154604086015201548181161515606085015260081c161515910152565b600092918154916134fd83613263565b8083529260018116908115613553575060011461351957505050565b60009081526020812093945091925b838310613539575060209250010190565b600181602092949394548385870101520191019190613528565b915050602093945060ff929192191683830152151560051b010190565b906020808351928381520192019060005b81811061358e5750505090565b8251845260209384019390920191600101613581565b9193929060608301606084528154809152608084019060808160051b860101926000526020600020916000905b8282106136005750505050806127c09495846135f293036020860152612a8f565b916040818403910152613570565b90919293607f198782030182528454908181526020810160208360051b830101928760005260206000209260005b82811061364e5750505050506020600180929601920192019092916135d1565b9091929394602060026136846040600194601f19888203018a526136768160ff8d54166128ae565b818582015201848a016134ed565b970195019392910161362e565b80511561278f5760200190565b80516001101561278f5760400190565b805182101561278f5760209160051b010190565b604051906136cf82612511565b606061010083828152600060208201526000604082015260008382015260006080820152600060a08201528260c08201528260e08201520152565b90815491613717836125b5565b926137256040519485612594565b80845260208401916000526020600020916000905b8282106137475750505050565b8354613752816125b5565b906137606040519283612594565b80825260208201908660005260206000206000925b8284106137965750505050602082600193928493520194019101909261373a565b6040516137a28161255e565b60ff83541660048110156128985760019282602092600294526040516137d5816137ce81898b016134ed565b0382612594565b83820152815201920193019290613775565b906040516137f481612511565b8092604051613807816137ce81856134ed565b825260ff600182015481811661381c8161288e565b602085015260081c16151560408301526002810154606083015260038101546080830152600481015460a0830152600581018054613859816125b5565b916138676040519384612594565b818352602083019060005260206000206000915b838310614096575050505060c0830152600681016040519081602082549182815201916000526020600020906000915b81601f840110613dd4578460079461010097946139da97946139cf945491818110613db7575b818110613d97575b818110613d77575b818110613d57575b818110613d38575b818110613d18575b818110613cf8575b818110613cd8575b818110613cb8575b818110613c98575b818110613c78575b818110613c58575b818110613c38575b818110613c18575b818110613bf8575b818110613bd8575b818110613bb8575b818110613b98575b818110613b78575b818110613b58575b818110613b38575b818110613b18575b818110613af8575b818110613ad8575b818110613ab8575b818110613a98575b818110613a78575b818110613a58575b818110613a38575b818110613a18575b8181106139f8575b106139df575b500382612594565b60e08601520161370a565b910152565b9060209160f81c6139ef8161288e565b815201386139c7565b92602060019160ff8560f01c16613a0e8161288e565b81520193016139c1565b92602060019160ff8560e81c16613a2e8161288e565b81520193016139b9565b92602060019160ff8560e01c16613a4e8161288e565b81520193016139b1565b92602060019160ff8560d81c16613a6e8161288e565b81520193016139a9565b92602060019160ff8560d01c16613a8e8161288e565b81520193016139a1565b92602060019160ff8560c81c16613aae8161288e565b8152019301613999565b92602060019160ff8560c01c16613ace8161288e565b8152019301613991565b92602060019160ff8560b81c16613aee8161288e565b8152019301613989565b92602060019160ff8560b01c16613b0e8161288e565b8152019301613981565b92602060019160ff8560a81c16613b2e8161288e565b8152019301613979565b92602060019160ff8560a01c16613b4e8161288e565b8152019301613971565b92602060019160ff8560981c16613b6e8161288e565b8152019301613969565b92602060019160ff8560901c16613b8e8161288e565b8152019301613961565b92602060019160ff8560881c16613bae8161288e565b8152019301613959565b92602060019160ff8560801c16613bce8161288e565b8152019301613951565b92602060019160ff8560781c16613bee8161288e565b8152019301613949565b92602060019160ff8560701c16613c0e8161288e565b8152019301613941565b92602060019160ff8560681c16613c2e8161288e565b8152019301613939565b92602060019160ff8560601c16613c4e8161288e565b8152019301613931565b92602060019160ff8560581c16613c6e8161288e565b8152019301613929565b92602060019160ff8560501c16613c8e8161288e565b8152019301613921565b92602060019160ff8560481c16613cae8161288e565b8152019301613919565b92602060019160ff8560401c16613cce8161288e565b8152019301613911565b92602060019160ff8560381c16613cee8161288e565b8152019301613909565b92602060019160ff8560301c16613d0e8161288e565b8152019301613901565b92602060019160ff8560281c16613d2e8161288e565b81520193016138f9565b92602060019160ff85831c16613d4d8161288e565b81520193016138f1565b92602060019160ff8560181c16613d6d8161288e565b81520193016138e9565b92602060019160ff8560101c16613d8d8161288e565b81520193016138e1565b92602060019160ff8560081c16613dad8161288e565b81520193016138d9565b92602060019160ff8516613dca8161288e565b81520193016138d1565b926001610400602092865460ff8116613dec8161288e565b825260ff8160081c16613dfe8161288e565b8583015260ff8160101c16613e128161288e565b604083015260ff8160181c16613e278161288e565b606083015260ff81861c16613e3b8161288e565b608083015260ff8160281c16613e508161288e565b60a083015260ff8160301c16613e658161288e565b60c083015260ff8160381c16613e7a8161288e565b60e083015260ff8160401c16613e8f8161288e565b61010083015260ff8160481c16613ea58161288e565b61012083015260ff8160501c16613ebb8161288e565b61014083015260ff8160581c16613ed18161288e565b61016083015260ff8160601c16613ee78161288e565b61018083015260ff8160681c16613efd8161288e565b6101a083015260ff8160701c16613f138161288e565b6101c083015260ff8160781c16613f298161288e565b6101e083015260ff8160801c16613f3f8161288e565b61020083015260ff8160881c16613f558161288e565b61022083015260ff8160901c16613f6b8161288e565b61024083015260ff8160981c16613f818161288e565b61026083015260ff8160a01c16613f978161288e565b61028083015260ff8160a81c16613fad8161288e565b6102a083015260ff8160b01c16613fc38161288e565b6102c083015260ff8160b81c16613fd98161288e565b6102e083015260ff8160c01c16613fef8161288e565b61030083015260ff8160c81c166140058161288e565b61032083015260ff8160d01c1661401b8161288e565b61034083015260ff8160d81c166140318161288e565b61036083015260ff8160e01c166140478161288e565b61038083015260ff8160e81c1661405d8161288e565b6103a083015260ff8160f01c166140738161288e565b6103c083015260f81c6140858161288e565b6103e08201520194019201916138ab565b6001602081926040516140ad816137ce81896134ed565b81520192019201919061387b565b600a5460009082101561436957818152600b60205260036040822001546064810180911161435557421061434657818152600c60205260ff60036040832001541661433757818152600c6020526040812054828252600b6020526004604083200154116142b65760409081516141318382612594565b60018152601f198301366020830137838252600c6020526001838320015461415882613691565b5260644201908142116142a25760008051602061509c833981519152546001600160a01b0316803b1561429e57838551809263155f840160e21b8252602060048301528183816141ab6024820189613570565b03925af180156142945761427b575b506000805160206150bc833981519152548451634c0d927760e01b815260a060048201529260209284926001600160a01b0316918391879183916142029060a4840190613570565b906301bc5e6160e41b6024840152836044840152606483015282608483015203925af190811561427157829161423f575b50815260116020522055565b90506020813d602011614269575b8161425a60209383612594565b81010312610d06575138614233565b3d915061424d565b83513d84823e3d90fd5b8361428c6020939561420293612594565b9391506141ba565b85513d86823e3d90fd5b8380fd5b634e487b7160e01b83526011600452602483fd5b608081837fc3775fddf030d25d6e94614562d503ba2328165591eed3133412a193f0b5cd069352600c60205260036040822001600160ff19825416179055838152600b60205260ff60016040832001541690848152600c6020526040812054604051928284526143258161288e565b602084015260408301526060820152a2565b63d96068dd60e01b8152600490fd5b634164a28160e01b8152600490fd5b634e487b7160e01b82526011600452602482fd5b63242a36cd60e11b8152600490fd5b9094959395600a54821015614b5d5781600052600b602052600360406000200154421015614b4c576000828152600e6020908152604080832033845290915290205460ff16614b3b5781600052600b602052600660406000200154835103614b2a5781600052600b60205260ff60016040600020015460081c16614a63575b5080600052600b60205260066040600020015493614414856125b5565b946144226040519687612594565b808652614431601f19916125b5565b0136602087013760005b82600052600b6020526006604060002001548110156146465782600052600b6020526006604060002001805482101561278f5760005260ff60206000208260051c015460f88360031b161c166144908161288e565b8061460157506144a081856136ae565b51906144fe60206144b2368c8a6125cc565b60009460018060a01b036000805160206150dc833981519152541690866040518096819582946302e817ff60e41b8452600484015233602484015260806044840152608483019061284d565b82606483015203925af19283156145f55780936145bf575b505060008051602061509c833981519152546001600160a01b031691823b15610d06576040516346ce4e4960e11b815260048101829052336024820152926000908490604490829084905af19081156145b35760019361459c926145a2575b5080614581848b6136ae565b5261458c3082614f17565b838060a01b036013541690614f17565b0161443b565b60006145ad91612594565b38614575565b6040513d6000823e3d90fd5b909192506020823d82116145ed575b816145db60209383612594565b810103126108fa575051903880614516565b3d91506145ce565b604051903d90823e3d90fd5b906001809261460f8161288e565b0361459c5761464161463661462483886136ae565b51614630368d8b6125cc565b90614f99565b80614581848b6136ae565b61459c565b5095614630919592509261465b9336916125cc565b6146653082614f17565b82600052600d60205260406000206040519161468083612579565b3383526020830190815260408301908482526060840192600084528054600160401b81101561252d576146b891600182018155612773565b949094614a4d575184546001600160a01b0319166001600160a01b03919091161784555160018401555180519060028401906001600160401b03831161252d57600160401b831161252d576020908254848455808510614a30575b500190600052602060002060005b838110614a1c57505050509060036147499251151591019060ff801983541691151516179055565b81600052600e602052604060002060018060a01b0333166000526020526040600020600160ff19825416179055817f03b562e13524df9ad0948873c24d44336296e8aaef105cb0e60f18d40378ef576020604051338152a26000828152600b6020526040902060070154156149f7576013546000838152600b602090815260408083209051638a6e8b3960e01b815294919385936001600160a01b039091169284928391614802916006810190600701600485016135a4565b03925af19081156145b3576000916149c5575b5060408051916148258284612594565b60018352601f19820136602085013761483d83613691565b526064420180421161120e5760008051602061509c83398151915254600093906001600160a01b0316803b156149c157848451809263155f840160e21b8252602060048301528183816148936024820189613570565b03925af180156149b757916148ea91866020946149a7575b505060018060a01b036000805160206150bc833981519152541690868651809681958294634c0d927760e01b845260a0600485015260a4840190613570565b9063bc37edb760e01b6024840152836044840152606483015282608483015203925af192831561499c578093614965575b505082600052600d602052806000205490600019820191821161120e576001928151946149478661255e565b85526020850192835260005260126020526000209251835551910155565b909192506020823d602011614994575b8161498260209383612594565b810103126108fa57505190388061491b565b3d9150614975565b8251903d90823e3d90fd5b6149b091612594565b38866148ab565b84513d87823e3d90fd5b8480fd5b90506020813d6020116149ef575b816149e060209383612594565b81010312610d06575138614815565b3d91506149d3565b5080600052600d602052604060002054600019810190811161120e5761345691614d1f565b600190602084519401938184015501614721565b614a4790846000528584600020918201910161329d565b38614713565b634e487b7160e01b600052600060045260246000fd5b9592604095929594919451602081019033825260208152614a85604082612594565b5190206040516020810191825260208152614aa1604082612594565b5190209585600052600b60205260026040600020015496956000965b8951881015614b0457614ad0888b6136ae565b5190600082821015614af35750600052602052600160406000205b970196614abd565b604091600193825260205220614aeb565b9194979295985092955003614b1957386143f7565b63582f497d60e11b60005260046000fd5b6352ebbd8f60e11b60005260046000fd5b6338ec521360e01b60005260046000fd5b63291b3d4d60e21b60005260046000fd5b63242a36cd60e11b60005260046000fd5b908115614c14575b8015614c02575b602090606460018060a01b036000805160206150dc8339815191525416936000604051958694859363f953e42760e01b8552600485015260248401528160448401525af19081156145b357600091614bd3575090565b90506020813d602011614bfa575b81614bee60209383612594565b81010312610d06575190565b3d9150614be1565b506020614c0d614e0c565b9050614b7d565b9050614c1e614e0c565b90614b76565b60008051602061509c8339815191525460009291906001600160a01b0316803b1561429e5783604051809263155f840160e21b825260206004830152818381614c706024820189613570565b03925af18015614d1457614cfb575b506000805160206150bc83398151915254604051634c0d927760e01b815260a060048201529260209284926001600160a01b031691839187918391614cc89060a4840190613570565b906352da714560e11b6024840152836044840152606483015282608483015203925af19182156145f55791614bd3575090565b83614d0c60209395614cc893612594565b939150614c7f565b6040513d86823e3d90fd5b90614dd39082600052600c602052614d5b60016040600020015484600052600d6020526001614d52846040600020612773565b50015490614b6e565b6000848152600c6020526040902060018101919091558054614d7c90613462565b905582600052600c602052614d9a6001604060002001543090614f17565b82600052600d6020526003614db3826040600020612773565b5001600160ff1982541617905582600052600d6020526040600020612773565b5060018060a01b03905416907f1ea66d04930e46a4f83ad34eb0ecf7438043bbfd37a662a38b044d28eed38a3f602060405160018152a3565b6000805160206150dc83398151915254604051631ce2e8d760e31b8152600060048201819052600160fb1b60248301529091602091839160449183916001600160a01b03165af19081156145b357600091614bd3575090565b6000805160206150dc83398151915254604051631ce2e8d760e31b815260016004820152600160fb1b602482015290602090829060449082906000906001600160a01b03165af19081156145b357600091614bd3575090565b6000805160206150dc83398151915254604051631ce2e8d760e31b81526004810192909252600160fb1b6024830152602090829060449082906000906001600160a01b03165af19081156145b357600091614bd3575090565b60008051602061509c83398151915254600092916001600160a01b0390911690813b1561429e57604051631974142760e21b815260048101919091526001600160a01b03909216602483015282908290818381604481015b03925af18015614f8e57614f81575050565b81614f8b91612594565b50565b6040513d84823e3d90fd5b6020614fe393926000805160206150dc83398151915254600093846040518098819582946302e817ff60e41b8452600484015233602484015260806044840152608483019061284d565b600160fb1b606483015203926001600160a01b03165af192831561508e57819361505a575b5060008051602061509c833981519152546001600160a01b031683813b15615056576040516346ce4e4960e11b81526004810191909152336024820152908290829081838160448101614f6f565b8280fd5b9092506020813d602011615086575b8161507660209383612594565b8101031261505657519138615008565b3d9150615069565b50604051903d90823e3d90fdfeed8d60e34876f751cc8b014c560745351147d9de11b9347c854e881b128ea60093ab6e17f2c461cce6ea5d4ec117e51dda77a64affc2b2c05f8cd440def0e700ed8d60e34876f751cc8b014c560745351147d9de11b9347c854e881b128ea601a2646970667358221220ff89a828831ee115fd3702ddc5668adbbac9cc2608c51b8e8e8f57cbbd7d5ec064736f6c634300081c003360806040523461029b57600060606100156102a0565b8281528260208201528260408201520152739d6891a6240d6130c54ae243d8005063d05fe14b60606100456102a0565b73fee8407e2f5e3ee68ad77cae98c434e637f516e580825273687408ab54661ba0b4aef3a44156c616c6955e07602080840182905273fb03be574d14c256d56f09a198b586bdfc0a9de2604080860182905295909401959095527fed8d60e34876f751cc8b014c560745351147d9de11b9347c854e881b128ea60080546001600160a01b031990811690931790557fed8d60e34876f751cc8b014c560745351147d9de11b9347c854e881b128ea6018054831690911790557fed8d60e34876f751cc8b014c560745351147d9de11b9347c854e881b128ea602805482169092179091557fed8d60e34876f751cc8b014c560745351147d9de11b9347c854e881b128ea6038054909116739d6891a6240d6130c54ae243d8005063d05fe14b1790557f871b3b0713ea5d7fd1f75a811c349209996193f3a2535cdfd79d35416bf80123805460ff1990811660019081179092557fe3be84349242383ed4b31bbb7ede08a8080ac9d5e828342f449d34bf731539e980548216831790557fb37150ceb7e138645bfe4dfcef9a75073e1d7aa14c524dfdd20d3f751fad108480548216831790557f9b7d9d4d38e09e01f2082dbdeee850cc1f3aa1605ae9a63dcd694a7373b5e76f80548216831790557f09f922a082099d8bb3cef76f214b97d4ea18be3ab11deb731e4676110a885b48805482168317905560036000527fad3228b676f7d3cd4284a5443f17f1962b36e491b30a40b2405849e597ba5fb59093527f1064944154d106e1ec360ae74854831967df4793aa1a690999745d5669fc5d0580549093161790915551610d9290816102d68239f35b600080fd5b60405190608082016001600160401b038111838210176102bf57604052565b634e487b7160e01b600052604160045260246000fdfe6080604052600436101561001257600080fd5b6000803560e01c806309b0ea9e146105145780638a6e8b391461009157638e1fb2e11461003e57600080fd5b3461008a57604036600319011261008a57600435600281101561008d5760243591600483101561008a57602060ff61007e85610079866106d0565b6106ff565b54166040519015158152f35b80fd5b5080fd5b503461008a57606036600319011261008a576004356001600160401b03811161008d573660238201121561008d5780600401356100cd816106b9565b916100db6040519384610682565b8183526024602084019260051b820101903682116105105760248101925b8284106103ab5785856024356001600160401b0381116103a757366023820112156103a757806004013561012c816106b9565b9161013a6040519384610682565b8183526024602084019260051b820101903682116103a357602401915b81831061038a57505050604435906001600160401b03821161038657366023830112156103865781600401359161018d836106b9565b9261019b6040519485610682565b8084526024602085019160051b830101913683116102b057602401905b828210610376575050506101ca610c8d565b91845b84518110156102e55785935b6101e38287610771565b51518510156102db57610200856101fa8489610771565b51610771565b5161020b8386610771565b5160028110156102c75760209161022d916102268688610771565b5191610822565b606460018060a01b03600080516020610d3d8339815191525416938a6040519586948593630ccd46b160e31b8552600485015260248401528160448401525af180156102bc578790610286575b600191509401936101d9565b506020813d82116102b4575b8161029f60209383610682565b810103126102b0576001905161027a565b8680fd5b3d9150610292565b6040513d89823e3d90fd5b634e487b7160e01b89526021600452602489fd5b93506001016101cd565b7fed8d60e34876f751cc8b014c560745351147d9de11b9347c854e881b128ea600548690859082906001600160a01b0316803b1561008d578190604460405180968193631974142760e21b83528760048401523360248401525af192831561036957602093610359575b5050604051908152f35b8161036391610682565b8361034f565b50604051903d90823e3d90fd5b81358152602091820191016101b8565b8380fd5b823560028110156102b057815260209283019201610157565b8580fd5b8280fd5b83356001600160401b0381116102b0578201366043820112156102b05760248101356103d6816106b9565b916103e46040519384610682565b818352602060248185019360051b830101019036821161050c5760448101925b82841061041e5750505090825250602093840193016100f9565b83356001600160401b038111610508576024908301016040601f1982360301126105085760405190604082018281106001600160401b038211176104ec576040526020810135600481101561050457825260408101356001600160401b0381116105045760209101019136601f84011215610500578235916001600160401b0383116104ec576040518e6104bc601f8601601f191660200183610682565b848252366020868801011161008a5760208581979682809801838601378301015283820152815201930192610404565b634e487b7160e01b8e52604160045260248efd5b8c80fd5b8d80fd5b8b80fd5b8980fd5b8480fd5b503461008a57604036600319011261008a576004356001600160401b03811161008d5761054590369060040161064d565b6024929192356001600160401b0381116103a757836105698492369060040161064d565b83929192915b85831015958661064957855b610586858588610717565b905081101561063b5787610627578460051b8301356002811015610623576105ad906106d0565b6105b8868689610717565b83101561060f578260051b81013590603e198136030182121561050c57013590600482101561060b5760ff916105ed916106ff565b5416156105fc5760010161057b565b6374abd56560e11b8752600487fd5b8880fd5b634e487b7160e01b89526032600452602489fd5b8780fd5b634e487b7160e01b87526032600452602487fd5b50955060019092019161056f565b8580f35b9181601f8401121561067d578235916001600160401b03831161067d576020808501948460051b01011161067d57565b600080fd5b90601f801991011681019081106001600160401b038211176106a357604052565b634e487b7160e01b600052604160045260246000fd5b6001600160401b0381116106a35760051b60200190565b60028110156106e9576000526000602052604060002090565b634e487b7160e01b600052602160045260246000fd5b9060048110156106e957600052602052604060002090565b919081101561075b5760051b81013590601e198136030182121561067d5701908135916001600160401b03831161067d576020018260051b3603811361067d579190565b634e487b7160e01b600052603260045260246000fd5b805182101561075b5760209160051b010190565b1561079557610792610c8d565b90565b600080602060018060a01b03600080516020610d3d8339815191525416604460405180948193631ce2e8d760e31b83528160048401528160248401525af19182156108165780926107e557505090565b9091506020823d60201161080e575b8161080160209383610682565b8101031261008a57505190565b3d91506107f4565b604051903d90823e3d90fd5b919060028110156106e957806109845750815160009260048210156109705760200151602081805181010312610386576020015180151581036103865761086890610785565b906002810361090557506020919250606460018060a01b03600080516020610d3d83398151915254169360006040519586948593630ccd46b160e31b8552600485015260248401528160448401525af19081156108f9576000916108ca575090565b90506020813d6020116108f1575b816108e560209383610682565b8101031261067d575190565b3d91506108d8565b6040513d6000823e3d90fd5b60030361096157602090606460018060a01b03600080516020610d3d833981519152541693856040519586948593632c7d67b760e01b8552600485015260248401528160448401525af19182156108165780926107e557505090565b637a65611760e11b8352600483fd5b634e487b7160e01b84526021600452602484fd5b60009290600103610c7e5780519060048210156109705760200151602081519181808201938492010103126103865751600080516020610d3d83398151915254604051631ce2e8d760e31b81526004810192909252600160fb1b60248301529091906020908390604490829088906001600160a01b03165af1918215610c73578492610c3f575b5080610a975750808215610a87575b15610a75575b602090606460018060a01b03600080516020610d3d833981519152541693856040519586948593631f31e28560e11b8552600485015260248401528160448401525af19182156108165780926107e557505090565b506020610a80610ce3565b9050610a20565b9150610a91610ce3565b91610a1a565b60018103610b255750808215610b15575b15610b03575b602090606460018060a01b03600080516020610d3d833981519152541693856040519586948593639675211f60e01b8552600485015260248401528160448401525af19182156108165780926107e557505090565b506020610b0e610ce3565b9050610aae565b9150610b1f610ce3565b91610aa8565b60028103610bb35750808215610ba3575b15610b91575b602090606460018060a01b03600080516020610d3d833981519152541693856040519586948593630d7c62eb60e31b8552600485015260248401528160448401525af19182156108165780926107e557505090565b506020610b9c610ce3565b9050610b3c565b9150610bad610ce3565b91610b36565b60030361096157808215610c2f575b15610c1d575b602090606460018060a01b03600080516020610d3d833981519152541693856040519586948593631927108160e01b8552600485015260248401528160448401525af19182156108165780926107e557505090565b506020610c28610ce3565b9050610bc8565b9150610c39610ce3565b91610bc2565b9091506020813d602011610c6b575b81610c5b60209383610682565b8101031261038657519038610a0b565b3d9150610c4e565b6040513d86823e3d90fd5b63dfe27d0b60e01b8352600483fd5b600080516020610d3d83398151915254604051631ce2e8d760e31b8152600160048201526000602482018190529091602091839160449183916001600160a01b03165af19081156108f9576000916108ca575090565b600080516020610d3d83398151915254604051631ce2e8d760e31b8152600060048201819052600160fb1b60248301529091602091839160449183916001600160a01b03165af19081156108f9576000916108ca57509056feed8d60e34876f751cc8b014c560745351147d9de11b9347c854e881b128ea601a2646970667358221220369c1419dfd6e13035242606596f1a66be5dde5df5dccbb4e1827cd1637eca7d64736f6c634300081c0033","linkReferences":{}},"methodIdentifiers":{"createQuery(uint256,(uint8,bytes)[][])":"00653e90","createSurvey((string,uint8,bool,bytes32,uint256,uint256,string[],uint8[],(uint8,bytes)[][]))":"14142c57","executeQuery(uint256)":"960a4c18","executeQuery(uint256,uint256)":"5600d9ab","gatewayConfirmUserEntry(uint256,bool)":"bc37edb7","gatewayDecryptQueryResult(uint256,uint256,uint256)":"a5b4e28a","gatewayDecryptSurveyResult(uint256,uint256)":"1bc5e610","getQueryData(uint256)":"c2485ebd","hasVoted(uint256,address)":"43859632","lastSurveyId()":"b2f57d7c","queryData(uint256)":"4279ef3b","revealResults(uint256)":"b8f6255a","submitEntry(uint256,bytes32,bytes32[],bytes)":"33ce9e29","submitWhitelistedEntry(uint256,bytes32,bytes32[],bytes,bytes32[])":"21acc8ea","surveyData(uint256)":"00bcd6d5","surveyDetails(uint256)":"a7fcbbd4","surveyParams(uint256)":"d7b8f1cb","voteData(uint256,uint256)":"1229052c"},"id":1}