{"abi":[{"type":"function","name":"createSurvey","inputs":[{"name":"params","type":"tuple","internalType":"struct SurveyParams","components":[{"name":"surveyPrompt","type":"string","internalType":"string"},{"name":"surveyType","type":"uint8","internalType":"enum SurveyType"},{"name":"isWhitelisted","type":"bool","internalType":"bool"},{"name":"whitelistRootHash","type":"bytes32","internalType":"bytes32"},{"name":"surveyEndTime","type":"uint256","internalType":"uint256"},{"name":"responseThreshold","type":"uint256","internalType":"uint256"},{"name":"metadataTypes","type":"uint8[]","internalType":"enum MetadataType[]"}]}],"outputs":[{"name":"","type":"uint256","internalType":"uint256"}],"stateMutability":"nonpayable"},{"type":"function","name":"revealResults","inputs":[{"name":"surveyId","type":"uint256","internalType":"uint256"}],"outputs":[],"stateMutability":"nonpayable"},{"type":"function","name":"submitEntry","inputs":[{"name":"surveyId","type":"uint256","internalType":"uint256"},{"name":"eInputVote","type":"bytes32","internalType":"einput"},{"name":"metadata","type":"uint256[]","internalType":"uint256[]"},{"name":"inputProof","type":"bytes","internalType":"bytes"}],"outputs":[],"stateMutability":"nonpayable"}],"bytecode":{"object":"0x6080604052348015600f57600080fd5b50610d7d8061001f6000396000f3fe608060405234801561001057600080fd5b50600436106100415760003560e01c806340e622961461004657806384d922031461005b578063b8f6255a14610080575b600080fd5b61005961005436600461082e565b610091565b005b61006e610069366004610a1d565b610237565b60405190815260200160405180910390f35b61005961008e366004610afa565b50565b60005485106100d15760405162461bcd60e51b81526020600482015260076024820152661a5b9d985b1a5960ca1b60448201526064015b60405180910390fd5b600085815260046020908152604080832033845290915290205460ff161561012b5760405162461bcd60e51b815260206004820152600d60248201526c185b1c9958591e57dd9bdd1959609a1b60448201526064016100c8565b600061016d8584848080601f01602080910402602001604051908101604052809392919081815260200183838082843760009201919091525061034592505050565b60008781526002602052604090206001015490915061018c908261035a565b60008781526002602052604081206001810192909255815491906101af83610b29565b9091555050604080518082018252828152602080820187815260008a81526003835293842080546001818101835591865294839020845160029096020194855590518051939485949093610207938501920190610646565b50505060009687525050600460209081526040808720338852909152909420805460ff1916600117905550505050565b600080548152600160205260408120825183919081906102579082610bcb565b50602082015160018083018054909160ff1990911690838181111561027e5761027e610c8a565b021790555060408201516001820180549115156101000261ff0019909216919091179055606082015160028201556080820151600382015560a0820151600482015560c082015180516102db916005840191602090910190610691565b509050506040518060400160405280600081526020016102fb600061038c565b90526000805481526002602090815260408220835181559201516001909201919091558054908061032b83610b29565b9190505550600160005461033f9190610ca0565b92915050565b600061035383836008610399565b9392505050565b60008261036e5761036b600061038c565b92505b816103805761037d600061038c565b91505b610353838360006104c6565b600061033f826008610594565b7fed8d60e34876f751cc8b014c560745351147d9de11b9347c854e881b128ea601546040516302e817ff60e41b81526000917fed8d60e34876f751cc8b014c560745351147d9de11b9347c854e881b128ea600916001600160a01b0390911690632e817ff0906104179088903390899060f88a901b90600401610cb3565b6020604051808303816000875af1158015610436573d6000803e3d6000fd5b505050506040513d601f19601f8201168201806040525081019061045a9190610d2e565b81546040516346ce4e4960e11b8152600481018390523360248201529193506001600160a01b031690638d9c9c9290604401600060405180830381600087803b1580156104a657600080fd5b505af11580156104ba573d6000803e3d6000fd5b50505050509392505050565b60008082156104da5750600160f81b6104de565b5060005b60007fed8d60e34876f751cc8b014c560745351147d9de11b9347c854e881b128ea600600181015460405163f953e42760e01b815260048101899052602481018890526001600160f81b0319851660448201529192506001600160a01b03169063f953e427906064016020604051808303816000875af1158015610566573d6000803e3d6000fd5b505050506040513d601f19601f8201168201806040525081019061058a9190610d2e565b9695505050505050565b6000807fed8d60e34876f751cc8b014c560745351147d9de11b9347c854e881b128ea6006001810154604051631ce2e8d760e31b8152600481018790526001600160f81b031960f887901b1660248201529192506001600160a01b03169063e71746b8906044016020604051808303816000875af115801561061a573d6000803e3d6000fd5b505050506040513d601f19601f8201168201806040525081019061063e9190610d2e565b949350505050565b828054828255906000526020600020908101928215610681579160200282015b82811115610681578251825591602001919060010190610666565b5061068d92915061073c565b5090565b82805482825590600052602060002090601f016020900481019282156106815791602002820160005b8382111561070657835183826101000a81548160ff021916908360018111156106e5576106e5610c8a565b021790555092602001926001016020816000010492830192600103026106ba565b80156107335782816101000a81549060ff0219169055600101602081600001049283019260010302610706565b505061068d9291505b5b8082111561068d576000815560010161073d565b634e487b7160e01b600052604160045260246000fd5b60405160e0810167ffffffffffffffff8111828210171561078a5761078a610751565b60405290565b604051601f8201601f1916810167ffffffffffffffff811182821017156107b9576107b9610751565b604052919050565b600067ffffffffffffffff8211156107db576107db610751565b5060051b60200190565b60008083601f8401126107f757600080fd5b50813567ffffffffffffffff81111561080f57600080fd5b60208301915083602082850101111561082757600080fd5b9250929050565b60008060008060006080868803121561084657600080fd5b8535945060208601359350604086013567ffffffffffffffff81111561086b57600080fd5b8601601f8101881361087c57600080fd5b803561088f61088a826107c1565b610790565b8082825260208201915060208360051b85010192508a8311156108b157600080fd5b6020840193505b828410156108d35783358252602093840193909101906108b8565b9550505050606086013567ffffffffffffffff8111156108f257600080fd5b6108fe888289016107e5565b969995985093965092949392505050565b600082601f83011261092057600080fd5b813567ffffffffffffffff81111561093a5761093a610751565b61094d601f8201601f1916602001610790565b81815284602083860101111561096257600080fd5b816020850160208301376000918101602001919091529392505050565b6002811061008e57600080fd5b80356109978161097f565b919050565b8035801515811461099757600080fd5b600082601f8301126109bd57600080fd5b81356109cb61088a826107c1565b8082825260208201915060208360051b8601019250858311156109ed57600080fd5b602085015b83811015610a13578035610a058161097f565b8352602092830192016109f2565b5095945050505050565b600060208284031215610a2f57600080fd5b813567ffffffffffffffff811115610a4657600080fd5b820160e08185031215610a5857600080fd5b610a60610767565b813567ffffffffffffffff811115610a7757600080fd5b610a838682850161090f565b825250610a926020830161098c565b6020820152610aa36040830161099c565b6040820152606082810135908201526080808301359082015260a0808301359082015260c082013567ffffffffffffffff811115610ae057600080fd5b610aec868285016109ac565b60c083015250949350505050565b600060208284031215610b0c57600080fd5b5035919050565b634e487b7160e01b600052601160045260246000fd5b600060018201610b3b57610b3b610b13565b5060010190565b600181811c90821680610b5657607f821691505b602082108103610b7657634e487b7160e01b600052602260045260246000fd5b50919050565b601f821115610bc657806000526020600020601f840160051c81016020851015610ba35750805b601f840160051c820191505b81811015610bc35760008155600101610baf565b50505b505050565b815167ffffffffffffffff811115610be557610be5610751565b610bf981610bf38454610b42565b84610b7c565b6020601f821160018114610c2d5760008315610c155750848201515b600019600385901b1c1916600184901b178455610bc3565b600084815260208120601f198516915b82811015610c5d5787850151825560209485019460019092019101610c3d565b5084821015610c7b5786840151600019600387901b60f8161c191681555b50505050600190811b01905550565b634e487b7160e01b600052602160045260246000fd5b8181038181111561033f5761033f610b13565b84815260018060a01b0384166020820152608060408201526000835180608084015260005b81811015610cf557602081870181015160a0868401015201610cd8565b50600060a0828501015260a0601f19601f830116840101915050610d2560608301846001600160f81b0319169052565b95945050505050565b600060208284031215610d4057600080fd5b505191905056fea264697066735822122086e2281c796b46f84f2e65f819f2125c950fc0894cba9cb54e5d42b47f70ff3564736f6c634300081c0033","linkReferences":{}},"methodIdentifiers":{"createSurvey((string,uint8,bool,bytes32,uint256,uint256,uint8[]))":"84d92203","revealResults(uint256)":"b8f6255a","submitEntry(uint256,bytes32,uint256[],bytes)":"40e62296"},"id":1}