{"abi":[{"type":"function","name":"createQuery","inputs":[{"name":"surveyId","type":"uint256","internalType":"uint256"},{"name":"params","type":"tuple[][]","internalType":"struct Filter[][]","components":[{"name":"verifier","type":"uint8","internalType":"enum VerifierType"},{"name":"value","type":"bytes","internalType":"bytes"}]}],"outputs":[{"name":"","type":"uint256","internalType":"uint256"}],"stateMutability":"nonpayable"},{"type":"function","name":"createSurvey","inputs":[{"name":"params","type":"tuple","internalType":"struct SurveyParams","components":[{"name":"surveyPrompt","type":"string","internalType":"string"},{"name":"surveyType","type":"uint8","internalType":"enum SurveyType"},{"name":"isWhitelisted","type":"bool","internalType":"bool"},{"name":"whitelistRootHash","type":"bytes32","internalType":"bytes32"},{"name":"numberOfParticipants","type":"uint256","internalType":"uint256"},{"name":"surveyEndTime","type":"uint256","internalType":"uint256"},{"name":"minResponseThreshold","type":"uint256","internalType":"uint256"},{"name":"metadataTypes","type":"uint8[]","internalType":"enum MetadataType[]"}]}],"outputs":[{"name":"","type":"uint256","internalType":"uint256"}],"stateMutability":"nonpayable"},{"type":"function","name":"executeQuery","inputs":[{"name":"queryId","type":"uint256","internalType":"uint256"},{"name":"limit","type":"uint256","internalType":"uint256"}],"outputs":[],"stateMutability":"nonpayable"},{"type":"function","name":"executeQuery","inputs":[{"name":"queryId","type":"uint256","internalType":"uint256"}],"outputs":[],"stateMutability":"nonpayable"},{"type":"function","name":"gatewayDecryptAnalyse","inputs":[{"name":"requestId","type":"uint256","internalType":"uint256"},{"name":"_finalSelectedCount","type":"uint256","internalType":"uint256"},{"name":"_finalResult","type":"uint256","internalType":"uint256"}],"outputs":[],"stateMutability":"nonpayable"},{"type":"function","name":"gatewayDecryptVoteResult","inputs":[{"name":"requestId","type":"uint256","internalType":"uint256"},{"name":"result","type":"uint256","internalType":"uint256"}],"outputs":[],"stateMutability":"nonpayable"},{"type":"function","name":"getQueryData","inputs":[{"name":"queryId","type":"uint256","internalType":"uint256"}],"outputs":[{"name":"","type":"tuple","internalType":"struct QueryData","components":[{"name":"surveyId","type":"uint256","internalType":"uint256"},{"name":"filters","type":"tuple[][]","internalType":"struct Filter[][]","components":[{"name":"verifier","type":"uint8","internalType":"enum VerifierType"},{"name":"value","type":"bytes","internalType":"bytes"}]},{"name":"pendingEncryptedResult","type":"uint256","internalType":"euint256"},{"name":"pendingSelectedNumber","type":"uint256","internalType":"euint256"},{"name":"cursor","type":"uint256","internalType":"uint256"},{"name":"isCompleted","type":"bool","internalType":"bool"},{"name":"isInvalid","type":"bool","internalType":"bool"},{"name":"finalSelectedCount","type":"uint256","internalType":"uint256"},{"name":"finalResult","type":"uint256","internalType":"uint256"}]}],"stateMutability":"view"},{"type":"function","name":"hasVoted","inputs":[{"name":"","type":"uint256","internalType":"uint256"},{"name":"","type":"address","internalType":"address"}],"outputs":[{"name":"","type":"bool","internalType":"bool"}],"stateMutability":"view"},{"type":"function","name":"queryData","inputs":[{"name":"","type":"uint256","internalType":"uint256"}],"outputs":[{"name":"surveyId","type":"uint256","internalType":"uint256"},{"name":"pendingEncryptedResult","type":"uint256","internalType":"euint256"},{"name":"pendingSelectedNumber","type":"uint256","internalType":"euint256"},{"name":"cursor","type":"uint256","internalType":"uint256"},{"name":"isCompleted","type":"bool","internalType":"bool"},{"name":"isInvalid","type":"bool","internalType":"bool"},{"name":"finalSelectedCount","type":"uint256","internalType":"uint256"},{"name":"finalResult","type":"uint256","internalType":"uint256"}],"stateMutability":"view"},{"type":"function","name":"revealResults","inputs":[{"name":"surveyId","type":"uint256","internalType":"uint256"}],"outputs":[],"stateMutability":"nonpayable"},{"type":"function","name":"submitEntry","inputs":[{"name":"surveyId","type":"uint256","internalType":"uint256"},{"name":"eInputVote","type":"bytes32","internalType":"einput"},{"name":"metadata","type":"bytes32[]","internalType":"einput[]"},{"name":"inputProof","type":"bytes","internalType":"bytes"}],"outputs":[],"stateMutability":"nonpayable"},{"type":"function","name":"submitWhitelistedEntry","inputs":[{"name":"surveyId","type":"uint256","internalType":"uint256"},{"name":"eInputVote","type":"bytes32","internalType":"einput"},{"name":"metadata","type":"bytes32[]","internalType":"einput[]"},{"name":"inputProof","type":"bytes","internalType":"bytes"},{"name":"whitelistProof","type":"bytes32[]","internalType":"bytes32[]"}],"outputs":[],"stateMutability":"nonpayable"},{"type":"function","name":"surveyData","inputs":[{"name":"","type":"uint256","internalType":"uint256"}],"outputs":[{"name":"currentParticipants","type":"uint256","internalType":"uint256"},{"name":"encryptedResponses","type":"uint256","internalType":"euint256"},{"name":"finalResult","type":"uint256","internalType":"uint256"},{"name":"isCompleted","type":"bool","internalType":"bool"},{"name":"isInvalid","type":"bool","internalType":"bool"}],"stateMutability":"view"},{"type":"function","name":"surveyParams","inputs":[{"name":"","type":"uint256","internalType":"uint256"}],"outputs":[{"name":"surveyPrompt","type":"string","internalType":"string"},{"name":"surveyType","type":"uint8","internalType":"enum SurveyType"},{"name":"isWhitelisted","type":"bool","internalType":"bool"},{"name":"whitelistRootHash","type":"bytes32","internalType":"bytes32"},{"name":"numberOfParticipants","type":"uint256","internalType":"uint256"},{"name":"surveyEndTime","type":"uint256","internalType":"uint256"},{"name":"minResponseThreshold","type":"uint256","internalType":"uint256"}],"stateMutability":"view"},{"type":"event","name":"EntrySubmitted","inputs":[{"name":"surveyId","type":"uint256","indexed":true,"internalType":"uint256"},{"name":"user","type":"address","indexed":false,"internalType":"address"}],"anonymous":false},{"type":"event","name":"QueryCreated","inputs":[{"name":"queryId","type":"uint256","indexed":true,"internalType":"uint256"},{"name":"surveyId","type":"uint256","indexed":true,"internalType":"uint256"},{"name":"analyser","type":"address","indexed":false,"internalType":"address"}],"anonymous":false},{"type":"event","name":"SurveyCompleted","inputs":[{"name":"surveyId","type":"uint256","indexed":true,"internalType":"uint256"},{"name":"surveyType","type":"uint8","indexed":false,"internalType":"enum SurveyType"},{"name":"numberOfVotes","type":"uint256","indexed":false,"internalType":"uint256"},{"name":"response","type":"uint256","indexed":false,"internalType":"uint256"}],"anonymous":false},{"type":"event","name":"SurveyCreated","inputs":[{"name":"surveyId","type":"uint256","indexed":true,"internalType":"uint256"},{"name":"organizer","type":"address","indexed":false,"internalType":"address"},{"name":"surveyType","type":"uint8","indexed":false,"internalType":"enum SurveyType"},{"name":"surveyPrompt","type":"string","indexed":false,"internalType":"string"}],"anonymous":false},{"type":"error","name":"AlreadyCompletedQuery","inputs":[]},{"type":"error","name":"InvalidEndTime","inputs":[]},{"type":"error","name":"InvalidMetadata","inputs":[]},{"type":"error","name":"InvalidNumberOfParticipants","inputs":[]},{"type":"error","name":"InvalidQueryId","inputs":[]},{"type":"error","name":"InvalidResponseThreshold","inputs":[]},{"type":"error","name":"InvalidRevealAction","inputs":[]},{"type":"error","name":"InvalidSurvey","inputs":[]},{"type":"error","name":"InvalidSurveyPrompt","inputs":[]},{"type":"error","name":"InvalidSurveyWhitelist","inputs":[]},{"type":"error","name":"ResultAlreadyReveal","inputs":[]},{"type":"error","name":"ThresholdNeeded","inputs":[]},{"type":"error","name":"UnauthorizePendingQuery","inputs":[]},{"type":"error","name":"UnfinishedSurveyPeriod","inputs":[]}],"bytecode":{"object":"0x6080604052346101b057600060606100156101b5565b8281528260208201528260408201520152739d6891a6240d6130c54ae243d8005063d05fe14b60606100456101b5565b73fee8407e2f5e3ee68ad77cae98c434e637f516e580825273687408ab54661ba0b4aef3a44156c616c6955e076020830181905273fb03be574d14c256d56f09a198b586bdfc0a9de2604080850182905294909301949094527fed8d60e34876f751cc8b014c560745351147d9de11b9347c854e881b128ea60080546001600160a01b031990811690921790557fed8d60e34876f751cc8b014c560745351147d9de11b9347c854e881b128ea601805482169094179093557fed8d60e34876f751cc8b014c560745351147d9de11b9347c854e881b128ea6028054841690911790557fed8d60e34876f751cc8b014c560745351147d9de11b9347c854e881b128ea60380548316739d6891a6240d6130c54ae243d8005063d05fe14b1790557f93ab6e17f2c461cce6ea5d4ec117e51dda77a64affc2b2c05f8cd440def0e70080549092167333347831500f1e73f0cccbb95c9f86b94d7b11231790915551612f1690816101eb8239f35b600080fd5b60405190608082016001600160401b038111838210176101d457604052565b634e487b7160e01b600052604160045260246000fdfe6080604052600436101561001257600080fd5b60003560e01c8062653e901461174f578062bcd6d5146116ef57806306b1474e14611141578063151cf9b9146110cc57806321acc8ea14610ffd57806333ce9e2914610f865780634279ef3b14610f065780634385963214610eae5780635600d9ab14610a09578063960a4c181461044c578063b8f6255a1461042e578063c2485ebd1461021b578063d7b8f1cb146101765763dd921de2146100b457600080fd5b34610171576100c236611e77565b600080516020612ea1833981519152549091906001600160a01b03163303610171576000908152600f6020908152604080832054808452600c8084528285206002810187905560038101805460ff19166001908117909155600b8652958490209095015493529254905192937f950408ef4c2b7a6f879349bbf987adb33a74e6766083ce1e9260e22fc6dac8739360609390929060ff1661016281611f8b565b835260208301526040820152a2005b600080fd5b3461017157602036600319011261017157600435600052600b6020526101e96040600020604051906101b3826101ac8184611f08565b0383611d6f565b600181015460ff811691600281015460038201549060ff600560048501549401549460405198899860e08a5260e08a0190611e8d565b966101f381611f8b565b602089015260081c16151560408701526060860152608085015260a084015260c08301520390f35b3461017157602036600319011261017157600061010060405161023d81611d53565b828152606060208201528260408201528260608201528260808201528260a08201528260c08201528260e08201520152600435600052601260205260406000206040519061028a82611d53565b8054825261029a60018201612034565b9060208301918252600281015490604084019182526003810154906060850191825260048101546080860190815260058201549060a087019060ff83161515825260ff60c089019360081c1615158352600760068501549460e08a01958652015494610100890195865260405197602089526101408901995160208a0152519661012060408a01528751809a5261016089019960206101608260051b8c010199019060009b5b818d10610381575050508899505160608901525160808801525160a087015251151560c086015251151560e085015251610100840152516101208301520390f35b90919961015f198c82030182528a519081519081815260208101906020808460051b8301019401926000915b8183106103ce5750505050506020806001929c0192019c019b919091610340565b9091929394601f1982820301855285519081519160038310156104185761040b826040602080959460019782965201519181858201520190611e8d565b97019501930191906103ad565b634e487b7160e01b600052602160045260246000fd5b346101715760203660031901126101715761044a600435612142565b005b34610171576020366003190112610171576004356011548110156109f85780600052601260205260ff600560406000200154166109e75760008181526012602052604090208054600490910154909190600a81019081106109ba5782600052600d60205260406000205481106000146109d05791905b6104ca612c48565b926104d3612bef565b925b8260005260126020528160046040600020015410156109165780600052600d602052610517604060002084600052601260205260046040600020015490612002565b509460016040519661052888611d38565b80548852019360405180958691602082549182815201916000526020600020906000905b8082106108fe5750505090610562910386611d6f565b602087019485528060005260126020526105856001604060002001955195612034565b9561058e612cfa565b6000955b885187101561077c576000915b6105a9888b61212e565b515183101561076f576105c6836105c08a8d61212e565b5161212e565b516105d1898b61212e565b519060008151600381101561041857600090610763575050602080910151818151818301938491600094010103126106f8575061060e9051612ca1565b8115610753575b8015610741575b602090606460018060a01b03600080516020612ec183398151915254169360006040519586948593631f31e28560e11b8552600485015260248401528160448401525af180156107035760009061070f575b602091505b606460018060a01b03600080516020612ec183398151915254169360006040519586948593630ccd46b160e31b8552600485015260248401528160448401525af18015610703576000906106ce575b6001915092019161059f565b6020823d82116106fb575b816106e660209383611d6f565b810103126106f85750600190516106c2565b80fd5b3d91506106d9565b6040513d6000823e3d90fd5b6020823d8211610739575b8161072760209383611d6f565b810103126106f857506020905161066e565b3d915061071a565b50602061074c612bef565b905061061c565b905061075d612bef565b90610615565b50602092509050610673565b6001909701969150610592565b949550919550955060009196602060018060a01b03600080516020612ec1833981519152541660646040518096819363cb3b940760e01b83528760048401528d60248401528c60448401525af1928315610703576000936108ca575b5060209051606460018060a01b03600080516020612ec18339815191525416936000604051958694859363cb3b940760e01b8552600485015260248401528b60448401525af190811561070357600091610897575b5061084c61086b92866000526012602052600360406000200154612a0a565b6000868152601260205260409020600381019190915560020154612a0a565b60008481526012602052604090206002810191909155600401805461088f90611ff3565b9055906104d5565b906020823d82116108c2575b816108b060209383611d6f565b810103126106f857505161084c61082d565b3d91506108a3565b90926020823d82116108f6575b816108e460209383611d6f565b810103126106f85750519160206107d8565b3d91506108d7565b9091926001602081928654815201940192019061054c565b905081600052601260205260046040600020015490600052600d602052604060002054111561094157005b60405161094f606082611d6f565b60028152604036602083013781600052601260205260036040600020015461097682612111565b528160005260126020526002604060002001546109928261211e565b52606442018042116109ba576109a791612af4565b600052600f602052604060002055600080f35b634e487b7160e01b600052601160045260246000fd5b5081600052600d60205260406000205491906104c2565b630df890a560e31b60005260046000fd5b636806f54760e01b60005260046000fd5b3461017157610a1736611e77565b906011548110156109f85780600052601260205260ff600560406000200154166109e75760008181526012602052604090208054600490910154909281019081106109ba5782600052600d6020526040600020548110600014610e975791905b610a7f612c48565b92610a88612bef565b925b8260005260126020528160046040600020015410156109165780600052600d602052610acc604060002084600052601260205260046040600020015490612002565b5094600160405196610add88611d38565b80548852019360405180958691602082549182815201916000526020600020906000905b808210610e7f5750505090610b17910386611d6f565b60208701948552806000526012602052610b3a6001604060002001955195612034565b95610b43612cfa565b6000955b8851871015610d1c576000915b610b5e888b61212e565b5151831015610d0f57610b75836105c08a8d61212e565b51610b80898b61212e565b519060008151600381101561041857600090610d03575050602080910151818151818301938491600094010103126106f85750610bbd9051612ca1565b8115610cf3575b8015610ce1575b602090606460018060a01b03600080516020612ec183398151915254169360006040519586948593631f31e28560e11b8552600485015260248401528160448401525af1801561070357600090610caf575b602091505b606460018060a01b03600080516020612ec183398151915254169360006040519586948593630ccd46b160e31b8552600485015260248401528160448401525af1801561070357600090610c7d575b60019150920191610b54565b6020823d8211610ca7575b81610c9560209383611d6f565b810103126106f8575060019051610c71565b3d9150610c88565b6020823d8211610cd9575b81610cc760209383611d6f565b810103126106f8575060209051610c1d565b3d9150610cba565b506020610cec612bef565b9050610bcb565b9050610cfd612bef565b90610bc4565b50602092509050610c22565b6001909701969150610b47565b949550919550955060009196602060018060a01b03600080516020612ec1833981519152541660646040518096819363cb3b940760e01b83528760048401528d60248401528c60448401525af192831561070357600093610e4b575b5060209051606460018060a01b03600080516020612ec18339815191525416936000604051958694859363cb3b940760e01b8552600485015260248401528b60448401525af190811561070357600091610e18575b5061084c610dec92866000526012602052600360406000200154612a0a565b600084815260126020526040902060028101919091556004018054610e1090611ff3565b905590610a8a565b906020823d8211610e43575b81610e3160209383611d6f565b810103126106f857505161084c610dcd565b3d9150610e24565b90926020823d8211610e77575b81610e6560209383611d6f565b810103126106f8575051916020610d78565b3d9150610e58565b90919260016020819286548152019401920190610b01565b5081600052600d6020526040600020549190610a77565b34610171576040366003190112610171576024356001600160a01b038116810361017157600435600052600e60205260406000209060018060a01b0316600052602052602060ff604060002054166040519015158152f35b34610171576020366003190112610171576004356000526012602052610100604060002080549060028101549060ff6003820154600483015460058401549160076006860154950154956040519788526020880152604087015260608601528181161515608086015260081c16151560a084015260c083015260e0820152f35b34610171576080366003190112610171576044356001600160401b03811161017157610fb6903690600401611ded565b606435906001600160401b03821161017157610fd961044a923690600401611e4a565b9060405192610fe9602085611d6f565b6000845260003681376024356004356123f8565b346101715760a0366003190112610171576044356001600160401b0381116101715761102d903690600401611ded565b6064356001600160401b0381116101715761104c903690600401611e4a565b608435916001600160401b03831161017157366023840112156101715782600401359361107885611d90565b936110866040519586611d6f565b8585526024602086019660051b8201019036821161017157602401955b8187106110bc57505061044a94506024356004356123f8565b86358152602096870196016110a3565b3461017157606036600319011261017157600080516020612ea183398151915254600435906001600160a01b03163303610171576000818152600f602090815260408083205483526012909152808220602435600682015560443560079091015591815220600501805460ff19166001179055005b34610171576020366003190112610171576004356001600160401b038111610171576101006003198236030112610171576040519061010082018281106001600160401b038211176115065760405280600401356001600160401b03811161017157810136602382011215610171576111c4903690602460048201359101611da7565b8252602481013591600283101561017157602081019283526044820135928315158403610171576040820193845260608201926064810135845260808301936084820135855260a084019160a4810135835260c085019060c4810135825260e4810135906001600160401b0382116101715701923660238501121561017157600484013561125181611d90565b9461125f6040519687611d6f565b818652602060048188019360051b830101019036821161017157602401915b8183106116d65750505060e08601938452855151156116c5578751611692575b805142101561168157600382511115611670576112b9612bef565b966112c38861237c565b600a54600052600b6020526040600020938751998a516001600160401b038111611506576112fb816112f58954611ece565b89611fac565b6020601f8211600114611600578161137393926113369260069b9c9d9e9f6000926115f5575b50508160011b916000199060031b1c19161790565b87555b60018701908a5161134981611f8b565b61135281611f8b565b8254915161ffff1990921660ff919091161790151560081b61ff0016179055565b5160028501555160038401555160048301555160058201550190518051906001600160401b03821161150657600160401b82116115065760209083548385558084106115a7575b50019160005260206000208160051c9160005b83811061156e5750601f19811690038061151c575b5050505060405160a08101908082106001600160401b03831117611506576114eb9461148492604052600082526020820190815261146d6003604084019360008552606081019460008652608082019460008652600a54600052600c6020526040600020925183555160018301555160028201550192511515839060ff801983541691151516179055565b51815461ff00191690151560081b61ff0016179055565b7f52b91a8adb16d2c942f8afd364522fa27a2ab2df5adb982db50443fc31c05290600a5492839251906114b682611f8b565b51906114e36040519283923384526114cd81611f8b565b6020840152606060408401526060830190611e8d565b0390a2611ff3565b80600a5560001981019081116109ba57602090604051908152f35b634e487b7160e01b600052604160045260246000fd5b9260009360005b818110611538575050500155838080806113e2565b90919460206115646001928489519161155083611f8b565b9060ff809160031b9316831b921b19161790565b9601929101611523565b6000805b602081106115875750838201556001016113cd565b9590602061159e6001928985519161155083611f8b565b92019601611572565b6115d3908560005283600020601f80870160051c820192818816806115d9575b500160051c0190611f95565b876113ba565b600019850190815490600019908a0360031b1c1690558c6115c7565b015190508f80611321565b601f1982169088600052806000209160005b818110611658575091839160069b9c9d9e9f61137396956001951061163f575b505050811b018755611339565b015160001960f88460031b161c191690558e8080611632565b8f830151845560019093019260209283019201611612565b630ba2c8e960e31b60005260046000fd5b6338af65f760e01b60005260046000fd5b8251156116b45760028751101561129e5763e633dc2f60e01b60005260046000fd5b63a7952e8f60e01b60005260046000fd5b630d34db1360e41b60005260046000fd5b823560028110156101715781526020928301920161127e565b3461017157602036600319011261017157600435600052600c60205260a0604060002060ff8154916001810154906003600282015491015491604051948552602085015260408401528181161515606084015260081c1615156080820152f35b34610171576040366003190112610171576024356004356001600160401b038211610171573660238301121561017157816004013561178d81611d90565b9261179b6040519485611d6f565b8184526024602085019260051b820101903682116101715760248101925b828410611c3c57858580600052600c60205260ff6003604060002001541615611c2b5780600052600c60205260ff60036040600020015460081c16611c1a57611800612bef565b611808612bef565b906040519161181683611d53565b83835260208301948552604083019182526060830190815260808301906000825260a08401916000835260c08501916000835260e08601946000865261010087019860008a526011546000526012602052604060002097518855600188019051805190600160401b8211611506578254828455808310611b53575b506020019160005260206000206000925b8284106119445750505050926118eb92611929999592600797955160028a015551600389015551600488015561146d6005880192511515839060ff801983541691151516179055565b5160068401555191015560115490817ff4bfd720334815b6b1792e0d517529b217fe3eb94a904ec5801b037aee18949e6020604051338152a3611ff3565b8060115560001981019081116109ba57602090604051908152f35b8051805190600160401b8211611506578354828555808310611aa8575b50600084815260208082209392015b82821061198d5750505050600160208192019201930192906118a2565b8051805160038110156104185760009060ff80198854169116178655602060018701920151908151916001600160401b038311611a94576119d8836119d28654611ece565b86611fac565b602091601f8411600114611a2a57836020946001979460029794611a109492611a1f5750508160011b916000199060031b1c19161790565b90555b01940191019092611970565b015190503880611321565b9190601f198416858452828420935b818110611a7c575093600196936002969388938360209810611a63575b505050811b019055611a13565b015160001960f88460031b161c19169055388080611a56565b92936020600181928786015181550195019301611a39565b634e487b7160e01b82526041600452602482fd5b6001600160ff1b03811681036109ba576001600160ff1b03831683036109ba578460005260206000209060011b8101908360011b015b818110611aeb5750611961565b8060006002925560018101611b008154611ece565b9081611b0f575b505001611ade565b81601f60009311600114611b275750555b3880611b07565b81835260208320611b4391601f0160051c810190600101611f95565b8082528160208120915555611b20565b8360005282602060002091820191015b818110611b705750611891565b80546000825580611b85575b50600101611b63565b6001600160ff1b03811681036109ba576000828152602081209160011b8201915b828110611bb4575050611b7c565b8082600292558260018201611bc98154611ece565b80611bd8575b50505001611ba6565b601f8111600114611bee5750555b823880611bcf565b81835260208320611c0a91601f0160051c810190600101611f95565b8082528160208120915555611be6565b63147cbf7360e31b60005260046000fd5b6352dc50db60e11b60005260046000fd5b83356001600160401b03811161017157820136604382011215610171576024810135611c6781611d90565b91611c756040519384611d6f565b818352602060248185019360051b83010101903682116101715760448101925b828410611caf5750505090825250602093840193016117b9565b83356001600160401b03811161017157602490830101906040601f1983360301126101715760405191611ce183611d38565b6020810135600381101561017157835260408101356001600160401b0381116101715760209101019036601f8301121561017157602092611d29849336908581359101611da7565b83820152815201930192611c95565b604081019081106001600160401b0382111761150657604052565b61012081019081106001600160401b0382111761150657604052565b90601f801991011681019081106001600160401b0382111761150657604052565b6001600160401b0381116115065760051b60200190565b9291926001600160401b0382116115065760405191611dd0601f8201601f191660200184611d6f565b829481845281830111610171578281602093846000960137010152565b9080601f83011215610171578135611e0481611d90565b92611e126040519485611d6f565b81845260208085019260051b82010192831161017157602001905b828210611e3a5750505090565b8135815260209182019101611e2d565b9181601f84011215610171578235916001600160401b038311610171576020838186019501011161017157565b6040906003190112610171576004359060243590565b919082519283825260005b848110611eb9575050826000602080949584010152601f8019910116010190565b80602080928401015182828601015201611e98565b90600182811c92168015611efe575b6020831014611ee857565b634e487b7160e01b600052602260045260246000fd5b91607f1691611edd565b60009291815491611f1883611ece565b8083529260018116908115611f6e5750600114611f3457505050565b60009081526020812093945091925b838310611f54575060209250010190565b600181602092949394548385870101520191019190611f43565b915050602093945060ff929192191683830152151560051b010190565b6002111561041857565b818110611fa0575050565b60008155600101611f95565b9190601f8111611fbb57505050565b611fe7926000526020600020906020601f840160051c83019310611fe9575b601f0160051c0190611f95565b565b9091508190611fda565b60001981146109ba5760010190565b805482101561201e5760005260206000209060011b0190600090565b634e487b7160e01b600052603260045260246000fd5b9081549161204183611d90565b9261204f6040519485611d6f565b80845260208401916000526020600020916000905b8282106120715750505050565b835461207c81611d90565b9061208a6040519283611d6f565b80825260208201908660005260206000206000925b8284106120c057505050506020826001939284935201940191019092612064565b6040516120cc81611d38565b60ff83541660038110156104185760019282602092600294526040516120ff816120f881898b01611f08565b0382611d6f565b8382015281520192019301929061209f565b80511561201e5760200190565b80516001101561201e5760400190565b805182101561201e5760209160051b010190565b6000818152600b602052600460408220015442111561236d57818152600c60205260ff60036040832001541661235e57818152600c6020526040812054828252600b6020526005604083200154116123285760409081516121a38382611d6f565b60018152601f198301366020830137838252600c602052600183832001546121ca82612111565b52606442019081421161231457600080516020612e81833981519152546001600160a01b0316803b1561231057838551809263155f840160e21b82526020600483015281838161221d6024820189612ac0565b03925af18015612306576122ed575b50600080516020612ea1833981519152548451634c0d927760e01b815260a060048201529260209284926001600160a01b0316918391879183916122749060a4840190612ac0565b90636ec90ef160e11b6024840152836044840152606483015282608483015203925af19081156122e35782916122b1575b508152600f6020522055565b90506020813d6020116122db575b816122cc60209383611d6f565b810103126101715751386122a5565b3d91506122bf565b83513d84823e3d90fd5b836122fe6020939561227493611d6f565b93915061222c565b85513d86823e3d90fd5b8380fd5b634e487b7160e01b83526011600452602483fd5b808260039360409352600c602052838383200161010061ff00198254161790558152600c6020522001600160ff19825416179055565b63d96068dd60e01b8152600490fd5b6352dc50db60e11b8152600490fd5b600080516020612e81833981519152546000916001600160a01b0390911690813b156123f457604051631974142760e21b815260048101919091523060248201529082908290818381604481015b03925af180156123e9576123dc575050565b816123e691611d6f565b50565b6040513d84823e3d90fd5b8280fd5b9094959395600a548210156129db576000828152600e6020908152604080832033845290915290205460ff166129a65781600052600b6020526006604060002001548351036129705781600052600b60205260046040600020015442116129395781600052600b60205260ff60016040600020015460081c1661284e575b5080600052600b6020526006604060002001549361249385611d90565b946124a16040519687611d6f565b8086526124b0601f1991611d90565b0136602087013760005b82600052600b6020526006604060002001548110156126a45782600052600b6020526006604060002001805482101561201e5760005260ff60206000208260051c015460f88360031b161c1661250f81611f8b565b8061265f575061251f818561212e565b519061257d6020612531368c8a611da7565b60009460018060a01b03600080516020612ec1833981519152541690866040518096819582946302e817ff60e41b84526004840152336024840152608060448401526084830190611e8d565b82606483015203925af192831561265357809361261d575b5050600080516020612e81833981519152546001600160a01b031691823b15610171576040516346ce4e4960e11b815260048101829052336024820152926000908490604490829084905af1908115610703576001936126069261260c575b5080612600848b61212e565b5261237c565b016124ba565b600061261791611d6f565b386125f4565b909192506020823d821161264b575b8161263960209383611d6f565b810103126106f8575051903880612595565b3d915061262c565b604051903d90823e3d90fd5b906001809261266d81611f8b565b036126065761269f612694612682838861212e565b5161268e368d8b611da7565b90612d82565b80612600848b61212e565b612606565b509561268e91959250926126b9933691611da7565b6126c28161237c565b82600052600c6020526126dd81600160406000200154612a0a565b6000848152600c60205260409020600181019190915580546126fe90611ff3565b905582600052600c60205261271a60016040600020015461237c565b6040519061272782611d38565b81526020810191825282600052600d60205260406000208054600160401b8110156115065761275b91600182018155612002565b61283857600191518155019051908151916001600160401b03831161150657600160401b831161150657602090825484845580851061281b575b500190600052602060002060005b838110612807575050505080600052600e602052604060002060018060a01b0333166000526020526040600020600160ff198254161790557f03b562e13524df9ad0948873c24d44336296e8aaef105cb0e60f18d40378ef576020604051338152a2565b6001906020845194019381840155016127a3565b612832908460005285846000209182019101611f95565b38612795565b634e487b7160e01b600052600060045260246000fd5b9592604095929594919451602081019033825260208152612870604082611d6f565b519020604051602081019182526020815261288c604082611d6f565b5190209585600052600b60205260026040600020015496956000965b89518810156128ef576128bb888b61212e565b51906000828210156128de5750600052602052600160406000205b9701966128a8565b6040916001938252602052206128d6565b91949792959850929550036129045738612476565b60405162461bcd60e51b815260206004820152600d60248201526c24b73b30b634b210383937b7b360991b6044820152606490fd5b60405162461bcd60e51b815260206004820152600f60248201526e66696e69736865642073757276657960881b6044820152606490fd5b60405162461bcd60e51b815260206004820152600e60248201526d092dcecc2d8d2c840d8cadccee8d60931b6044820152606490fd5b60405162461bcd60e51b815260206004820152600d60248201526c185b1c9958591e57dd9bdd1959609a1b6044820152606490fd5b60405162461bcd60e51b81526020600482015260076024820152661a5b9d985b1a5960ca1b6044820152606490fd5b908115612ab0575b8015612a9e575b602090606460018060a01b03600080516020612ec18339815191525416936000604051958694859363f953e42760e01b8552600485015260248401528160448401525af190811561070357600091612a6f575090565b90506020813d602011612a96575b81612a8a60209383611d6f565b81010312610171575190565b3d9150612a7d565b506020612aa9612bef565b9050612a19565b9050612aba612bef565b90612a12565b906020808351928381520192019060005b818110612ade5750505090565b8251845260209384019390920191600101612ad1565b600080516020612e818339815191525460009291906001600160a01b0316803b156123105783604051809263155f840160e21b825260206004830152818381612b406024820189612ac0565b03925af18015612be457612bcb575b50600080516020612ea183398151915254604051634c0d927760e01b815260a060048201529260209284926001600160a01b031691839187918391612b989060a4840190612ac0565b9063151cf9b960e01b6024840152836044840152606483015282608483015203925af19182156126535791612a6f575090565b83612bdc60209395612b9893611d6f565b939150612b4f565b6040513d86823e3d90fd5b600080516020612ec183398151915254604051631ce2e8d760e31b8152600060048201819052600160fb1b60248301529091602091839160449183916001600160a01b03165af190811561070357600091612a6f575090565b600080516020612ec183398151915254604051631ce2e8d760e31b815260016004820152600160fb1b602482015290602090829060449082906000906001600160a01b03165af190811561070357600091612a6f575090565b600080516020612ec183398151915254604051631ce2e8d760e31b81526004810192909252600160fb1b6024830152602090829060449082906000906001600160a01b03165af190811561070357600091612a6f575090565b600080516020612ec183398151915254604051631ce2e8d760e31b815260016004820152600060248201819052916020908290604490829086906001600160a01b03165af1918215612653578092612d5157505090565b9091506020823d602011612d7a575b81612d6d60209383611d6f565b810103126106f857505190565b3d9150612d60565b6020612dcc9392600080516020612ec183398151915254600093846040518098819582946302e817ff60e41b84526004840152336024840152608060448401526084830190611e8d565b600160fb1b606483015203926001600160a01b03165af1928315612e73578193612e3f575b50600080516020612e81833981519152546001600160a01b031683813b156123f4576040516346ce4e4960e11b815260048101919091523360248201529082908290818381604481016123ca565b9092506020813d602011612e6b575b81612e5b60209383611d6f565b810103126123f457519138612df1565b3d9150612e4e565b50604051903d90823e3d90fdfeed8d60e34876f751cc8b014c560745351147d9de11b9347c854e881b128ea60093ab6e17f2c461cce6ea5d4ec117e51dda77a64affc2b2c05f8cd440def0e700ed8d60e34876f751cc8b014c560745351147d9de11b9347c854e881b128ea601a2646970667358221220d7d1a1b73c88ecf392c8be7a6a2678f35b8ffc6b8024b1a437e20e7d442f605964736f6c634300081c0033","linkReferences":{}},"methodIdentifiers":{"createQuery(uint256,(uint8,bytes)[][])":"00653e90","createSurvey((string,uint8,bool,bytes32,uint256,uint256,uint256,uint8[]))":"06b1474e","executeQuery(uint256)":"960a4c18","executeQuery(uint256,uint256)":"5600d9ab","gatewayDecryptAnalyse(uint256,uint256,uint256)":"151cf9b9","gatewayDecryptVoteResult(uint256,uint256)":"dd921de2","getQueryData(uint256)":"c2485ebd","hasVoted(uint256,address)":"43859632","queryData(uint256)":"4279ef3b","revealResults(uint256)":"b8f6255a","submitEntry(uint256,bytes32,bytes32[],bytes)":"33ce9e29","submitWhitelistedEntry(uint256,bytes32,bytes32[],bytes,bytes32[])":"21acc8ea","surveyData(uint256)":"00bcd6d5","surveyParams(uint256)":"d7b8f1cb"},"id":0}