{"abi":[{"type":"function","name":"createSurvey","inputs":[{"name":"params","type":"tuple","internalType":"struct SurveyParams","components":[{"name":"surveyPrompt","type":"string","internalType":"string"},{"name":"surveyType","type":"uint8","internalType":"enum SurveyType"},{"name":"isWhitelisted","type":"bool","internalType":"bool"},{"name":"whitelistRootHash","type":"bytes32","internalType":"bytes32"},{"name":"surveyEndTime","type":"uint256","internalType":"uint256"},{"name":"responseThreshold","type":"uint256","internalType":"uint256"},{"name":"metadataTypes","type":"uint8[]","internalType":"enum MetadataType[]"}]}],"outputs":[{"name":"","type":"uint256","internalType":"uint256"}],"stateMutability":"nonpayable"},{"type":"function","name":"gatewayDecryptVoteResult","inputs":[{"name":"requestId","type":"uint256","internalType":"uint256"},{"name":"result","type":"uint256","internalType":"uint256"}],"outputs":[],"stateMutability":"nonpayable"},{"type":"function","name":"revealResults","inputs":[{"name":"surveyId","type":"uint256","internalType":"uint256"}],"outputs":[],"stateMutability":"nonpayable"},{"type":"function","name":"submitEntry","inputs":[{"name":"surveyId","type":"uint256","internalType":"uint256"},{"name":"eInputVote","type":"bytes32","internalType":"einput"},{"name":"metadata","type":"uint256[]","internalType":"uint256[]"},{"name":"inputProof","type":"bytes","internalType":"bytes"}],"outputs":[],"stateMutability":"nonpayable"},{"type":"function","name":"surveyParams","inputs":[{"name":"","type":"uint256","internalType":"uint256"}],"outputs":[{"name":"surveyPrompt","type":"string","internalType":"string"},{"name":"surveyType","type":"uint8","internalType":"enum SurveyType"},{"name":"isWhitelisted","type":"bool","internalType":"bool"},{"name":"whitelistRootHash","type":"bytes32","internalType":"bytes32"},{"name":"surveyEndTime","type":"uint256","internalType":"uint256"},{"name":"responseThreshold","type":"uint256","internalType":"uint256"}],"stateMutability":"view"}],"bytecode":{"object":"0x608060405234801561001057600080fd5b5061018c6100b0604080516080810182526000808252602082018190529181018290526060810191909152506040805160808101825273fee8407e2f5e3ee68ad77cae98c434e637f516e5815273687408ab54661ba0b4aef3a44156c616c6955e07602082015273fb03be574d14c256d56f09a198b586bdfc0a9de291810191909152739d6891a6240d6130c54ae243d8005063d05fe14b606082015290565b80517fed8d60e34876f751cc8b014c560745351147d9de11b9347c854e881b128ea60080546001600160a01b03199081166001600160a01b039384161790915560208301517fed8d60e34876f751cc8b014c560745351147d9de11b9347c854e881b128ea6018054831691841691909117905560408301517fed8d60e34876f751cc8b014c560745351147d9de11b9347c854e881b128ea6028054831691841691909117905560608301517fed8d60e34876f751cc8b014c560745351147d9de11b9347c854e881b128ea6038054909216921691909117905550565b7f93ab6e17f2c461cce6ea5d4ec117e51dda77a64affc2b2c05f8cd440def0e70080546001600160a01b0319167333347831500f1e73f0cccbb95c9f86b94d7b112317905561127d806101e06000396000f3fe608060405234801561001057600080fd5b50600436106100575760003560e01c806340e622961461005c57806384d9220314610071578063b8f6255a14610097578063d7b8f1cb146100aa578063dd921de2146100cf575b600080fd5b61006f61006a366004610bca565b6100e2565b005b61008461007f366004610db9565b610288565b6040519081526020015b60405180910390f35b61006f6100a5366004610e96565b6103ab565b6100bd6100b8366004610e96565b610450565b60405161008e96959493929190610f0b565b61006f6100dd366004610f66565b610513565b600a5485106101225760405162461bcd60e51b81526020600482015260076024820152661a5b9d985b1a5960ca1b60448201526064015b60405180910390fd5b6000858152600e6020908152604080832033845290915290205460ff161561017c5760405162461bcd60e51b815260206004820152600d60248201526c185b1c9958591e57dd9bdd1959609a1b6044820152606401610119565b60006101be8584848080601f01602080910402602001604051908101604052809392919081815260200183838082843760009201919091525061056b92505050565b6000878152600c60205260409020600101549091506101dd9082610580565b6000878152600c6020526040812060018101929092558154919061020083610f9e565b9091555050604080518082018252828152602080820187815260008a8152600d8352938420805460018181018355918652948390208451600290960201948555905180519394859490936102589385019201906109e2565b50505060009687525050600e60209081526040808720338852909152909420805460ff1916600117905550505050565b600a546000908152600b60205260408120825183919081906102aa9082611040565b50602082015160018083018054909160ff199091169083818111156102d1576102d1610ef5565b021790555060408201516001820180549115156101000261ff0019909216919091179055606082015160028201556080820151600382015560a0820151600482015560c0820151805161032e916005840191602090910190610a2d565b5090505060405180606001604052806000815260200161034e60006105b2565b815260006020918201819052600a80548252600c835260408083208551815593850151600185015593909301516002909201919091558154919061039183610f9e565b91905055506001600a546103a591906110ff565b92915050565b6000818152600c60205260409020600101546103c6906105bf565b60408051600180825281830190925260009160208083019080368337019050506000838152600c60205260409020600101549091508160008151811061040e5761040e611112565b6020908102919091010152600061043a82636ec90ef160e11b83610433426064611128565b60006105cc565b6000908152600f60205260409020929092555050565b600b6020526000908152604090208054819061046b90610fb7565b80601f016020809104026020016040519081016040528092919081815260200182805461049790610fb7565b80156104e45780601f106104b9576101008083540402835291602001916104e4565b820191906000526020600020905b8154815290600101906020018083116104c757829003601f168201915b50505050600183015460028401546003850154600490950154939460ff80841695610100909404169350909186565b7f93ab6e17f2c461cce6ea5d4ec117e51dda77a64affc2b2c05f8cd440def0e700546001600160a01b0316331461054957600080fd5b6000918252600f60209081526040808420548452600c90915290912060020155565b6000610579838360086106ee565b9392505050565b6000826105945761059160006105b2565b92505b816105a6576105a360006105b2565b91505b61057983836000610809565b60006103a58260086108c5565b6105c98130610965565b50565b600080516020611228833981519152805460405163155f840160e21b8152600092916001600160a01b03169063557e10049061060c908a90600401611177565b600060405180830381600087803b15801561062657600080fd5b505af115801561063a573d6000803e3d6000fd5b5050505060006106677f93ab6e17f2c461cce6ea5d4ec117e51dda77a64affc2b2c05f8cd440def0e70090565b8054604051634c0d927760e01b81529192506001600160a01b031690634c0d92779061069f908b908b908b908b908b9060040161118a565b6020604051808303816000875af11580156106be573d6000803e3d6000fd5b505050506040513d601f19601f820116820180604052508101906106e291906111cd565b98975050505050505050565b7fed8d60e34876f751cc8b014c560745351147d9de11b9347c854e881b128ea601546040516302e817ff60e41b8152600091600080516020611228833981519152916001600160a01b0390911690632e817ff09061075a9088903390899060f88a901b906004016111e6565b6020604051808303816000875af1158015610779573d6000803e3d6000fd5b505050506040513d601f19601f8201168201806040525081019061079d91906111cd565b81546040516346ce4e4960e11b8152600481018390523360248201529193506001600160a01b031690638d9c9c9290604401600060405180830381600087803b1580156107e957600080fd5b505af11580156107fd573d6000803e3d6000fd5b50505050509392505050565b600080821561081d5750600160f81b610821565b5060005b6000600080516020611228833981519152600181015460405163f953e42760e01b815260048101899052602481018890526001600160f81b0319851660448201529192506001600160a01b03169063f953e427906064016020604051808303816000875af1158015610897573d6000803e3d6000fd5b505050506040513d601f19601f820116820180604052508101906108bb91906111cd565b9695505050505050565b6000806000805160206112288339815191526001810154604051631ce2e8d760e31b8152600481018790526001600160f81b031960f887901b1660248201529192506001600160a01b03169063e71746b8906044016020604051808303816000875af1158015610939573d6000803e3d6000fd5b505050506040513d601f19601f8201168201806040525081019061095d91906111cd565b949350505050565b60006000805160206112288339815191528054604051631974142760e21b8152600481018690526001600160a01b0385811660248301529293509116906365d0509c90604401600060405180830381600087803b1580156109c557600080fd5b505af11580156109d9573d6000803e3d6000fd5b50505050505050565b828054828255906000526020600020908101928215610a1d579160200282015b82811115610a1d578251825591602001919060010190610a02565b50610a29929150610ad8565b5090565b82805482825590600052602060002090601f01602090048101928215610a1d5791602002820160005b83821115610aa257835183826101000a81548160ff02191690836001811115610a8157610a81610ef5565b02179055509260200192600101602081600001049283019260010302610a56565b8015610acf5782816101000a81549060ff0219169055600101602081600001049283019260010302610aa2565b5050610a299291505b5b80821115610a295760008155600101610ad9565b634e487b7160e01b600052604160045260246000fd5b60405160e0810167ffffffffffffffff81118282101715610b2657610b26610aed565b60405290565b604051601f8201601f1916810167ffffffffffffffff81118282101715610b5557610b55610aed565b604052919050565b600067ffffffffffffffff821115610b7757610b77610aed565b5060051b60200190565b60008083601f840112610b9357600080fd5b50813567ffffffffffffffff811115610bab57600080fd5b602083019150836020828501011115610bc357600080fd5b9250929050565b600080600080600060808688031215610be257600080fd5b8535945060208601359350604086013567ffffffffffffffff811115610c0757600080fd5b8601601f81018813610c1857600080fd5b8035610c2b610c2682610b5d565b610b2c565b8082825260208201915060208360051b85010192508a831115610c4d57600080fd5b6020840193505b82841015610c6f578335825260209384019390910190610c54565b9550505050606086013567ffffffffffffffff811115610c8e57600080fd5b610c9a88828901610b81565b969995985093965092949392505050565b600082601f830112610cbc57600080fd5b813567ffffffffffffffff811115610cd657610cd6610aed565b610ce9601f8201601f1916602001610b2c565b818152846020838601011115610cfe57600080fd5b816020850160208301376000918101602001919091529392505050565b600281106105c957600080fd5b8035610d3381610d1b565b919050565b80358015158114610d3357600080fd5b600082601f830112610d5957600080fd5b8135610d67610c2682610b5d565b8082825260208201915060208360051b860101925085831115610d8957600080fd5b602085015b83811015610daf578035610da181610d1b565b835260209283019201610d8e565b5095945050505050565b600060208284031215610dcb57600080fd5b813567ffffffffffffffff811115610de257600080fd5b820160e08185031215610df457600080fd5b610dfc610b03565b813567ffffffffffffffff811115610e1357600080fd5b610e1f86828501610cab565b825250610e2e60208301610d28565b6020820152610e3f60408301610d38565b6040820152606082810135908201526080808301359082015260a0808301359082015260c082013567ffffffffffffffff811115610e7c57600080fd5b610e8886828501610d48565b60c083015250949350505050565b600060208284031215610ea857600080fd5b5035919050565b6000815180845260005b81811015610ed557602081850181015186830182015201610eb9565b506000602082860101526020601f19601f83011685010191505092915050565b634e487b7160e01b600052602160045260246000fd5b60c081526000610f1e60c0830189610eaf565b905060028710610f3e57634e487b7160e01b600052602160045260246000fd5b602082019690965293151560408501526060840192909252608083015260a090910152919050565b60008060408385031215610f7957600080fd5b50508035926020909101359150565b634e487b7160e01b600052601160045260246000fd5b600060018201610fb057610fb0610f88565b5060010190565b600181811c90821680610fcb57607f821691505b602082108103610feb57634e487b7160e01b600052602260045260246000fd5b50919050565b601f82111561103b57806000526020600020601f840160051c810160208510156110185750805b601f840160051c820191505b818110156110385760008155600101611024565b50505b505050565b815167ffffffffffffffff81111561105a5761105a610aed565b61106e816110688454610fb7565b84610ff1565b6020601f8211600181146110a2576000831561108a5750848201515b600019600385901b1c1916600184901b178455611038565b600084815260208120601f198516915b828110156110d257878501518255602094850194600190920191016110b2565b50848210156110f05786840151600019600387901b60f8161c191681555b50505050600190811b01905550565b818103818111156103a5576103a5610f88565b634e487b7160e01b600052603260045260246000fd5b808201808211156103a5576103a5610f88565b600081518084526020840193506020830160005b8281101561116d57815186526020958601959091019060010161114f565b5093949350505050565b602081526000610579602083018461113b565b60a08152600061119d60a083018861113b565b6001600160e01b031996909616602083015250604081019390935260608301919091521515608090910152919050565b6000602082840312156111df57600080fd5b5051919050565b8481526001600160a01b038416602082015260806040820181905260009061121090830185610eaf565b905060ff60f81b831660608301529594505050505056feed8d60e34876f751cc8b014c560745351147d9de11b9347c854e881b128ea600a2646970667358221220b71f7f71793f7988898bf352a37d820335c66f9f4ca411fcc343694feb0b31ea64736f6c634300081c0033","linkReferences":{}},"methodIdentifiers":{"createSurvey((string,uint8,bool,bytes32,uint256,uint256,uint8[]))":"84d92203","gatewayDecryptVoteResult(uint256,uint256)":"dd921de2","revealResults(uint256)":"b8f6255a","submitEntry(uint256,bytes32,uint256[],bytes)":"40e62296","surveyParams(uint256)":"d7b8f1cb"},"id":0}