{"abi":[{"type":"constructor","inputs":[],"stateMutability":"nonpayable"},{"type":"function","name":"createQuery","inputs":[{"name":"surveyId","type":"uint256","internalType":"uint256"},{"name":"params","type":"tuple[][]","internalType":"struct Filter[][]","components":[{"name":"verifier","type":"uint8","internalType":"enum FilterOperator"},{"name":"value","type":"bytes","internalType":"bytes"}]}],"outputs":[{"name":"","type":"uint256","internalType":"uint256"}],"stateMutability":"nonpayable"},{"type":"function","name":"createSurvey","inputs":[{"name":"params","type":"tuple","internalType":"struct SurveyParams","components":[{"name":"surveyPrompt","type":"string","internalType":"string"},{"name":"surveyType","type":"uint8","internalType":"enum SurveyType"},{"name":"isWhitelisted","type":"bool","internalType":"bool"},{"name":"whitelistRootHash","type":"bytes32","internalType":"bytes32"},{"name":"surveyEndTime","type":"uint256","internalType":"uint256"},{"name":"minResponseThreshold","type":"uint256","internalType":"uint256"},{"name":"metadataTypes","type":"uint8[]","internalType":"enum MetadataType[]"},{"name":"constraints","type":"tuple[][]","internalType":"struct Filter[][]","components":[{"name":"verifier","type":"uint8","internalType":"enum FilterOperator"},{"name":"value","type":"bytes","internalType":"bytes"}]}]}],"outputs":[{"name":"","type":"uint256","internalType":"uint256"}],"stateMutability":"nonpayable"},{"type":"function","name":"executeQuery","inputs":[{"name":"queryId","type":"uint256","internalType":"uint256"},{"name":"limit","type":"uint256","internalType":"uint256"}],"outputs":[],"stateMutability":"nonpayable"},{"type":"function","name":"executeQuery","inputs":[{"name":"queryId","type":"uint256","internalType":"uint256"}],"outputs":[],"stateMutability":"nonpayable"},{"type":"function","name":"gatewayConfirmUserEntry","inputs":[{"name":"requestId","type":"uint256","internalType":"uint256"},{"name":"isValid","type":"bool","internalType":"bool"}],"outputs":[],"stateMutability":"nonpayable"},{"type":"function","name":"gatewayDecryptQueryResult","inputs":[{"name":"requestId","type":"uint256","internalType":"uint256"},{"name":"_finalSelectedCount","type":"uint256","internalType":"uint256"},{"name":"_finalResult","type":"uint256","internalType":"uint256"}],"outputs":[],"stateMutability":"nonpayable"},{"type":"function","name":"gatewayDecryptSurveyResult","inputs":[{"name":"requestId","type":"uint256","internalType":"uint256"},{"name":"result","type":"uint256","internalType":"uint256"}],"outputs":[],"stateMutability":"nonpayable"},{"type":"function","name":"getQueryData","inputs":[{"name":"queryId","type":"uint256","internalType":"uint256"}],"outputs":[{"name":"","type":"tuple","internalType":"struct QueryData","components":[{"name":"surveyId","type":"uint256","internalType":"uint256"},{"name":"filters","type":"tuple[][]","internalType":"struct Filter[][]","components":[{"name":"verifier","type":"uint8","internalType":"enum FilterOperator"},{"name":"value","type":"bytes","internalType":"bytes"}]},{"name":"pendingEncryptedResult","type":"uint256","internalType":"euint256"},{"name":"pendingSelectedNumber","type":"uint256","internalType":"euint256"},{"name":"cursor","type":"uint256","internalType":"uint256"},{"name":"isCompleted","type":"bool","internalType":"bool"},{"name":"isValid","type":"bool","internalType":"bool"},{"name":"finalSelectedCount","type":"uint256","internalType":"uint256"},{"name":"finalResult","type":"uint256","internalType":"uint256"}]}],"stateMutability":"view"},{"type":"function","name":"hasVoted","inputs":[{"name":"surveyId","type":"uint256","internalType":"uint256"},{"name":"userAddress","type":"address","internalType":"address"}],"outputs":[{"name":"","type":"bool","internalType":"bool"}],"stateMutability":"view"},{"type":"function","name":"lastSurveyId","inputs":[],"outputs":[{"name":"","type":"uint256","internalType":"uint256"}],"stateMutability":"view"},{"type":"function","name":"queryData","inputs":[{"name":"","type":"uint256","internalType":"uint256"}],"outputs":[{"name":"surveyId","type":"uint256","internalType":"uint256"},{"name":"pendingEncryptedResult","type":"uint256","internalType":"euint256"},{"name":"pendingSelectedNumber","type":"uint256","internalType":"euint256"},{"name":"cursor","type":"uint256","internalType":"uint256"},{"name":"isCompleted","type":"bool","internalType":"bool"},{"name":"isValid","type":"bool","internalType":"bool"},{"name":"finalSelectedCount","type":"uint256","internalType":"uint256"},{"name":"finalResult","type":"uint256","internalType":"uint256"}],"stateMutability":"view"},{"type":"function","name":"revealResults","inputs":[{"name":"surveyId","type":"uint256","internalType":"uint256"}],"outputs":[],"stateMutability":"nonpayable"},{"type":"function","name":"submitEntry","inputs":[{"name":"surveyId","type":"uint256","internalType":"uint256"},{"name":"eInputVote","type":"bytes32","internalType":"einput"},{"name":"metadata","type":"bytes32[]","internalType":"einput[]"},{"name":"inputProof","type":"bytes","internalType":"bytes"}],"outputs":[],"stateMutability":"nonpayable"},{"type":"function","name":"submitWhitelistedEntry","inputs":[{"name":"surveyId","type":"uint256","internalType":"uint256"},{"name":"eInputVote","type":"bytes32","internalType":"einput"},{"name":"metadata","type":"bytes32[]","internalType":"einput[]"},{"name":"inputProof","type":"bytes","internalType":"bytes"},{"name":"whitelistProof","type":"bytes32[]","internalType":"bytes32[]"}],"outputs":[],"stateMutability":"nonpayable"},{"type":"function","name":"surveyData","inputs":[{"name":"surveyId","type":"uint256","internalType":"uint256"}],"outputs":[{"name":"","type":"tuple","internalType":"struct SurveyData","components":[{"name":"currentParticipants","type":"uint256","internalType":"uint256"},{"name":"encryptedResponses","type":"uint256","internalType":"euint256"},{"name":"finalResult","type":"uint256","internalType":"uint256"},{"name":"isCompleted","type":"bool","internalType":"bool"},{"name":"isValid","type":"bool","internalType":"bool"}]}],"stateMutability":"view"},{"type":"function","name":"surveyDetails","inputs":[{"name":"surveyId","type":"uint256","internalType":"uint256"}],"outputs":[{"name":"","type":"tuple","internalType":"struct SurveyParams","components":[{"name":"surveyPrompt","type":"string","internalType":"string"},{"name":"surveyType","type":"uint8","internalType":"enum SurveyType"},{"name":"isWhitelisted","type":"bool","internalType":"bool"},{"name":"whitelistRootHash","type":"bytes32","internalType":"bytes32"},{"name":"surveyEndTime","type":"uint256","internalType":"uint256"},{"name":"minResponseThreshold","type":"uint256","internalType":"uint256"},{"name":"metadataTypes","type":"uint8[]","internalType":"enum MetadataType[]"},{"name":"constraints","type":"tuple[][]","internalType":"struct Filter[][]","components":[{"name":"verifier","type":"uint8","internalType":"enum FilterOperator"},{"name":"value","type":"bytes","internalType":"bytes"}]}]},{"name":"","type":"tuple","internalType":"struct SurveyData","components":[{"name":"currentParticipants","type":"uint256","internalType":"uint256"},{"name":"encryptedResponses","type":"uint256","internalType":"euint256"},{"name":"finalResult","type":"uint256","internalType":"uint256"},{"name":"isCompleted","type":"bool","internalType":"bool"},{"name":"isValid","type":"bool","internalType":"bool"}]}],"stateMutability":"view"},{"type":"function","name":"surveyParams","inputs":[{"name":"surveyId","type":"uint256","internalType":"uint256"}],"outputs":[{"name":"","type":"tuple","internalType":"struct SurveyParams","components":[{"name":"surveyPrompt","type":"string","internalType":"string"},{"name":"surveyType","type":"uint8","internalType":"enum SurveyType"},{"name":"isWhitelisted","type":"bool","internalType":"bool"},{"name":"whitelistRootHash","type":"bytes32","internalType":"bytes32"},{"name":"surveyEndTime","type":"uint256","internalType":"uint256"},{"name":"minResponseThreshold","type":"uint256","internalType":"uint256"},{"name":"metadataTypes","type":"uint8[]","internalType":"enum MetadataType[]"},{"name":"constraints","type":"tuple[][]","internalType":"struct Filter[][]","components":[{"name":"verifier","type":"uint8","internalType":"enum FilterOperator"},{"name":"value","type":"bytes","internalType":"bytes"}]}]}],"stateMutability":"view"},{"type":"function","name":"voteData","inputs":[{"name":"surveyId","type":"uint256","internalType":"uint256"},{"name":"","type":"uint256","internalType":"uint256"}],"outputs":[{"name":"userAddress","type":"address","internalType":"address"},{"name":"data","type":"uint256","internalType":"euint256"},{"name":"isValid","type":"bool","internalType":"bool"}],"stateMutability":"view"},{"type":"event","name":"ConfirmUserEntry","inputs":[{"name":"surveyId","type":"uint256","indexed":true,"internalType":"uint256"},{"name":"user","type":"address","indexed":true,"internalType":"address"},{"name":"isValid","type":"bool","indexed":false,"internalType":"bool"}],"anonymous":false},{"type":"event","name":"EntrySubmitted","inputs":[{"name":"surveyId","type":"uint256","indexed":true,"internalType":"uint256"},{"name":"user","type":"address","indexed":false,"internalType":"address"}],"anonymous":false},{"type":"event","name":"QueryCompleted","inputs":[{"name":"queryId","type":"uint256","indexed":true,"internalType":"uint256"},{"name":"surveyId","type":"uint256","indexed":true,"internalType":"uint256"},{"name":"isValid","type":"bool","indexed":false,"internalType":"bool"},{"name":"finalSelectedCount","type":"uint256","indexed":false,"internalType":"uint256"},{"name":"finalResult","type":"uint256","indexed":false,"internalType":"uint256"}],"anonymous":false},{"type":"event","name":"QueryCreated","inputs":[{"name":"queryId","type":"uint256","indexed":true,"internalType":"uint256"},{"name":"surveyId","type":"uint256","indexed":true,"internalType":"uint256"},{"name":"analyser","type":"address","indexed":false,"internalType":"address"}],"anonymous":false},{"type":"event","name":"SurveyCompleted","inputs":[{"name":"surveyId","type":"uint256","indexed":true,"internalType":"uint256"},{"name":"isValid","type":"bool","indexed":false,"internalType":"bool"},{"name":"surveyType","type":"uint8","indexed":false,"internalType":"enum SurveyType"},{"name":"numberOfVotes","type":"uint256","indexed":false,"internalType":"uint256"},{"name":"response","type":"uint256","indexed":false,"internalType":"uint256"}],"anonymous":false},{"type":"event","name":"SurveyCreated","inputs":[{"name":"surveyId","type":"uint256","indexed":true,"internalType":"uint256"},{"name":"organizer","type":"address","indexed":false,"internalType":"address"},{"name":"surveyType","type":"uint8","indexed":false,"internalType":"enum SurveyType"},{"name":"surveyPrompt","type":"string","indexed":false,"internalType":"string"}],"anonymous":false},{"type":"error","name":"AlreadyCompletedQuery","inputs":[]},{"type":"error","name":"FinishedSurvey","inputs":[]},{"type":"error","name":"InvalidMerkleProof","inputs":[]},{"type":"error","name":"InvalidQueryId","inputs":[]},{"type":"error","name":"InvalidSurvey","inputs":[]},{"type":"error","name":"InvalidSurveyId","inputs":[]},{"type":"error","name":"InvalidSurveyParameter","inputs":[{"name":"field","type":"string","internalType":"string"}]},{"type":"error","name":"InvalidUserMetadata","inputs":[]},{"type":"error","name":"ResultAlreadyReveal","inputs":[]},{"type":"error","name":"UnauthorizePendingQuery","inputs":[]},{"type":"error","name":"UnfinishedSurvey","inputs":[]},{"type":"error","name":"UserAlreadyVoted","inputs":[]}],"bytecode":{"object":"0x60806040523461021f5760006060610015610224565b8281528260208201528260408201520152739d6891a6240d6130c54ae243d8005063d05fe14b6060610045610224565b73fee8407e2f5e3ee68ad77cae98c434e637f516e580825273687408ab54661ba0b4aef3a44156c616c6955e076020830181905273fb03be574d14c256d56f09a198b586bdfc0a9de2604080850182905294909301949094527fed8d60e34876f751cc8b014c560745351147d9de11b9347c854e881b128ea60080546001600160a01b031990811690921790557fed8d60e34876f751cc8b014c560745351147d9de11b9347c854e881b128ea601805482169094179093557fed8d60e34876f751cc8b014c560745351147d9de11b9347c854e881b128ea6028054841690911790557fed8d60e34876f751cc8b014c560745351147d9de11b9347c854e881b128ea60380548316739d6891a6240d6130c54ae243d8005063d05fe14b1790557f93ab6e17f2c461cce6ea5d4ec117e51dda77a64affc2b2c05f8cd440def0e70080549092167333347831500f1e73f0cccbb95c9f86b94d7b112317909155516110688082016001600160401b03811183821017610209578291614ffe833903906000f080156101fd57601380546001600160a01b0319166001600160a01b0392909216919091179055604051614dba90816102448239f35b6040513d6000823e3d90fd5b634e487b7160e01b600052604160045260246000fd5b600080fd5b60405190608082016001600160401b038111838210176102095760405256fe60a0604052600436101561001257600080fd5b60006080526080513560e01c8062653e9014611e3c578062bcd6d514611dcb5780631229052c14611d6a5780631bc5e61014611c6e57806321acc8ea14611b9f57806333ce9e2914611b255780634279ef3b14611aa35780634385963214611a495780635600d9ab14611689578063960a4c1814610dfa578063a5b4e28a14610c8a578063a7fcbbd414610be1578063b2f57d7c14610bc2578063b8f6255a14610ba6578063bc37edb714610ace578063c2485ebd14610978578063d7b8f1cb146109295763dfa69f92146100e657600080fd5b3461090a57602036600319011261090a576004356001600160401b03811161090a57610100600319823603011261090a57604051610123816122b9565b81600401356001600160401b03811161090a5782013660238201121561090a57610157903690602460048201359101612343565b81526024820135600281101561090a5760208201908152604483013592831515840361090a576040830193845260608301936064820135855260808401916084810135835260a0850160a4820135815260c48201356001600160401b03811161090a578201913660238401121561090a5760048301356101d68161232c565b936101e4604051958661230b565b818552602060048187019360051b830101019036821161090a57602401915b8183106109105750505060c0870192835260e4810135906001600160401b03821161090a5760046102379236920101612389565b9360e08701948552865151156108cc578351610881575b805142116108495760038251106107f957610267614a95565b97610272308a614ba0565b600a5460805152600b6020526040608051209488518051906001600160401b03821161064d576102ac826102a68a54612f5b565b8a613113565b6020906001601f84111461078b5791806102e3926103209594608051926105d1575b50508160011b916000199060031b1c19161790565b87555b600187019089516102f6816125e7565b6102ff816125e7565b8254915161ffff1990921660ff919091161790151560081b61ff0016179055565b51600285015551600384015551600483015551805160058301916001600160401b03821161064d57600160401b821161064d57602090835483855580841061073b575b500191608051526020608051208160051c916080515b8381106107015750601f1981169003806106ae575b505050506006019051805190600160401b821161064d57825482845580831061067d575b506020019160805152602060805120608051925b8284106104fc576104c986866104628a604051906103e3826122d5565b60805182526020820190815261044b6003604084019360805185526060810194608051865260808201946080518652600a5460805152600c602052604060805120925183555160018301555160028201550192511515839060ff801983541691151516179055565b51815461ff00191690151560081b61ff0016179055565b7f52b91a8adb16d2c942f8afd364522fa27a2ab2df5adb982db50443fc31c05290600a549283925190610494826125e7565b51906104c16040519283923384526104ab816125e7565b60208401526060604084015260608301906125a6565b0390a261315a565b80600a5560001981019081116104e457602090604051908152f35b634e487b7160e01b6080515260116004526024608051fd5b8051602081519161050d838661304f565b0190836080515260206080512091608051905b82821061053d5750505050600160208192019201930192906103c6565b805180516004811015610665576080515060ff801987541691161785556020600186019101518051906001600160401b03821161064d57610588826105828554612f5b565b85613113565b6020906001601f8411146105dc57926105c28360209460019794600297608051926105d15750508160011b916000199060031b1c19161790565b90555b01940191019092610520565b0151905038806102ce565b90601f1983169184608051528160805120926080515b81811061063557509360019693600296938893836020981061061c575b505050811b0190556105c5565b015160001960f88460031b161c1916905538808061060f565b929360206001819287860151815501950193016105f2565b634e487b7160e01b6080515260416004526024608051fd5b634e487b7160e01b6080515260216004526024608051fd5b83608051528260206080512091820191015b81811061069c57506103b2565b806106a8600192612fac565b0161068f565b6080519390845b8181106106cb575050500155600638808061038e565b90919460206106f7600192848951916106e3836125e7565b9060ff809160031b9316831b921b19161790565b96019291016106b5565b608051805b6020811061071b575083820155600101610379565b95906020610732600192898551916106e3836125e7565b92019601610706565b6107699085608051528360805120601f80870160051c8201928188168061076f575b500160051c0190612f95565b38610363565b600019850190815490600019908a0360031b1c1690553861075d565b90601f1983169189608051528160805120926080515b8181106107e15750916001939185610320979694106107c8575b505050811b0187556102e6565b015160001960f88460031b161c191690553880806107bb565b929360206001819287860151815501950193016107a1565b6040516205bde160ec1b815260206004820152602260248201527f496e76616c6964206d696e696d756d20726573706f6e7365207468726573686f6044820152611b1960f21b6064820152608490fd5b6040516205bde160ec1b815260206004820152601060248201526f496e76616c696420656e642074696d6560801b6044820152606490fd5b875161024e576040516205bde160ec1b815260206004820152601b60248201527f57686974656c69737420726f6f742068617368206973206e756c6c00000000006044820152606490fd5b6040516205bde160ec1b81526020600482015260166024820152755375727665792070726f6d707420697320656d70747960501b6044820152606490fd5b60805180fd5b8235600281101561090a57815260209283019201610203565b3461090a57602036600319011261090a576109426133ba565b5060043560805152600b6020526109746109606040608051206134d8565b6040519182916020835260208301906126cf565b0390f35b3461090a57602036600319011261090a576040516109958161226c565b60805181526060602082015260805160408201526080516060820152608051608082015260805160a082015260805160c082015260805160e08201526101006080519101526004356080515260106020526040608051206040516109f88161226c565b81548152610a08600183016133fb565b9160208201928352600281015490604083019182526003810154906060840191825260048101546080850190815260058201549060a086019060ff83161515825260ff60c088019360081c1615158352600760068501549460e089019586520154946101008801958652610a99604051998a9960208b525160208b01525161012060408b01526101408a0190612614565b965160608901525160808801525160a087015251151560c086015251151560e085015251610100840152516101208301520390f35b3461090a57604036600319011261090a57602435801515810361090a57600080516020614d45833981519152546001600160a01b0316330361090a57600435608051526012602052602060406080512091604051610b2b8161229e565b600184549485835201549283910152600014610b5057610b4a916149a8565b60805180f35b610b69908260805152600d6020526040608051206124ea565b5060018060a01b03905416907f1ea66d04930e46a4f83ad34eb0ecf7438043bbfd37a662a38b044d28eed38a3f60206040516080518152a3610b4a565b3461090a57602036600319011261090a57610b4a600435613d44565b3461090a5760805136600319011261090a576020600a54604051908152f35b3461090a57602036600319011261090a57610c53600435610c006133ba565b50610c09613176565b508060805152600b6020526040608051209060805152600c602052610c3c610c36604060805120926134d8565b916131a1565b61097460405193849360c0855260c08501906126cf565b9160208401906080809180518452602081015160208501526040810151604085015260608101511515606085015201511515910152565b3461090a57606036600319011261090a57600080516020614d4583398151915254602435906001600160a01b0316330361090a5760043560805152601160205260406080512054908015600014610d8c575080608051526010602052600560406080512001600160ff198254161790555b806080515260106020526040608051205490806080515260106020527f80dd3c9152e63d7857ca01b1dd1e2ff42cc2b61dd6ad502108de1215fcde0ba2606060ff6005604060805120015460081c168360805152601060205260066040608051200154846080515260106020526007604060805120015490604051921515835260208301526040820152a360805180f35b8160805152601060205260066040608051200155806080515260106020526044356007604060805120015580608051526010602052600560406080512001600160ff198254161790558060805152601060205260056040608051200161010061ff0019825416179055610cfb565b3461090a57602036600319011261090a57600435600f54811015611676578060805152601060205260ff6005604060805120015416611663578060805152601060205260406080512054816080515260106020526004604060805120015460805150600a81018091116104e45760808051839052600d60205251604090205481101561164c575b610e89614aee565b91610e92614a95565b915b84608051526010602052806004604060805120015410156111d4578160805152600d602052610edc6040608051208660805152601060205260046040608051200154906124ea565b5060405190610eea826122f0565b60018060a01b03815416825260018101549160208101928352600282019160405180938491602082549182815201916080515260206080512090608051905b8082106111b85750505060609392610f4760ff93600393038761230b565b6040840195865201541615159182910152610f83575b505084608051526010602052600460406080512001610f7c815461315a565b9055610e94565b6020610fd99160018060a01b0360135416896080515260108352600160406080512001918760805152600b845260056040608051200190519260405195869485938493638a6e8b3960e01b85526004850161329c565b0391608051905af19081156111415760805191611184575b50606491602060018060a01b03600080516020614d6583398151915254166040519485809263cb3b940760e01b82528660048301528b60248301528a6044830152608051905af1928315611141576080519361114e575b5060209051606460018060a01b03600080516020614d65833981519152541693604051948593849263cb3b940760e01b845260048401526024830152896044830152608051905af19081156111415760805191611109575b506110c16110ee9288608051526010602052600360406080512001546147f7565b876080515260106020526003604060805120015586608051526010602052600260406080512001546147f7565b85608051526010602052600260406080512001558580610f5d565b905060203d811161113a575b61111f818361230b565b602082600092810103126111375750516110c16110a0565b80fd5b503d611115565b6040513d608051823e3d90fd5b90925060203d811161117d575b611165818361230b565b60208260009281010312611137575051916020611048565b503d61115b565b905060203d81116111b1575b61119a818361230b565b602082600092810103126111375750516064610ff1565b503d611190565b9193509160016020819286548152019401920186939291610f29565b50915082608051526010602052600460406080512001548260805152600d6020526040608051205411156112085760805180f35b8160805152600b6020526004604060805120015460001981019081116104e45761123461126091614b47565b928060805152600c602052604060805120549060805152600b6020526004604060805120015490613169565b600181018091116104e45761127490614b47565b83608051526010602052600360406080512001549280841561163c575b1561162a575b600080516020614d6583398151915254604051631f31e28560e11b8152600481019590955260248501919091526080805160448601525160209185916064918391906001600160a01b03165af192831561114157608051936115f6575b508360805152601060205260036040608051200154908082156115e6575b156115d4575b600080516020614d6583398151915254604051639675211f60e01b8152600481019390935260248301919091526080805160448401525160209183916064918391906001600160a01b03165af1801561114157608051906115a1575b600080516020614d6583398151915254604051630ccd46b160e31b8152600481019590955260248501919091526080805160448601525160209250849160649183916001600160a01b03165af1918215611141576080519261156d575b50826080515260106020526003604060805120015491602060018060a01b03600080516020614d6583398151915254169360646040518096819363cb3b940760e01b83528660048401526024830152866044830152608051905af19283156111415760805193611538575b506020908460805152601082526064600260406080512001549160018060a01b03600080516020614d658339815191525416604051958694859363cb3b940760e01b8552600485015260248401526044830152608051905af19081156111415760805191611501575b50604051916114b560608461230b565b6002835260403660208501376114ca83613389565b526114d482613396565b52606442018042116104e4576114e9916148ad565b60805152601160205260406080512055808080610b4a565b90506020813d602011611530575b8161151c6020938361230b565b8101031261152b5751836114a5565b600080fd5b3d915061150f565b9092506020813d602011611565575b816115546020938361230b565b8101031261152b575191602061143c565b3d9150611547565b9091506020813d602011611599575b816115896020938361230b565b8101031261152b575190836113d1565b3d915061157c565b506020813d6020116115cc575b816115bb6020938361230b565b8101031261152b5760209051611374565b3d91506115ae565b5060206115df614a95565b9050611318565b91506115f0614a95565b91611312565b9092506020813d602011611622575b816116126020938361230b565b8101031261152b575191846112f4565b3d9150611605565b506020611635614a95565b9050611297565b9350611646614a95565b93611291565b508060805152600d60205260406080512054610e81565b630df890a560e31b608051526004608051fd5b636806f54760e01b608051526004608051fd5b3461090a57611697366124d4565b600f54821015611676578160805152601060205260ff6005604060805120015416611663578160805152601060205260406080512054908260805152601060205260046040608051200154908101809111611a335760808051839052600d602052516040902054811015611a1c575b61170e614aee565b91611717614a95565b915b84608051526010602052806004604060805120015410156111d4578160805152600d6020526117616040608051208660805152601060205260046040608051200154906124ea565b506040519061176f826122f0565b60018060a01b03815416825260018101549160208101928352600282019160405180938491602082549182815201916080515260206080512090608051905b808210611a0057505050606093926117cc60ff93600393038761230b565b6040840195865201541615159182910152611808575b505084608051526010602052600460406080512001611801815461315a565b9055611719565b602061185e9160018060a01b0360135416896080515260108352600160406080512001918760805152600b845260056040608051200190519260405195869485938493638a6e8b3960e01b85526004850161329c565b0391608051905af190811561114157608051916119cc575b50606491602060018060a01b03600080516020614d6583398151915254166040519485809263cb3b940760e01b82528660048301528b60248301528a6044830152608051905af19283156111415760805193611996575b5060209051606460018060a01b03600080516020614d65833981519152541693604051948593849263cb3b940760e01b845260048401526024830152896044830152608051905af19081156111415760805191611961575b506110c16119469288608051526010602052600360406080512001546147f7565b856080515260106020526002604060805120015585806117e2565b905060203d811161198f575b611977818361230b565b602082600092810103126111375750516110c1611925565b503d61196d565b90925060203d81116119c5575b6119ad818361230b565b602082600092810103126111375750519160206118cd565b503d6119a3565b905060203d81116119f9575b6119e2818361230b565b602082600092810103126111375750516064611876565b503d6119d8565b91935091600160208192865481520194019201869392916117ae565b508060805152600d60205260406080512054611706565b634e487b7160e01b600052601160045260246000fd5b3461090a57604036600319011261090a576024356001600160a01b038116810361090a5760043560805152600e6020526040608051209060018060a01b0316600052602052602060ff604060002054166040519015158152f35b3461090a57602036600319011261090a5760043560805152601060205261010060406080512080549060028101549060ff6003820154600483015460058401549160076006860154950154956040519788526020880152604087015260608601528181161515608086015260081c16151560a084015260c083015260e0820152f35b3461090a57608036600319011261090a576044356001600160401b03811161090a57611b5590369060040161251c565b606435906001600160401b03821161090a57611b78610b4a923690600401612579565b60405192909190611b8a60208561230b565b60805184526000368137602435600435614001565b3461090a5760a036600319011261090a576044356001600160401b03811161090a57611bcf90369060040161251c565b6064356001600160401b03811161090a57611bee903690600401612579565b608435916001600160401b03831161090a573660238401121561090a57826004013593611c1a8561232c565b93611c28604051958661230b565b8585526024602086019660051b8201019036821161090a57602401955b818710611c5e575050610b4a9450602435600435614001565b8635815260209687019601611c45565b3461090a57611c7c366124d4565b600080516020614d45833981519152549091906001600160a01b0316330361090a576080515260116020527fc3775fddf030d25d6e94614562d503ba2328165591eed3133412a193f0b5cd0660806040815120549283825152600c6020528060026040845120015583825152600c6020526003604083512001600160ff1982541617905583825152600c602052600360408351200161010061ff001982541617905583825152600b60205260ff600160408451200154169084835152600c6020526040835120546040519260018452611d54816125e7565b602084015260408301526060820152a260805180f35b3461090a57611d78366124d4565b9060805152600d602052604060805120805482101561090a57606091611d9d916124ea565b5060018060a01b038154169060ff600360018301549201541690604051928352602083015215156040820152f35b3461090a57602036600319011261090a57611de4613176565b5060043560805152600c60205260a0611e016040608051206131a1565b611e3a60405180926080809180518452602081015160208501526040810151604085015260608101511515606085015201511515910152565bf35b3461090a57604036600319011261090a576024356001600160401b03811161090a57611e6c903690600401612389565b600a5460043510156122595760043560805152600c60205260ff6003604060805120015416156122465760043560805152600c60205260ff6003604060805120015460081c161561223357601354608080516004359052600b6020525160409020600501906001600160a01b0316803b1561090a57611f06916040519283916304d8754f60e11b8352604060048401526044830190612787565b916003198284030160248301528180611f226080519588612614565b03915afa801561114157612221575b50611f3a614a95565b611f42614a95565b60405190611f4f8261226c565b60043582526020820193845260408201928352606082019081526080820190608051825260805160a084015260805160c084015260805160e08401526101008301936080518552600f546080515260106020526040608051209584518755600187019051805190600160401b821161064d5782548284558083106121f0575b506020019160805152602060805120608051925b8284106120a3578960078a60e08b8b8b8b5160028801555160038701555160048601556120436005860161202860a08401511515829060ff801983541691151516179055565b60c0830151815461ff00191690151560081b61ff0016179055565b0151600684015551910155612088600f54604051338152817ff4bfd720334815b6b1792e0d517529b217fe3eb94a904ec5801b037aee18949e602060043593a361315a565b80600f5560001981019081116104e457602090604051908152f35b805160208151916120b4838661304f565b01908360805152602060805120608051925b8284106120e3575050505060016020819201920193019290611fe2565b80518051906004821015610665576020916080515060ff8019865416911617845501518051906001600160401b03821161064d57612131826121286001870154612f5b565b60018701613113565b6020906001601f84111461217b579261216a83600294602094600197608051926105d15750508160011b916000199060031b1c19161790565b848601555b019201930192906120c6565b90601f1983169160018601608051528160805120926080515b8181106121d857509360209360019693879383600298106121bf575b505050811b018486015561216f565b015160001960f88460031b161c191690553880806121b0565b92936020600181928786015181550195019301612194565b83608051528260206080512091820191015b81811061220f5750611fce565b8061221b600192612fac565b01612202565b60805161222d9161230b565b81611f31565b63147cbf7360e31b608051526004608051fd5b634164a28160e01b608051526004608051fd5b63242a36cd60e11b608051526004608051fd5b61012081019081106001600160401b0382111761228857604052565b634e487b7160e01b600052604160045260246000fd5b604081019081106001600160401b0382111761228857604052565b61010081019081106001600160401b0382111761228857604052565b60a081019081106001600160401b0382111761228857604052565b608081019081106001600160401b0382111761228857604052565b90601f801991011681019081106001600160401b0382111761228857604052565b6001600160401b0381116122885760051b60200190565b9291926001600160401b038211612288576040519161236c601f8201601f19166020018461230b565b82948184528183011161152b578281602093846000960137010152565b81601f8201121561152b578035906123a08261232c565b926123ae604051948561230b565b82845260208085019360051b8301019181831161152b5760208101935b8385106123da57505050505090565b84356001600160401b03811161152b57820183603f8201121561152b5760208101356124058161232c565b91612413604051938461230b565b8183526020808085019360051b830101019086821161152b5760408101925b82841061244c5750505090825250602094850194016123cb565b83356001600160401b03811161152b57602090830101906040601f19838b03011261152b576040519161247e8361229e565b6020810135600481101561152b57835260408101356001600160401b03811161152b5760209101019089601f8301121561152b576020926124c58b84868096359101612343565b83820152815201930192612432565b604090600319011261152b576004359060243590565b80548210156125065760005260206000209060021b0190600090565b634e487b7160e01b600052603260045260246000fd5b9080601f8301121561152b5781356125338161232c565b92612541604051948561230b565b81845260208085019260051b82010192831161152b57602001905b8282106125695750505090565b813581526020918201910161255c565b9181601f8401121561152b578235916001600160401b03831161152b576020838186019501011161152b57565b919082519283825260005b8481106125d2575050826000602080949584010152601f8019910116010190565b806020809284010151828286010152016125b1565b600211156125f157565b634e487b7160e01b600052602160045260246000fd5b9060048210156125f15752565b9080602083519182815201916020808360051b8301019401926000915b83831061264057505050505090565b9091929394601f19828203018352855190815180825260208201906020808260051b85010194019260005b82811061268c57505050505060208060019297019301930191939290612631565b90919293946020806126c2600193601f198782030189526040838b516126b3848251612607565b015191818582015201906125a6565b970195019392910161266b565b91906126e6835161010083526101008301906125a6565b9060208401516126f5816125e7565b6020820152604084015115156040820152606084015160608201526080840151608082015260a084015160a082015260c08401519181810360c08301526020808451928381520193019060005b8181106127665750505060e0612763939401519060e0818403910152612614565b90565b909193602080600192875161277a816125e7565b8152019501929101612742565b8054808352600091825260208083209301925b81601f840110612c99575491818110612c7c575b818110612c5c575b818110612c3c575b818110612c1c575b818110612bfd575b818110612bdd575b818110612bbd575b818110612b9d575b818110612b7d575b818110612b5d575b818110612b3d575b818110612b1d575b818110612afd575b818110612add575b818110612abd575b818110612a9d575b818110612a7d575b818110612a5d575b818110612a3d575b818110612a1d575b8181106129fd575b8181106129dd575b8181106129bd575b81811061299d575b81811061297d575b81811061295d575b81811061293d575b81811061291d575b8181106128fd575b8181106128dd575b8181106128bd575b106128a7575090565b9060209160f81c6128b7816125e7565b81520190565b92602060019160ff8560f01c166128d3816125e7565b815201930161289e565b92602060019160ff8560e81c166128f3816125e7565b8152019301612896565b92602060019160ff8560e01c16612913816125e7565b815201930161288e565b92602060019160ff8560d81c16612933816125e7565b8152019301612886565b92602060019160ff8560d01c16612953816125e7565b815201930161287e565b92602060019160ff8560c81c16612973816125e7565b8152019301612876565b92602060019160ff8560c01c16612993816125e7565b815201930161286e565b92602060019160ff8560b81c166129b3816125e7565b8152019301612866565b92602060019160ff8560b01c166129d3816125e7565b815201930161285e565b92602060019160ff8560a81c166129f3816125e7565b8152019301612856565b92602060019160ff8560a01c16612a13816125e7565b815201930161284e565b92602060019160ff8560981c16612a33816125e7565b8152019301612846565b92602060019160ff8560901c16612a53816125e7565b815201930161283e565b92602060019160ff8560881c16612a73816125e7565b8152019301612836565b92602060019160ff8560801c16612a93816125e7565b815201930161282e565b92602060019160ff8560781c16612ab3816125e7565b8152019301612826565b92602060019160ff8560701c16612ad3816125e7565b815201930161281e565b92602060019160ff8560681c16612af3816125e7565b8152019301612816565b92602060019160ff8560601c16612b13816125e7565b815201930161280e565b92602060019160ff8560581c16612b33816125e7565b8152019301612806565b92602060019160ff8560501c16612b53816125e7565b81520193016127fe565b92602060019160ff8560481c16612b73816125e7565b81520193016127f6565b92602060019160ff8560401c16612b93816125e7565b81520193016127ee565b92602060019160ff8560381c16612bb3816125e7565b81520193016127e6565b92602060019160ff8560301c16612bd3816125e7565b81520193016127de565b92602060019160ff8560281c16612bf3816125e7565b81520193016127d6565b92602060019160ff85831c16612c12816125e7565b81520193016127ce565b92602060019160ff8560181c16612c32816125e7565b81520193016127c6565b92602060019160ff8560101c16612c52816125e7565b81520193016127be565b92602060019160ff8560081c16612c72816125e7565b81520193016127b6565b92602060019160ff8516612c8f816125e7565b81520193016127ae565b926001610400602092865460ff8116612cb1816125e7565b825260ff8160081c16612cc3816125e7565b8583015260ff8160101c16612cd7816125e7565b604083015260ff8160181c16612cec816125e7565b606083015260ff81861c16612d00816125e7565b608083015260ff8160281c16612d15816125e7565b60a083015260ff8160301c16612d2a816125e7565b60c083015260ff8160381c16612d3f816125e7565b60e083015260ff8160401c16612d54816125e7565b61010083015260ff8160481c16612d6a816125e7565b61012083015260ff8160501c16612d80816125e7565b61014083015260ff8160581c16612d96816125e7565b61016083015260ff8160601c16612dac816125e7565b61018083015260ff8160681c16612dc2816125e7565b6101a083015260ff8160701c16612dd8816125e7565b6101c083015260ff8160781c16612dee816125e7565b6101e083015260ff8160801c16612e04816125e7565b61020083015260ff8160881c16612e1a816125e7565b61022083015260ff8160901c16612e30816125e7565b61024083015260ff8160981c16612e46816125e7565b61026083015260ff8160a01c16612e5c816125e7565b61028083015260ff8160a81c16612e72816125e7565b6102a083015260ff8160b01c16612e88816125e7565b6102c083015260ff8160b81c16612e9e816125e7565b6102e083015260ff8160c01c16612eb4816125e7565b61030083015260ff8160c81c16612eca816125e7565b61032083015260ff8160d01c16612ee0816125e7565b61034083015260ff8160d81c16612ef6816125e7565b61036083015260ff8160e01c16612f0c816125e7565b61038083015260ff8160e81c16612f22816125e7565b6103a083015260ff8160f01c16612f38816125e7565b6103c083015260f81c612f4a816125e7565b6103e082015201940192019161279a565b90600182811c92168015612f8b575b6020831014612f7557565b634e487b7160e01b600052602260045260246000fd5b91607f1691612f6a565b818110612fa0575050565b60008155600101612f95565b8054906000815581612fbc575050565b6001600160ff1b0382168203611a33576000908152602081209160011b8201915b828110612fe957505050565b8082600292558260018201612ffe8154612f5b565b8061300d575b50505001612fdd565b601f81116001146130235750555b823880613004565b8183526020832061303f91601f0160051c810190600101612f95565b808252816020812091555561301b565b600160401b82116122885780549082815581831061306c57505050565b6001600160ff1b0382168203611a33576001600160ff1b0383168303611a335760005260206000209060011b81019160011b015b8181106130ab575050565b80600060029255600181016130c08154612f5b565b90816130cf575b5050016130a0565b81601f600093116001146130e75750555b38806130c7565b8183526020832061310391601f0160051c810190600101612f95565b80825281602081209155556130e0565b9190601f811161312257505050565b61314e926000526020600020906020601f840160051c83019310613150575b601f0160051c0190612f95565b565b9091508190613141565b6000198114611a335760010190565b91908203918211611a3357565b60405190613183826122d5565b60006080838281528260208201528260408201528260608201520152565b906040516131ae816122d5565b608060ff6003839580548552600181015460208601526002810154604086015201548181161515606085015260081c161515910152565b600092918154916131f583612f5b565b808352926001811690811561324b575060011461321157505050565b60009081526020812093945091925b838310613231575060209250010190565b600181602092949394548385870101520191019190613220565b915050602093945060ff929192191683830152151560051b010190565b906020808351928381520192019060005b8181106132865750505090565b8251845260209384019390920191600101613279565b9193929060608301606084528154809152608084019060808160051b860101926000526020600020916000905b8282106132f85750505050806127639495846132ea93036020860152612787565b916040818403910152613268565b90919293607f198782030182528454908181526020810160208360051b830101928760005260206000209260005b8281106133465750505050506020600180929601920192019092916132c9565b90919293946020600261337c6040600194601f19888203018a5261336e8160ff8d5416612607565b818582015201848a016131e5565b9701950193929101613326565b8051156125065760200190565b8051600110156125065760400190565b80518210156125065760209160051b010190565b604051906133c7826122b9565b606060e083828152600060208201526000604082015260008382015260006080820152600060a08201528260c08201520152565b908154916134088361232c565b92613416604051948561230b565b80845260208401916000526020600020916000905b8282106134385750505050565b83546134438161232c565b90613451604051928361230b565b80825260208201908660005260206000206000925b8284106134875750505050602082600193928493520194019101909261342b565b6040516134938161229e565b60ff83541660048110156125f15760019282602092600294526040516134c6816134bf81898b016131e5565b038261230b565b83820152815201920193019290613466565b906040516134e5816122b9565b80926040516134f8816134bf81856131e5565b825260ff600182015481811661350d816125e7565b602085015260081c16151560408301526002810154606083015260038101546080830152600481015460a0830152600581016040519081602082549182815201916000526020600020906000915b81601f840110613a82578460069460e09794613689979461367e945491818110613a65575b818110613a45575b818110613a25575b818110613a05575b8181106139e6575b8181106139c6575b8181106139a6575b818110613986575b818110613966575b818110613946575b818110613926575b818110613906575b8181106138e6575b8181106138c6575b8181106138a6575b818110613886575b818110613866575b818110613846575b818110613826575b818110613806575b8181106137e6575b8181106137c6575b8181106137a6575b818110613786575b818110613766575b818110613746575b818110613726575b818110613706575b8181106136e7575b8181106136c7575b8181106136a7575b1061368e575b50038261230b565b60c0860152016133fb565b910152565b9060209160f81c61369e816125e7565b81520138613676565b92602060019160ff8560f01c166136bd816125e7565b8152019301613670565b92602060019160ff8560e81c166136dd816125e7565b8152019301613668565b92602060019160ff858e1c166136fc816125e7565b8152019301613660565b92602060019160ff8560d81c1661371c816125e7565b8152019301613658565b92602060019160ff8560d01c1661373c816125e7565b8152019301613650565b92602060019160ff8560c81c1661375c816125e7565b8152019301613648565b92602060019160ff8560c01c1661377c816125e7565b8152019301613640565b92602060019160ff8560b81c1661379c816125e7565b8152019301613638565b92602060019160ff8560b01c166137bc816125e7565b8152019301613630565b92602060019160ff8560a81c166137dc816125e7565b8152019301613628565b92602060019160ff8560a01c166137fc816125e7565b8152019301613620565b92602060019160ff8560981c1661381c816125e7565b8152019301613618565b92602060019160ff8560901c1661383c816125e7565b8152019301613610565b92602060019160ff8560881c1661385c816125e7565b8152019301613608565b92602060019160ff8560801c1661387c816125e7565b8152019301613600565b92602060019160ff8560781c1661389c816125e7565b81520193016135f8565b92602060019160ff8560701c166138bc816125e7565b81520193016135f0565b92602060019160ff8560681c166138dc816125e7565b81520193016135e8565b92602060019160ff8560601c166138fc816125e7565b81520193016135e0565b92602060019160ff8560581c1661391c816125e7565b81520193016135d8565b92602060019160ff8560501c1661393c816125e7565b81520193016135d0565b92602060019160ff8560481c1661395c816125e7565b81520193016135c8565b92602060019160ff8560401c1661397c816125e7565b81520193016135c0565b92602060019160ff8560381c1661399c816125e7565b81520193016135b8565b92602060019160ff8560301c166139bc816125e7565b81520193016135b0565b92602060019160ff8560281c166139dc816125e7565b81520193016135a8565b92602060019160ff85831c166139fb816125e7565b81520193016135a0565b92602060019160ff8560181c16613a1b816125e7565b8152019301613598565b92602060019160ff8560101c16613a3b816125e7565b8152019301613590565b92602060019160ff8560081c16613a5b816125e7565b8152019301613588565b92602060019160ff8516613a78816125e7565b8152019301613580565b926001610400602092865460ff8116613a9a816125e7565b825260ff8160081c16613aac816125e7565b8583015260ff8160101c16613ac0816125e7565b604083015260ff8160181c16613ad5816125e7565b606083015260ff81861c16613ae9816125e7565b608083015260ff8160281c16613afe816125e7565b60a083015260ff8160301c16613b13816125e7565b60c083015260ff8160381c16613b28816125e7565b60e083015260ff8160401c16613b3d816125e7565b61010083015260ff8160481c16613b53816125e7565b61012083015260ff8160501c16613b69816125e7565b61014083015260ff8160581c16613b7f816125e7565b61016083015260ff8160601c16613b95816125e7565b61018083015260ff8160681c16613bab816125e7565b6101a083015260ff8160701c16613bc1816125e7565b6101c083015260ff8160781c16613bd7816125e7565b6101e083015260ff8160801c16613bed816125e7565b61020083015260ff8160881c16613c03816125e7565b61022083015260ff8160901c16613c19816125e7565b61024083015260ff8160981c16613c2f816125e7565b61026083015260ff8160a01c16613c45816125e7565b61028083015260ff8160a81c16613c5b816125e7565b6102a083015260ff8160b01c16613c71816125e7565b6102c083015260ff8160b81c16613c87816125e7565b6102e083015260ff8160c01c16613c9d816125e7565b61030083015260ff8160c81c16613cb3816125e7565b61032083015260ff8160d01c16613cc9816125e7565b61034083015260ff8160d81c16613cdf816125e7565b61036083015260ff8160e01c16613cf5816125e7565b61038083015260ff8160e81c16613d0b816125e7565b6103a083015260ff8160f01c16613d21816125e7565b6103c083015260f81c613d33816125e7565b6103e082015201940192019161355b565b600a54600090821015613ff257818152600b602052600360408220015460648101809111613fde574210613fcf57818152600c60205260ff600360408320015416613fc057818152600c6020526040812054828252600b602052600460408320015411613f3f576040908151613dba838261230b565b60018152601f198301366020830137838252600c60205260018383200154613de182613389565b526064420190814211613f2b57600080516020614d25833981519152546001600160a01b0316803b15613f2757838551809263155f840160e21b825260206004830152818381613e346024820189613268565b03925af18015613f1d57613f04575b50600080516020614d45833981519152548451634c0d927760e01b815260a060048201529260209284926001600160a01b031691839187918391613e8b9060a4840190613268565b906301bc5e6160e41b6024840152836044840152606483015282608483015203925af1908115613efa578291613ec8575b50815260116020522055565b90506020813d602011613ef2575b81613ee36020938361230b565b8101031261152b575138613ebc565b3d9150613ed6565b83513d84823e3d90fd5b83613f1560209395613e8b9361230b565b939150613e43565b85513d86823e3d90fd5b8380fd5b634e487b7160e01b83526011600452602483fd5b608081837fc3775fddf030d25d6e94614562d503ba2328165591eed3133412a193f0b5cd069352600c60205260036040822001600160ff19825416179055838152600b60205260ff60016040832001541690848152600c602052604081205460405192828452613fae816125e7565b602084015260408301526060820152a2565b63d96068dd60e01b8152600490fd5b634164a28160e01b8152600490fd5b634e487b7160e01b82526011600452602482fd5b63242a36cd60e11b8152600490fd5b9094959395600a548210156147e65781600052600b6020526003604060002001544210156147d5576000828152600e6020908152604080832033845290915290205460ff166147c45781600052600b6020526005604060002001548351036147b35781600052600b60205260ff60016040600020015460081c166146ec575b5080600052600b6020526005604060002001549361409d8561232c565b946140ab604051968761230b565b8086526140ba601f199161232c565b0136602087013760005b82600052600b6020526005604060002001548110156142cf5782600052600b602052600560406000200180548210156125065760005260ff60206000208260051c015460f88360031b161c16614119816125e7565b8061428a575061412981856133a6565b5190614187602061413b368c8a612343565b60009460018060a01b03600080516020614d65833981519152541690866040518096819582946302e817ff60e41b845260048401523360248401526080604484015260848301906125a6565b82606483015203925af192831561427e578093614248575b5050600080516020614d25833981519152546001600160a01b031691823b1561152b576040516346ce4e4960e11b815260048101829052336024820152926000908490604490829084905af190811561423c576001936142259261422b575b508061420a848b6133a6565b526142153082614ba0565b838060a01b036013541690614ba0565b016140c4565b60006142369161230b565b386141fe565b6040513d6000823e3d90fd5b909192506020823d8211614276575b816142646020938361230b565b8101031261113757505190388061419f565b3d9150614257565b604051903d90823e3d90fd5b9060018092614298816125e7565b03614225576142ca6142bf6142ad83886133a6565b516142b9368d8b612343565b90614c22565b8061420a848b6133a6565b614225565b50956142b991959250926142e4933691612343565b6142ee3082614ba0565b82600052600d602052604060002060405191614309836122f0565b3383526020830190815260408301908482526060840192600084528054600160401b81101561228857614341916001820181556124ea565b9490946146d6575184546001600160a01b0319166001600160a01b03919091161784555160018401555180519060028401906001600160401b03831161228857600160401b83116122885760209082548484558085106146b9575b500190600052602060002060005b8381106146a557505050509060036143d29251151591019060ff801983541691151516179055565b81600052600e602052604060002060018060a01b0333166000526020526040600020600160ff19825416179055817f03b562e13524df9ad0948873c24d44336296e8aaef105cb0e60f18d40378ef576020604051338152a26000828152600b602052604090206006015415614680576013546000838152600b602090815260408083209051638a6e8b3960e01b815294919385936001600160a01b03909116928492839161448b9160058101906006016004850161329c565b03925af190811561423c5760009161464e575b5060408051916144ae828461230b565b60018352601f1982013660208501376144c683613389565b5260644201804211611a3357600080516020614d2583398151915254600093906001600160a01b0316803b1561464a57848451809263155f840160e21b82526020600483015281838161451c6024820189613268565b03925af1801561464057916145739186602094614630575b505060018060a01b03600080516020614d45833981519152541690868651809681958294634c0d927760e01b845260a0600485015260a4840190613268565b9063bc37edb760e01b6024840152836044840152606483015282608483015203925af19283156146255780936145ee575b505082600052600d6020528060002054906000198201918211611a33576001928151946145d08661229e565b85526020850192835260005260126020526000209251835551910155565b909192506020823d60201161461d575b8161460b6020938361230b565b810103126111375750519038806145a4565b3d91506145fe565b8251903d90823e3d90fd5b6146399161230b565b3886614534565b84513d87823e3d90fd5b8480fd5b90506020813d602011614678575b816146696020938361230b565b8101031261152b57513861449e565b3d915061465c565b5080600052600d6020526040600020546000198101908111611a335761314e916149a8565b6001906020845194019381840155016143aa565b6146d0908460005285846000209182019101612f95565b3861439c565b634e487b7160e01b600052600060045260246000fd5b959260409592959491945160208101903382526020815261470e60408261230b565b519020604051602081019182526020815261472a60408261230b565b5190209585600052600b60205260026040600020015496956000965b895188101561478d57614759888b6133a6565b519060008282101561477c5750600052602052600160406000205b970196614746565b604091600193825260205220614774565b91949792959850929550036147a25738614080565b63582f497d60e11b60005260046000fd5b6352ebbd8f60e11b60005260046000fd5b6338ec521360e01b60005260046000fd5b63291b3d4d60e21b60005260046000fd5b63242a36cd60e11b60005260046000fd5b90811561489d575b801561488b575b602090606460018060a01b03600080516020614d658339815191525416936000604051958694859363f953e42760e01b8552600485015260248401528160448401525af190811561423c5760009161485c575090565b90506020813d602011614883575b816148776020938361230b565b8101031261152b575190565b3d915061486a565b506020614896614a95565b9050614806565b90506148a7614a95565b906147ff565b600080516020614d258339815191525460009291906001600160a01b0316803b15613f275783604051809263155f840160e21b8252602060048301528183816148f96024820189613268565b03925af1801561499d57614984575b50600080516020614d4583398151915254604051634c0d927760e01b815260a060048201529260209284926001600160a01b0316918391879183916149519060a4840190613268565b906352da714560e11b6024840152836044840152606483015282608483015203925af191821561427e579161485c575090565b83614995602093956149519361230b565b939150614908565b6040513d86823e3d90fd5b90614a5c9082600052600c6020526149e460016040600020015484600052600d60205260016149db8460406000206124ea565b500154906147f7565b6000848152600c6020526040902060018101919091558054614a059061315a565b905582600052600c602052614a236001604060002001543090614ba0565b82600052600d6020526003614a3c8260406000206124ea565b5001600160ff1982541617905582600052600d60205260406000206124ea565b5060018060a01b03905416907f1ea66d04930e46a4f83ad34eb0ecf7438043bbfd37a662a38b044d28eed38a3f602060405160018152a3565b600080516020614d6583398151915254604051631ce2e8d760e31b8152600060048201819052600160fb1b60248301529091602091839160449183916001600160a01b03165af190811561423c5760009161485c575090565b600080516020614d6583398151915254604051631ce2e8d760e31b815260016004820152600160fb1b602482015290602090829060449082906000906001600160a01b03165af190811561423c5760009161485c575090565b600080516020614d6583398151915254604051631ce2e8d760e31b81526004810192909252600160fb1b6024830152602090829060449082906000906001600160a01b03165af190811561423c5760009161485c575090565b600080516020614d2583398151915254600092916001600160a01b0390911690813b15613f2757604051631974142760e21b815260048101919091526001600160a01b03909216602483015282908290818381604481015b03925af18015614c1757614c0a575050565b81614c149161230b565b50565b6040513d84823e3d90fd5b6020614c6c9392600080516020614d6583398151915254600093846040518098819582946302e817ff60e41b845260048401523360248401526080604484015260848301906125a6565b600160fb1b606483015203926001600160a01b03165af1928315614d17578193614ce3575b50600080516020614d25833981519152546001600160a01b031683813b15614cdf576040516346ce4e4960e11b81526004810191909152336024820152908290829081838160448101614bf8565b8280fd5b9092506020813d602011614d0f575b81614cff6020938361230b565b81010312614cdf57519138614c91565b3d9150614cf2565b50604051903d90823e3d90fdfeed8d60e34876f751cc8b014c560745351147d9de11b9347c854e881b128ea60093ab6e17f2c461cce6ea5d4ec117e51dda77a64affc2b2c05f8cd440def0e700ed8d60e34876f751cc8b014c560745351147d9de11b9347c854e881b128ea601a2646970667358221220cdfdb2fd34c60f3ebca8a574fceb540fa3a757ebcb4373ffabd8b607d1d22a3d64736f6c634300081c003360806040523461029b57600060606100156102a0565b8281528260208201528260408201520152739d6891a6240d6130c54ae243d8005063d05fe14b60606100456102a0565b73fee8407e2f5e3ee68ad77cae98c434e637f516e580825273687408ab54661ba0b4aef3a44156c616c6955e07602080840182905273fb03be574d14c256d56f09a198b586bdfc0a9de2604080860182905295909401959095527fed8d60e34876f751cc8b014c560745351147d9de11b9347c854e881b128ea60080546001600160a01b031990811690931790557fed8d60e34876f751cc8b014c560745351147d9de11b9347c854e881b128ea6018054831690911790557fed8d60e34876f751cc8b014c560745351147d9de11b9347c854e881b128ea602805482169092179091557fed8d60e34876f751cc8b014c560745351147d9de11b9347c854e881b128ea6038054909116739d6891a6240d6130c54ae243d8005063d05fe14b1790557f871b3b0713ea5d7fd1f75a811c349209996193f3a2535cdfd79d35416bf80123805460ff1990811660019081179092557fe3be84349242383ed4b31bbb7ede08a8080ac9d5e828342f449d34bf731539e980548216831790557fb37150ceb7e138645bfe4dfcef9a75073e1d7aa14c524dfdd20d3f751fad108480548216831790557f9b7d9d4d38e09e01f2082dbdeee850cc1f3aa1605ae9a63dcd694a7373b5e76f80548216831790557f09f922a082099d8bb3cef76f214b97d4ea18be3ab11deb731e4676110a885b48805482168317905560036000527fad3228b676f7d3cd4284a5443f17f1962b36e491b30a40b2405849e597ba5fb59093527f1064944154d106e1ec360ae74854831967df4793aa1a690999745d5669fc5d0580549093161790915551610d9290816102d68239f35b600080fd5b60405190608082016001600160401b038111838210176102bf57604052565b634e487b7160e01b600052604160045260246000fdfe6080604052600436101561001257600080fd5b6000803560e01c806309b0ea9e146105145780638a6e8b391461009157638e1fb2e11461003e57600080fd5b3461008a57604036600319011261008a57600435600281101561008d5760243591600483101561008a57602060ff61007e85610079866106d0565b6106ff565b54166040519015158152f35b80fd5b5080fd5b503461008a57606036600319011261008a576004356001600160401b03811161008d573660238201121561008d5780600401356100cd816106b9565b916100db6040519384610682565b8183526024602084019260051b820101903682116105105760248101925b8284106103ab5785856024356001600160401b0381116103a757366023820112156103a757806004013561012c816106b9565b9161013a6040519384610682565b8183526024602084019260051b820101903682116103a357602401915b81831061038a57505050604435906001600160401b03821161038657366023830112156103865781600401359161018d836106b9565b9261019b6040519485610682565b8084526024602085019160051b830101913683116102b057602401905b828210610376575050506101ca610c8d565b91845b84518110156102e55785935b6101e38287610771565b51518510156102db57610200856101fa8489610771565b51610771565b5161020b8386610771565b5160028110156102c75760209161022d916102268688610771565b5191610822565b606460018060a01b03600080516020610d3d8339815191525416938a6040519586948593630ccd46b160e31b8552600485015260248401528160448401525af180156102bc578790610286575b600191509401936101d9565b506020813d82116102b4575b8161029f60209383610682565b810103126102b0576001905161027a565b8680fd5b3d9150610292565b6040513d89823e3d90fd5b634e487b7160e01b89526021600452602489fd5b93506001016101cd565b7fed8d60e34876f751cc8b014c560745351147d9de11b9347c854e881b128ea600548690859082906001600160a01b0316803b1561008d578190604460405180968193631974142760e21b83528760048401523360248401525af192831561036957602093610359575b5050604051908152f35b8161036391610682565b8361034f565b50604051903d90823e3d90fd5b81358152602091820191016101b8565b8380fd5b823560028110156102b057815260209283019201610157565b8580fd5b8280fd5b83356001600160401b0381116102b0578201366043820112156102b05760248101356103d6816106b9565b916103e46040519384610682565b818352602060248185019360051b830101019036821161050c5760448101925b82841061041e5750505090825250602093840193016100f9565b83356001600160401b038111610508576024908301016040601f1982360301126105085760405190604082018281106001600160401b038211176104ec576040526020810135600481101561050457825260408101356001600160401b0381116105045760209101019136601f84011215610500578235916001600160401b0383116104ec576040518e6104bc601f8601601f191660200183610682565b848252366020868801011161008a5760208581979682809801838601378301015283820152815201930192610404565b634e487b7160e01b8e52604160045260248efd5b8c80fd5b8d80fd5b8b80fd5b8980fd5b8480fd5b503461008a57604036600319011261008a576004356001600160401b03811161008d5761054590369060040161064d565b6024929192356001600160401b0381116103a757836105698492369060040161064d565b83929192915b85831015958661064957855b610586858588610717565b905081101561063b5787610627578460051b8301356002811015610623576105ad906106d0565b6105b8868689610717565b83101561060f578260051b81013590603e198136030182121561050c57013590600482101561060b5760ff916105ed916106ff565b5416156105fc5760010161057b565b6374abd56560e11b8752600487fd5b8880fd5b634e487b7160e01b89526032600452602489fd5b8780fd5b634e487b7160e01b87526032600452602487fd5b50955060019092019161056f565b8580f35b9181601f8401121561067d578235916001600160401b03831161067d576020808501948460051b01011161067d57565b600080fd5b90601f801991011681019081106001600160401b038211176106a357604052565b634e487b7160e01b600052604160045260246000fd5b6001600160401b0381116106a35760051b60200190565b60028110156106e9576000526000602052604060002090565b634e487b7160e01b600052602160045260246000fd5b9060048110156106e957600052602052604060002090565b919081101561075b5760051b81013590601e198136030182121561067d5701908135916001600160401b03831161067d576020018260051b3603811361067d579190565b634e487b7160e01b600052603260045260246000fd5b805182101561075b5760209160051b010190565b1561079557610792610c8d565b90565b600080602060018060a01b03600080516020610d3d8339815191525416604460405180948193631ce2e8d760e31b83528160048401528160248401525af19182156108165780926107e557505090565b9091506020823d60201161080e575b8161080160209383610682565b8101031261008a57505190565b3d91506107f4565b604051903d90823e3d90fd5b919060028110156106e957806109845750815160009260048210156109705760200151602081805181010312610386576020015180151581036103865761086890610785565b906002810361090557506020919250606460018060a01b03600080516020610d3d83398151915254169360006040519586948593630ccd46b160e31b8552600485015260248401528160448401525af19081156108f9576000916108ca575090565b90506020813d6020116108f1575b816108e560209383610682565b8101031261067d575190565b3d91506108d8565b6040513d6000823e3d90fd5b60030361096157602090606460018060a01b03600080516020610d3d833981519152541693856040519586948593632c7d67b760e01b8552600485015260248401528160448401525af19182156108165780926107e557505090565b637a65611760e11b8352600483fd5b634e487b7160e01b84526021600452602484fd5b60009290600103610c7e5780519060048210156109705760200151602081519181808201938492010103126103865751600080516020610d3d83398151915254604051631ce2e8d760e31b81526004810192909252600160fb1b60248301529091906020908390604490829088906001600160a01b03165af1918215610c73578492610c3f575b5080610a975750808215610a87575b15610a75575b602090606460018060a01b03600080516020610d3d833981519152541693856040519586948593631f31e28560e11b8552600485015260248401528160448401525af19182156108165780926107e557505090565b506020610a80610ce3565b9050610a20565b9150610a91610ce3565b91610a1a565b60018103610b255750808215610b15575b15610b03575b602090606460018060a01b03600080516020610d3d833981519152541693856040519586948593639675211f60e01b8552600485015260248401528160448401525af19182156108165780926107e557505090565b506020610b0e610ce3565b9050610aae565b9150610b1f610ce3565b91610aa8565b60028103610bb35750808215610ba3575b15610b91575b602090606460018060a01b03600080516020610d3d833981519152541693856040519586948593630d7c62eb60e31b8552600485015260248401528160448401525af19182156108165780926107e557505090565b506020610b9c610ce3565b9050610b3c565b9150610bad610ce3565b91610b36565b60030361096157808215610c2f575b15610c1d575b602090606460018060a01b03600080516020610d3d833981519152541693856040519586948593631927108160e01b8552600485015260248401528160448401525af19182156108165780926107e557505090565b506020610c28610ce3565b9050610bc8565b9150610c39610ce3565b91610bc2565b9091506020813d602011610c6b575b81610c5b60209383610682565b8101031261038657519038610a0b565b3d9150610c4e565b6040513d86823e3d90fd5b63dfe27d0b60e01b8352600483fd5b600080516020610d3d83398151915254604051631ce2e8d760e31b8152600160048201526000602482018190529091602091839160449183916001600160a01b03165af19081156108f9576000916108ca575090565b600080516020610d3d83398151915254604051631ce2e8d760e31b8152600060048201819052600160fb1b60248301529091602091839160449183916001600160a01b03165af19081156108f9576000916108ca57509056feed8d60e34876f751cc8b014c560745351147d9de11b9347c854e881b128ea601a2646970667358221220369c1419dfd6e13035242606596f1a66be5dde5df5dccbb4e1827cd1637eca7d64736f6c634300081c0033","linkReferences":{}},"methodIdentifiers":{"createQuery(uint256,(uint8,bytes)[][])":"00653e90","createSurvey((string,uint8,bool,bytes32,uint256,uint256,uint8[],(uint8,bytes)[][]))":"dfa69f92","executeQuery(uint256)":"960a4c18","executeQuery(uint256,uint256)":"5600d9ab","gatewayConfirmUserEntry(uint256,bool)":"bc37edb7","gatewayDecryptQueryResult(uint256,uint256,uint256)":"a5b4e28a","gatewayDecryptSurveyResult(uint256,uint256)":"1bc5e610","getQueryData(uint256)":"c2485ebd","hasVoted(uint256,address)":"43859632","lastSurveyId()":"b2f57d7c","queryData(uint256)":"4279ef3b","revealResults(uint256)":"b8f6255a","submitEntry(uint256,bytes32,bytes32[],bytes)":"33ce9e29","submitWhitelistedEntry(uint256,bytes32,bytes32[],bytes,bytes32[])":"21acc8ea","surveyData(uint256)":"00bcd6d5","surveyDetails(uint256)":"a7fcbbd4","surveyParams(uint256)":"d7b8f1cb","voteData(uint256,uint256)":"1229052c"},"id":1}