{"abi":[{"type":"constructor","inputs":[],"stateMutability":"nonpayable"},{"type":"function","name":"applyFilterOnMetadata","inputs":[{"name":"filters","type":"tuple[][]","internalType":"struct Filter[][]","components":[{"name":"verifier","type":"uint8","internalType":"enum FilterOperator"},{"name":"value","type":"bytes","internalType":"bytes"}]},{"name":"metadataTypes","type":"uint8[]","internalType":"enum MetadataType[]"},{"name":"userMetadata","type":"uint256[]","internalType":"uint256[]"}],"outputs":[{"name":"","type":"uint256","internalType":"ebool"}],"stateMutability":"nonpayable"},{"type":"function","name":"isOperationAllowed","inputs":[{"name":"","type":"uint8","internalType":"enum MetadataType"},{"name":"","type":"uint8","internalType":"enum FilterOperator"}],"outputs":[{"name":"","type":"bool","internalType":"bool"}],"stateMutability":"view"},{"type":"function","name":"validateFilter","inputs":[{"name":"metadataType","type":"uint8[]","internalType":"enum MetadataType[]"},{"name":"filter","type":"tuple[][]","internalType":"struct Filter[][]","components":[{"name":"verifier","type":"uint8","internalType":"enum FilterOperator"},{"name":"value","type":"bytes","internalType":"bytes"}]}],"outputs":[],"stateMutability":"view"},{"type":"error","name":"InvalidFilterParameter","inputs":[]},{"type":"error","name":"UnmanagedOperator","inputs":[]},{"type":"error","name":"UnmanagedType","inputs":[]}],"bytecode":{"object":"0x608060405234610140577f871b3b0713ea5d7fd1f75a811c349209996193f3a2535cdfd79d35416bf801238054600160ff1991821681179092557fe3be84349242383ed4b31bbb7ede08a8080ac9d5e828342f449d34bf731539e980548216831790557fb37150ceb7e138645bfe4dfcef9a75073e1d7aa14c524dfdd20d3f751fad108480548216831790557f9b7d9d4d38e09e01f2082dbdeee850cc1f3aa1605ae9a63dcd694a7373b5e76f80548216831790557f09f922a082099d8bb3cef76f214b97d4ea18be3ab11deb731e4676110a885b48805482168317905560036000527fad3228b676f7d3cd4284a5443f17f1962b36e491b30a40b2405849e597ba5fb56020527f1064944154d106e1ec360ae74854831967df4793aa1a690999745d5669fc5d0580549091169091179055604051610a6090816101468239f35b600080fdfe6080604052600436101561001257600080fd5b60003560e01c806309b0ea9e146104fb5780638a6e8b391461008d57638e1fb2e11461003d57600080fd5b346100885760403660031901126100885760043560028110156100885760243560048110156100885761007c60ff9161007760209461067e565b610697565b54166040519015158152f35b600080fd5b34610088576060366003190112610088576004356001600160401b03811161008857366023820112156100885780600401356100c881610667565b916100d66040519384610646565b8183526024602084019260051b820101903682116100885760248101925b8284106103a357602435856001600160401b038211610088573660238301121561008857816004013561012681610667565b926101346040519485610646565b8184526024602085019260051b8201019036821161008857602401915b81831061038a575050506044356001600160401b03811161008857366023820112156100885780600401359061018682610667565b916101946040519384610646565b8083526024602084019160051b8301019136831161008857602401905b82821061037a57505050600080602060018060a01b03600080516020610a0b8339815191525416604460405180948193631ce2e8d760e31b8352600160048401528160248401525af191821561036e578092610339575b5050926000905b835182101561032e576000945b61022683866106f3565b5151861015610322576102438661023d85886106f3565b516106f3565b5161024e84846106f3565b51600281101561030c576020916102709161026987896106f3565b5191610707565b606460018060a01b03600080516020610a0b83398151915254169360006040519586948593630ccd46b160e31b8552600485015260248401528160448401525af18015610300576000906102cb575b6001915095019461021c565b6020823d82116102f8575b816102e360209383610646565b810103126102f55750600190516102bf565b80fd5b3d91506102d6565b6040513d6000823e3d90fd5b634e487b7160e01b600052602160045260246000fd5b9450906001019061020f565b602085604051908152f35b9091506020823d602011610366575b8161035560209383610646565b810103126102f55750518480610208565b3d9150610348565b604051903d90823e3d90fd5b81358152602091820191016101b1565b8235600281101561008857815260209283019201610151565b83356001600160401b038111610088578201366043820112156100885760248101356103ce81610667565b916103dc6040519384610646565b818352602060248185019360051b83010101903682116100885760448101925b8284106104165750505090825250602093840193016100f4565b83356001600160401b03811161008857602490830101906040601f1983360301126100885760405191604083018381106001600160401b038211176104e5576040526020810135600481101561008857835260408101356001600160401b0381116100885760209101019036601f83011215610088578135926001600160401b0384116104e5576040516104b4601f8601601f191660200182610646565b84815236602086860101116100885760006020868197828098018386013783010152838201528152019301926103fc565b634e487b7160e01b600052604160045260246000fd5b34610088576040366003190112610088576004356001600160401b0381116100885761052b903690600401610616565b6024356001600160401b0381116100885761054b83913690600401610616565b90916000905b8482101594856106145760005b6105698486886106af565b905081101561060657866105f0578360051b8301356002811015610088576105909061067e565b61059b8587896106af565b8310156105f0578260051b81013590603e19813603018212156100885701359060048210156100885760ff916105d091610697565b5416156105df5760010161055e565b6374abd56560e11b60005260046000fd5b634e487b7160e01b600052603260045260246000fd5b509450600190910190610551565b005b9181601f84011215610088578235916001600160401b038311610088576020808501948460051b01011161008857565b90601f801991011681019081106001600160401b038211176104e557604052565b6001600160401b0381116104e55760051b60200190565b600281101561030c576000526000602052604060002090565b90600481101561030c57600052602052604060002090565b91908110156105f05760051b81013590601e19813603018212156100885701908135916001600160401b038311610088576020018260051b36038113610088579190565b80518210156105f05760209160051b010190565b91600282101561030c578161075057505051600481101561030c5760028103610731575b50600090565b6002190161073f573861072b565b637a65611760e11b60005260046000fd5b600092909160010361091a57805160048110156109065780610849575060200151602081519181808201938492010103126108455761078f9051610929565b8115610835575b8015610823575b602090606460018060a01b03600080516020610a0b833981519152541693856040519586948593631f31e28560e11b8552600485015260248401528160448401525af191821561036e5780926107f257505090565b9091506020823d60201161081b575b8161080e60209383610646565b810103126102f557505190565b3d9150610801565b50602061082e6109b1565b905061079d565b905061083f6109b1565b90610796565b8280fd5b6001036108f7576020015160208151918180820193849201010312610845576108729051610929565b81156108e7575b80156108d5575b602090606460018060a01b03600080516020610a0b833981519152541693856040519586948593639675211f60e01b8552600485015260248401528160448401525af191821561036e5780926107f257505090565b5060206108e06109b1565b9050610880565b90506108f16109b1565b90610879565b637a65611760e11b8352600483fd5b634e487b7160e01b84526021600452602484fd5b63dfe27d0b60e01b8352600483fd5b600080516020610a0b83398151915254604051631ce2e8d760e31b81526004810192909252600160fb1b6024830152602090829060449082906000906001600160a01b03165af190811561030057600091610982575090565b90506020813d6020116109a9575b8161099d60209383610646565b81010312610088575190565b3d9150610990565b600080516020610a0b83398151915254604051631ce2e8d760e31b8152600060048201819052600160fb1b60248301529091602091839160449183916001600160a01b03165af19081156103005760009161098257509056feed8d60e34876f751cc8b014c560745351147d9de11b9347c854e881b128ea601a264697066735822122089d36fa58e344d0b426e10ed543b187035c0f07c9ccddb4613d43e414abbd36d64736f6c634300081c0033","linkReferences":{}},"methodIdentifiers":{"applyFilterOnMetadata((uint8,bytes)[][],uint8[],uint256[])":"8a6e8b39","isOperationAllowed(uint8,uint8)":"8e1fb2e1","validateFilter(uint8[],(uint8,bytes)[][])":"09b0ea9e"},"id":2}