{"abi":[{"type":"constructor","inputs":[],"stateMutability":"nonpayable"},{"type":"function","name":"applyFilterOnMetadata","inputs":[{"name":"filters","type":"tuple[][]","internalType":"struct Filter[][]","components":[{"name":"verifier","type":"uint8","internalType":"enum VerifierType"},{"name":"value","type":"bytes","internalType":"bytes"}]},{"name":"userFilter","type":"uint256[]","internalType":"uint256[]"}],"outputs":[{"name":"","type":"uint256","internalType":"ebool"}],"stateMutability":"nonpayable"},{"type":"function","name":"isOperationAllowed","inputs":[{"name":"","type":"uint8","internalType":"enum MetadataType"},{"name":"","type":"uint8","internalType":"enum VerifierType"}],"outputs":[{"name":"","type":"bool","internalType":"bool"}],"stateMutability":"view"},{"type":"function","name":"validateFilter","inputs":[{"name":"metadataType","type":"uint8[]","internalType":"enum MetadataType[]"},{"name":"filter","type":"tuple[][]","internalType":"struct Filter[][]","components":[{"name":"verifier","type":"uint8","internalType":"enum VerifierType"},{"name":"value","type":"bytes","internalType":"bytes"}]}],"outputs":[],"stateMutability":"view"}],"bytecode":{"object":"0x60806040523460ed577f871b3b0713ea5d7fd1f75a811c349209996193f3a2535cdfd79d35416bf801238054600160ff1991821681179092557fe3be84349242383ed4b31bbb7ede08a8080ac9d5e828342f449d34bf731539e980548216831790557fb37150ceb7e138645bfe4dfcef9a75073e1d7aa14c524dfdd20d3f751fad1084805482168317905560026000527fad3228b676f7d3cd4284a5443f17f1962b36e491b30a40b2405849e597ba5fb56020527f09f922a082099d8bb3cef76f214b97d4ea18be3ab11deb731e4676110a885b48805490911690911790556040516108f490816100f38239f35b600080fdfe6080604052600436101561001257600080fd5b60003560e01c806309b0ea9e146105e55780638e1fb2e11461059a5763a8eac0b11461003d57600080fd5b3461043d57604036600319011261043d576004356001600160401b03811161043d573660238201121561043d578060040135610078816107a7565b916100866040519384610786565b8183526024602084019260051b8201019036821161043d5760248101925b82841061044257602435856001600160401b03821161043d573660238301121561043d578160040135916100d7836107a7565b926100e56040519485610786565b8084526024602085019160051b8301019136831161043d57602401905b82821061042d57505050600080602060018060a01b0360008051602061089f8339815191525416604460405180948193631ce2e8d760e31b8352600160048401528160248401525af19182156103b55780926103f8575b50509160005b82518110156103ed576000935b6101768285610802565b51518510156103e3576101938561018d8487610802565b51610802565b5161019e8385610802565b51906000815160038110156103cd576000906103c15750506020809101518181518183019384916000940101031261031657505160008051602061089f83398151915254604051631ce2e8d760e31b81526004810192909252600160fb1b6024830152600091906020908290604490829086906001600160a01b03165af19182156103b5578092610381575b5050808215610371575b1561035f575b602090606460018060a01b0360008051602061089f83398151915254169360006040519586948593631f31e28560e11b8552600485015260248401528160448401525af180156103215760009061032d575b602091505b606460018060a01b0360008051602061089f83398151915254169360006040519586948593630ccd46b160e31b8552600485015260248401528160448401525af18015610321576000906102ec575b6001915094019361016c565b6020823d8211610319575b8161030460209383610786565b810103126103165750600190516102e0565b80fd5b3d91506102f7565b6040513d6000823e3d90fd5b6020823d8211610357575b8161034560209383610786565b8101031261031657506020905161028c565b3d9150610338565b50602061036a610816565b905061023a565b915061037b610816565b91610234565b9091506020823d82116103ad575b8161039c60209383610786565b81010312610316575051878061022a565b3d915061038f565b604051903d90823e3d90fd5b50602092509050610291565b634e487b7160e01b600052602160045260246000fd5b935060010161015f565b602084604051908152f35b9091506020823d602011610425575b8161041460209383610786565b810103126103165750518380610159565b3d9150610407565b8135815260209182019101610102565b600080fd5b83356001600160401b03811161043d5782013660438201121561043d57602481013561046d816107a7565b9161047b6040519384610786565b818352602060248185019360051b830101019036821161043d5760448101925b8284106104b55750505090825250602093840193016100a4565b83356001600160401b03811161043d57602490830101906040601f19833603011261043d5760405191604083018381106001600160401b03821117610584576040526020810135600381101561043d57835260408101356001600160401b03811161043d5760209101019036601f8301121561043d578135926001600160401b03841161058457604051610553601f8601601f191660200182610786565b848152366020868601011161043d57600060208681978280980183860137830101528382015281520193019261049b565b634e487b7160e01b600052604160045260246000fd5b3461043d57604036600319011261043d57600435600281101561043d57602435600381101561043d576105d960ff916105d4602094610755565b61076e565b54166040519015158152f35b3461043d57604036600319011261043d576004356001600160401b03811161043d57610615903690600401610725565b6024356001600160401b03811161043d5761063583913690600401610725565b90916000905b8482101594856107235760005b6106538486886107be565b905081101561071557866106ff578360051b830135600281101561043d5761067a90610755565b6106858587896107be565b8310156106ff578260051b81013590603e198136030182121561043d57013590600382101561043d5760ff916106ba9161076e565b5416156106c957600101610648565b60405162461bcd60e51b815260206004820152600e60248201526d24b73b30b634b2103334b63a32b960911b6044820152606490fd5b634e487b7160e01b600052603260045260246000fd5b50945060019091019061063b565b005b9181601f8401121561043d578235916001600160401b03831161043d576020808501948460051b01011161043d57565b60028110156103cd576000526000602052604060002090565b9060038110156103cd57600052602052604060002090565b90601f801991011681019081106001600160401b0382111761058457604052565b6001600160401b0381116105845760051b60200190565b91908110156106ff5760051b81013590601e198136030182121561043d5701908135916001600160401b03831161043d576020018260051b3603811361043d579190565b80518210156106ff5760209160051b010190565b60008051602061089f83398151915254604051631ce2e8d760e31b8152600060048201819052600160fb1b60248301529091602091839160449183916001600160a01b03165af19081156103215760009161086f575090565b90506020813d602011610896575b8161088a60209383610786565b8101031261043d575190565b3d915061087d56feed8d60e34876f751cc8b014c560745351147d9de11b9347c854e881b128ea601a2646970667358221220b844e64885054249f4d6cdd2511fce576780e3cb99d9cfa460f0718f6fa22d4664736f6c634300081c0033","linkReferences":{}},"methodIdentifiers":{"applyFilterOnMetadata((uint8,bytes)[][],uint256[])":"a8eac0b1","isOperationAllowed(uint8,uint8)":"8e1fb2e1","validateFilter(uint8[],(uint8,bytes)[][])":"09b0ea9e"},"id":2}