{"abi":[{"type":"constructor","inputs":[],"stateMutability":"nonpayable"},{"type":"function","name":"callbackAddress","inputs":[{"name":"","type":"uint256","internalType":"uint256"},{"name":"decryptedInput","type":"address","internalType":"address"}],"outputs":[{"name":"","type":"address","internalType":"address"}],"stateMutability":"nonpayable"},{"type":"function","name":"callbackAddresses","inputs":[{"name":"","type":"uint256","internalType":"uint256"},{"name":"decryptedInput1","type":"address","internalType":"address"},{"name":"decryptedInput2","type":"address","internalType":"address"}],"outputs":[{"name":"","type":"address","internalType":"address"}],"stateMutability":"nonpayable"},{"type":"function","name":"callbackBool","inputs":[{"name":"","type":"uint256","internalType":"uint256"},{"name":"decryptedInput","type":"bool","internalType":"bool"}],"outputs":[{"name":"","type":"bool","internalType":"bool"}],"stateMutability":"nonpayable"},{"type":"function","name":"callbackBoolTrustless","inputs":[{"name":"requestID","type":"uint256","internalType":"uint256"},{"name":"decryptedInput","type":"bool","internalType":"bool"},{"name":"signatures","type":"bytes[]","internalType":"bytes[]"}],"outputs":[{"name":"","type":"bool","internalType":"bool"}],"stateMutability":"nonpayable"},{"type":"function","name":"callbackBytes128","inputs":[{"name":"","type":"uint256","internalType":"uint256"},{"name":"decryptedInput","type":"bytes","internalType":"bytes"}],"outputs":[{"name":"","type":"bytes","internalType":"bytes"}],"stateMutability":"nonpayable"},{"type":"function","name":"callbackBytes256","inputs":[{"name":"","type":"uint256","internalType":"uint256"},{"name":"decryptedInput","type":"bytes","internalType":"bytes"}],"outputs":[{"name":"","type":"bytes","internalType":"bytes"}],"stateMutability":"nonpayable"},{"type":"function","name":"callbackBytes256Trustless","inputs":[{"name":"requestID","type":"uint256","internalType":"uint256"},{"name":"decryptedInput","type":"bytes","internalType":"bytes"},{"name":"signatures","type":"bytes[]","internalType":"bytes[]"}],"outputs":[{"name":"","type":"bytes","internalType":"bytes"}],"stateMutability":"nonpayable"},{"type":"function","name":"callbackBytes64","inputs":[{"name":"","type":"uint256","internalType":"uint256"},{"name":"decryptedInput","type":"bytes","internalType":"bytes"}],"outputs":[{"name":"","type":"bytes","internalType":"bytes"}],"stateMutability":"nonpayable"},{"type":"function","name":"callbackMixed","inputs":[{"name":"requestID","type":"uint256","internalType":"uint256"},{"name":"decBool_1","type":"bool","internalType":"bool"},{"name":"decBool_2","type":"bool","internalType":"bool"},{"name":"decUint4","type":"uint8","internalType":"uint8"},{"name":"decUint8","type":"uint8","internalType":"uint8"},{"name":"decUint16","type":"uint16","internalType":"uint16"},{"name":"decUint32","type":"uint32","internalType":"uint32"},{"name":"decUint64_1","type":"uint64","internalType":"uint64"},{"name":"decUint64_2","type":"uint64","internalType":"uint64"},{"name":"decUint64_3","type":"uint64","internalType":"uint64"},{"name":"decAddress","type":"address","internalType":"address"}],"outputs":[{"name":"","type":"uint8","internalType":"uint8"}],"stateMutability":"nonpayable"},{"type":"function","name":"callbackMixedBytes256","inputs":[{"name":"","type":"uint256","internalType":"uint256"},{"name":"decBool","type":"bool","internalType":"bool"},{"name":"decAddress","type":"address","internalType":"address"},{"name":"bytesRes","type":"bytes","internalType":"bytes"},{"name":"bytesRes2","type":"bytes","internalType":"bytes"}],"outputs":[],"stateMutability":"nonpayable"},{"type":"function","name":"callbackMixedBytes256Trustless","inputs":[{"name":"requestID","type":"uint256","internalType":"uint256"},{"name":"decBool","type":"bool","internalType":"bool"},{"name":"bytesRes","type":"bytes","internalType":"bytes"},{"name":"decAddress","type":"address","internalType":"address"},{"name":"signatures","type":"bytes[]","internalType":"bytes[]"}],"outputs":[],"stateMutability":"nonpayable"},{"type":"function","name":"callbackUint128","inputs":[{"name":"","type":"uint256","internalType":"uint256"},{"name":"decryptedInput","type":"uint128","internalType":"uint128"}],"outputs":[{"name":"","type":"uint128","internalType":"uint128"}],"stateMutability":"nonpayable"},{"type":"function","name":"callbackUint16","inputs":[{"name":"","type":"uint256","internalType":"uint256"},{"name":"decryptedInput","type":"uint16","internalType":"uint16"}],"outputs":[{"name":"","type":"uint16","internalType":"uint16"}],"stateMutability":"nonpayable"},{"type":"function","name":"callbackUint256","inputs":[{"name":"","type":"uint256","internalType":"uint256"},{"name":"decryptedInput","type":"uint256","internalType":"uint256"}],"outputs":[{"name":"","type":"uint256","internalType":"uint256"}],"stateMutability":"nonpayable"},{"type":"function","name":"callbackUint32","inputs":[{"name":"requestID","type":"uint256","internalType":"uint256"},{"name":"decryptedInput","type":"uint32","internalType":"uint32"}],"outputs":[{"name":"","type":"uint32","internalType":"uint32"}],"stateMutability":"nonpayable"},{"type":"function","name":"callbackUint4","inputs":[{"name":"","type":"uint256","internalType":"uint256"},{"name":"decryptedInput","type":"uint8","internalType":"uint8"}],"outputs":[{"name":"","type":"uint8","internalType":"uint8"}],"stateMutability":"nonpayable"},{"type":"function","name":"callbackUint64","inputs":[{"name":"","type":"uint256","internalType":"uint256"},{"name":"decryptedInput","type":"uint64","internalType":"uint64"}],"outputs":[{"name":"","type":"uint64","internalType":"uint64"}],"stateMutability":"nonpayable"},{"type":"function","name":"callbackUint8","inputs":[{"name":"","type":"uint256","internalType":"uint256"},{"name":"decryptedInput","type":"uint8","internalType":"uint8"}],"outputs":[{"name":"","type":"uint8","internalType":"uint8"}],"stateMutability":"nonpayable"},{"type":"function","name":"latestRequestID","inputs":[],"outputs":[{"name":"","type":"uint256","internalType":"uint256"}],"stateMutability":"view"},{"type":"function","name":"requestAddress","inputs":[],"outputs":[],"stateMutability":"nonpayable"},{"type":"function","name":"requestBool","inputs":[],"outputs":[],"stateMutability":"nonpayable"},{"type":"function","name":"requestBoolAboveDelay","inputs":[],"outputs":[],"stateMutability":"nonpayable"},{"type":"function","name":"requestBoolTrustless","inputs":[],"outputs":[],"stateMutability":"nonpayable"},{"type":"function","name":"requestEbytes128NonTrivial","inputs":[{"name":"inputHandle","type":"bytes32","internalType":"einput"},{"name":"inputProof","type":"bytes","internalType":"bytes"}],"outputs":[],"stateMutability":"nonpayable"},{"type":"function","name":"requestEbytes128Trivial","inputs":[{"name":"value","type":"bytes","internalType":"bytes"}],"outputs":[],"stateMutability":"nonpayable"},{"type":"function","name":"requestEbytes256NonTrivial","inputs":[{"name":"inputHandle","type":"bytes32","internalType":"einput"},{"name":"inputProof","type":"bytes","internalType":"bytes"}],"outputs":[],"stateMutability":"nonpayable"},{"type":"function","name":"requestEbytes256NonTrivialTrustless","inputs":[{"name":"inputHandle","type":"bytes32","internalType":"einput"},{"name":"inputProof","type":"bytes","internalType":"bytes"}],"outputs":[],"stateMutability":"nonpayable"},{"type":"function","name":"requestEbytes256Trivial","inputs":[{"name":"value","type":"bytes","internalType":"bytes"}],"outputs":[],"stateMutability":"nonpayable"},{"type":"function","name":"requestEbytes64NonTrivial","inputs":[{"name":"inputHandle","type":"bytes32","internalType":"einput"},{"name":"inputProof","type":"bytes","internalType":"bytes"}],"outputs":[],"stateMutability":"nonpayable"},{"type":"function","name":"requestEbytes64Trivial","inputs":[{"name":"value","type":"bytes","internalType":"bytes"}],"outputs":[],"stateMutability":"nonpayable"},{"type":"function","name":"requestMixed","inputs":[{"name":"input1","type":"uint32","internalType":"uint32"},{"name":"input2","type":"uint32","internalType":"uint32"}],"outputs":[],"stateMutability":"nonpayable"},{"type":"function","name":"requestMixedBytes256","inputs":[{"name":"inputHandle","type":"bytes32","internalType":"einput"},{"name":"inputProof","type":"bytes","internalType":"bytes"}],"outputs":[],"stateMutability":"nonpayable"},{"type":"function","name":"requestMixedBytes256Trustless","inputs":[{"name":"inputHandle","type":"bytes32","internalType":"einput"},{"name":"inputProof","type":"bytes","internalType":"bytes"}],"outputs":[],"stateMutability":"nonpayable"},{"type":"function","name":"requestSeveralAddresses","inputs":[],"outputs":[],"stateMutability":"nonpayable"},{"type":"function","name":"requestUint128","inputs":[],"outputs":[],"stateMutability":"nonpayable"},{"type":"function","name":"requestUint128NonTrivial","inputs":[{"name":"inputHandle","type":"bytes32","internalType":"einput"},{"name":"inputProof","type":"bytes","internalType":"bytes"}],"outputs":[],"stateMutability":"nonpayable"},{"type":"function","name":"requestUint16","inputs":[],"outputs":[],"stateMutability":"nonpayable"},{"type":"function","name":"requestUint256","inputs":[],"outputs":[],"stateMutability":"nonpayable"},{"type":"function","name":"requestUint256NonTrivial","inputs":[{"name":"inputHandle","type":"bytes32","internalType":"einput"},{"name":"inputProof","type":"bytes","internalType":"bytes"}],"outputs":[],"stateMutability":"nonpayable"},{"type":"function","name":"requestUint32","inputs":[{"name":"input1","type":"uint32","internalType":"uint32"},{"name":"input2","type":"uint32","internalType":"uint32"}],"outputs":[],"stateMutability":"nonpayable"},{"type":"function","name":"requestUint4","inputs":[],"outputs":[],"stateMutability":"nonpayable"},{"type":"function","name":"requestUint64","inputs":[],"outputs":[],"stateMutability":"nonpayable"},{"type":"function","name":"requestUint64NonTrivial","inputs":[{"name":"inputHandle","type":"bytes32","internalType":"einput"},{"name":"inputProof","type":"bytes","internalType":"bytes"}],"outputs":[],"stateMutability":"nonpayable"},{"type":"function","name":"requestUint8","inputs":[],"outputs":[],"stateMutability":"nonpayable"},{"type":"function","name":"yAddress","inputs":[],"outputs":[{"name":"","type":"address","internalType":"address"}],"stateMutability":"view"},{"type":"function","name":"yAddress2","inputs":[],"outputs":[{"name":"","type":"address","internalType":"address"}],"stateMutability":"view"},{"type":"function","name":"yBool","inputs":[],"outputs":[{"name":"","type":"bool","internalType":"bool"}],"stateMutability":"view"},{"type":"function","name":"yBytes128","inputs":[],"outputs":[{"name":"","type":"bytes","internalType":"bytes"}],"stateMutability":"view"},{"type":"function","name":"yBytes256","inputs":[],"outputs":[{"name":"","type":"bytes","internalType":"bytes"}],"stateMutability":"view"},{"type":"function","name":"yBytes64","inputs":[],"outputs":[{"name":"","type":"bytes","internalType":"bytes"}],"stateMutability":"view"},{"type":"function","name":"yUint128","inputs":[],"outputs":[{"name":"","type":"uint128","internalType":"uint128"}],"stateMutability":"view"},{"type":"function","name":"yUint16","inputs":[],"outputs":[{"name":"","type":"uint16","internalType":"uint16"}],"stateMutability":"view"},{"type":"function","name":"yUint256","inputs":[],"outputs":[{"name":"","type":"uint256","internalType":"uint256"}],"stateMutability":"view"},{"type":"function","name":"yUint32","inputs":[],"outputs":[{"name":"","type":"uint32","internalType":"uint32"}],"stateMutability":"view"},{"type":"function","name":"yUint4","inputs":[],"outputs":[{"name":"","type":"uint8","internalType":"uint8"}],"stateMutability":"view"},{"type":"function","name":"yUint64","inputs":[],"outputs":[{"name":"","type":"uint64","internalType":"uint64"}],"stateMutability":"view"},{"type":"function","name":"yUint64_2","inputs":[],"outputs":[{"name":"","type":"uint64","internalType":"uint64"}],"stateMutability":"view"},{"type":"function","name":"yUint64_3","inputs":[],"outputs":[{"name":"","type":"uint64","internalType":"uint64"}],"stateMutability":"view"},{"type":"function","name":"yUint8","inputs":[],"outputs":[{"name":"","type":"uint8","internalType":"uint8"}],"stateMutability":"view"}],"bytecode":{"object":"0x60808060405234610926576060816100186000936109a7565b8281528260208201528260408201520152739d6891a6240d6130c54ae243d8005063d05fe14b606060405161004c816109a7565b73fee8407e2f5e3ee68ad77cae98c434e637f516e580825273687408ab54661ba0b4aef3a44156c616c6955e07602080840182905273fb03be574d14c256d56f09a198b586bdfc0a9de2604080860182905295909401959095527fed8d60e34876f751cc8b014c560745351147d9de11b9347c854e881b128ea60080546001600160a01b0319908116909317905560008051602061506a83398151915280548316821790557fed8d60e34876f751cc8b014c560745351147d9de11b9347c854e881b128ea602805483169093179092557fed8d60e34876f751cc8b014c560745351147d9de11b9347c854e881b128ea60380548216739d6891a6240d6130c54ae243d8005063d05fe14b1790557f93ab6e17f2c461cce6ea5d4ec117e51dda77a64affc2b2c05f8cd440def0e70080549091167333347831500f1e73f0cccbb95c9f86b94d7b11231790559051631ce2e8d760e31b8152600160048201526000602482018190529290918290604490829086905af19081156106be5782916108ef575b506101de915080600a5561092b565b60008051602061506a83398151915254604051631ce2e8d760e31b8152600480820152600160f81b60248201526000916020908290604490829086906001600160a01b03165af19081156106be5782916108b8575b50610242915080600b5561092b565b60008051602061506a83398151915254604051631ce2e8d760e31b8152602a6004820152600160f91b60248201526000916020908290604490829086906001600160a01b03165af19081156106be578291610881575b506102a7915080600c5561092b565b60008051602061506a83398151915254604051631ce2e8d760e31b815260106004820152600360f81b60248201526000916020908290604490829086906001600160a01b03165af19081156106be57829161084a575b5061030c915080600d5561092b565b60008051602061506a83398151915254604051631ce2e8d760e31b8152602060048201819052600160fa1b60248301526000928290604490829086906001600160a01b03165af19081156106be578291610813575b50610370915080600e5561092b565b60008051602061506a83398151915254604051631ce2e8d760e31b81526010600160401b036004820152600560f81b60248201526000916020908290604490829086906001600160a01b03165af19081156106be5782916107dc575b506103db915080600f5561092b565b60008051602061506a83398151915254604051631ce2e8d760e31b81526411d440e13a6004820152600560f81b60248201526000916020908290604490829086906001600160a01b03165af19081156106be5782916107a5575b5061044491508060105561092b565b60008051602061506a83398151915254604051631ce2e8d760e31b81526119006004820152600560f81b60248201526000916020908290604490829086906001600160a01b03165af19081156106be57829161076e575b506104aa91508060115561092b565b60008051602061506a83398151915254604051631ce2e8d760e31b81526c100000000000000000000000436004820152600360f91b60248201526000916020908290604490829086906001600160a01b03165af19081156106be578291610737575b5061051b91508060125561092b565b60008051602061506a83398151915254604051631ce2e8d760e31b81526043600160ea1b016004820152600160fb1b60248201526000916020908290604490829086906001600160a01b03165af19081156106be578291610700575b5061058691508060155561092b565b60008051602061506a83398151915254604051631ce2e8d760e31b8152738ba1f109551bd432803012645ac136ddd64dba726004820152600760f81b60248201526000916020908290604490829086906001600160a01b03165af19081156106be5782916106c9575b506105fe91508060135561092b565b60008051602061506a83398151915254604051631ce2e8d760e31b815273f48b8840387ba3809dae990c930f3b4766a86ca36004820152600760f81b60248201526000916020908290604490829086906001600160a01b03165af19081156106be578291610683575b610674828060145561092b565b60405161466e90816109fc8239f35b90506020813d6020116106b6575b8161069e602093836109d8565b810103126106b25761067491505138610667565b5080fd5b3d9150610691565b6040513d84823e3d90fd5b90506020813d6020116106f8575b816106e4602093836109d8565b810103126106b2576105fe915051386105ef565b3d91506106d7565b90506020813d60201161072f575b8161071b602093836109d8565b810103126106b25761058691505138610577565b3d915061070e565b90506020813d602011610766575b81610752602093836109d8565b810103126106b25761051b9150513861050c565b3d9150610745565b90506020813d60201161079d575b81610789602093836109d8565b810103126106b2576104aa9150513861049b565b3d915061077c565b90506020813d6020116107d4575b816107c0602093836109d8565b810103126106b25761044491505138610435565b3d91506107b3565b90506020813d60201161080b575b816107f7602093836109d8565b810103126106b2576103db915051386103cc565b3d91506107ea565b90506020813d602011610842575b8161082e602093836109d8565b810103126106b25761037091505138610361565b3d9150610821565b90506020813d602011610879575b81610865602093836109d8565b810103126106b25761030c915051386102fd565b3d9150610858565b90506020813d6020116108b0575b8161089c602093836109d8565b810103126106b2576102a791505138610298565b3d915061088f565b90506020813d6020116108e7575b816108d3602093836109d8565b810103126106b25761024291505138610233565b3d91506108c6565b90506020813d60201161091e575b8161090a602093836109d8565b810103126106b2576101de915051386101cf565b3d91506108fd565b600080fd5b7fed8d60e34876f751cc8b014c560745351147d9de11b9347c854e881b128ea600546000916001600160a01b0390911690813b156109a3578291604483926040519485938492631974142760e21b845260048401523060248401525af180156106be57610996575050565b816109a0916109d8565b50565b8280fd5b608081019081106001600160401b038211176109c257604052565b634e487b7160e01b600052604160045260246000fd5b601f909101601f19168101906001600160401b038211908210176109c25760405256fe6080604052600436101561001257600080fd5b60003560e01c8063031165ca146103c75780630526e1f1146103c257806314720686146103bd57806318288c78146103b85780631d57abf4146103b357806323752ca7146103ae57806324d4e824146103a95780632c3c59f8146103a4578063323566a51461039f5780633a5ff6b01461039a5780633db09e62146103955780633ffcf52a146103905780634838a5c81461038b5780634baa0782146103865780634c4ef3c9146103815780635022a5401461037c57806354dc83dc14610377578063580ccfc5146103725780635a1d3bea1461036d5780635a8aaf421461036857806365ca06361461036357806367c71a2b1461035e5780636c8f69cf146103595780636da8b1a41461035457806374262db91461034f578063773096231461034a5780637752a687146103455780637bcbc6de14610340578063803732861461033b57806381bd4906146103365780638ac573d8146103315780638f83ef7a1461032c5780639afbe861146103275780639cec1b6114610322578063a4b42fd91461031d578063be9daa4814610318578063c16d7f6b14610313578063c375d8371461030e578063c39f47e514610309578063c8779aca14610304578063cb76288d146102ff578063cc9df9f1146102fa578063cfde774a146102f5578063d16444eb146102f0578063d258d887146102eb578063d2f2150d146102e6578063e4dc7969146102e1578063e572a526146102dc578063e6a6ee46146102d7578063ea1106ca146102d2578063f183f84d146102cd578063f459e61b146102c8578063f5020b9f146102c3578063f5cc5a57146102be578063f7d25d57146102b9578063faa776f5146102b4578063fd05702b146102af578063fea71979146102aa5763ffcbf815146102a557600080fd5b6128f4565b6127f7565b6127bb565b612728565b612704565b612665565b61263c565b6124d1565b6124a7565b61246a565b6123c9565b612367565b6121e2565b6120a3565b611f71565b611e6b565b611e2f565b611df3565b611dc9565b611d21565b611cfc565b611bdf565b611b6c565b611acc565b611a33565b611a09565b6119cd565b611991565b611851565b611828565b611777565b611750565b611732565b611632565b611500565b61142e565b611248565b61107b565b610fa9565b610e77565b610d45565b610d09565b610ccd565b610b74565b610ab6565b610a22565b6109a4565b610922565b610904565b6108c6565b610833565b6107d5565b610761565b61070d565b6105d3565b6104b6565b610492565b610434565b6103dc565b60009103126103d757565b600080fd5b346103d75760003660031901126103d7576103f561291b565b600d5481511561041f5760208201526064420180421161041a5761041891612fa7565b005b612a2a565b612960565b6024359060ff821682036103d757565b346103d75760403660031901126103d75761044d610424565b6000805160206145f9833981519152546001600160a01b031633036103d7576016805462ff00001916601083901b62ff0000161790556020905b60ff60405191168152f35b346103d75760003660031901126103d757602060ff60165460101c16604051908152f35b346103d75760003660031901126103d75760405160606104d68183610a95565b60028252601f190136602083013760135481511561041f57602082015260145481516001101561041f5760408201526064420180421161041a57610418916130a0565b610a7f565b9181601f840112156103d7578235916001600160401b0383116103d757602083818601950101116103d757565b9060406003198301126103d75760043591602435906001600160401b0382116103d75761057a9160040161051e565b9091565b919082519283825260005b8481106105aa575050826000602080949584010152601f8019910116010190565b80602080928401015182828601015201610589565b9060206105d092818152019061057e565b90565b346103d7576105e13661054b565b6000805160206145f983398151915254919250906001600160a01b031633036103d7576001600160401b0381116105195761062681610621601c54610a45565b612aab565b6000601f821160011461068357918161065d816106689461067496600091610678575b508160011b916000199060031b1c19161790565b601c555b3691611161565b604051918291826105bf565b0390f35b905084013538610649565b601c6000527f0e4562a10381dec21b205ed72637e6b1b523bdd0e4d4d50af5cd23dd4500a21190601f198316815b8181106106f55750918391610668946106749694106106db575b5050600181811b01601c55610661565b830135600019600384901b60f8161c1916905538806106cb565b919260206001819286890135815501940192016106b1565b346103d75760403660031901126103d7576000805160206145f983398151915254602435906001600160a01b031633036103d75780602091601a55604051908152f35b60a4359061ffff821682036103d757565b346103d75760403660031901126103d75760243561ffff81168082036103d7576000805160206145f9833981519152546001600160a01b031633036103d7576107c360209264ffff0000006016549160181b169064ffff000000191617601655565b604051908152f35b801515036103d757565b346103d75760403660031901126103d7576024356107f2816107cb565b6000805160206145f9833981519152546001600160a01b031633036103d7576016805491151560ff1660ff1992909216821790556040519015158152602090f35b346103d7576108576108516108473661054b565b9291923691611161565b90614279565b604051610865608082610a95565b6003815261087360036111b3565b602082019290601f1901368437600a5482511561041f57610418935261089882612976565b526013546108a582612986565b526108b86108b242612a40565b8261316a565b6108c181601e55565b613bae565b346103d75760003660031901126103d7576108df61291b565b600a5481511561041f5760208201526202a300420180421161041a5761041891613236565b346103d75760003660031901126103d7576020601a54604051908152f35b346103d75760003660031901126103d7576019546040516001600160a01b039091168152602090f35b602435906001600160a01b03821682036103d757565b604435906001600160a01b03821682036103d757565b606435906001600160a01b03821682036103d757565b61014435906001600160a01b03821682036103d757565b346103d75760603660031901126103d7576109bd61094b565b6109c5610961565b6000805160206145f9833981519152549091906001600160a01b031633036103d757601880546001600160a01b039283166001600160a01b0319918216811790925560198054949093169316929092179055604051908152602090f35b346103d75760003660031901126103d757602060ff601654166040519015158152f35b90600182811c92168015610a75575b6020831014610a5f57565b634e487b7160e01b600052602260045260246000fd5b91607f1691610a54565b634e487b7160e01b600052604160045260246000fd5b90601f801991011681019081106001600160401b0382111761051957604052565b346103d75760003660031901126103d757604051601d5460009081610ada82610a45565b8085529160018116908115610b4d5750600114610b02575b6106748461066881860382610a95565b601d81526000805160206145d9833981519152939250905b808210610b335750909150810160200161066882610af2565b919260018160209254838588010152019101909291610b1a565b60ff191660208087019190915292151560051b850190920192506106689150839050610af2565b346103d757610be16020610b8a6108473661054b565b60008051602061461983398151915254610bba90610bae906001600160a01b031681565b6001600160a01b031690565b9060006040518096819582946302e817ff60e41b8452600960f81b9133906004860161423d565b03925af1908115610c9957600091610c9e575b506000805160206145b983398151915254610c1990610bae906001600160a01b031681565b803b156103d7576040516346ce4e4960e11b815260048101839052336024820152906000908290604490829084905af18015610c9957610c7e575b50610c5d61291b565b9081511561041f5760208201526064420180421161041a5761041891613300565b80610c8d6000610c9393610a95565b806103cc565b38610c54565b612f4f565b610cc0915060203d602011610cc6575b610cb88183610a95565b810190612f5b565b38610bf4565b503d610cae565b346103d75760003660031901126103d757610ce661291b565b600c5481511561041f5760208201526064420180421161041a57610418916133ca565b346103d75760003660031901126103d757610d2261291b565b60125481511561041f5760208201526064420180421161041a5761041891613494565b346103d757610da66020610d5b6108473661054b565b60008051602061461983398151915254610d7f90610bae906001600160a01b031681565b9060006040518096819582946302e817ff60e41b8452600160fb1b9133906004860161423d565b03925af1908115610c9957600091610e58575b506000805160206145b983398151915254610dde90610bae906001600160a01b031681565b803b156103d7576040516346ce4e4960e11b815260048101839052336024820152906000908290604490829084905af18015610c9957610e43575b50610e2261291b565b9081511561041f5760208201526064420180421161041a576104189161355e565b80610c8d6000610e5293610a95565b38610e19565b610e71915060203d602011610cc657610cb88183610a95565b38610db9565b346103d757610ed86020610e8d6108473661054b565b60008051602061461983398151915254610eb190610bae906001600160a01b031681565b9060006040518096819582946302e817ff60e41b8452600560f91b9133906004860161423d565b03925af1908115610c9957600091610f8a575b506000805160206145b983398151915254610f1090610bae906001600160a01b031681565b803b156103d7576040516346ce4e4960e11b815260048101839052336024820152906000908290604490829084905af18015610c9957610f75575b50610f5461291b565b9081511561041f5760208201526064420180421161041a5761041891613628565b80610c8d6000610f8493610a95565b38610f4b565b610fa3915060203d602011610cc657610cb88183610a95565b38610eeb565b346103d75760003660031901126103d757604051601b5460009081610fcd82610a45565b8085529160018116908115610b4d5750600114610ff4576106748461066881860382610a95565b601b81527f3ad8aa4f87544323a9d1e5dd902f40c356527a7955687113db5f9a85ad579dc1939250905b8082106110375750909150810160200161066882610af2565b91926001816020925483858801015201910190929161101e565b60206003198201126103d757600435906001600160401b0382116103d75761057a9160040161051e565b346103d75761108c61066136611051565b61109b61010082511115613c8b565b6110a3613cd7565b906110ae8151613d81565b60005b818110611130575060005b825181101561110257806110e36110d560019386613dbc565b516001600160f81b03191690565b6110fb6110f08386612a87565b9160001a9187613dbc565b53016110bc565b61041861110e856143db565b61111661291b565b9061112082612996565b5261112a42612a40565b906136f2565b80600061113f60019387613dbc565b53016110b1565b6001600160401b03811161051957601f01601f191660200190565b92919261116d82611146565b9161117b6040519384610a95565b8294818452818301116103d7578281602093846000960137010152565b9080601f830112156103d7578160206105d093359101611161565b6001600160401b0381116105195760051b60200190565b9080601f830112156103d75781356111e1816111b3565b926111ef6040519485610a95565b81845260208085019260051b820101918383116103d75760208201905b83821061121b57505050505090565b81356001600160401b0381116103d75760209161123d87848094880101611198565b81520191019061120c565b346103d75760a03660031901126103d757602435600435611268826107cb565b6044356001600160401b0381116103d757611287903690600401611198565b91611290610977565b916084356001600160401b0381116103d7576112b09036906004016111ca565b6000805160206145f9833981519152549091906001600160a01b031633036103d7576112fa916112f06112f5926112eb601e54918214612ba0565b613e18565b613f4a565b612bf6565b60ff801960165416911515161760165560018060a01b03166001600160601b0360a01b601854161760185580516001600160401b0381116105195761134981611344601d54610a45565b612af2565b602091601f821160011461138957611379926000918361137e575b50508160011b916000199060031b1c19161790565b601d55005b015190503880611364565b601d600052601f198216926000805160206145d98339815191529160005b8581106113dd575083600195106113c4575b505050811b01601d55005b015160001960f88460031b161c191690553880806113b9565b919260206001819286850151815501940192016113a7565b6004359063ffffffff821682036103d757565b6024359063ffffffff821682036103d757565b60c4359063ffffffff821682036103d757565b346103d75760403660031901126103d75761041861144a6113f5565b63ffffffff611457611408565b6114f9826114f161146661293d565b600a548061147383612996565b5261147d82612976565b52600b5461148a82612986565b52600c54611497826129a3565b52600d546114a4826129b3565b52600e546114b1826129c3565b52600f54806114bf836129d3565b52806114ca836129e3565b526114d4826129f4565b526013546114e182612a05565b526114eb42612a40565b906137bc565b9416846140fd565b16906140fd565b346103d75761156160206115166108473661054b565b6000805160206146198339815191525461153a90610bae906001600160a01b031681565b9060006040518096819582946302e817ff60e41b8452600360f91b9133906004860161423d565b03925af1908115610c9957600091611613575b506000805160206145b98339815191525461159990610bae906001600160a01b031681565b803b156103d7576040516346ce4e4960e11b815260048101839052336024820152906000908290604490829084905af18015610c99576115fe575b506115dd61291b565b9081511561041f5760208201526064420180421161041a5761041891613494565b80610c8d600061160d93610a95565b386115d4565b61162c915060203d602011610cc657610cb88183610a95565b38611574565b346103d75760403660031901126103d75760043561164e611408565b6000805160206145f9833981519152549091906001600160a01b031633036103d7576000526008602052604060002060405190816020825491828152019160005260206000209060005b81811061171c576106746116e2876116d8886116b6818a0382610a95565b6116d86116c86116d26116c884612996565b5163ffffffff1690565b92612976565b0163ffffffff1690565b6016805468ffffffff00000000001916602883901b68ffffffff00000000001617905560405163ffffffff90911681529081906020820190565b8254845260209093019260019283019201611698565b346103d75760003660031901126103d7576020601e54604051908152f35b346103d75760003660031901126103d75760206001600160401b0360175416604051908152f35b346103d75761178861066136611051565b611796608082511115614133565b61179e613d0b565b906117a98151613d91565b60005b818110611812575060005b82518110156117e457806117d06110d560019386613dbc565b6117dd6110f08386612a87565b53016117b7565b6104186117f085614442565b6117f861291b565b9061180282612996565b5261180c42612a40565b90613628565b80600061182160019387613dbc565b53016117ac565b346103d75761184961184461183f61066136611051565b61417f565b614374565b610c5d61291b565b346103d7576118656108516108473661054b565b61186d61291b565b9081511561041f576020820152606442019081421161041a576000805160206145b983398151915254600092906118ae90610bae906001600160a01b031681565b803b1561198d5783604051809263155f840160e21b82528183816118d58960048301612f3e565b03925af18015610c995761193b92602092600192611979575b506000805160206145f98339815191525461191390610bae906001600160a01b031681565b9086604051809681958294634c0d927760e01b84528463d2f2150d60e01b8c60048701612f6a565b03925af1908115610c9957610418939161195a575b5080601e55613bae565b611973915060203d602011610cc657610cb88183610a95565b38611950565b80610c8d8861198793610a95565b386118ee565b8380fd5b346103d75760003660031901126103d7576119aa61291b565b600f5481511561041f5760208201526064420180421161041a5761041891613886565b346103d75760003660031901126103d7576119e661291b565b60155481511561041f5760208201526064420180421161041a576104189161355e565b346103d75760003660031901126103d75760206001600160401b0360165460481c16604051908152f35b346103d75760403660031901126103d757611a4c610424565b6000805160206145f9833981519152546001600160a01b031633036103d7576016805461ff001916600883901b61ff0016179055602090610487565b60e435906001600160401b03821682036103d757565b61010435906001600160401b03821682036103d757565b61012435906001600160401b03821682036103d757565b346103d7576101603660031901126103d757602435600435611aed826107cb565b60443590611afa826107cb565b6064359260ff841684036103d7576084359260ff841684036103d75761067494611b5894611b26610750565b611b2e61141b565b91611b37611a88565b93611b40611a9e565b95611b49611ab5565b97611b5261098d565b99612d30565b60405160ff90911681529081906020820190565b346103d75760403660031901126103d7576024356001600160401b0381168082036103d7576000805160206145f9833981519152546001600160a01b031633036103d7576107c360209267ffffffffffffffff60481b6016549160481b169067ffffffffffffffff60481b191617601655565b346103d757611bed3661054b565b6000805160206145f983398151915254919250906001600160a01b031633036103d7576001600160401b03811161051957611c3281611c2d601b54610a45565b612b2c565b6000601f8211600114611c72579181611c6881610668946106749660009161067857508160011b916000199060031b1c19161790565b601b553691611161565b601b6000527f3ad8aa4f87544323a9d1e5dd902f40c356527a7955687113db5f9a85ad579dc190601f198316815b818110611ce4575091839161066894610674969410611cca575b5050600181811b01601b55610661565b830135600019600384901b60f8161c191690553880611cba565b91926020600181928689013581550194019201611ca0565b346103d75760003660031901126103d757602061ffff60165460181c16604051908152f35b346103d75760003660031901126103d757604051601c5460009081611d4582610a45565b8085529160018116908115610b4d5750600114611d6c576106748461066881860382610a95565b601c81527f0e4562a10381dec21b205ed72637e6b1b523bdd0e4d4d50af5cd23dd4500a211939250905b808210611daf5750909150810160200161066882610af2565b919260018160209254838588010152019101909291611d96565b346103d75760003660031901126103d75760206001600160801b0360175460401c16604051908152f35b346103d75760003660031901126103d757611e0c61291b565b600a5481511561041f5760208201526064420180421161041a5761041891613236565b346103d75760003660031901126103d757611e4861291b565b600b5481511561041f5760208201526064420180421161041a5761041891613950565b346103d757611e793661054b565b6000805160206145f983398151915254919250906001600160a01b031633036103d7576001600160401b03811161051957611eb981611344601d54610a45565b6000601f8211600114611ef9579181611eef81610668946106749660009161067857508160011b916000199060031b1c19161790565b601d553691611161565b601d6000526000805160206145d983398151915290601f198316815b818110611f59575091839161066894610674969410611f3f575b5050600181811b01601d55610661565b830135600019600384901b60f8161c191690553880611f2f565b91926020600181928689013581550194019201611f15565b346103d757611fd26020611f876108473661054b565b60008051602061461983398151915254611fab90610bae906001600160a01b031681565b9060006040518096819582946302e817ff60e41b8452600560f81b9133906004860161423d565b03925af1908115610c9957600091612084575b506000805160206145b98339815191525461200a90610bae906001600160a01b031681565b803b156103d7576040516346ce4e4960e11b815260048101839052336024820152906000908290604490829084905af18015610c995761206f575b5061204e61291b565b9081511561041f5760208201526064420180421161041a5761041891613886565b80610c8d600061207e93610a95565b38612045565b61209d915060203d602011610cc657610cb88183610a95565b38611fe5565b346103d75760603660031901126103d7576004356024356001600160401b0381116103d7576120d690369060040161051e565b90916044356001600160401b0381116103d7576120f79036906004016111ca565b6000805160206145f9833981519152549091906001600160a01b031633036103d757612132916112f06112f5926112eb601e54918214612ba0565b6001600160401b0381116105195761214f81611344601d54610a45565b6000601f8211600114612185579181611eef81610668946106749660009161067857508160011b916000199060031b1c19161790565b601d6000526000805160206145d983398151915290601f198316815b8181106121ca575091839161066894610674969410611f3f575050600181811b01601d55610661565b919260206001819286890135815501940192016121a1565b346103d75760a03660031901126103d7576024356121ff816107cb565b612207610961565b906064356001600160401b0381116103d757612227903690600401611198565b916084356001600160401b0381116103d757612247903690600401611198565b6000805160206145f9833981519152549092906001600160a01b031633036103d75760ff801960165416911515161760165560018060a01b03166001600160601b0360a01b60185416176018558151916001600160401b038311610519576122b483611344601d54610a45565b602090601f84116001146122f05792806122e8926104189560009261137e5750508160011b916000199060031b1c19161790565b601d55612c54565b601d600052601f19841691906000805160206145d98339815191529260005b81811061234f5750916001939186610418979410612336575b505050811b01601d55612c54565b015160001960f88460031b161c19169055388080612328565b9293602060018192878601518155019501930161230f565b346103d75760403660031901126103d75761238061094b565b6000805160206145f9833981519152546001600160a01b031633036103d757601880546001600160a01b0319166001600160a01b03929092169182179055604051908152602090f35b346103d75760603660031901126103d7576004356024356123e9816107cb565b6044356001600160401b0381116103d7576124089036906004016111ca565b6000805160206145f9833981519152546001600160a01b031633036103d7576112f5612443916112f0610674956112eb601e54918214612ba0565b6016805491151560ff1660ff19929092168217905560405190151581529081906020820190565b346103d75761247e6108516108473661054b565b61248661291b565b9081511561041f5760208201526064420180421161041a57610418916136f2565b346103d75760003660031901126103d75760206001600160401b0360165460881c16604051908152f35b346103d75760403660031901126103d7576124ea6113f5565b6124f2611408565b906124fb61291b565b91600e5483511561041f576020840152606442019081421161041a576000805160206145b9833981519152546000949061253f90610bae906001600160a01b031681565b92833b156126385785604051809563155f840160e21b82528183816125678860048301612f3e565b03925af1918215610c99578694602093612624575b506000805160206145f983398151915254859081906125a590610bae906001600160a01b031681565b926125cf60405198899687958694634c0d927760e01b8652637730962360e01b9060048701612f6a565b03925af1918215610c995761041894926125f9575b506114f963ffffffff839481945016846140fd565b63ffffffff80935061261c6114f99260203d602011610cc657610cb88183610a95565b9350506125e4565b80610c8d8761263293610a95565b3861257c565b8580fd5b346103d75760003660031901126103d7576018546040516001600160a01b039091168152602090f35b346103d75760403660031901126103d7576024356001600160801b03811681036103d7576000805160206145f9833981519152546001600160a01b031633036103d7576017805477ffffffffffffffffffffffffffffffff00000000000000001916604083811b77ffffffffffffffffffffffffffffffff00000000000000001691909117909155516001600160801b03909116815280602081010390f35b346103d75760003660031901126103d757602060ff60165460081c16604051908152f35b346103d75761273c6108516108473661054b565b61274660046111b3565b6127536040519182610a95565b6004815261276160046111b3565b602082019290601f1901368437600a5482511561041f57610418935260135461278983612976565b5261279382612986565b526127a261184461183f612ee9565b6127ab826129a3565b526127b542612a40565b90613a1a565b346103d75760003660031901126103d7576127d461291b565b60135481511561041f5760208201526064420180421161041a5761041891613ae4565b346103d75760003660031901126103d75761281061291b565b600a5481511561041f576020820152606442019081421161041a576000805160206145b9833981519152546000929061285390610bae906001600160a01b031681565b803b1561198d5783604051809263155f840160e21b825281838161287a8960048301612f3e565b03925af18015610c995761193b926020926001926128e0575b506000805160206145f9833981519152546128b890610bae906001600160a01b031681565b9086604051809681958294634c0d927760e01b845284637353772360e11b8c60048701612f6a565b80610c8d886128ee93610a95565b38612893565b346103d75760003660031901126103d757602063ffffffff60165460281c16604051908152f35b6040805190919061292c8382610a95565b6001815291601f1901366020840137565b604051610160919061294f8382610a95565b600a815291601f1901366020840137565b634e487b7160e01b600052603260045260246000fd5b80516001101561041f5760400190565b80516002101561041f5760600190565b80511561041f5760200190565b80516003101561041f5760800190565b80516004101561041f5760a00190565b80516005101561041f5760c00190565b80516006101561041f5760e00190565b80516007101561041f576101000190565b80516008101561041f576101200190565b80516009101561041f576101400190565b805182101561041f5760209160051b010190565b634e487b7160e01b600052601160045260246000fd5b906064820180921161041a57565b90610140820180921161041a57565b9060c0820180921161041a57565b906080820180921161041a57565b906020820180921161041a57565b9190820180921161041a57565b818110612a9f575050565b60008155600101612a94565b90601f8211612ab8575050565b612ae691601c6000526020600020906020601f840160051c83019310612ae8575b601f0160051c0190612a94565b565b9091508190612ad9565b90601f8211612aff575050565b612ae691601d6000526020600020906020601f840160051c83019310612ae857601f0160051c0190612a94565b90601f8211612b39575050565b612ae691601b6000526020600020906020601f840160051c83019310612ae857601f0160051c0190612a94565b9190601f8111612b7557505050565b612ae6926000526020600020906020601f840160051c83019310612ae857601f0160051c0190612a94565b15612ba757565b60405162461bcd60e51b815260206004820152602160248201527f77726f6e672072657175657374494420706173736564206279204761746577616044820152607960f81b6064820152608490fd5b15612bfd57565b60405162461bcd60e51b815260206004820152602960248201527f4b4d5320646964206e6f742076657269667920746869732064656372797074696044820152681bdb881c995cdd5b1d60ba1b6064820152608490fd5b9081516001600160401b03811161051957612c7b81612c74601b54610a45565b601b612b66565b602092601f8211600114612cb157612cac9293829160009261137e5750508160011b916000199060031b1c19161790565b601b55565b601b600052601f198216937f3ad8aa4f87544323a9d1e5dd902f40c356527a7955687113db5f9a85ad579dc19160005b868110612d185750836001959610612cff575b505050811b01601b55565b015160001960f88460031b161c19169055388080612cf4565b91926020600181928685015181550194019201612ce1565b939792919599989694909960018060a01b036000805160206145f9833981519152541633036103d7576116d86116b6612e036001600160401b039997612df3612e8b9f96612dd6612e6e9f612dbd8f9d9b612da6612e2d9d612e089d15159060ff196016541660ff831617601655151514612eaa565b61ff006016549160081b169061ff00191617601655565b62ff00006016549160101b169062ff0000191617601655565b64ffff0000006016549160181b169064ffff000000191617601655565b6000526008602052604060002090565b613dcd565b68ffffffff00000000006016549160281b169068ffffffff0000000000191617601655565b6016805470ffffffffffffffff0000000000000000001916604885901b67ffffffffffffffff60481b161790551691829116149182612e97575b5050612eaa565b60018060a01b03166001600160601b0360a01b6018541617601855565b60165460081c60ff1690565b6001600160401b03161490503880612e67565b15612eb157565b60405162461bcd60e51b815260206004820152601060248201526f2bb937b733903232b1b93cb83a34b7b760811b6044820152606490fd5b60405190612ef8604083610a95565b6003825262557fa160e91b6020830152565b906020808351928381520192019060005b818110612f285750505090565b8251845260209384019390920191600101612f1b565b9060206105d0928181520190612f0a565b6040513d6000823e3d90fd5b908160209103126103d7575190565b939092612f856080949796939760a0875260a0870190612f0a565b6001600160e01b03199097166020860152604085015260608401521515910152565b6000805160206145b983398151915254612fcb90610bae906001600160a01b031681565b91823b156103d7576000604051809463155f840160e21b8252818381612ff48860048301612f3e565b03925af1918215610c995760009360209361308c575b506000805160206145f9833981519152548490819061303390610bae906001600160a01b031681565b9261305d60405197889687958694634c0d927760e01b86526309353a0960e21b9060048701612f6a565b03925af1908115610c9957600091613073575090565b6105d0915060203d602011610cc657610cb88183610a95565b80610c8d8661309a93610a95565b3861300a565b6000805160206145b9833981519152546130c490610bae906001600160a01b031681565b91823b156103d7576000604051809463155f840160e21b82528183816130ed8860048301612f3e565b03925af1918215610c9957600093602093613156575b506000805160206145f9833981519152548490819061312c90610bae906001600160a01b031681565b9261305d60405197889687958694634c0d927760e01b865263090714b960e31b9060048701612f6a565b80610c8d8661316493610a95565b38613103565b6000805160206145b98339815191525461318e90610bae906001600160a01b031681565b91823b156103d7576000604051809463155f840160e21b82528183816131b78860048301612f3e565b03925af1918215610c9957600193602093613221575b506000805160206145f98339815191525460009081906131f790610bae906001600160a01b031681565b9261305d60405197889687958694634c0d927760e01b8652636c8f69cf60e01b9060048701612f6a565b80610c8d600061323093610a95565b386131cd565b6000805160206145b98339815191525461325a90610bae906001600160a01b031681565b91823b156103d7576000604051809463155f840160e21b82528183816132838860048301612f3e565b03925af1918215610c99576000936020936132ec575b506000805160206145f983398151915254849081906132c290610bae906001600160a01b031681565b9261305d60405197889687958694634c0d927760e01b86526305878b3f60e31b9060048701612f6a565b80610c8d866132fa93610a95565b38613299565b6000805160206145b98339815191525461332490610bae906001600160a01b031681565b91823b156103d7576000604051809463155f840160e21b825281838161334d8860048301612f3e565b03925af1918215610c99576000936020936133b6575b506000805160206145f9833981519152548490819061338c90610bae906001600160a01b031681565b9261305d60405197889687958694634c0d927760e01b865263c375d83760e01b9060048701612f6a565b80610c8d866133c493610a95565b38613363565b6000805160206145b9833981519152546133ee90610bae906001600160a01b031681565b91823b156103d7576000604051809463155f840160e21b82528183816134178860048301612f3e565b03925af1918215610c9957600093602093613480575b506000805160206145f9833981519152548490819061345690610bae906001600160a01b031681565b9261305d60405197889687958694634c0d927760e01b8652630526e1f160e01b9060048701612f6a565b80610c8d8661348e93610a95565b3861342d565b6000805160206145b9833981519152546134b890610bae906001600160a01b031681565b91823b156103d7576000604051809463155f840160e21b82528183816134e18860048301612f3e565b03925af1918215610c995760009360209361354a575b506000805160206145f9833981519152548490819061352090610bae906001600160a01b031681565b9261305d60405197889687958694634c0d927760e01b865263f5cc5a5760e01b9060048701612f6a565b80610c8d8661355893610a95565b386134f7565b6000805160206145b98339815191525461358290610bae906001600160a01b031681565b91823b156103d7576000604051809463155f840160e21b82528183816135ab8860048301612f3e565b03925af1918215610c9957600093602093613614575b506000805160206145f983398151915254849081906135ea90610bae906001600160a01b031681565b9261305d60405197889687958694634c0d927760e01b86526323752ca760e01b9060048701612f6a565b80610c8d8661362293610a95565b386135c1565b6000805160206145b98339815191525461364c90610bae906001600160a01b031681565b91823b156103d7576000604051809463155f840160e21b82528183816136758860048301612f3e565b03925af1918215610c99576000936020936136de575b506000805160206145f983398151915254849081906136b490610bae906001600160a01b031681565b9261305d60405197889687958694634c0d927760e01b8652630755eafd60e21b9060048701612f6a565b80610c8d866136ec93610a95565b3861368b565b6000805160206145b98339815191525461371690610bae906001600160a01b031681565b91823b156103d7576000604051809463155f840160e21b825281838161373f8860048301612f3e565b03925af1918215610c99576000936020936137a8575b506000805160206145f9833981519152548490819061377e90610bae906001600160a01b031681565b9261305d60405197889687958694634c0d927760e01b865263d16444eb60e01b9060048701612f6a565b80610c8d866137b693610a95565b38613755565b6000805160206145b9833981519152546137e090610bae906001600160a01b031681565b91823b156103d7576000604051809463155f840160e21b82528183816138098860048301612f3e565b03925af1918215610c9957600093602093613872575b506000805160206145f9833981519152548490819061384890610bae906001600160a01b031681565b9261305d60405197889687958694634c0d927760e01b86526317d3b54960e31b9060048701612f6a565b80610c8d8661388093610a95565b3861381f565b6000805160206145b9833981519152546138aa90610bae906001600160a01b031681565b91823b156103d7576000604051809463155f840160e21b82528183816138d38860048301612f3e565b03925af1918215610c995760009360209361393c575b506000805160206145f9833981519152548490819061391290610bae906001600160a01b031681565b9261305d60405197889687958694634c0d927760e01b865263c16d7f6b60e01b9060048701612f6a565b80610c8d8661394a93610a95565b386138e9565b6000805160206145b98339815191525461397490610bae906001600160a01b031681565b91823b156103d7576000604051809463155f840160e21b825281838161399d8860048301612f3e565b03925af1918215610c9957600093602093613a06575b506000805160206145f983398151915254849081906139dc90610bae906001600160a01b031681565b9261305d60405197889687958694634c0d927760e01b865263a4b42fd960e01b9060048701612f6a565b80610c8d86613a1493610a95565b386139b3565b6000805160206145b983398151915254613a3e90610bae906001600160a01b031681565b91823b156103d7576000604051809463155f840160e21b8252818381613a678860048301612f3e565b03925af1918215610c9957600093602093613ad0575b506000805160206145f98339815191525484908190613aa690610bae906001600160a01b031681565b9261305d60405197889687958694634c0d927760e01b865263e4dc796960e01b9060048701612f6a565b80610c8d86613ade93610a95565b38613a7d565b6000805160206145b983398151915254613b0890610bae906001600160a01b031681565b91823b156103d7576000604051809463155f840160e21b8252818381613b318860048301612f3e565b03925af1918215610c9957600093602093613b9a575b506000805160206145f98339815191525484908190613b7090610bae906001600160a01b031681565b9261305d60405197889687958694634c0d927760e01b86526372b9529360e11b9060048701612f6a565b80610c8d86613ba893610a95565b38613b47565b806000526009602052604060002054613c4657600052600960205260406000208151916001600160401b03831161051957600160401b8311610519576020908254848455808510613c29575b500190600052602060002060005b838110613c155750505050565b600190602084519401938184015501613c08565b613c40908460005285846000209182019101612a94565b38613bfa565b60405162461bcd60e51b815260206004820152601f60248201527f7265717565737465642068616e646c657320616c7265616479207361766564006044820152606490fd5b15613c9257565b60405162461bcd60e51b815260206004820152601760248201527f496e7075742065786365656473203235362062797465730000000000000000006044820152606490fd5b6040516101009190610120613cec8183610a95565b8382526001600160401b0382941161051957601f190190369060200137565b60405160a09190613d1c8382610a95565b6080815291601f1901366020840137565b60405160609190613d3e8382610a95565b6040815291601f1901366020840137565b90613d5982611146565b613d666040519182610a95565b8281528092613d77601f1991611146565b0190602036910137565b6101000390610100821161041a57565b608003906080821161041a57565b604003906040821161041a57565b601f1981019190821161041a57565b90815181101561041f570160200190565b906040519182815491828252602082019060005260206000209260005b818110613dff575050612ae692500383610a95565b8454835260019485019487945060209093019201613dea565b80600052600960205260406000205415613e415760005260096020526105d06040600020613dcd565b60405162461bcd60e51b815260206004820152603360248201527f7265717565737465642068616e646c65732077657265206e6f7420736176656460448201527208199bdc881d1a1a5cc81c995c5d595cdd1251606a1b6064820152608490fd5b908160209103126103d757516105d0816107cb565b9290613eea92613edc9160018060a01b03168552608060208601526080850190612f0a565b90838203604085015261057e565b906060818303910152815180825260208201916020808360051b8301019401926000915b838310613f1d57505050505090565b9091929394602080613f3b600193601f19868203018752895161057e565b97019301930191939290613f0e565b80516000906000905b80821061403857505090613f8181613f6c602094612a79565b613f7581613d4f565b906024868301376144a9565b7fed8d60e34876f751cc8b014c560745351147d9de11b9347c854e881b128ea60354909190613fba90610bae906001600160a01b031681565b6000805160206145b9833981519152549091906000906001600160a01b0316613ff96040519788968795869463dd66628760e01b865260048601613eb7565b03925af1908115610c995760009161400f575090565b6105d0915060203d602011614031575b6140298183610a95565b810190613ea2565b503d61401f565b909161405a61405461405461404d8688612a16565b5160081c90565b60ff1690565b6009811015614078575061406f600191612a79565b925b0190613f53565b60098103614092575061408c600191612a6b565b92614071565b600a81036140a6575061408c600191612a5d565b600b036140b85761408c600191612a4e565b60405162461bcd60e51b815260206004820152601760248201527f556e737570706f727465642068616e646c6520747970650000000000000000006044820152606490fd5b60005260086020526040600020805490600160401b821015610519576001820180825582101561041f5760005260206000200155565b1561413a57565b60405162461bcd60e51b815260206004820152601760248201527f496e7075742065786365656473203132382062797465730000000000000000006044820152606490fd5b9060408251116141ff57614191613d2d565b61419b8351613d9f565b9260005b8481106141e9575060005b81518110156141e257806141c36110d560019385613dbc565b6141db6141d08389612a87565b9160001a9186613dbc565b53016141aa565b5090925050565b8060006141f860019386613dbc565b530161419f565b60405162461bcd60e51b8152602060048201526016602482015275496e707574206578636565647320363420627974657360501b6044820152606490fd5b9260609261426892969596855260018060a01b0316602085015260806040850152608084019061057e565b6001600160f81b0319909416910152565b600080516020614619833981519152546142cd9392602092916142a690610bae906001600160a01b031681565b9060006040518097819582946302e817ff60e41b8452600b60f81b9133906004860161423d565b03925af1918215610c9957600092614353575b506000805160206145b983398151915254829061430790610bae906001600160a01b031681565b803b156103d7576040516346ce4e4960e11b815260048101929092523360248301526000908290604490829084905af18015610c99576143445750565b80610c8d6000612ae693610a95565b61436d91925060203d602011610cc657610cb88183610a95565b90386142e0565b602060009160018060a01b036000805160206146198339815191525416604051809481809463e0c5cbb360e01b82526143b9600483019160408352604083019061057e565b600960f81b9188019190915203925af1908115610c9957600091613073575090565b602060009160018060a01b036000805160206146198339815191525416604051809481809463e0c5cbb360e01b8252614420600483019160408352604083019061057e565b600b60f81b9188019190915203925af1908115610c9957600091613073575090565b602060009160018060a01b036000805160206146198339815191525416604051809481809463e0c5cbb360e01b8252614487600483019160408352604083019061057e565b600560f91b9188019190915203925af1908115610c9957600091613073575090565b9080519060005b8281106144d7575050600581901b906001600160fb1b0381160361041a576105d091614522565b600960ff6144e58385612a16565b5160081c1610156144f9575b6001016144b0565b926001600160fb1b038416840361041a57600584901b81016020018051601f19019052926144f1565b91908251601f19810190811161041a5761453b90613d4f565b9060005b81811061458c575061455090612a79565b835181101561458757806145696110d560019387613dbc565b61458061457583613dad565b9160001a9185613dbc565b5301614550565b509150565b8061459960019287613dbc565b516001600160f81b03191660001a6145b18286613dbc565b530161453f56feed8d60e34876f751cc8b014c560745351147d9de11b9347c854e881b128ea6006d4407e7be21f808e6509aa9fa9143369579dd7d760fe20a2c09680fc146134f93ab6e17f2c461cce6ea5d4ec117e51dda77a64affc2b2c05f8cd440def0e700ed8d60e34876f751cc8b014c560745351147d9de11b9347c854e881b128ea601a264697066735822122086bbe24e6e1b91e3e032db8a8750cd31324bc35c986af0489a6d235958eba15f64736f6c634300081c0033ed8d60e34876f751cc8b014c560745351147d9de11b9347c854e881b128ea601","linkReferences":{}},"methodIdentifiers":{"callbackAddress(uint256,address)":"e572a526","callbackAddresses(uint256,address,address)":"4838a5c8","callbackBool(uint256,bool)":"2c3c59f8","callbackBoolTrustless(uint256,bool,bytes[])":"e6a6ee46","callbackBytes128(uint256,bytes)":"1d57abf4","callbackBytes256(uint256,bytes)":"d16444eb","callbackBytes256Trustless(uint256,bytes,bytes[])":"d2f2150d","callbackBytes64(uint256,bytes)":"c375d837","callbackMixed(uint256,bool,bool,uint8,uint8,uint16,uint32,uint64,uint64,uint64,address)":"be9daa48","callbackMixedBytes256(uint256,bool,address,bytes,bytes)":"e4dc7969","callbackMixedBytes256Trustless(uint256,bool,bytes,address,bytes[])":"6c8f69cf","callbackUint128(uint256,uint128)":"f5cc5a57","callbackUint16(uint256,uint16)":"24d4e824","callbackUint256(uint256,uint256)":"23752ca7","callbackUint32(uint256,uint32)":"77309623","callbackUint4(uint256,uint8)":"a4b42fd9","callbackUint64(uint256,uint64)":"c16d7f6b","callbackUint8(uint256,uint8)":"0526e1f1","latestRequestID()":"7752a687","requestAddress()":"fd05702b","requestBool()":"cc9df9f1","requestBoolAboveDelay()":"3a5ff6b0","requestBoolTrustless()":"fea71979","requestEbytes128NonTrivial(bytes32,bytes)":"5a8aaf42","requestEbytes128Trivial(bytes)":"80373286","requestEbytes256NonTrivial(bytes32,bytes)":"ea1106ca","requestEbytes256NonTrivialTrustless(bytes32,bytes)":"8ac573d8","requestEbytes256Trivial(bytes)":"67c71a2b","requestEbytes64NonTrivial(bytes32,bytes)":"5022a540","requestEbytes64Trivial(bytes)":"81bd4906","requestMixed(uint32,uint32)":"6da8b1a4","requestMixedBytes256(bytes32,bytes)":"faa776f5","requestMixedBytes256Trustless(bytes32,bytes)":"323566a5","requestSeveralAddresses()":"18288c78","requestUint128()":"580ccfc5","requestUint128NonTrivial(bytes32,bytes)":"74262db9","requestUint16()":"031165ca","requestUint256()":"9afbe861","requestUint256NonTrivial(bytes32,bytes)":"5a1d3bea","requestUint32(uint32,uint32)":"f459e61b","requestUint4()":"cfde774a","requestUint64()":"8f83ef7a","requestUint64NonTrivial(bytes32,bytes)":"d258d887","requestUint8()":"54dc83dc","yAddress()":"f5020b9f","yAddress2()":"3ffcf52a","yBool()":"4baa0782","yBytes128()":"c8779aca","yBytes256()":"4c4ef3c9","yBytes64()":"65ca0636","yUint128()":"cb76288d","yUint16()":"c39f47e5","yUint256()":"3db09e62","yUint32()":"ffcbf815","yUint4()":"f7d25d57","yUint64()":"9cec1b61","yUint64_2()":"f183f84d","yUint64_3()":"7bcbc6de","yUint8()":"14720686"},"id":3}