{"abi":[{"type":"constructor","inputs":[],"stateMutability":"nonpayable"},{"type":"function","name":"callbackAddress","inputs":[{"name":"","type":"uint256","internalType":"uint256"},{"name":"decryptedInput","type":"address","internalType":"address"}],"outputs":[{"name":"","type":"address","internalType":"address"}],"stateMutability":"nonpayable"},{"type":"function","name":"callbackAddresses","inputs":[{"name":"","type":"uint256","internalType":"uint256"},{"name":"decryptedInput1","type":"address","internalType":"address"},{"name":"decryptedInput2","type":"address","internalType":"address"}],"outputs":[{"name":"","type":"address","internalType":"address"}],"stateMutability":"nonpayable"},{"type":"function","name":"callbackBool","inputs":[{"name":"","type":"uint256","internalType":"uint256"},{"name":"decryptedInput","type":"bool","internalType":"bool"}],"outputs":[{"name":"","type":"bool","internalType":"bool"}],"stateMutability":"nonpayable"},{"type":"function","name":"callbackBoolTrustless","inputs":[{"name":"requestID","type":"uint256","internalType":"uint256"},{"name":"decryptedInput","type":"bool","internalType":"bool"},{"name":"signatures","type":"bytes[]","internalType":"bytes[]"}],"outputs":[{"name":"","type":"bool","internalType":"bool"}],"stateMutability":"nonpayable"},{"type":"function","name":"callbackBytes128","inputs":[{"name":"","type":"uint256","internalType":"uint256"},{"name":"decryptedInput","type":"bytes","internalType":"bytes"}],"outputs":[{"name":"","type":"bytes","internalType":"bytes"}],"stateMutability":"nonpayable"},{"type":"function","name":"callbackBytes256","inputs":[{"name":"","type":"uint256","internalType":"uint256"},{"name":"decryptedInput","type":"bytes","internalType":"bytes"}],"outputs":[{"name":"","type":"bytes","internalType":"bytes"}],"stateMutability":"nonpayable"},{"type":"function","name":"callbackBytes256Trustless","inputs":[{"name":"requestID","type":"uint256","internalType":"uint256"},{"name":"decryptedInput","type":"bytes","internalType":"bytes"},{"name":"signatures","type":"bytes[]","internalType":"bytes[]"}],"outputs":[{"name":"","type":"bytes","internalType":"bytes"}],"stateMutability":"nonpayable"},{"type":"function","name":"callbackBytes64","inputs":[{"name":"","type":"uint256","internalType":"uint256"},{"name":"decryptedInput","type":"bytes","internalType":"bytes"}],"outputs":[{"name":"","type":"bytes","internalType":"bytes"}],"stateMutability":"nonpayable"},{"type":"function","name":"callbackMixed","inputs":[{"name":"requestID","type":"uint256","internalType":"uint256"},{"name":"decBool_1","type":"bool","internalType":"bool"},{"name":"decBool_2","type":"bool","internalType":"bool"},{"name":"decUint4","type":"uint8","internalType":"uint8"},{"name":"decUint8","type":"uint8","internalType":"uint8"},{"name":"decUint16","type":"uint16","internalType":"uint16"},{"name":"decUint32","type":"uint32","internalType":"uint32"},{"name":"decUint64_1","type":"uint64","internalType":"uint64"},{"name":"decUint64_2","type":"uint64","internalType":"uint64"},{"name":"decUint64_3","type":"uint64","internalType":"uint64"},{"name":"decAddress","type":"address","internalType":"address"}],"outputs":[{"name":"","type":"uint8","internalType":"uint8"}],"stateMutability":"nonpayable"},{"type":"function","name":"callbackMixedBytes256","inputs":[{"name":"","type":"uint256","internalType":"uint256"},{"name":"decBool","type":"bool","internalType":"bool"},{"name":"decAddress","type":"address","internalType":"address"},{"name":"bytesRes","type":"bytes","internalType":"bytes"},{"name":"bytesRes2","type":"bytes","internalType":"bytes"}],"outputs":[],"stateMutability":"nonpayable"},{"type":"function","name":"callbackMixedBytes256Trustless","inputs":[{"name":"requestID","type":"uint256","internalType":"uint256"},{"name":"decBool","type":"bool","internalType":"bool"},{"name":"bytesRes","type":"bytes","internalType":"bytes"},{"name":"decAddress","type":"address","internalType":"address"},{"name":"signatures","type":"bytes[]","internalType":"bytes[]"}],"outputs":[],"stateMutability":"nonpayable"},{"type":"function","name":"callbackUint128","inputs":[{"name":"","type":"uint256","internalType":"uint256"},{"name":"decryptedInput","type":"uint128","internalType":"uint128"}],"outputs":[{"name":"","type":"uint128","internalType":"uint128"}],"stateMutability":"nonpayable"},{"type":"function","name":"callbackUint16","inputs":[{"name":"","type":"uint256","internalType":"uint256"},{"name":"decryptedInput","type":"uint16","internalType":"uint16"}],"outputs":[{"name":"","type":"uint16","internalType":"uint16"}],"stateMutability":"nonpayable"},{"type":"function","name":"callbackUint256","inputs":[{"name":"","type":"uint256","internalType":"uint256"},{"name":"decryptedInput","type":"uint256","internalType":"uint256"}],"outputs":[{"name":"","type":"uint256","internalType":"uint256"}],"stateMutability":"nonpayable"},{"type":"function","name":"callbackUint32","inputs":[{"name":"requestID","type":"uint256","internalType":"uint256"},{"name":"decryptedInput","type":"uint32","internalType":"uint32"}],"outputs":[{"name":"","type":"uint32","internalType":"uint32"}],"stateMutability":"nonpayable"},{"type":"function","name":"callbackUint4","inputs":[{"name":"","type":"uint256","internalType":"uint256"},{"name":"decryptedInput","type":"uint8","internalType":"uint8"}],"outputs":[{"name":"","type":"uint8","internalType":"uint8"}],"stateMutability":"nonpayable"},{"type":"function","name":"callbackUint64","inputs":[{"name":"","type":"uint256","internalType":"uint256"},{"name":"decryptedInput","type":"uint64","internalType":"uint64"}],"outputs":[{"name":"","type":"uint64","internalType":"uint64"}],"stateMutability":"nonpayable"},{"type":"function","name":"callbackUint8","inputs":[{"name":"","type":"uint256","internalType":"uint256"},{"name":"decryptedInput","type":"uint8","internalType":"uint8"}],"outputs":[{"name":"","type":"uint8","internalType":"uint8"}],"stateMutability":"nonpayable"},{"type":"function","name":"latestRequestID","inputs":[],"outputs":[{"name":"","type":"uint256","internalType":"uint256"}],"stateMutability":"view"},{"type":"function","name":"requestAddress","inputs":[],"outputs":[],"stateMutability":"nonpayable"},{"type":"function","name":"requestBool","inputs":[],"outputs":[],"stateMutability":"nonpayable"},{"type":"function","name":"requestBoolAboveDelay","inputs":[],"outputs":[],"stateMutability":"nonpayable"},{"type":"function","name":"requestBoolTrustless","inputs":[],"outputs":[],"stateMutability":"nonpayable"},{"type":"function","name":"requestEbytes128NonTrivial","inputs":[{"name":"inputHandle","type":"bytes32","internalType":"einput"},{"name":"inputProof","type":"bytes","internalType":"bytes"}],"outputs":[],"stateMutability":"nonpayable"},{"type":"function","name":"requestEbytes128Trivial","inputs":[{"name":"value","type":"bytes","internalType":"bytes"}],"outputs":[],"stateMutability":"nonpayable"},{"type":"function","name":"requestEbytes256NonTrivial","inputs":[{"name":"inputHandle","type":"bytes32","internalType":"einput"},{"name":"inputProof","type":"bytes","internalType":"bytes"}],"outputs":[],"stateMutability":"nonpayable"},{"type":"function","name":"requestEbytes256NonTrivialTrustless","inputs":[{"name":"inputHandle","type":"bytes32","internalType":"einput"},{"name":"inputProof","type":"bytes","internalType":"bytes"}],"outputs":[],"stateMutability":"nonpayable"},{"type":"function","name":"requestEbytes256Trivial","inputs":[{"name":"value","type":"bytes","internalType":"bytes"}],"outputs":[],"stateMutability":"nonpayable"},{"type":"function","name":"requestEbytes64NonTrivial","inputs":[{"name":"inputHandle","type":"bytes32","internalType":"einput"},{"name":"inputProof","type":"bytes","internalType":"bytes"}],"outputs":[],"stateMutability":"nonpayable"},{"type":"function","name":"requestEbytes64Trivial","inputs":[{"name":"value","type":"bytes","internalType":"bytes"}],"outputs":[],"stateMutability":"nonpayable"},{"type":"function","name":"requestMixed","inputs":[{"name":"input1","type":"uint32","internalType":"uint32"},{"name":"input2","type":"uint32","internalType":"uint32"}],"outputs":[],"stateMutability":"nonpayable"},{"type":"function","name":"requestMixedBytes256","inputs":[{"name":"inputHandle","type":"bytes32","internalType":"einput"},{"name":"inputProof","type":"bytes","internalType":"bytes"}],"outputs":[],"stateMutability":"nonpayable"},{"type":"function","name":"requestMixedBytes256Trustless","inputs":[{"name":"inputHandle","type":"bytes32","internalType":"einput"},{"name":"inputProof","type":"bytes","internalType":"bytes"}],"outputs":[],"stateMutability":"nonpayable"},{"type":"function","name":"requestSeveralAddresses","inputs":[],"outputs":[],"stateMutability":"nonpayable"},{"type":"function","name":"requestUint128","inputs":[],"outputs":[],"stateMutability":"nonpayable"},{"type":"function","name":"requestUint128NonTrivial","inputs":[{"name":"inputHandle","type":"bytes32","internalType":"einput"},{"name":"inputProof","type":"bytes","internalType":"bytes"}],"outputs":[],"stateMutability":"nonpayable"},{"type":"function","name":"requestUint16","inputs":[],"outputs":[],"stateMutability":"nonpayable"},{"type":"function","name":"requestUint256","inputs":[],"outputs":[],"stateMutability":"nonpayable"},{"type":"function","name":"requestUint256NonTrivial","inputs":[{"name":"inputHandle","type":"bytes32","internalType":"einput"},{"name":"inputProof","type":"bytes","internalType":"bytes"}],"outputs":[],"stateMutability":"nonpayable"},{"type":"function","name":"requestUint32","inputs":[{"name":"input1","type":"uint32","internalType":"uint32"},{"name":"input2","type":"uint32","internalType":"uint32"}],"outputs":[],"stateMutability":"nonpayable"},{"type":"function","name":"requestUint4","inputs":[],"outputs":[],"stateMutability":"nonpayable"},{"type":"function","name":"requestUint64","inputs":[],"outputs":[],"stateMutability":"nonpayable"},{"type":"function","name":"requestUint64NonTrivial","inputs":[{"name":"inputHandle","type":"bytes32","internalType":"einput"},{"name":"inputProof","type":"bytes","internalType":"bytes"}],"outputs":[],"stateMutability":"nonpayable"},{"type":"function","name":"requestUint8","inputs":[],"outputs":[],"stateMutability":"nonpayable"},{"type":"function","name":"yAddress","inputs":[],"outputs":[{"name":"","type":"address","internalType":"address"}],"stateMutability":"view"},{"type":"function","name":"yAddress2","inputs":[],"outputs":[{"name":"","type":"address","internalType":"address"}],"stateMutability":"view"},{"type":"function","name":"yBool","inputs":[],"outputs":[{"name":"","type":"bool","internalType":"bool"}],"stateMutability":"view"},{"type":"function","name":"yBytes128","inputs":[],"outputs":[{"name":"","type":"bytes","internalType":"bytes"}],"stateMutability":"view"},{"type":"function","name":"yBytes256","inputs":[],"outputs":[{"name":"","type":"bytes","internalType":"bytes"}],"stateMutability":"view"},{"type":"function","name":"yBytes64","inputs":[],"outputs":[{"name":"","type":"bytes","internalType":"bytes"}],"stateMutability":"view"},{"type":"function","name":"yUint128","inputs":[],"outputs":[{"name":"","type":"uint128","internalType":"uint128"}],"stateMutability":"view"},{"type":"function","name":"yUint16","inputs":[],"outputs":[{"name":"","type":"uint16","internalType":"uint16"}],"stateMutability":"view"},{"type":"function","name":"yUint256","inputs":[],"outputs":[{"name":"","type":"uint256","internalType":"uint256"}],"stateMutability":"view"},{"type":"function","name":"yUint32","inputs":[],"outputs":[{"name":"","type":"uint32","internalType":"uint32"}],"stateMutability":"view"},{"type":"function","name":"yUint4","inputs":[],"outputs":[{"name":"","type":"uint8","internalType":"uint8"}],"stateMutability":"view"},{"type":"function","name":"yUint64","inputs":[],"outputs":[{"name":"","type":"uint64","internalType":"uint64"}],"stateMutability":"view"},{"type":"function","name":"yUint64_2","inputs":[],"outputs":[{"name":"","type":"uint64","internalType":"uint64"}],"stateMutability":"view"},{"type":"function","name":"yUint64_3","inputs":[],"outputs":[{"name":"","type":"uint64","internalType":"uint64"}],"stateMutability":"view"},{"type":"function","name":"yUint8","inputs":[],"outputs":[{"name":"","type":"uint8","internalType":"uint8"}],"stateMutability":"view"}],"bytecode":{"object":"0x608060405234801561001057600080fd5b5061017a6100b0604080516080810182526000808252602082018190529181018290526060810191909152506040805160808101825273fee8407e2f5e3ee68ad77cae98c434e637f516e5815273687408ab54661ba0b4aef3a44156c616c6955e07602082015273fb03be574d14c256d56f09a198b586bdfc0a9de291810191909152739d6891a6240d6130c54ae243d8005063d05fe14b606082015290565b8051600080516020613f5e83398151915280546001600160a01b03199081166001600160a01b039384161790915560208301517fed8d60e34876f751cc8b014c560745351147d9de11b9347c854e881b128ea6018054831691841691909117905560408301517fed8d60e34876f751cc8b014c560745351147d9de11b9347c854e881b128ea6028054831691841691909117905560608301517fed8d60e34876f751cc8b014c560745351147d9de11b9347c854e881b128ea6038054909216921691909117905550565b7f93ab6e17f2c461cce6ea5d4ec117e51dda77a64affc2b2c05f8cd440def0e70080546001600160a01b0319167333347831500f1e73f0cccbb95c9f86b94d7b11231790556101c9600161032a565b600a8190556101d79061034c565b6101e16004610356565b600b8190556101ef9061034c565b6101f9602a610363565b600c8190556102079061034c565b6102116010610370565b600d81905561021f9061034c565b610229602061037d565b600e8190556102379061034c565b6102476010600160401b0361038a565b600f8190556102559061034c565b6102636411d440e13a61038a565b60108190556102719061034c565b61027c61190061038a565b601181905561028a9061034c565b6102a06c10000000000000000000000043610397565b60128190556102ae9061034c565b6102be6043600160ea1b016103a4565b60158190556102cc9061034c565b6102e9738ba1f109551bd432803012645ac136ddd64dba726103b1565b60138190556102f79061034c565b61031473f48b8840387ba3809dae990c930f3b4766a86ca36103b1565b60148190556103229061034c565b610521565b50565b600081156103425761033c60016103c7565b92915050565b61033c60006103c7565b61032781306103d3565b600061033c826001610450565b600061033c826002610450565b600061033c826003610450565b600061033c826004610450565b600061033c826005610450565b600061033c826006610450565b600061033c826008610450565b600061033c6001600160a01b0383166007610450565b600061033c8282610450565b6000600080516020613f5e8339815191528054604051631974142760e21b8152600481018690526001600160a01b0385811660248301529293509116906365d0509c90604401600060405180830381600087803b15801561043357600080fd5b505af1158015610447573d6000803e3d6000fd5b50505050505050565b600080600080516020613f5e8339815191526001810154604051631ce2e8d760e31b8152600481018790527fff0000000000000000000000000000000000000000000000000000000000000060f887901b1660248201529192506001600160a01b03169063e71746b8906044016020604051808303816000875af11580156104dc573d6000803e3d6000fd5b505050506040513d601f19601f820116820180604052508101906105009190610508565b949350505050565b60006020828403121561051a57600080fd5b5051919050565b613a2e806105306000396000f3fe608060405234801561001057600080fd5b50600436106103995760003560e01c806381bd4906116101e9578063d258d8871161010f578063f459e61b116100ad578063faa776f51161007c578063faa776f5146107df578063fd05702b146107f2578063fea71979146107fa578063ffcbf8151461080257600080fd5b8063f459e61b14610794578063f5020b9f146107a7578063f5cc5a57146107ba578063f7d25d57146107cd57600080fd5b8063e572a526116100e9578063e572a52614610741578063e6a6ee4614610754578063ea1106ca14610767578063f183f84d1461077a57600080fd5b8063d258d88714610708578063d2f2150d1461071b578063e4dc79691461072e57600080fd5b8063c16d7f6b11610187578063cb76288d11610156578063cb76288d146106b3578063cc9df9f1146106e5578063cfde774a146106ed578063d16444eb146106f557600080fd5b8063c16d7f6b14610670578063c375d83714610683578063c39f47e514610696578063c8779aca146106ab57600080fd5b80639afbe861116101c35780639afbe861146106285780639cec1b6114610630578063a4b42fd91461064a578063be9daa481461065d57600080fd5b806381bd4906146105fa5780638ac573d81461060d5780638f83ef7a1461062057600080fd5b80634c4ef3c9116102ce57806367c71a2b1161026c578063773096231161023b578063773096231461058b5780637752a687146105b35780637bcbc6de146105bc57806380373286146105e757600080fd5b806367c71a2b1461053f5780636c8f69cf146105525780636da8b1a41461056557806374262db91461057857600080fd5b8063580ccfc5116102a8578063580ccfc5146105095780635a1d3bea146105115780635a8aaf421461052457806365ca06361461053757600080fd5b80634c4ef3c9146104e65780635022a540146104ee57806354dc83dc1461050157600080fd5b80632c3c59f81161033b5780633db09e62116103155780633db09e62146104925780633ffcf52a1461049b5780634838a5c8146104c65780634baa0782146104d957600080fd5b80632c3c59f814610454578063323566a5146104775780633a5ff6b01461048a57600080fd5b806318288c781161037757806318288c78146103e55780631d57abf4146103ed57806323752ca71461040d57806324d4e8241461042e57600080fd5b8063031165ca1461039e5780630526e1f1146103a857806314720686146103d2575b600080fd5b6103a661081b565b005b6103bb6103b6366004612dd8565b610888565b60405160ff90911681526020015b60405180910390f35b6016546103bb9062010000900460ff1681565b6103a66108ce565b6104006103fb366004612e4c565b610950565b6040516103c99190612edd565b61042061041b366004612ef0565b6109c4565b6040519081526020016103c9565b61044161043c366004612f24565b6109f6565b60405161ffff90911681526020016103c9565b610467610462366004612f58565b610a3d565b60405190151581526020016103c9565b6103a6610485366004612e4c565b610a7d565b6103a6610b87565b610420601a5481565b6019546104ae906001600160a01b031681565b6040516001600160a01b0390911681526020016103c9565b6104ae6104d4366004612f9f565b610beb565b6016546104679060ff1681565b610400610c4b565b6103a66104fc366004612e4c565b610cd9565b6103a6610d79565b6103a6610ddb565b6103a661051f366004612e4c565b610e3d565b6103a6610532366004612e4c565b610edd565b610400610f7d565b6103a661054d366004612fdb565b610f8a565b6103a6610560366004613177565b611038565b6103a661057336600461321f565b611100565b6103a6610586366004612e4c565b6112d5565b61059e610599366004613249565b611375565b60405163ffffffff90911681526020016103c9565b610420601e5481565b6017546105cf906001600160401b031681565b6040516001600160401b0390911681526020016103c9565b6103a66105f5366004612fdb565b611412565b6103a6610608366004612fdb565b6114b9565b6103a661061b366004612e4c565b611560565b6103a6611601565b6103a6611663565b6016546105cf90600160481b90046001600160401b031681565b6103bb610658366004612dd8565b6116c5565b6103bb61066b366004613283565b611706565b6105cf61067e36600461334c565b611901565b610400610691366004612e4c565b611953565b601654610441906301000000900461ffff1681565b610400611987565b6017546106cd90600160401b90046001600160801b031681565b6040516001600160801b0390911681526020016103c9565b6103a6611994565b6103a66119f6565b610400610703366004612e4c565b611a58565b6103a6610716366004612e4c565b611a8c565b61040061072936600461336f565b611b2c565b6103a661073c3660046133e5565b611bfe565b6104ae61074f36600461346c565b611c65565b61046761076236600461348f565b611cad565b6103a6610775366004612e4c565b611d4b565b6016546105cf90600160881b90046001600160401b031681565b6103a66107a236600461321f565b611deb565b6018546104ae906001600160a01b031681565b6106cd6107c83660046134e7565b611e4e565b6016546103bb90610100900460ff1681565b6103a66107ed366004612e4c565b611ead565b6103a6611fea565b6103a661204c565b60165461059e9065010000000000900463ffffffff1681565b60408051600180825281830190925260009160208083019080368337019050509050610846600d5490565b8160008151811061085957610859613518565b6020908102919091010152610884816309353a0960e21b600061087d426064613544565b60006120c0565b5050565b60006108926121e2565b6001600160a01b0316336001600160a01b0316146108af57600080fd5b506016805462ff000019166201000060ff841602179055805b92915050565b6040805160028082526060820183526000926020830190803683370190505090506108f860135490565b8160008151811061090b5761090b613518565b60209081029190910101526014548160018151811061092c5761092c613518565b60209081029190910101526108848163090714b960e31b600061087d426064613544565b606061095a6121e2565b6001600160a01b0316336001600160a01b03161461097757600080fd5b601c6109848385836135d8565b5082828080601f01602080910402602001604051908101604052809392919081815260200183838082843760009201919091525092979650505050505050565b60006109ce6121e2565b6001600160a01b0316336001600160a01b0316146109eb57600080fd5b50601a819055919050565b6000610a006121e2565b6001600160a01b0316336001600160a01b031614610a1d57600080fd5b506016805464ffff0000001916630100000061ffff841602179055919050565b6000610a476121e2565b6001600160a01b0316336001600160a01b031614610a6457600080fd5b506016805460ff1916911515918217905560ff16919050565b6000610abf8484848080601f01602080910402602001604051908101604052809392919081815260200183838082843760009201919091525061221092505050565b604080516003808252608082019092529192506000919060208201606080368337019050509050610aef600a5490565b81600081518110610b0257610b02613518565b60209081029190910101528181600181518110610b2157610b21613518565b602090810291909101015260135481600281518110610b4257610b42613518565b60209081029190910101526000610b6e82636c8f69cf60e01b83610b67426064613544565b60016120c0565b601e8190559050610b7f8183612225565b505050505050565b60408051600180825281830190925260009160208083019080368337019050509050610bb2600a5490565b81600081518110610bc557610bc5613518565b6020908102919091010152610884816305878b3f60e31b600061087d426202a300613544565b6000610bf56121e2565b6001600160a01b0316336001600160a01b031614610c1257600080fd5b50601880546001600160a01b038085166001600160a01b0319928316179092556019805492841692909116919091179055819392505050565b601d8054610c5890613557565b80601f0160208091040260200160405190810160405280929190818152602001828054610c8490613557565b8015610cd15780601f10610ca657610100808354040283529160200191610cd1565b820191906000526020600020905b815481529060010190602001808311610cb457829003601f168201915b505050505081565b6000610d1b8484848080601f0160208091040260200160405190810160405280939291908181526020018383808284376000920191909152506122a592505050565b60408051600180825281830190925291925060009190602080830190803683370190505090508181600081518110610d5557610d55613518565b6020908102919091010152610b7f8163c375d83760e01b600061087d426064613544565b60408051600180825281830190925260009160208083019080368337019050509050610da4600c5490565b81600081518110610db757610db7613518565b602090810291909101015261088481630526e1f160e01b600061087d426064613544565b60408051600180825281830190925260009160208083019080368337019050509050610e0660125490565b81600081518110610e1957610e19613518565b60209081029190910101526108848163f5cc5a5760e01b600061087d426064613544565b6000610e7f8484848080601f0160208091040260200160405190810160405280939291908181526020018383808284376000920191909152506122b392505050565b60408051600180825281830190925291925060009190602080830190803683370190505090508181600081518110610eb957610eb9613518565b6020908102919091010152610b7f816323752ca760e01b600061087d426064613544565b6000610f1f8484848080601f0160208091040260200160405190810160405280939291908181526020018383808284376000920191909152506122c192505050565b60408051600180825281830190925291925060009190602080830190803683370190505090508181600081518110610f5957610f59613518565b6020908102919091010152610b7f81630755eafd60e21b600061087d426064613544565b601b8054610c5890613557565b6000610fd3610fce84848080601f0160208091040260200160405190810160405280939291908181526020018383808284376000920191909152506122cf92505050565b61240d565b6040805160018082528183019092529192506000919060208083019080368337019050509050818160008151811061100d5761100d613518565b60209081029190910101526110318163d16444eb60e01b600061087d426064613544565b5050505050565b6110406121e2565b6001600160a01b0316336001600160a01b03161461105d57600080fd5b84601e54146110875760405162461bcd60e51b815260040161107e90613697565b60405180910390fd5b6000611094601e5461241a565b905060006110a282846124f5565b9050806110c15760405162461bcd60e51b815260040161107e906136d8565b6016805460ff1916871515179055601880546001600160a01b0319166001600160a01b038616179055601d6110f68682613721565b5050505050505050565b60408051600a8082526101608201909252600091602082016101408036833701905050905061112e600a5490565b8160008151811061114157611141613518565b6020908102919091010152600a548160018151811061116257611162613518565b6020908102919091010152600b548160028151811061118357611183613518565b6020908102919091010152600c54816003815181106111a4576111a4613518565b6020908102919091010152600d54816004815181106111c5576111c5613518565b6020908102919091010152600e54816005815181106111e6576111e6613518565b6020908102919091010152600f548160068151811061120757611207613518565b6020908102919091010152600f548160078151811061122857611228613518565b6020908102919091010152600f548160088151811061124957611249613518565b60209081029190910101526013548160098151811061126a5761126a613518565b6020908102919091010152600061128f826317d3b54960e31b8361087d426064613544565b600090815260086020908152604082208054600180820183558285529290932063ffffffff97881693810193909355805491820190559390941692909301919091555050565b60006113178484848080601f01602080910402602001604051908101604052809392919081815260200183838082843760009201919091525061261792505050565b6040805160018082528183019092529192506000919060208083019080368337019050509050818160008151811061135157611351613518565b6020908102919091010152610b7f8163f5cc5a5760e01b600061087d426064613544565b600061137f6121e2565b6001600160a01b0316336001600160a01b03161461139c57600080fd5b60006113a784612625565b9050600083826001815181106113bf576113bf613518565b6020026020010151836000815181106113da576113da613518565b60200260200101510101905080601660056101000a81548163ffffffff021916908363ffffffff160217905550809250505092915050565b600061145b61145684848080601f01602080910402602001604051908101604052809392919081815260200183838082843760009201919091525061268592505050565b6127b6565b6040805160018082528183019092529192506000919060208083019080368337019050509050818160008151811061149557611495613518565b602090810291909101015261103181630755eafd60e21b600061087d426064613544565b60006115026114fd84848080601f0160208091040260200160405190810160405280939291908181526020018383808284376000920191909152506127c392505050565b6128ea565b6040805160018082528183019092529192506000919060208083019080368337019050509050818160008151811061153c5761153c613518565b60209081029190910101526110318163c375d83760e01b600061087d426064613544565b60006115a28484848080601f01602080910402602001604051908101604052809392919081815260200183838082843760009201919091525061221092505050565b604080516001808252818301909252919250600091906020808301908036833701905050905081816000815181106115dc576115dc613518565b60209081029190910101526000610b6e8263d2f2150d60e01b83610b67426064613544565b6040805160018082528183019092526000916020808301908036833701905050905061162c600f5490565b8160008151811061163f5761163f613518565b60209081029190910101526108848163c16d7f6b60e01b600061087d426064613544565b6040805160018082528183019092526000916020808301908036833701905050905061168e60155490565b816000815181106116a1576116a1613518565b6020908102919091010152610884816323752ca760e01b600061087d426064613544565b60006116cf6121e2565b6001600160a01b0316336001600160a01b0316146116ec57600080fd5b506016805461ff00191661010060ff841602179055919050565b60006117106121e2565b6001600160a01b0316336001600160a01b03161461172d57600080fd5b6016805460ff19168c15159081179091558a1515146117815760405162461bcd60e51b815260206004820152601060248201526f2bb937b733903232b1b93cb83a34b7b760811b604482015260640161107e565b6016805462ffff00191661010060ff8c81169190910262ff000019169190911762010000918b16919091021764ffff0000001916630100000061ffff8a160217905560006117ce8d612625565b9050600087826001815181106117e6576117e6613518565b60200260200101518360008151811061180157611801613518565b60209081029190910101516016805470ffffffffffffffffffffffff0000000000191665010000000000939092019390930163ffffffff169190910267ffffffffffffffff60481b191617600160481b6001600160401b038a811691820292909217909255871614905080156118885750836001600160401b0316856001600160401b0316145b6118c75760405162461bcd60e51b815260206004820152601060248201526f2bb937b733903232b1b93cb83a34b7b760811b604482015260640161107e565b5050601880546001600160a01b0383166001600160a01b031990911617905560165460ff610100909104169b9a5050505050505050505050565b600061190b6121e2565b6001600160a01b0316336001600160a01b03161461192857600080fd5b506016805467ffffffffffffffff60481b1916600160481b6001600160401b03841602179055919050565b606061195d6121e2565b6001600160a01b0316336001600160a01b03161461197a57600080fd5b601b6109848385836135d8565b601c8054610c5890613557565b604080516001808252818301909252600091602080830190803683370190505090506119bf600a5490565b816000815181106119d2576119d2613518565b6020908102919091010152610884816305878b3f60e31b600061087d426064613544565b60408051600180825281830190925260009160208083019080368337019050509050611a21600b5490565b81600081518110611a3457611a34613518565b60209081029190910101526108848163a4b42fd960e01b600061087d426064613544565b6060611a626121e2565b6001600160a01b0316336001600160a01b031614611a7f57600080fd5b601d6109848385836135d8565b6000611ace8484848080601f0160208091040260200160405190810160405280939291908181526020018383808284376000920191909152506128f792505050565b60408051600180825281830190925291925060009190602080830190803683370190505090508181600081518110611b0857611b08613518565b6020908102919091010152610b7f8163c16d7f6b60e01b600061087d426064613544565b6060611b366121e2565b6001600160a01b0316336001600160a01b031614611b5357600080fd5b84601e5414611b745760405162461bcd60e51b815260040161107e90613697565b6000611b81601e5461241a565b90506000611b8f82856124f5565b905080611bae5760405162461bcd60e51b815260040161107e906136d8565b601d611bbb8688836135d8565b5085858080601f016020809104026020016040519081016040528093929190818152602001838380828437600092019190915250929a9950505050505050505050565b611c066121e2565b6001600160a01b0316336001600160a01b031614611c2357600080fd5b6016805460ff1916851515179055601880546001600160a01b0319166001600160a01b038516179055601d611c588382613721565b50601b610b7f8282613721565b6000611c6f6121e2565b6001600160a01b0316336001600160a01b031614611c8c57600080fd5b50601880546001600160a01b0319166001600160a01b038316179055919050565b6000611cb76121e2565b6001600160a01b0316336001600160a01b031614611cd457600080fd5b83601e5414611cf55760405162461bcd60e51b815260040161107e90613697565b6000611d02601e5461241a565b90506000611d1082856124f5565b905080611d2f5760405162461bcd60e51b815260040161107e906136d8565b50506016805460ff19169315159384179055505060ff16919050565b6000611d8d8484848080601f01602080910402602001604051908101604052809392919081815260200183838082843760009201919091525061221092505050565b60408051600180825281830190925291925060009190602080830190803683370190505090508181600081518110611dc757611dc7613518565b6020908102919091010152610b7f8163d16444eb60e01b600061087d426064613544565b60408051600180825281830190925260009160208083019080368337019050509050611e16600e5490565b81600081518110611e2957611e29613518565b6020908102919091010152600061128f82637730962360e01b8361087d426064613544565b6000611e586121e2565b6001600160a01b0316336001600160a01b031614611e7557600080fd5b506017805477ffffffffffffffffffffffffffffffff00000000000000001916600160401b6001600160801b03841602179055919050565b6000611eef8484848080601f01602080910402602001604051908101604052809392919081815260200183838082843760009201919091525061221092505050565b60408051600480825260a082019092529192506000919060208201608080368337019050509050611f1f600a5490565b81600081518110611f3257611f32613518565b602090810291909101015260135481600181518110611f5357611f53613518565b60209081029190910101528181600281518110611f7257611f72613518565b6020026020010181815250506000611fa76114fd60405180604001604052806003815260200162557fa160e91b8152506127c3565b90508082600381518110611fbd57611fbd613518565b6020908102919091010152611fe18263e4dc796960e01b600061087d426064613544565b50505050505050565b6040805160018082528183019092526000916020808301908036833701905050905061201560135490565b8160008151811061202857612028613518565b6020908102919091010152610884816372b9529360e11b600061087d426064613544565b60408051600180825281830190925260009160208083019080368337019050509050612077600a5490565b8160008151811061208a5761208a613518565b602090810291909101015260006120af82637353772360e11b83610b67426064613544565b601e81905590506108848183612225565b6000805160206139d9833981519152805460405163155f840160e21b8152600092916001600160a01b03169063557e100490612100908a9060040161381b565b600060405180830381600087803b15801561211a57600080fd5b505af115801561212e573d6000803e3d6000fd5b50505050600061215b7f93ab6e17f2c461cce6ea5d4ec117e51dda77a64affc2b2c05f8cd440def0e70090565b8054604051634c0d927760e01b81529192506001600160a01b031690634c0d927790612193908b908b908b908b908b9060040161382e565b6020604051808303816000875af11580156121b2573d6000803e3d6000fd5b505050506040513d601f19601f820116820180604052508101906121d69190613871565b98975050505050505050565b7f93ab6e17f2c461cce6ea5d4ec117e51dda77a64affc2b2c05f8cd440def0e700546001600160a01b031690565b600061221e8383600b612901565b9392505050565b600082815260096020526040902054156122815760405162461bcd60e51b815260206004820152601f60248201527f7265717565737465642068616e646c657320616c726561647920736176656400604482015260640161107e565b600082815260096020908152604090912082516122a092840190612d62565b505050565b600061221e83836009612901565b600061221e83836008612901565b600061221e8383600a612901565b6060610100825111156123245760405162461bcd60e51b815260206004820152601760248201527f496e707574206578636565647320323536206279746573000000000000000000604482015260640161107e565b60408051610100808252610120820190925260009160208201818036833701905050905060008351610100612359919061388a565b905060005b8181101561239c57600060f81b83828151811061237d5761237d613518565b60200101906001600160f81b031916908160001a90535060010161235e565b5060005b8451811015612404578481815181106123bb576123bb613518565b01602001516001600160f81b031916836123d58385613544565b815181106123e5576123e5613518565b60200101906001600160f81b031916908160001a9053506001016123a0565b50909392505050565b60006108c882600b612a1c565b600081815260096020526040812054606091036124955760405162461bcd60e51b815260206004820152603360248201527f7265717565737465642068616e646c65732077657265206e6f7420736176656460448201527208199bdc881d1a1a5cc81c995c5d595cdd1251606a1b606482015260840161107e565b600082815260096020908152604091829020805483518184028101840190945280845290918301828280156124e957602002820191906000526020600020905b8154815260200190600101908083116124d5575b50505050509050919050565b600060248161250385612acf565b90506000816001600160401b0381111561251f5761251f61301c565b6040519080825280601f01601f191660200182016040528015612549576020820181803683370190505b5090508183602083013761255d8187612bbf565b7fed8d60e34876f751cc8b014c560745351147d9de11b9347c854e881b128ea603546000805160206139d9833981519152805460405163dd66628760e01b815293945090926001600160a01b039283169263dd666287926125c9929116908b9087908c9060040161389d565b6020604051808303816000875af11580156125e8573d6000803e3d6000fd5b505050506040513d601f19601f8201168201806040525081019061260c919061393b565b979650505050505050565b600061221e83836006612901565b6000818152600860209081526040918290208054835181840281018401909452808452606093928301828280156124e957602002820191906000526020600020908154815260200190600101908083116124d55750505050509050919050565b60606080825111156126d95760405162461bcd60e51b815260206004820152601760248201527f496e707574206578636565647320313238206279746573000000000000000000604482015260640161107e565b60408051608080825260a0820190925260009160208201818036833701905050905060008351608061270b919061388a565b905060005b8181101561274e57600060f81b83828151811061272f5761272f613518565b60200101906001600160f81b031916908160001a905350600101612710565b5060005b84518110156124045784818151811061276d5761276d613518565b01602001516001600160f81b031916836127878385613544565b8151811061279757612797613518565b60200101906001600160f81b031916908160001a905350600101612752565b60006108c882600a612a1c565b60606040825111156128105760405162461bcd60e51b8152602060048201526016602482015275496e707574206578636565647320363420627974657360501b604482015260640161107e565b6040805181815260608101825260009160208201818036833701905050905060008351604061283f919061388a565b905060005b8181101561288257600060f81b83828151811061286357612863613518565b60200101906001600160f81b031916908160001a905350600101612844565b5060005b8451811015612404578481815181106128a1576128a1613518565b01602001516001600160f81b031916836128bb8385613544565b815181106128cb576128cb613518565b60200101906001600160f81b031916908160001a905350600101612886565b60006108c8826009612a1c565b600061221e838360055b7fed8d60e34876f751cc8b014c560745351147d9de11b9347c854e881b128ea601546040516302e817ff60e41b81526000916000805160206139d9833981519152916001600160a01b0390911690632e817ff09061296d9088903390899060f88a901b90600401613958565b6020604051808303816000875af115801561298c573d6000803e3d6000fd5b505050506040513d601f19601f820116820180604052508101906129b09190613871565b81546040516346ce4e4960e11b8152600481018390523360248201529193506001600160a01b031690638d9c9c9290604401600060405180830381600087803b1580156129fc57600080fd5b505af1158015612a10573d6000803e3d6000fd5b50505050509392505050565b7fed8d60e34876f751cc8b014c560745351147d9de11b9347c854e881b128ea6015460405163e0c5cbb360e01b81526000916000805160206139d9833981519152916001600160a01b039091169063e0c5cbb390612a8490879060f888901b90600401613999565b6020604051808303816000875af1158015612aa3573d6000803e3d6000fd5b505050506040513d601f19601f82011682018060405250810190612ac79190613871565b949350505050565b805160009081805b82811015612bb35760006008868381518110612af557612af5613518565b6020026020010151901c905060098160ff161015612b1f57612b18602084613544565b9250612baa565b8060ff16600903612b3557612b18608084613544565b8060ff16600a03612b4b57612b1860c084613544565b8060ff16600b03612b6257612b1861014084613544565b60405162461bcd60e51b815260206004820152601760248201527f556e737570706f727465642068616e646c652074797065000000000000000000604482015260640161107e565b50600101612ad7565b50612ac7602082613544565b805160609060005b81811015612c275760006008858381518110612be557612be5613518565b6020026020010151901c905060098160ff1610612c1e57612c1b86612c0b8460206139c1565b81016020018051601f1901905290565b95505b50600101612bc7565b50612ac784612c378360206139c1565b6060600060208451612c49919061388a565b6001600160401b03811115612c6057612c6061301c565b6040519080825280601f01601f191660200182016040528015612c8a576020820181803683370190505b50905060005b83811015612ce657848181518110612caa57612caa613518565b602001015160f81c60f81b828281518110612cc757612cc7613518565b60200101906001600160f81b031916908160001a905350600101612c90565b506000612cf4846020613544565b90505b8451811015612d5a57848181518110612d1257612d12613518565b602001015160f81c60f81b82602083612d2b919061388a565b81518110612d3b57612d3b613518565b60200101906001600160f81b031916908160001a905350600101612cf7565b509392505050565b828054828255906000526020600020908101928215612d9d579160200282015b82811115612d9d578251825591602001919060010190612d82565b50612da9929150612dad565b5090565b5b80821115612da95760008155600101612dae565b803560ff81168114612dd357600080fd5b919050565b60008060408385031215612deb57600080fd5b82359150612dfb60208401612dc2565b90509250929050565b60008083601f840112612e1657600080fd5b5081356001600160401b03811115612e2d57600080fd5b602083019150836020828501011115612e4557600080fd5b9250929050565b600080600060408486031215612e6157600080fd5b8335925060208401356001600160401b03811115612e7e57600080fd5b612e8a86828701612e04565b9497909650939450505050565b6000815180845260005b81811015612ebd57602081850181015186830182015201612ea1565b506000602082860101526020601f19601f83011685010191505092915050565b60208152600061221e6020830184612e97565b60008060408385031215612f0357600080fd5b50508035926020909101359150565b803561ffff81168114612dd357600080fd5b60008060408385031215612f3757600080fd5b82359150612dfb60208401612f12565b8015158114612f5557600080fd5b50565b60008060408385031215612f6b57600080fd5b823591506020830135612f7d81612f47565b809150509250929050565b80356001600160a01b0381168114612dd357600080fd5b600080600060608486031215612fb457600080fd5b83359250612fc460208501612f88565b9150612fd260408501612f88565b90509250925092565b60008060208385031215612fee57600080fd5b82356001600160401b0381111561300457600080fd5b61301085828601612e04565b90969095509350505050565b634e487b7160e01b600052604160045260246000fd5b604051601f8201601f191681016001600160401b038111828210171561305a5761305a61301c565b604052919050565b600082601f83011261307357600080fd5b81356001600160401b0381111561308c5761308c61301c565b61309f601f8201601f1916602001613032565b8181528460208386010111156130b457600080fd5b816020850160208301376000918101602001919091529392505050565b600082601f8301126130e257600080fd5b81356001600160401b038111156130fb576130fb61301c565b8060051b61310b60208201613032565b9182526020818501810192908101908684111561312757600080fd5b6020860192505b8383101561316d5782356001600160401b0381111561314c57600080fd5b61315b886020838a0101613062565b8352506020928301929091019061312e565b9695505050505050565b600080600080600060a0868803121561318f57600080fd5b8535945060208601356131a181612f47565b935060408601356001600160401b038111156131bc57600080fd5b6131c888828901613062565b9350506131d760608701612f88565b915060808601356001600160401b038111156131f257600080fd5b6131fe888289016130d1565b9150509295509295909350565b803563ffffffff81168114612dd357600080fd5b6000806040838503121561323257600080fd5b61323b8361320b565b9150612dfb6020840161320b565b6000806040838503121561325c57600080fd5b82359150612dfb6020840161320b565b80356001600160401b0381168114612dd357600080fd5b60008060008060008060008060008060006101608c8e0312156132a557600080fd5b8b359a5060208c01356132b781612f47565b995060408c01356132c781612f47565b98506132d560608d01612dc2565b97506132e360808d01612dc2565b96506132f160a08d01612f12565b95506132ff60c08d0161320b565b945061330d60e08d0161326c565b935061331c6101008d0161326c565b925061332b6101208d0161326c565b915061333a6101408d01612f88565b90509295989b509295989b9093969950565b6000806040838503121561335f57600080fd5b82359150612dfb6020840161326c565b6000806000806060858703121561338557600080fd5b8435935060208501356001600160401b038111156133a257600080fd5b6133ae87828801612e04565b90945092505060408501356001600160401b038111156133cd57600080fd5b6133d9878288016130d1565b91505092959194509250565b600080600080600060a086880312156133fd57600080fd5b85359450602086013561340f81612f47565b935061341d60408701612f88565b925060608601356001600160401b0381111561343857600080fd5b61344488828901613062565b92505060808601356001600160401b0381111561346057600080fd5b6131fe88828901613062565b6000806040838503121561347f57600080fd5b82359150612dfb60208401612f88565b6000806000606084860312156134a457600080fd5b8335925060208401356134b681612f47565b915060408401356001600160401b038111156134d157600080fd5b6134dd868287016130d1565b9150509250925092565b600080604083850312156134fa57600080fd5b8235915060208301356001600160801b0381168114612f7d57600080fd5b634e487b7160e01b600052603260045260246000fd5b634e487b7160e01b600052601160045260246000fd5b808201808211156108c8576108c861352e565b600181811c9082168061356b57607f821691505b60208210810361358b57634e487b7160e01b600052602260045260246000fd5b50919050565b601f8211156122a057806000526020600020601f840160051c810160208510156135b85750805b601f840160051c820191505b8181101561103157600081556001016135c4565b6001600160401b038311156135ef576135ef61301c565b613603836135fd8354613557565b83613591565b6000601f841160018114613637576000851561361f5750838201355b600019600387901b1c1916600186901b178355611031565b600083815260209020601f19861690835b828110156136685786850135825560209485019460019092019101613648565b50868210156136855760001960f88860031b161c19848701351681555b505060018560011b0183555050505050565b60208082526021908201527f77726f6e672072657175657374494420706173736564206279204761746577616040820152607960f81b606082015260800190565b60208082526029908201527f4b4d5320646964206e6f742076657269667920746869732064656372797074696040820152681bdb881c995cdd5b1d60ba1b606082015260800190565b81516001600160401b0381111561373a5761373a61301c565b61374e816137488454613557565b84613591565b6020601f821160018114613782576000831561376a5750848201515b600019600385901b1c1916600184901b178455611031565b600084815260208120601f198516915b828110156137b25787850151825560209485019460019092019101613792565b50848210156137d05786840151600019600387901b60f8161c191681555b50505050600190811b01905550565b600081518084526020840193506020830160005b828110156138115781518652602095860195909101906001016137f3565b5093949350505050565b60208152600061221e60208301846137df565b60a08152600061384160a08301886137df565b6001600160e01b031996909616602083015250604081019390935260608301919091521515608090910152919050565b60006020828403121561388357600080fd5b5051919050565b818103818111156108c8576108c861352e565b6001600160a01b03851681526080602082018190526000906138c1908301866137df565b82810360408401526138d38186612e97565b9050828103606084015280845180835260208301915060208160051b8401016020870160005b8381101561392b57601f19868403018552613915838351612e97565b60209586019590935091909101906001016138f9565b50909a9950505050505050505050565b60006020828403121561394d57600080fd5b815161221e81612f47565b8481526001600160a01b038416602082015260806040820181905260009061398290830185612e97565b905060ff60f81b8316606083015295945050505050565b6040815260006139ac6040830185612e97565b905060ff60f81b831660208301529392505050565b80820281158282048414176108c8576108c861352e56feed8d60e34876f751cc8b014c560745351147d9de11b9347c854e881b128ea600a264697066735822122018c15514aa5aa8b3884d25bed099a3cc9593b832a9f2effc4ebe4dca71bc357064736f6c634300081c0033ed8d60e34876f751cc8b014c560745351147d9de11b9347c854e881b128ea600","linkReferences":{}},"methodIdentifiers":{"callbackAddress(uint256,address)":"e572a526","callbackAddresses(uint256,address,address)":"4838a5c8","callbackBool(uint256,bool)":"2c3c59f8","callbackBoolTrustless(uint256,bool,bytes[])":"e6a6ee46","callbackBytes128(uint256,bytes)":"1d57abf4","callbackBytes256(uint256,bytes)":"d16444eb","callbackBytes256Trustless(uint256,bytes,bytes[])":"d2f2150d","callbackBytes64(uint256,bytes)":"c375d837","callbackMixed(uint256,bool,bool,uint8,uint8,uint16,uint32,uint64,uint64,uint64,address)":"be9daa48","callbackMixedBytes256(uint256,bool,address,bytes,bytes)":"e4dc7969","callbackMixedBytes256Trustless(uint256,bool,bytes,address,bytes[])":"6c8f69cf","callbackUint128(uint256,uint128)":"f5cc5a57","callbackUint16(uint256,uint16)":"24d4e824","callbackUint256(uint256,uint256)":"23752ca7","callbackUint32(uint256,uint32)":"77309623","callbackUint4(uint256,uint8)":"a4b42fd9","callbackUint64(uint256,uint64)":"c16d7f6b","callbackUint8(uint256,uint8)":"0526e1f1","latestRequestID()":"7752a687","requestAddress()":"fd05702b","requestBool()":"cc9df9f1","requestBoolAboveDelay()":"3a5ff6b0","requestBoolTrustless()":"fea71979","requestEbytes128NonTrivial(bytes32,bytes)":"5a8aaf42","requestEbytes128Trivial(bytes)":"80373286","requestEbytes256NonTrivial(bytes32,bytes)":"ea1106ca","requestEbytes256NonTrivialTrustless(bytes32,bytes)":"8ac573d8","requestEbytes256Trivial(bytes)":"67c71a2b","requestEbytes64NonTrivial(bytes32,bytes)":"5022a540","requestEbytes64Trivial(bytes)":"81bd4906","requestMixed(uint32,uint32)":"6da8b1a4","requestMixedBytes256(bytes32,bytes)":"faa776f5","requestMixedBytes256Trustless(bytes32,bytes)":"323566a5","requestSeveralAddresses()":"18288c78","requestUint128()":"580ccfc5","requestUint128NonTrivial(bytes32,bytes)":"74262db9","requestUint16()":"031165ca","requestUint256()":"9afbe861","requestUint256NonTrivial(bytes32,bytes)":"5a1d3bea","requestUint32(uint32,uint32)":"f459e61b","requestUint4()":"cfde774a","requestUint64()":"8f83ef7a","requestUint64NonTrivial(bytes32,bytes)":"d258d887","requestUint8()":"54dc83dc","yAddress()":"f5020b9f","yAddress2()":"3ffcf52a","yBool()":"4baa0782","yBytes128()":"c8779aca","yBytes256()":"4c4ef3c9","yBytes64()":"65ca0636","yUint128()":"cb76288d","yUint16()":"c39f47e5","yUint256()":"3db09e62","yUint32()":"ffcbf815","yUint4()":"f7d25d57","yUint64()":"9cec1b61","yUint64_2()":"f183f84d","yUint64_3()":"7bcbc6de","yUint8()":"14720686"},"id":3}