{"abi":[{"type":"constructor","inputs":[],"stateMutability":"nonpayable"},{"type":"function","name":"applyFilterOnMetadata","inputs":[{"name":"filters","type":"tuple[][]","internalType":"struct Filter[][]","components":[{"name":"verifier","type":"uint8","internalType":"enum FilterOperator"},{"name":"value","type":"bytes","internalType":"bytes"}]},{"name":"metadataTypes","type":"uint8[]","internalType":"enum MetadataType[]"},{"name":"userMetadata","type":"uint256[]","internalType":"uint256[]"}],"outputs":[{"name":"","type":"uint256","internalType":"ebool"}],"stateMutability":"nonpayable"},{"type":"function","name":"isOperationAllowed","inputs":[{"name":"","type":"uint8","internalType":"enum MetadataType"},{"name":"","type":"uint8","internalType":"enum FilterOperator"}],"outputs":[{"name":"","type":"bool","internalType":"bool"}],"stateMutability":"view"},{"type":"function","name":"validateFilter","inputs":[{"name":"metadataType","type":"uint8[]","internalType":"enum MetadataType[]"},{"name":"filter","type":"tuple[][]","internalType":"struct Filter[][]","components":[{"name":"verifier","type":"uint8","internalType":"enum FilterOperator"},{"name":"value","type":"bytes","internalType":"bytes"}]}],"outputs":[],"stateMutability":"view"},{"type":"error","name":"InvalidFilterParameter","inputs":[]},{"type":"error","name":"UnmanagedOperator","inputs":[]},{"type":"error","name":"UnmanagedType","inputs":[]}],"bytecode":{"object":"0x60806040523461029b57600060606100156102a0565b8281528260208201528260408201520152739d6891a6240d6130c54ae243d8005063d05fe14b60606100456102a0565b73fee8407e2f5e3ee68ad77cae98c434e637f516e580825273687408ab54661ba0b4aef3a44156c616c6955e07602080840182905273fb03be574d14c256d56f09a198b586bdfc0a9de2604080860182905295909401959095527fed8d60e34876f751cc8b014c560745351147d9de11b9347c854e881b128ea60080546001600160a01b031990811690931790557fed8d60e34876f751cc8b014c560745351147d9de11b9347c854e881b128ea6018054831690911790557fed8d60e34876f751cc8b014c560745351147d9de11b9347c854e881b128ea602805482169092179091557fed8d60e34876f751cc8b014c560745351147d9de11b9347c854e881b128ea6038054909116739d6891a6240d6130c54ae243d8005063d05fe14b1790557f871b3b0713ea5d7fd1f75a811c349209996193f3a2535cdfd79d35416bf80123805460ff1990811660019081179092557fe3be84349242383ed4b31bbb7ede08a8080ac9d5e828342f449d34bf731539e980548216831790557fb37150ceb7e138645bfe4dfcef9a75073e1d7aa14c524dfdd20d3f751fad108480548216831790557f9b7d9d4d38e09e01f2082dbdeee850cc1f3aa1605ae9a63dcd694a7373b5e76f80548216831790557f09f922a082099d8bb3cef76f214b97d4ea18be3ab11deb731e4676110a885b48805482168317905560036000527fad3228b676f7d3cd4284a5443f17f1962b36e491b30a40b2405849e597ba5fb59093527f1064944154d106e1ec360ae74854831967df4793aa1a690999745d5669fc5d0580549093161790915551610d9290816102d68239f35b600080fd5b60405190608082016001600160401b038111838210176102bf57604052565b634e487b7160e01b600052604160045260246000fdfe6080604052600436101561001257600080fd5b6000803560e01c806309b0ea9e146105145780638a6e8b391461009157638e1fb2e11461003e57600080fd5b3461008a57604036600319011261008a57600435600281101561008d5760243591600483101561008a57602060ff61007e85610079866106d0565b6106ff565b54166040519015158152f35b80fd5b5080fd5b503461008a57606036600319011261008a576004356001600160401b03811161008d573660238201121561008d5780600401356100cd816106b9565b916100db6040519384610682565b8183526024602084019260051b820101903682116105105760248101925b8284106103ab5785856024356001600160401b0381116103a757366023820112156103a757806004013561012c816106b9565b9161013a6040519384610682565b8183526024602084019260051b820101903682116103a357602401915b81831061038a57505050604435906001600160401b03821161038657366023830112156103865781600401359161018d836106b9565b9261019b6040519485610682565b8084526024602085019160051b830101913683116102b057602401905b828210610376575050506101ca610c8d565b91845b84518110156102e55785935b6101e38287610771565b51518510156102db57610200856101fa8489610771565b51610771565b5161020b8386610771565b5160028110156102c75760209161022d916102268688610771565b5191610822565b606460018060a01b03600080516020610d3d8339815191525416938a6040519586948593630ccd46b160e31b8552600485015260248401528160448401525af180156102bc578790610286575b600191509401936101d9565b506020813d82116102b4575b8161029f60209383610682565b810103126102b0576001905161027a565b8680fd5b3d9150610292565b6040513d89823e3d90fd5b634e487b7160e01b89526021600452602489fd5b93506001016101cd565b7fed8d60e34876f751cc8b014c560745351147d9de11b9347c854e881b128ea600548690859082906001600160a01b0316803b1561008d578190604460405180968193631974142760e21b83528760048401523360248401525af192831561036957602093610359575b5050604051908152f35b8161036391610682565b8361034f565b50604051903d90823e3d90fd5b81358152602091820191016101b8565b8380fd5b823560028110156102b057815260209283019201610157565b8580fd5b8280fd5b83356001600160401b0381116102b0578201366043820112156102b05760248101356103d6816106b9565b916103e46040519384610682565b818352602060248185019360051b830101019036821161050c5760448101925b82841061041e5750505090825250602093840193016100f9565b83356001600160401b038111610508576024908301016040601f1982360301126105085760405190604082018281106001600160401b038211176104ec576040526020810135600481101561050457825260408101356001600160401b0381116105045760209101019136601f84011215610500578235916001600160401b0383116104ec576040518e6104bc601f8601601f191660200183610682565b848252366020868801011161008a5760208581979682809801838601378301015283820152815201930192610404565b634e487b7160e01b8e52604160045260248efd5b8c80fd5b8d80fd5b8b80fd5b8980fd5b8480fd5b503461008a57604036600319011261008a576004356001600160401b03811161008d5761054590369060040161064d565b6024929192356001600160401b0381116103a757836105698492369060040161064d565b83929192915b85831015958661064957855b610586858588610717565b905081101561063b5787610627578460051b8301356002811015610623576105ad906106d0565b6105b8868689610717565b83101561060f578260051b81013590603e198136030182121561050c57013590600482101561060b5760ff916105ed916106ff565b5416156105fc5760010161057b565b6374abd56560e11b8752600487fd5b8880fd5b634e487b7160e01b89526032600452602489fd5b8780fd5b634e487b7160e01b87526032600452602487fd5b50955060019092019161056f565b8580f35b9181601f8401121561067d578235916001600160401b03831161067d576020808501948460051b01011161067d57565b600080fd5b90601f801991011681019081106001600160401b038211176106a357604052565b634e487b7160e01b600052604160045260246000fd5b6001600160401b0381116106a35760051b60200190565b60028110156106e9576000526000602052604060002090565b634e487b7160e01b600052602160045260246000fd5b9060048110156106e957600052602052604060002090565b919081101561075b5760051b81013590601e198136030182121561067d5701908135916001600160401b03831161067d576020018260051b3603811361067d579190565b634e487b7160e01b600052603260045260246000fd5b805182101561075b5760209160051b010190565b1561079557610792610c8d565b90565b600080602060018060a01b03600080516020610d3d8339815191525416604460405180948193631ce2e8d760e31b83528160048401528160248401525af19182156108165780926107e557505090565b9091506020823d60201161080e575b8161080160209383610682565b8101031261008a57505190565b3d91506107f4565b604051903d90823e3d90fd5b919060028110156106e957806109845750815160009260048210156109705760200151602081805181010312610386576020015180151581036103865761086890610785565b906002810361090557506020919250606460018060a01b03600080516020610d3d83398151915254169360006040519586948593630ccd46b160e31b8552600485015260248401528160448401525af19081156108f9576000916108ca575090565b90506020813d6020116108f1575b816108e560209383610682565b8101031261067d575190565b3d91506108d8565b6040513d6000823e3d90fd5b60030361096157602090606460018060a01b03600080516020610d3d833981519152541693856040519586948593632c7d67b760e01b8552600485015260248401528160448401525af19182156108165780926107e557505090565b637a65611760e11b8352600483fd5b634e487b7160e01b84526021600452602484fd5b60009290600103610c7e5780519060048210156109705760200151602081519181808201938492010103126103865751600080516020610d3d83398151915254604051631ce2e8d760e31b81526004810192909252600160fb1b60248301529091906020908390604490829088906001600160a01b03165af1918215610c73578492610c3f575b5080610a975750808215610a87575b15610a75575b602090606460018060a01b03600080516020610d3d833981519152541693856040519586948593631f31e28560e11b8552600485015260248401528160448401525af19182156108165780926107e557505090565b506020610a80610ce3565b9050610a20565b9150610a91610ce3565b91610a1a565b60018103610b255750808215610b15575b15610b03575b602090606460018060a01b03600080516020610d3d833981519152541693856040519586948593639675211f60e01b8552600485015260248401528160448401525af19182156108165780926107e557505090565b506020610b0e610ce3565b9050610aae565b9150610b1f610ce3565b91610aa8565b60028103610bb35750808215610ba3575b15610b91575b602090606460018060a01b03600080516020610d3d833981519152541693856040519586948593630d7c62eb60e31b8552600485015260248401528160448401525af19182156108165780926107e557505090565b506020610b9c610ce3565b9050610b3c565b9150610bad610ce3565b91610b36565b60030361096157808215610c2f575b15610c1d575b602090606460018060a01b03600080516020610d3d833981519152541693856040519586948593631927108160e01b8552600485015260248401528160448401525af19182156108165780926107e557505090565b506020610c28610ce3565b9050610bc8565b9150610c39610ce3565b91610bc2565b9091506020813d602011610c6b575b81610c5b60209383610682565b8101031261038657519038610a0b565b3d9150610c4e565b6040513d86823e3d90fd5b63dfe27d0b60e01b8352600483fd5b600080516020610d3d83398151915254604051631ce2e8d760e31b8152600160048201526000602482018190529091602091839160449183916001600160a01b03165af19081156108f9576000916108ca575090565b600080516020610d3d83398151915254604051631ce2e8d760e31b8152600060048201819052600160fb1b60248301529091602091839160449183916001600160a01b03165af19081156108f9576000916108ca57509056feed8d60e34876f751cc8b014c560745351147d9de11b9347c854e881b128ea601a2646970667358221220369c1419dfd6e13035242606596f1a66be5dde5df5dccbb4e1827cd1637eca7d64736f6c634300081c0033","linkReferences":{}},"methodIdentifiers":{"applyFilterOnMetadata((uint8,bytes)[][],uint8[],uint256[])":"8a6e8b39","isOperationAllowed(uint8,uint8)":"8e1fb2e1","validateFilter(uint8[],(uint8,bytes)[][])":"09b0ea9e"},"id":0}